:020000040800F2
:100000004047002029020008751D0008591D0008FE
:10001000711D0008590E0008572B00080000000051
:10002000000000000000000000000000C51F0008E4
:10003000D91B0008000000003F0200084102000830
:10004000430200084302000843020008430200087C
:10005000430200084302000843020008430200086C
:10006000430200084302000843020008430200085C
:10007000430200084302000843020008430200084C
:10008000430200084302000843020008430200083C
:100090005D0E000843020008430200084302000806
:1000A000430200081D210008430200084302000823
:1000B0003921000885210008A12100084302000819
:1000C00043020008430200084302000843020008FC
:1000D000430200084302000843020008B528000854
:1000E00043020008430200084302000843020008DC
:1000F000D921000843020008430200084302000817
:100100004302000843020008BD2100084302000822
:10011000430200089124000843020008430200083B
:10012000430200084302000843020008430200089B
:10013000430200084302000843020008430200088B
:10014000430200084302000843020008430200087B
:10015000430200084302000843020008430200086B
:10016000430200084302000843020008430200085B
:10017000430200084302000843020008430200084B
:10018000430200084302000800F002F800F03CF8C7
:100190000AA090E8000C82448344AAF10107DA45E2
:1001A00001D100F031F8AFF2090EBAE80F0013F0F8
:1001B000010F18BFFB1A43F001031847C454000095
:1001C000E4540000103A24BF78C878C1FAD8520726
:1001D00024BF30C830C144BF04680C6070470000C1
:1001E0000023002400250026103A28BF78C1FBD840
:1001F000520728BF30C148BF0B6070471FB504F0DD
:100200003AFD1FBD10B510BD00F076FC1146FFF79A
:10021000F5FF03F0DFFE00F094FC03B4FFF7F2FFFC
:1002200003BC00F097FC00000948804709480047DC
:10023000FEE7FEE7FEE7FEE7FEE7FEE7FEE7FEE796
:10024000FEE7FEE704480549054A064B70470000F3
:10025000B520000889010008400100204047002027
:100260004043002040430020DFED300AB5EEC00AD5
:1002700060EE200ABDEEE01A11EE100AF1EE10FA5F
:1002800038BF401E00EE100A9FED291AB8EEC00AD2
:1002900070EEC00A20EE810ABCEEC00A10EE100A11
:1002A00000EE100A0028B8EEC00A10EE810AB8BFAE
:1002B000002004DBB0F5807FC8BF4FF480701D497B
:1002C00060EE000AB6EE001ADFED1C2A9FED1A2A36
:1002D00060EE011A60EE225A20EE813A20EE022AE8
:1002E00021EEA01A01EB800073EE655A62EE202A1F
:1002F000B7EE006A33EE003AD0EC043A76EE611ABB
:1003000071EE600A35EEE20A33EE413A32EEC21A7D
:1003100070EEA10A20EE230A64EE831A04EE200A8E
:1003200045EE011A31EE800A7047000083F9223E43
:1003300000008043D04D0008ABAA2A3EABAAAA3EDB
:10034000DFED300AB5EEC00A60EE200ABDEEE01A1D
:1003500011EE100AF1EE10FA38BF401E00EE100A3E
:100360009FED291AB8EEC00A70EEC00A20EE810A8D
:10037000BCEEC00A10EE100A00EE100A0028B8EE1B
:10038000C00A10EE810AB8BF002004DBB0F5807F00
:10039000C8BF4FF480701D4960EE000AB6EE001A27
:1003A000DFED1C2A9FED1A2A60EE011A60EE225A38
:1003B00020EE813A20EE022A21EEA01A01EB800005
:1003C00073EE655A62EE202AB7EE006A33EE003A09
:1003D000D0EC043A76EE611A71EE600A35EEE20A6C
:1003E00033EE413A32EEC21A70EEA10A20EE230A31
:1003F00064EE831A04EE200A45EE011A31EE800AFB
:100400007047000083F9223E00008043E05100085D
:10041000ABAA2A3EABAAAA3E018042804360704745
:100420002DE9F04F87B0426800924A680192B0F817
:1004300000E045889FEDFE0A00200390AE4506D1FE
:1004400008884988884204BF7146864504D007B0B1
:100450006FF00200BDE8F08F10465FEA010C1CBF90
:100460009FEDF41AF0EE400A42D000BFAEEB0C0153
:10047000B1F1004F05D300BFE0EC010A491EFBD1EA
:1004800013E0002911DD021F11F0010F1CBF121D26
:10049000C2ED000A4B1006D0C2ED010A08325B1E05
:1004A000C2ED000AF8D100EB8100ACF10101A0EC33
:1004B000011AB1F1004F04D3E0EC010A491EFBD14F
:1004C00013E0002911DD021F11F0010F1CBF121DE6
:1004D000C2ED000A4B1006D0C2ED010A08325B1EC5
:1004E000C2ED000AF8D100EB8100BCF1010CBDD1D6
:1004F0004FF0000A0295002D08BF002000F0068290
:100500004FEA5E0006900EFB05F00590401BF0EEF2
:10051000401A049000990AFB05F001EB8004019A4F
:1005200094ED000A02EB8000012621460346F0EE1E
:10053000610ABEF1000F5BD0A4EB85021EF0010F33
:1005400018D002EB850292ED001AB5EEC01AF1EE5A
:1005500010FA08DDB4EEE01AF1EE10FA0ADD00BF81
:10056000F0EE410A06E0B1EE411AF4EEC10AF1EEF6
:1005700010FAF5D3DDF818C0BCF1000F33D000BF7E
:1005800002EB850797ED001AB5EEC01AF1EE10FAEE
:1005900005DDB4EEE01AF1EE10FA09DD06E0B1EE89
:1005A000411AF4EEC10AF1EE10FA01D2F0EE410A5E
:1005B00002EBC50292ED001AB5EEC01AF1EE10FA88
:1005C00005DDB4EEE01AF1EE10FA09DD06E0B1EE59
:1005D000411AF4EEC10AF1EE10FA01D2F0EE410A2E
:1005E000BCF1010CCCD1049A01EB850C0CEB82041C
:1005F000F5EEC00AF1EE10FA00F08081B5EEC00A07
:10060000059AF1EE10FAA4EB820CD4BFB1EE401AB9
:10061000B0EE401AB4EE601AF1EE10FA5CD0AEEB18
:100620000A02571E58D005FB0AF20CEB820292ED2B
:10063000002A00BFB0EE421A05FB06F4B5EEC01A60
:1006400000EB8404F1EE10FAD8BFB1EE411AB4EE1B
:10065000601AF1EE10FA3CD1A5EB0A06B6F1004F94
:100660000BD300BF92ED000ADCED000A761EE2EC2F
:10067000010AACEC010AF5D10CE0002E0ADD00BF46
:1006800092ED000ADCED000A761EE2EC010AACEC09
:10069000010AF5D12A46B5F1004F0AD394ED000ABC
:1006A000D0ED000A521EE4EC010AA0EC010AF5D1DB
:1006B0000CE0002A0ADD00BF94ED000AD0ED000A2C
:1006C000521EE4EC010AA0EC010AF5D101200390CE
:1006D0000AE0761C7F1EADD10398012804D0B5EE48
:1006E000C00AF1EE10FA7CD0A5EB0A0091ED000AE9
:1006F0008B4699460746B0F1004F08D3D1ED000A6A
:10070000401E80EE801AA1EC011AF7D11FE00028EC
:100710001DDDABF1040110F0010F06D0F0EE400A30
:1007200080EEA01A81ED011A091D78100FD000BFCC
:10073000D1ED010A80EE801A81ED011AD1ED020A95
:1007400080EE801A81ED021A0831401EF0D1284651
:10075000B5F1004F09D300BFD3ED000A401E80EE73
:10076000801AA3EC011AF7D11FE000281DDDA9F1C2
:10077000040110F0010F06D0D1ED010A80EE801ABD
:1007800081ED011A091D68100FD000BF91ED011A0B
:10079000C1EE000AC1ED010AD1ED020A80EE801A15
:1007A00081ED021A0831401EF0D1DDE900124FF050
:1007B00000085FEA0E067CD0D04504BF01EB87013C
:1007C00002EB850258D091ED000ADC4648463B46D4
:1007D000B7F1004F0DD300BFD1ED000ABCEC011AF8
:1007E00000E08BE040EE410A5B1EE1EC010AF3D130
:1007F00033E0002F31DD0B1FABF1040C17F0010FBC
:100800000CD00CF1040CF0EE400A9CED002AB0EE86
:10081000601A00EEC21A83ED011A1B1D7C101AD05B
:10082000D3ED010A9CED011A40EE410A04E00000FC
:10083000000000000000803FC3ED010A0CF1080C2D
:1008400093ED021ADCED000A00EE601A83ED021A45
:100850000833641EE4D101EB87012B46B5F1004F4C
:100860000BD300BFF0EC010A92ED001A5B1E00EE04
:10087000601AA2EC011AF5D12FE0002B2DDDA2F1B8
:10088000040CA9F1040013F0010F0AD0001DDCEDE7
:10089000010A90ED001A40EE410ACCED010A0CF17C
:1008A000040C5C1017D000BF9CED011AD0ED010ABA
:1008B00000E019E000EE601A0830641E8CED011AA9
:1008C000DCED020A90ED001A40EE410ACCED020A7E
:1008D0000CF1080CE8D102EB850201EB8A01761ECF
:1008E00008F101087FF468AF00980AF1010A001DC1
:1008F00000900298401E02907FF40CAE03990020F5
:10090000012904BF07B0BDE8F08F00BFB5EEC00AF3
:10091000F1EE10FA08BF6FF0040007B0BDE8F08FE9
:100920002DE9F04F4468B0F8009045880888B1F888
:1009300002C0D2F804A04FF0000B854204BF138818
:10094000994507D15288944504BF9FED322A4FEA5A
:10095000950E03D06FF00200BDE8F08FD1F80400CF
:100960000AEB8B0866460027B0EE420A23465FEA90
:100970000E0224D090ED001AD3ED001A00EB8C008B
:10098000D3ED010A01EE810A90ED001A00EB8C0014
:10099000D3ED021A00EE810A90ED001A00EB8C00F4
:1009A000D3ED030A1033521E01EE810A90ED001AB6
:1009B000120400EB8C00120C00EE810ADAD115F063
:1009C00003020BD0F3EC010A90ED001A521E120440
:1009D00000EB8C0000EE810A120CF3D1781CA8EC1D
:1009E000010A87B24868721E160400EB8700360CB5
:1009F000BAD10BEB0C001FFA80FBA9F101001FFA22
:100A000080F904EB8504B9F1000FA7D10020BDE8FF
:100A1000F08F00000000000010B5203AC0F00B80FD
:100A2000B1E81850203AA0E81850B1E81850A0E8F2
:100A30001850BFF4F5AF5FEA027C24BFB1E818504C
:100A4000A0E8185044BF18C918C0BDE810405FEABC
:100A5000827C24BF51F8043B40F8043B08BF704738
:100A6000D20728BF31F8023B48BF11F8012B28BF3D
:100A700020F8023B48BF00F8012B70474FF00002FE
:100A800000B5134694469646203922BFA0E80C5084
:100A9000A0E80C50B1F12001BFF4F7AF090728BF5F
:100AA000A0E80C5048BF0CC05DF804EB890028BFDB
:100AB00040F8042B08BF704748BF20F8022B11F004
:100AC000804F18BF00F8012B704770477047704780
:100AD00010B500F009F8006810BD10B5044600F02C
:100AE00003F8046010BD000000487047DC000020DF
:100AF00000487047DC0000207546FFF7F9FFAE465E
:100B000005006946534620F00700854618B020B519
:100B1000FFF798FBBDE820404FF000064FF00007BC
:100B20004FF000084FF0000B21F00701AC46ACE895
:100B3000C009ACE8C009ACE8C009ACE8C0098D4602
:100B4000704710B50446AFF300802046BDE8104062
:100B5000FFF763BB01491820ABBEFEE72600020089
:100B600070470000F7B52DED040B2DED028BC4B0DE
:100B700005460E46174695ED000ADFEDAF0A80EEFA
:100B8000201A9FEDAE0A21EE000A8DED410A95ED87
:100B9000010A9FEDA91AC0EE010A9FEDA80A20EEF6
:100BA000800A8DED420AD5ED020A9FEDA31A80EE70
:100BB000810ADFEDA20A20EE200A8DED430A2421EE
:100BC0002AA8FFF75BFF002465E09D4800EB840046
:100BD000D0ED000AB0EE600AFFF746FBB0EE408AA7
:100BE00041A800EB8400D0ED000AB0EE600AFFF7E8
:100BF0003BFBDFED940A9FED941A41EE000A9DED58
:100C0000460A08EE600A04EB44002AA901EB8000C2
:100C100080ED000A8A4800EB8400D0ED000AB0EEB7
:100C2000600AFFF78DFBB0EE408A41A800EB84001C
:100C3000D0ED000AB0EE600AFFF716FBDFED810A87
:100C40009FED811A41EE000A9DED470A08EE600A09
:100C500004EB4400401C2AA901EB800080ED000A4F
:100C600041A800EB8400D0ED000AB0EE600AFFF767
:100C700067FBF0EE400A9DED480A9FED731A01EE06
:100C8000200A04EB4400801C2AA901EB800080EDBF
:100C9000000A601CC4B2032C97DB242121A8FFF7B3
:100CA000EDFE242118A8FFF7E9FE002448E041A842
:100CB00000EB8400D0ED000AB0EE600AFFF740FBC5
:100CC000DFED610A60EE208A5D4800EB8400D0ED24
:100CD000000AB0EE600AFFF733FBDDED470A20EEB5
:100CE000200ADFED5A0A80EE208A554800EB840086
:100CF000D0ED000AB0EE600AFFF7B6FADDED460A65
:100D000000EE808A9FED520A38EE000A28EE808AB3
:100D100041A800EB8400D0ED000AB0EE600AFFF7B6
:100D2000A3FADDED480A9FED481A60EE810A00EE55
:100D3000808A18A901EB041080ED008A601CC4B2FF
:100D4000032CB4DB24210FA8FFF798FE242241498D
:100D500006A8FFF761FE96ED000A8DED030A96EDF9
:100D6000010A8DED040A96ED020A8DED050A0020B8
:100D70000090019002900FAB0322114639A8FFF7B3
:100D80004BFB2AAB032211463FA8FFF745FB21ABE3
:100D9000032211463BA8FFF73FFB18AB0322114685
:100DA0003DA8FFF739FB06AB0322114637A8FFF732
:100DB00033FB03AB0122032135A8FFF72DFB6B4664
:100DC0000122032133A8FFF727FB3BA93DA8FFF72A
:100DD00027FB39AA3FA93BA8FFF7A2FD39AA39A9E9
:100DE00037A8FFF79DFD33AA35A939A8FFF798FD6D
:100DF00000201AE0349901EB800191ED000A07EB25
:100E0000800181ED000A07EB8001D1ED000A9FED22
:100E10000B1A80EE810ADFED080A20EE200A07EBAC
:100E2000800181ED000A411CC8B20328E2DB44B016
:100E3000BDEC028B07B0F0BD00003443DB0F49402E
:100E40007C4D0008000009430000F042000036C35A
:100E500000003442AC4D000800BFFEE71CB508237B
:100E60003D4A3E493E4800F03BFC002005E03A493F
:100E7000095C0DF80010411CC8B20828F7DB45F6E4
:100E80005001009888421AD13448006840F281210C
:100E9000884202D13349019808603048006840F226
:100EA0008221884202D12F49019848602B4800686E
:100EB00040F28321884202D12A490198886045F690
:100EC0005601009888421AD12448006840F28121D6
:100ED000884202D12449019808602048006840F205
:100EE0008221884202D12049019848601B4800684D
:100EF00040F28321884202D11B49019888601B4936
:100F0000174800F03FF81949491C154800F03AF815
:100F10001649C91C124800F035F81549104800F070
:100F200031F814490E4800F02DF813490C4800F030
:100F300029F8114908310A4800F024F80F490848F7
:100F400000F020F80E49064800F01CF80C49083162
:100F5000034800F017F81CBD0A0000201400002010
:100F600000640040780000206C0000200100F010B8
:100F70007000F0300300001208000032030000147B
:100F80000800003400220C4B994202D100238361F7
:100F900011E0C1F3130201F000730BB1C2600AE06B
:100FA00001F080630BB1026105E001F000630BB159
:100FB000826000E0426070477000F0302DE9F04F31
:100FC0008BB006460F4614461D46DDF850804FF0A4
:100FD0000009CA46CB46B5F5807F43D012DC102D00
:100FE00034D008DC012D25D0022D26D0042D27D0A9
:100FF000082D4FD127E0202D2BD0402D2CD0802D37
:1010000048D12CE0B5F5805F38D009DCB5F5007F1C
:101010002BD0B5F5806F2BD0B5F5006F3AD12AE013
:10102000B5F5005F2DD0B5F5804F2DD0B5F5004F4B
:1010300030D12CE04FF000092DE04FF001092AE0FB
:101040004FF0020927E04FF0030924E04FF00409B4
:1010500021E04FF005091EE04FF006091BE04FF0BC
:10106000070918E04FF0080915E04FF0090912E0F0
:101070004FF00A090FE04FF00B090CE04FF00C099C
:1010800009E04FF00D0906E04FF00E0903E04FF0C4
:101090000F0900E000BF00BFB8F5807F4BD01ADC1D
:1010A000B8F1100F3BD00CDCB8F1010F2BD0B8F128
:1010B000020F2BD0B8F1040F2BD0B8F1080F52D18A
:1010C0002AE0B8F1200F2DD0B8F1400F2DD0B8F1A3
:1010D000800F48D12CE0B8F5805F38D009DCB8F536
:1010E000007F2BD0B8F5806F2BD0B8F5006F3AD1C8
:1010F0002AE0B8F5005F2DD0B8F5804F2DD0B8F5B7
:10110000004F30D12CE04FF0000A2DE04FF0010AE3
:101110002AE04FF0020A27E04FF0030A24E04FF0E4
:10112000040A21E04FF0050A1EE04FF0060A1BE01A
:101130004FF0070A18E04FF0080A15E04FF0090ACF
:1011400012E04FF00A0A0FE04FF00B0A0CE04FF0EC
:101150000C0A09E04FF00D0A06E04FF00E0A03E01A
:101160004FF00F0A00E000BF00BF7F48304418B1C5
:10117000B0F5806F1AD10CE04FF0090B00208DF80C
:10118000120014208DF804000121480600F04AFEE8
:101190000DE04FF0090B0E208DF8120040208DF865
:1011A00004000121000500F03DFE00E000BF00BF8B
:1011B000C4F3090078BBA012A0F58010803809287C
:1011C00034D2DFE800F0050A0F14191E23292E007F
:1011D0000121084600F016FE29E00121022000F05E
:1011E00011FE24E00121042000F00CFE1FE001218B
:1011F000082000F007FE1AE00121102000F002FE96
:1012000015E00121202000F0FDFD10E0012140202B
:1012100000F0F8FD0BE009E00121802000F0F2FD74
:1012200005E00121080200F0EDFD00E000BF00BF75
:101230005A464946204600F06CFD5A465146204623
:1012400000F067FD45EA0800099002208DF82800AB
:101250008DF8290000208DF82A0001208DF82B0040
:1012600009A9204600F0B9FC304600F07FF80020C4
:101270008DF81E008DF81F008DF820008DF82100DC
:101280008DF822008DF823008DF81A008DF81B00D0
:101290000B208DF81C0007208DF81D007D2F22D01B
:1012A00008DC0A2F0FD0142F11D0322F13D0642F47
:1012B00029D114E0FA2F1AD0B7F5FA7F1BD0B7F571
:1012C0007A7F20D11BE0C820ADF818001CE0642014
:1012D000ADF8180018E02820ADF8180014E014202C
:1012E000ADF8180010E01020ADF818000CE0082050
:1012F000ADF8180008E00420ADF8180004E0022062
:10130000ADF8180000E000BF00BF06A9304600F0AD
:10131000D6F800208DF8130001208DF8140000206D
:10132000ADF80800ADF80A00ADF80C00ADF80E00FD
:10133000ADF8100001208DF8150002A800F032F879
:1013400000208DF8050003208DF8060001208DF89F
:10135000070001A800F010FD01220221304600F034
:10136000A5F80BB0BDE8F08F009CFFBF10B5044698
:101370000B48844209D10121480600F063FD002199
:101380004FF0007000F05EFD08E00121880600F0DB
:1013900059FD00214FF0806000F054FD10BD0000A9
:1013A0000064004010B50021837A012202FA03F1A3
:1013B0003D4A126842F001023B4B1A603A4A1C3225
:1013C00012688A43384B1C331A60027BCAB9364A0A
:1013D0000C3212688A43344B0C331A604288C3883B
:1013E00042EA0343304A4032847A42F83430028879
:1013F000838842EA03432C4A4032847A02EBC402D7
:101400005360027B012A19D1274A0C3212680A4321
:10141000254B0C331A604288038842EA0343224A70
:101420004032847A42F83430C288838842EA0343E7
:101430001D4A4032847A02EBC4025360C27A3AB940
:10144000194A121D12688A43174B1B1D1A6006E0C9
:10145000154A121D12680A43134B1B1D1A6002899C
:1014600032B9114A143212688A430F4B14331A608E
:101470000289012A06D10C4A143212680A430A4B27
:1014800014331A60427B012A06D1074A1C321268C3
:101490000A43054B1C331A60034A126822F001020A
:1014A000014B1A6010BD0000006600401AB143698C
:1014B0000B43436102E043698B434361704730B59E
:1014C000024600200023146824F00204146014680B
:1014D00044F00104146000E05B1C546804F0010453
:1014E0001CB94FF6FF74A342F6D1546804F001040E
:1014F0000CB900206CE08C79012C04D1146844F004
:101500008004146003E0146824F080041460CC7933
:10151000012C04D1146844F04004146003E0146802
:1015200024F0400414600C7A012C04D1146844F0B7
:101530002004146003E0146824F0200414604C7A42
:10154000012C04D1146844F01004146003E0146802
:1015500024F0100414608C7A012C04D1146844F037
:101560000804146003E0146824F008041460CC7AC2
:10157000012C04D1146844F00404146003E01468DE
:1015800024F0040414608C78A407CD7844EA056440
:101590000D7944EA05444D7944EA05540D886D1EE1
:1015A0002C43D461146824F001041460002300E08B
:1015B0005B1C546804F001041CB14FF6FF74A34295
:1015C000F6D1546804F001040CB1002000E00120C1
:1015D00030BD0246002019B9D36803F0030006E0CD
:1015E000012903D1136903F0030000E000207047D4
:1015F00010B500F5D87303EB01131B6803F0040367
:101600001372137A53B900F5D87303EB01131B68F7
:1016100040F2FF7404EA5353136009E000F5D873F5
:1016200003EB01131B686FF0604404EAD3035360BB
:1016300000F5D87303EB01131B6803F00203537228
:1016400000F5D87303EB01135B6803F00F0393728B
:1016500000F5D87303EB01135B681B0AD37400F524
:10166000D87303EB01139B68D37200F5D87303EBB7
:1016700001139B681C0A147300F5D87303EB011364
:101680009B681C0C547300F5D87303EB01139B6823
:101690001B0E937300F5D87303EB0113DB68D37350
:1016A00000F5D87303EB0113DB681C0A147400F512
:1016B000D87303EB0113DB681C0C547400F5D8736A
:1016C00003EB0113DB681B0E937421B9C36843F06D
:1016D0002003C36003E0036943F02003036110BDEE
:1016E0002DE9F04186B080460D4616461F4600247F
:1016F00000214046FFF76DFF18B9002006B0BDE895
:10170000F08101AA00214046FFF772FF002405E0A6
:101710000DF10F00005D3055601CC4B2BC42F7DB18
:10172000019828600120E9E771B52DED040B2DED3E
:10173000108B8DB0044600200A900B900C900790FF
:10174000089009900490059006900025DDE0FE4881
:1017500000EB8500D0ED000AB0EE600AFEF784FDD4
:10176000B0EE408AF84800EB8500D0ED000AB0EEFC
:10177000600AFEF779FDDDED1D0A9FEDF41A41EEDA
:10178000000A28EE208AF04800EB8500D0ED000A20
:10179000B0EE600AFEF7D4FDF0EE408AEA4800EBB6
:1017A0008500D0ED000AB0EE600AFEF7C9FDDDED60
:1017B0001E0A9FEDE61A41EE000A08EEA08A9FED90
:1017C000E40A28EE000A0AA800EB850080ED000A72
:1017D0009DED1F0ADFEDDF0A20EE200A07A800EBCF
:1017E000850080ED000A9FEDDC1B9FEDDD0B01F015
:1017F00097FCB0EE409AF0EE609A9FEDD71B9FEDFC
:10180000DA0B01F08DFCB0EE40BAF0EE60BA9DED5F
:101810001F0A10EE101A084603F0BCF941EC1E0B2B
:101820009FEDCD1BB0EE4E0AF0EE6E0A01F078FC93
:10183000B0EE40CAF0EE60CAC34800EB8500D0EDC0
:10184000000AB0EE600AFEF77BFDDDED1E0A9FED9B
:10185000BF1A41EE000A10EE906A304603F09AF982
:1018600041EC1F0B9FEDBC1BB0EE4F0AF0EE6F0A70
:1018700001F056FC8DED000BB34800EB8500D0ED78
:10188000000AB0EE600AFEF7EFFCDDED1D0A9FEDE9
:10189000AF1A41EE000A10EE906A304603F07AF972
:1018A00041EC1F0B9FEDAC1BB0EE4F0AF0EE6F0A40
:1018B00001F036FCB0EE40EAF0EE60EA9DED000B80
:1018C00053EC102B51EC1E0B02F006FC41EC1D0BEF
:1018D00053EC1C2B02F000FC53EC1B2BCDE9020156
:1018E0009DED020B51EC100B02F0F6FB41EC1A0BD4
:1018F00053EC192B03F064F841EC180B02F0BAFB1F
:1019000004A941F82500681CC5B2032DFFF61FAFDE
:101910000025CEE004A800EB850090ED000A0AA89F
:1019200000EB8500D0ED000A30EE600A10EE101AD0
:10193000084603F02FF941EC190BB0EE490AF0EE1E
:10194000690A01F0E1FBB0EE408AF0EE608A9FED9B
:10195000880B53EC102B51EC180B02F0E9FD25D24B
:101960000AA800EB850090ED001AB1EE411A04A818
:1019700000EB8500D0ED001A31EE611AB0EE410A9D
:1019800007A800EB850090ED001AF0EE001A21EE9A
:10199000211AF0EE410A01F08FFAF0EE000A20EE73
:1019A000200A04EB850080ED000A80E004A800EB2B
:1019B000850090ED000A10EE101A084603F0EAF8D0
:1019C00041EC190B9FED641BB0EE490AF0EE690A79
:1019D00001F0A6FBB0EE40CAF0EE60CA07A800EB2B
:1019E000850090ED000A10EE101A084603F0D2F8B8
:1019F00041EC1E0B9FED581BB0EE4E0AF0EE6E0A46
:101A000001F08EFBB0EE409AF0EE609A0AA800EB6F
:101A1000850090ED000A10EE101A084603F0BAF89F
:101A200041EC1E0B9FED4C1BB0EE4E0AF0EE6E0A21
:101A300001F076FBB0EE40AAF0EE60AA53EC192B51
:101A400051EC1A0B02F048FB41EC1D0B53EC1C2B24
:101A500002F0B6FF41EC1B0B02F00CFB00EE100A8B
:101A6000F1EEC00A07A800EB850090ED000AB1EE88
:101A7000400A30EE600AB0EE408A04A800EB850010
:101A800090ED000A0AA800EB850090ED001A30EEF8
:101A9000410AF0EE400AB0EE480A01F00DFAF0EE0D
:101AA000000A20EE200A04EB850080ED000A681C85
:101AB000C5B2032DFFF62EAF002085E004EB8001B8
:101AC000D1ED000A9FED2C1A80EE810ADFED2B0A82
:101AD00020EE200A04EB800181ED000A04EB800176
:101AE00091ED000ADFED250AB4EEE00AF1EE10FAFE
:101AF0000BDD04EB800191ED000ADFED210A30EEF1
:101B0000600A04EB800181ED000A04EB800191ED95
:101B1000000ADFED1C0AB4EEE00AF1EE10FA0BD277
:101B200004EB800191ED000ADFED150A30EE200A8A
:101B300004EB800181ED000A04EB800191ED000AC5
:101B4000DFED110A22E000007C4D0008000009C30F
:101B5000000070C30000704300000000000000405F
:101B60000000000000806B400000000000005E40AC
:101B70007B14AE47E17A843FDB0F494000003443D9
:101B80000000B443000034C39A99ED42B4EEE00A79
:101B9000F1EE10FA05DD1FED040A04EB800181ED82
:101BA000000A04EB800191ED000AF3EE0E0AB4EE98
:101BB000E00AF1EE10FA05D2B3EE0E0A04EB800152
:101BC00081ED000A411CC8B20328FFF677AF0DB0C3
:101BD000BDEC108B05B070BD7047F0B50A46002112
:101BE0000023002400BF3DE0012505FA01F315683C
:101BF00005EA03049C4234D105684F000326BE4029
:101C0000B543056015794E00B5400668354305605B
:101C10001579012D02D01579022D16D185684F0056
:101C20000326BE40B543856055794E00B5408668B1
:101C300035438560456801268E40B543456045685B
:101C400096798E40B6B235434560C5684F0003268D
:101C5000BE40B543C560D5794E00B540C668354332
:101C6000C560491C1029BFD3F0BD7CB504460D46A4
:101C70001646C4F30900002839D1A012A0F580103F
:101C80008038092833D2DFE800F0050A0F14191E46
:101C900023282D000121084600F0B4F828E0012196
:101CA000022000F0AFF823E00121042000F0AAF8A0
:101CB0001EE00121082000F0A5F819E00121102004
:101CC00000F0A0F814E00121202000F09BF80FE0C4
:101CD0000121402000F096F80AE00121802000F068
:101CE00091F805E00121080200F08CF800E000BF47
:101CF00000BF00958DF8046000208DF806008DF877
:101D0000070002208DF8050069462046FFF765FFB1
:101D10007CBDF0B5002300244D07ED0E02FA05F35B
:101D2000CE1000F1200555F826504E07F70E0F266D
:101D3000BE40B543CF1000F1200646F82750CE1024
:101D400000F1200555F8265045EA0304CE1000F1B5
:101D5000200545F82640F0BD00BFFEE710B5012282
:101D600011460248FFF781FF10BD0000001002403D
:101D700000BFFEE700BFFEE770B5002100230F2281
:101D8000C4781CB3174C246804F4E064C4F5E06420
:101D9000C4F30721C1F10404E3B20A4144789C4032
:101DA000E1B28478144021430C07210E0E4C0578D3
:101DB0006155047804F01F050124AC4005786D11CD
:101DC000AD0005F1E025C5F8004109E0047804F014
:101DD0001F050124AC40054D0678761145F82640D4
:101DE00070BD00000CED00E000E400E080E100E0E8
:101DF00002490143024A1160704700000000FA05E1
:101E00000CED00E029B1064A12680243044B1A6047
:101E100004E0034A12688243014B1A6070470000D5
:101E20003038024029B1064A12680243044B1A6056
:101E300004E0034A12688243014B1A6070470000B5
:101E40004038024029B1064A12680243044B1A6026
:101E500004E0034A12688243014B1A607047000095
:101E60002038024029B1064A12680243044B1A6026
:101E700004E0034A12688243014B1A607047000075
:101E800044380240F0B5002100220024022500263B
:101E90000223324F3F6807F00C0121B1042905D01D
:101EA000082937D105E02E4F076036E02D4F076037
:101EB00033E02A4F3F1F3F68C7F38056274F3F1F2D
:101EC0003F6807F03F036EB1264FB7FBF3F7DFF82B
:101ED0008CC0ACF1040CDCF800C0CCF3881C07FB10
:101EE0000CF40CE01E4FB7FBF3F7DFF870C0ACF159
:101EF000040CDCF800C0CCF3881C07FB0CF4174F73
:101F00003F1F3F68C7F301477F1C7D00B4FBF5F717
:101F1000076002E0124F076000BF00BF0F4F3F682D
:101F200007F0F0010909104F7A5C0768D740476055
:101F30000A4F3F6807F4E051890A0B4F7A5C476803
:101F4000D7408760054F3F6807F46041490B064F53
:101F50007A5C4768D740C760F0BD0000083802408F
:101F60000024F40000127A005A00002010B5114835
:101F7000114991ED021AD1ED010A91ED000AFFF726
:101F8000D3FB0E4A0E490B480B4B93ED021AD3EDCF
:101F9000010A93ED000AFEF7E5FD094A07490548E5
:101FA000054B93ED021AD3ED010A93ED000A00F000
:101FB000D5FD10BD1C00002028000020C40000201A
:101FC00044000020704700000CB5002001900090F4
:101FD0003448006840F480303249086000BF31481E
:101FE000006800F4003000900198401C01900098B7
:101FF00018B90198B0F5A06FF1D12A48006800F433
:10200000003010B10120009001E000200090009805
:10201000012846D123484030006840F080502149D3
:10202000403108602048006840F480401E49086044
:102030001C48083000681B490831086008460068E1
:1020400040F4004008600846006840F4A050086072
:102050001648091F0860081F006840F08070091FBB
:10206000086000BF0F48006800F000700028F9D039
:1020700040F205600E4908600A480830006820F008
:1020800003000849083108600846006840F0020073
:10209000086000BF03480830006800F00C00082802
:1020A000F8D10CBD003802400070004008544007D1
:1020B000003C024010B51548006840F47000134918
:1020C00008601348006840F00100114908600020D2
:1020D0000F49083108600E4800680E4908400C4955
:1020E00008600D48091D0860081F006820F4802062
:1020F000091F0860002006490C310860FFF764FFE3
:102100004FF0006001498039086010BD88ED00E0A3
:1021100000380240FFFFF6FE1030002410B5012108
:10212000044800F076F8012803D10121014800F0AD
:1021300061F810BD0000014010B50121880700F0D2
:1021400068F8012817D10121800700F053F80A48E8
:102150000088401C0849088008480088401C07493E
:10216000088005480088012805DB00200249088016
:1021700001200349087010BD000000200600002067
:102180000200002010B50121044800F042F80128A7
:1021900003D10121014800F02DF810BD00040040DA
:1021A00010B50121044800F034F8012803D10121C1
:1021B000014800F01FF810BD0008004010B50121D3
:1021C000044800F026F8012803D10121014800F05D
:1021D00011F810BD000C004010B50121044800F0BA
:1021E00018F8012803D10121014800F003F810BDBF
:1021F00000040140CA430282704721B1028842F0C4
:102200000102028004E002884FF6FE731A40028049
:10221000704730B50246002000230024158A05EAE5
:102220000103958905EA010413B10CB1012000E016
:10223000002030BD1AB183890B43838102E083897A
:102240008B438381704700002DE9FF4104460D4612
:1022500016461F46DDF828806949601A8C4270D006
:102260001ADC6849A4EB01008C426CD00ADCB4F1A2
:10227000804F4ED064482044002852D0B0F5806F83
:1022800071D156E0B0F5806F65D0B0F5006F6CD0BD
:10229000B0F5406FF4D170E0B0F5923F21D009DC89
:1022A000B0F5806F7AD0B0F5644F0AD0B0F5684FC2
:1022B0007CD10EE0B0F5943F1BD0B0F5963F75D1C0
:1022C0001FE001210846FFF7CDFD19208DF8000021
:1022D0006DE001210220FFF7C5FD2C208DF80000E4
:1022E00065E001210804FFF7BDFD18208DF800000E
:1022F0005DE001211920FFF7B5FD2C208DF80000CD
:1023000055E001218804FFF7ADFD1A208DF800008B
:102310004DE001210846FFF785FD1C208DF80000E7
:1023200045E001210220FFF77DFD1D208DF8000012
:102330003DE001210420FFF775FD1E208DF800000F
:1023400035E023E0FFE701210820FFF76BFD322095
:102350008DF800002BE001211020FFF763FD3620EF
:102360008DF8000023E021E0FFE701212020FFF7A6
:1023700059FD37208DF8000019E001214020FFF7BA
:1023800051FD2B208DF8000011E007E00121802095
:10239000FFF748FD2C208DF8000008E0012108021D
:1023A000FFF740FD2D208DF8000000E000BF00BFCA
:1023B0000295ADF804600020ADF80C00ADF8060001
:1023C00001A9204600F022F801212046FFF712FF64
:1023D000012211462046FFF72DFFF8B28DF80100CB
:1023E00008F0FF008DF8020001208DF80300684618
:1023F000FFF7C2FC01212046FFF7FFFEBDE8FF8189
:10240000001C0040000C004000FCFFBF00220288BE
:10241000184B98420ED0184B98420BD0B0F1804F19
:1024200008D0164B984205D0154B984202D0154B58
:10243000984204D14FF68F731A404B881A43124BBF
:10244000984207D0114B984204D04FF6FF431A40F0
:102450000B891A4302804B68C3620B880385054BC6
:10246000984202D0044B984201D18B7A0386012313
:1024700083827047000001400004014000040040D6
:1024800000080040000C0040001000400014004014
:1024900010B5002440F22551CF4800F09EFA0128E3
:1024A0007ED140F22551CC4800F07CFACA4800F0B9
:1024B0004DFBC4B2C948007810281DD2DFE800F0F7
:1024C000081D3449607990A5BCD3F0EEEDECEBEA41
:1024D000472C0ED1C2480078C0EB0010C149084417
:1024E000BE4909784454BD480078401CBB49087077
:1024F00002E00F20B949087051E1302C10DB332C79
:102500000EDCB7480078C0EB0010B6490844B34968
:1025100009784454B1480078401CB049087002E082
:102520000F20AE4908703AE1582C0ED1AC48007823
:10253000C0EB0010AB490844A84909784454A748A7
:102540000078401CA549087002E00F20A3490870DC
:1025500025E12B2C01D02D2C0ED1A1480078C0EB09
:102560000010A04908449D49097844549B480078CC
:10257000401C9A49087002E00F20984908700EE14B
:10258000302C12DB392C10DC95480078C0EB0010A1
:10259000944908449149097844549048007800E0EF
:1025A00019E1401C8D49087002E00F208B4908702A
:1025B000F5E0302C10DB392C0EDC89480078C0EBBC
:1025C00000108849084485490978445483480078B4
:1025D000401C8249087002E00F2080490870DEE04C
:1025E000592C0ED17E480078C0EB00107D4908447C
:1025F0007A490978445479480078401C7749087032
:1026000002E00F2075490870C9E02B2C01D02D2C59
:102610000ED173480078C0EB0010724908446F492E
:10262000097844546D480078401C6C49087002E0F9
:102630000F206A490870B2E0302C10DB392C0EDC18
:1026400067480078C0EB0010664908446349097880
:10265000445462480078401C6049087002E00F2032
:102660005E4908709BE0302C10DB392C0EDC5C4896
:102670000078C0EB00105B4908445849097844547D
:1026800056480078401C5549087002E00F20534915
:10269000087084E06EE063E04BE033E01BE0FFE7AE
:1026A0003B2C03D101205049087013E05A2C0ED165
:1026B0004B480078C0EB00104A4908444749097864
:1026C000445446480078401C4449087002E00F20FA
:1026D0004249087063E0302C10DB392C0EDC404896
:1026E0000078C0EB00103F4908443C490978445445
:1026F0003A480078401C3949087002E00F203749F9
:1027000008704CE0302C10DB392C0EDC344800789B
:10271000C0EB0010334908443049097844542F482D
:102720000078401C2D49087002E00F202B490870EA
:1027300035E0302C10DB392C0EDC29480078C0EB5A
:102740000010284908442549097844542348007852
:10275000401C2249087002E00F20204908701EE04A
:102760003B2C03D101202049087002E00F201B49B7
:10277000087014E000201949087000BF09E000212A
:10278000174A1278C2EB0212164B1A441154411C1C
:10279000C8B20E28F3DB00201349087000BF00BF49
:1027A00011480078012816D10C4800780A280DD16C
:1027B00000BF09E000210A4A1278C2EB0212094B5D
:1027C0001A441154411CC8B20E28F3DB00200349FF
:1027D00008700549087010BD005000401900002025
:1027E00009000020840000200800002010B588B0F7
:1027F000044604940020ADF81400ADF81600ADF8BE
:102800001800ADF81C000C20ADF81A000121FFF7EC
:10281000F9FA01210805FFF705FB08220C212248DF
:10282000FFF777FA082202212048FFF772FA00200A
:102830008DF80A0001208DF80B0002208DF80800A9
:10284000C002019002208DF8090001A91648FFF787
:10285000C4F902208DF808000420019001A9134852
:10286000FFF7BBF904A9124800F006F935208DF8EE
:102870000C0001208DF80F008DF80D008DF80E0072
:102880004FF4A060FFF7B4FA03A8FFF775FA01222E
:1028900040F22551064800F0CAF80121044800F032
:1028A00090F808B010BD000000080240000C024083
:1028B0000050004010B5002440F22551074800F0B8
:1028C0008CF8012808D140F22551044800F06AF83C
:1028D000024800F03BF9C4B210BD000000480040BF
:1028E00010B588B0044604940020ADF81400ADF88B
:1028F0001600ADF81800ADF81C000C20ADF81A0059
:1029000001210420FFF77EFA01218804FFF78AFAEB
:1029100007220A212148FFF7FCF907220B211F4853
:10292000FFF7F7F900208DF80A0001208DF80B0061
:1029300002208DF808004002019002208DF8090065
:1029400001A91648FFF749F902208DF80800800216
:10295000019001A91148FFF740F904A9104800F0BF
:102960008BF827208DF80C0001208DF80F008DF8D2
:102970000D008DF80E004FF4A060FFF739FA03A8A0
:10298000FFF7FAF9012240F22551054800F04FF80F
:102990000121034800F015F808B010BD00080240FE
:1029A0000048004010B50022002340F66A14A142FE
:1029B00000D100BF0A1201249440A3B2DC4304807A
:1029C00010BD21B1828942F40052828104E08289E3
:1029D0004DF6FF731A408281704770B5024600249D
:1029E00000230025002040F66A16B14200D100BF46
:1029F000C1F3421501F01F03012606FA03F3012D6E
:102A000002D19689334006E0022D02D1168A334066
:102A100001E0968A33400C12012606FA04F4168867
:102A2000344013B10CB1012000E0002070BDF0B5BE
:102A30000346002400260025002040F66A17B9420C
:102A400000D100BF1846C1F3421401F01F06012750
:102A500007FA06F5012C01D10C3004E0022C01D15B
:102A6000103000E014301AB107682F43076002E00D
:102A70000768AF430760F0BD2DE9FF4705460E46E6
:102A80000024A14600BFA046B08900B100BF2C8A37
:102A900024F44054F08804432C82AC8941F20C6049
:102AA0008443B08831890843718908430443AC8169
:102AB000AC8A24F44074B0890443AC826846FFF7C2
:102AC000E1F92048854202D01F48854202D1DDF855
:102AD0000C9001E0DDF80890A88900F4004040B1B6
:102AE00009EBC90000EB091031684900B0FBF1F7B0
:102AF00007E009EBC90000EB091031688900B0FB61
:102B0000F1F76420B7FBF0F004012009642101FB18
:102B10001078A88900F4004040B1322000EBC800D2
:102B2000B0FBF1F000F00700044308E0322000EBB6
:102B300008106421B0FBF1F000F00F0004432C8179
:102B4000BDE8FF870010014000140140014688885D
:102B5000C0F30800704700BFFEE70000F7B52DED99
:102B6000040B2DED028BC4B005460E46174695EDBD
:102B7000000ADFEDB30A80EE201A9FEDB20A21EEC3
:102B8000000A8DED410A95ED010A9FEDAD1AC0EEE8
:102B9000010A9FEDAC0A20EE800A8DED420A95ED08
:102BA000020ADFEDA70A80EE201A9FEDA60A21EEA9
:102BB000000A8DED430A24212AA8FDF75FFF0024B7
:102BC00065E0A14800EB8400D0ED000AB0EE600A99
:102BD000FDF74AFBB0EE408A41A800EB8400D0ED3F
:102BE000000AB0EE600AFDF73FFBF0EE400A9FEDF1
:102BF000970A9FED971A01EE200ADDED460A48EE8E
:102C0000400A04EB44002AA901EB8000C0ED000A51
:102C10008D4800EB8400D0ED000AB0EE600AFDF7AD
:102C20008FFBB0EE408A41A800EB8400D0ED000A93
:102C3000B0EE600AFDF718FBDFED840A9FED841A01
:102C400041EE000A9DED470A08EE600A04EB4400DD
:102C5000401C2AA901EB800080ED000A41A800EB8E
:102C60008400D0ED000AB0EE600AFDF769FBDDEDEF
:102C7000480A9FED771A41EE000A04EB4400801CDD
:102C80002AA901EB8000C0ED000A601CC4B2032C2D
:102C900097DB242121A8FDF7F1FE242118A8FDF7D8
:102CA000EDFE002448E041A800EB8400D0ED000ACE
:102CB000B0EE600AFDF744FBDFED650A60EE208AA6
:102CC000614800EB8400D0ED000AB0EE600AFDF729
:102CD00037FBDDED470A20EE200ADFED5E0A80EECD
:102CE000208A594800EB8400D0ED000AB0EE600A5B
:102CF000FDF7BAFADDED460A00EE808A9FED560A2E
:102D000038EE000A28EE808A41A800EB8400D0ED5E
:102D1000000AB0EE600AFDF7A7FADDED480A9FED64
:102D20004C1A60EE810A00EE808A18A901EB0410AB
:102D300080ED008A601CC4B2032CB4DB24210FA8F0
:102D4000FDF79CFE2422454906A8FDF765FE0020FC
:102D5000039004900590D6ED000A9FED391A80EE9D
:102D6000810ADFED380A20EE200A8DED000AD6ED4B
:102D7000010A9FED331A80EE810ADFED320A20EE60
:102D8000200A8DED010AD6ED020A9FED2D1A80EE84
:102D9000810ADFED2C0A20EE200A8DED020A0FAB2E
:102DA0000322114639A8FDF737FB2AAB032211464F
:102DB0003FA8FDF731FB21AB032211463DA8FDF7EB
:102DC0002BFB18AB032211463BA8FDF725FB06ABF6
:102DD0000322114637A8FDF71FFB03AB0122032195
:102DE00035A8FDF719FB6B460122032133A8FDF737
:102DF00013FB3DA93FA8FDF713FB39AA3BA93DA84A
:102E0000FDF78EFD39AA39A937A8FDF789FD35AA46
:102E100033A939A8FDF784FD00200AE0369901EBBB
:102E2000800191ED000A07EB800181ED000A411C51
:102E3000C8B20328F2DB44B0BDEC028B07B0F0BD92
:102E400000003443DB0F49407C4D0008000009437B
:102E50000000F042000036C300003442884D0008F4
:102E600003B401984100009850EAC12018BF042023
:102E70004A0D18BF40F0010040F2FF72B2EB515F03
:102E800008BF40F00200012808BF052002B07047CB
:102E90004100080218BF04200A0E18BF40F00100CC
:102EA0004FF07F4232EA010108BF40F002000128E2
:102EB00008BF05207047000010EE100A10B510EE94
:102EC000901A4FF0684202EB40032DED028BB3F1F4
:102ED000654F3CBF02EB4102B2F1654F7CD200BFAF
:102EE000C0F3C753C1F3C7529A1A1B2A09DD10F069
:102EF000004F14BF9FED6E0A9FED6E0ABDEC028B72
:102F000010BD12F11A0F1BDA11F0004F09D010F0AA
:102F1000004F0CBF9FED680A9FED680ABDEC028B65
:102F200010BD80EE208A18EE100AFFF7B1FF0428CA
:102F300008BF00F0F1FFB0EE480ABDEC028B10BDF7
:102F40004200B2EB410F37D910F0004F19BFDFED4F
:102F50005C1A9FED5C1ADFED5C1A9FED5C1AB0EE17
:102F6000602A0A46F1EE400A80F00041B0EE420AC3
:102F700010460A1A5200B2F1807F34D2484010F055
:102F8000004FDFED532A9FED533A1DBFBEEE002ADE
:102F900071EEE21A31EE431AB6EE002A04BF71EE6A
:102FA000A21A31EE031AF0EE402A42EE602A40EEF9
:102FB000020A82EEA02A18E011F0004F04BF9FED34
:102FC000461AF0EE411AD4D010F0004F1CBFDFEDCE
:102FD000431A9FED431A00E026E004BFDFED411ADB
:102FE0009FED411AC5E780EE202A22EE020ADFEDAE
:102FF0003F0ADFED3F2ABDEC028B40EE202ADFEDD9
:103000003D0A40EE220ADFED3C2A40EE202ADFEDA9
:103010003B0A40EE220A22EE000A00EE201A31EEB0
:10302000020A30EE210A10BD4FF07F42B2EB400F92
:1030300028BFB2EB410F05D2BDEC028BBDE81040BA
:1030400000F066BF40EA01035B0008BF41F0FF41AA
:103050000BD0B2EB400F08BFB2EB410F08D120F00C
:10306000804000EE100A21F0804100EE901A37E710
:10307000B2EB400F12BF5FEA410240F0FF4001F0A7
:1030800000413FF42DAF4A0092EA40033FF528AFDC
:10309000002AACBF9FED1A1A9FED1A1A20EE010A02
:1030A00060EE810A10EE100A10EE901A18E7000088
:1030B000DB0FC9BFDB0FC93FDB0F4940DB0F49C046
:1030C0000000C9BF22AAFDB90000C93F22AAFD39EC
:1030D0000060ED3EC30ACE3700000000000049C08A
:1030E00022AA7DBA0000494022AA7D3A2DAD65BDD5
:1030F0008FB8D53D0FB511BE61C84C3EA8AAAABE77
:103100000000804F0000802F2DED020B019820F071
:10311000004001909DED000B02B0704700000000E0
:103120002DE9F04D2DED040B2DED0E8B96B0DDE964
:103130002550279CDDF890A025F0004624F000489B
:10314000BAF1000F14BF0121002101EB4502FC4937
:1031500053184A1093422AD3002814BF0123002396
:1031600003EB44030B44F7498B4220D358EA000198
:103170009FEDF59B76D0DFF8D8B35D4503D1BAF16A
:10318000000F05D188E0BAF1000F08BF002100D080
:10319000012101EB450111F5001F08D8002814BFDB
:1031A0000121002101EB440111F5001F0BD99DED18
:1031B000261B9DED240B16B0BDEC0E8B04B0BDE8B4
:1031C000F04D00F069BE0027002DBCBFE1498845E5
:1031D00021DAE1498845A8BF02271CDAC3451ADC79
:1031E000DE4901EB2851142908DDC1F1340220FA2F
:1031F00002F101FA02F282420DD108E058B9C1F1A0
:10320000140228FA02F101FA02F2424503D101F058
:103210000101C1F1020756EA0A0124D1002C22DA89
:10322000002D18BF022F01D0012F0AD00220FDF778
:1032300054FC16B0BDEC0E8B04B0BDE8F04D00F0B0
:1032400013BE0220FDF749FC00F00EFE51EC100BFE
:1032500000F003FF41EC100B16B0BDEC0E8B04B078
:10326000BDE8F08D18E09FEDBEAB9FEDBF8B002851
:1032700071D1B848804522D105F1804010F5801009
:1032800008BFBAF1000F07D0B3450ADC002CA8BF75
:103290009DED260BE0DA0DE0B0EE490AF0EE690A8A
:1032A000DAE7002C06DA9DED260B51EC100B00F04E
:1032B000D4FE6FE0AE48784490ED000BCCE7D845E3
:1032C0004DD1002C48DA2EB186423AD1BAF1000F26
:1032D00042D126E0BAF1000F13D00220FDF7FDFB2A
:1032E00000F0F6FD8DED020B9DED240B8DED000B36
:1032F00010EE900A039961F31E0003909DED020BFE
:10330000AAE78DED02AB9DED240B1AEE901A10EE9C
:10331000900A8DED000B61F31E0003909DED020BF2
:103320009AE78DED028B9DED240B18EE901A10EEAE
:10333000900A8DED000B61F31E0003909DED020BD2
:103340008AE709DA9DED240B51EC190B53EC102B95
:1033500000F07EFF1EE020E09DED240B7CE786421E
:103360001BDAB4F1804F0DD0A4F10050B0F1FF5042
:1033700013D1002D11DB9DED240B51EC100B00F04F
:1033800035FE07E09DED240B53EC102B51EC100B98
:1033900000F0C2BC41EC100B5EE79DED240B51EC3C
:1033A000100B00F0C1FDBAF1000FCDE90E0142D1C2
:1033B0009FED710B46B3A6F1E040B0F17F600CD0F9
:1033C0005E4538D1002D00DAA7B3022F0CBF0120D3
:1033D0004FF0FF3001F094F8DCE7002D01DD002C08
:1033E0000DDA002D01DD002C1FDB002D16DA002C7C
:1033F00014DB012F08BF9FED620B3FF42DAFB0EE41
:103400004A0AF0EE6A0A27E7022F18BF002D0CD0F7
:10341000012F0AD1002DFFF61FAF06E0002DB8BF27
:10342000002C08DA012F3FF417AFB0EE480AF0EE97
:10343000680A11E71BE0012000EBE57050EA070184
:1034400015D0791EB0EE498AF0EE698A084308BFAC
:103450009FED4D8B4E480025804570DD4D494E480F
:10346000884514DDB0420DDB002C19DB2FE0012074
:10347000FDF733FB16B0BDEC0E8B04B0BDE8F04D8C
:1034800000F016BDB34502DC002C09DC1FE08642CB
:1034900002DA002C1BDA03E05E452BDD002C16DD82
:1034A0000220FDF71AFB00F013FD8DED020B53EC2B
:1034B0001A2B51EC180B01F077F8CDE900010399B4
:1034C000019861F31E0003909DED020BC4E60220FB
:1034D000FDF703FB00F00CFD10EE901A18EE900AB9
:1034E0008DED020B8DED008B61F31E0003909DEDC1
:1034F000020BB1E69DED0E0B53EC192B51EC100BAA
:1035000001F05EFA9FED260BCDE9080153EC102B7C
:103510009DED080B51EC100B01F046F89FED221BBE
:1035200053EC112B01F074F99DED081B53EC112B9A
:1035300001F03AF89FED1E1B53EC112B3CE08CE0A0
:10354000FFFF1F00FFFF0F00000000000000F03F22
:103550000000F03F0000F07F0000404301FCFFFF4F
:10356000000000000000F07F0000000000000000EC
:10357000BE230000000000000000000000000080EA
:10358000000000000000F0FF000000000000F0BF9D
:103590000000E0410000F043FFFFEF3F00000000AB
:1035A000000000000000D03F555555555555D53FFA
:1035B000000000000000E03F01F02AF99DED080B3B
:1035C00041EC1A0B53EC102B51EC100B00F0ECFFFC
:1035D00053EC1A2B00F0E8FF41EC1A0B9FEDFE0BA9
:1035E00053EC102B9DED080B51EC100B00F0DCFFA1
:1035F00041EC1B0B9FEDFA0B51EC1A0B53EC102B0B
:1036000000F0D2FF41EC1A0B9FEDF70B53EC102B9F
:103610009DED080B51EC100B00F0C6FF53EC1A2B7C
:1036200001F0CEF941EC1A0B51EC1B0B53EC1A2BA9
:1036300000F052FD0690CDE906519DED060B53ECCE
:103640001B2B51EC100B01F0BBF953EC1A2B01F0C2
:10365000DFF841EC100B00F0A1B90020B6F5801F97
:103660000EDA9FEDE30B53EC102B9DED0E0B51EC9E
:10367000100B00F099FFCDE90E016FF034000E46FB
:1036800000EB2650A0F2FF37C6F31300DA4940F0F2
:103690007F6646F040568842D8BF002408DDD749EF
:1036A0008142C8BF012403DC0024A6F580167F1CDC
:1036B000D348784400EBC4000F9690ED00CB9DED0D
:1036C0000E0B53EC1C2B51EC100B01F079F99DED16
:1036D0000E0B41EC1B0B53EC1C2B51EC100B00F0B0
:1036E000FBFC41EC100B51EC190B53EC102B00F0D0
:1036F000AFFD41EC1D0B51EC1B0B53EC1D2B00F0EF
:1037000053FF41EC1A0BBF488DED10AB7844109578
:1037100090ED000B4FF0005040EA660000EB844053
:103720008DED080B00F5002009909DED080B53EC82
:103730001C2B51EC100B01F043F99DED0E1B53ECCB
:10374000112B01F065F841EC100B53EC102B9DEDA3
:10375000100B51EC100B00F027FF9DED080B41EC16
:103760001C0B53EC102B9DED100B51EC100B00F0CB
:103770001BFF53EC1B2B01F04BF853EC1C2B01F0FF
:103780001FF953EC1D2B00F00FFF41EC1C0B53EC09
:103790001A2B51EC1A0B00F007FF41EC1B0B9A4857
:1037A0000621B0EE4B0AF0EE6B0A784400F0E0FA26
:1037B000B0EE401AF0EE601AB0EE41DAF0EE61DAE7
:1037C00053EC1B2B51EC1B0B00F0EEFE53EC1D2BAE
:1037D00000F0EAFE9DED100B41EC1B0B53EC1A2B95
:1037E00051EC100B00F078FC53EC1C2B00F0DCFECD
:1037F00053EC1B2B00F070FC9DED100B41EC1B0BF0
:1038000053EC102B51EC100B00F0CEFE41EC1D0BD5
:103810009FED7FEB53EC1E2B00F05EFC53EC1B2B5B
:1038200000F05AFC0890CDE908519DED080B53ECCF
:103830001E2B51EC100B01F0C3F853EC1D2B01F0C3
:10384000BFF853EC1B2B00F0E3FF9DED080B41ECA0
:103850001D0B53EC102B9DED100B51EC100B00F0D9
:10386000A3FE41EC1B0B53EC1A2B51EC1D0B00F08B
:103870009BFE9DED080B41EC1A0B53EC102B51EC09
:103880001C0B00F091FE53EC1A2B00F025FC41ECD0
:103890001A0B51EC1B0B53EC1A2B00F01DFC0C9077
:1038A000CDE90C519DED0C0B53EC1B2B51EC100B87
:1038B00001F086F853EC1A2B00F0AAFF41EC1B0B29
:1038C0009FED550B53EC102B9DED0C0B51EC100B99
:1038D00000F06AFE41EC1A0B9FED510B51EC1B0BF3
:1038E00053EC102B00F060FE41EC1B0B9FED4E0BD8
:1038F00053EC102B9DED0C0B51EC100B00F054FE13
:1039000053EC1B2B00F0E8FB41EC100B48487844CB
:1039100000EBC40090ED001B51EC100B53EC112B8D
:1039200000F0DAFB41EC1B0B384600F0E9FDCDE975
:10393000080153EC1B2B51EC1A0B00F0CDFB41ECB2
:10394000100B3C48784400EBC40090ED00CB51ECE8
:10395000100B53EC1C2B00F0BFFB9DED081B53EC30
:10396000112B00F0B9FB0690CDE906519DED080B37
:1039700053EC102B9DED060B51EC100B01F020F8D1
:1039800053EC1C2B01F01CF853EC1A2B01F018F827
:1039900053EC1B2B00F03CFF41EC100B9DED261B64
:1039A00053EC102B8DED001B00959DED260B51EC7B
:1039B000100B00F0F9FD9DED000B41EC1A0B53ECE0
:1039C000102B9DED260B51EC100B00F0F9FF9DED37
:1039D000061B53EC112B2FE0000000604715F73F4A
:1039E000FE822B654715F73F44DF5DF80BAE543E72
:1039F00000000000000040438E9803007AB60B00E0
:103A00003A1F0000681F0000721E00000000000046
:103A10000000000000000840000000E009C7EE3F81
:103A2000FD033ADC09C7EE3FF5015B14E02F3EBE13
:103A3000FE1C0000B81C000000F0B6FD53EC1A2B71
:103A400000F04AFB9DED060B41EC1A0B53EC102BDA
:103A50009DED000B51EC100B00F0A6FDCDE90C0123
:103A60009DED0C0B51EC1A0B53EC102B00F034FBBA
:103A7000CDE902010C46AA498C422FDB611A0843AA
:103A800018D19DED0C0B53EC102B9DED020B51EC5E
:103A9000100B00F095FF41EC1B0B9FEDA30B51ECBD
:103AA0001A0B53EC102B00F017FB53EC1B2B00F000
:103AB00079FE2DD20220FDF710F800F009FA10EE81
:103AC000901A18EE900A8DED020B8DED008B61F3CC
:103AD0001E0003909DED020BFFF7BEBB944A24F03D
:103AE0000041914214D39349214408437FF4EFAC41
:103AF0009DED0C0B53EC102B9DED020B51EC100BBC
:103B000000F05EFF53EC1A2B00F04CFE7FF6DFACAA
:103B100024F000408849894A002601EB2051824266
:103B20002BDA481C4FF4801121FA00F02044844A1B
:103B3000C0F30A517A44A1F2FF3192ED000B814AA1
:103B40008DED080BCA4020EA0202C0F3130040F4D6
:103B50008010C1F1140120FA01F60992002CB8BFBF
:103B600076429DED080B53EC102B9DED0C0B51ECA8
:103B7000100B00F025FFCDE90C019DED0C0B51EC75
:103B80001A0B53EC102B00F0A7FA9FED6F0B089067
:103B9000CDE9085153EC102B9DED080B51EC100BA7
:103BA00000F002FD41EC1B0B9FED690B53EC102B59
:103BB0009DED080B51EC100B00F0F6FC9DED0C0B8D
:103BC00041EC1C0B53EC102B9DED080B51EC100B32
:103BD00000F0F6FE53EC1A2B00F01AFE9FED5E1B70
:103BE00053EC112B00F0E0FC53EC1C2B00F074FAAA
:103BF00041EC1A0B51EC1B0B53EC1A2B00F06CFA36
:103C0000CDE902019DED020B53EC1B2B51EC100B87
:103C100000F0D6FE53EC1A2B00F0FAFD9DED020BDE
:103C200041EC1A0B53EC102B51EC100B00F0BCFCC8
:103C3000CDE908014A489DED080B0521784400F0C4
:103C400097F89DED081B51EC100B53EC112B00F075
:103C5000ABFC9DED021B53EC112B00F0D9FDCDE91F
:103C600006019DED020B53EC1A2B51EC100B00F0EA
:103C70009BFC53EC1A2B00F02FFA9FED3B0B41EC11
:103C80001A0B53EC102B9DED060B51EC100B00F0B2
:103C900097FE9DED060B41EC1B0B53EC102B9DED9D
:103CA000020B51EC100B00F07FFC53EC1B2B00F0CF
:103CB000CFFA53EC1A2B00F083FE9DED021B53EC60
:103CC000112B00F07DFE53EC192B00F0A1FDCDE986
:103CD000020101EB065001150029C8BF039015DC55
:103CE0009DED020B324651EC100B01F000F8FFF78E
:103CF000B7F8042808BF00F0FBF832469DED020B30
:103D000051EC100B00F0F3FFCDE902019DED020B29
:103D100051EC180B53EC102B00F046FCFFF73ABBAC
:103D20000000904000000000FE822B654715973C84
:103D300000CC904000346F3F01FCFFFF0000E03FEB
:103D4000401B0000FFFF0F0000000000432EE63F75
:103D5000396CA80C615C20BEEF39FAFE422EE63FBA
:103D6000101A0000000000000000000000000040E9
:103D700070B504462DED028B4D1E00EBC500B0EE74
:103D8000408AF0EE608A90ED000B35F0060017D007
:103D900053EC182B51EC100B00F006FC41EC100B0F
:103DA0006D1E04EBC50090ED001B51EC100B53ECA5
:103DB000112B00F091F941EC100B35F00600E7D122
:103DC000022D36D0042D1CD0062D1CBFBDEC028B5D
:103DD00070BD53EC182B51EC100B00F0E5FB94ED8B
:103DE0000A1B53EC112B00F077F953EC182B00F061
:103DF000DBFB94ED081B53EC112B00F06DF941EC4B
:103E0000100B53EC182B51EC100B00F0CDFB94ED84
:103E1000061B53EC112B00F05FF953EC182B00F04C
:103E2000C3FB94ED040B53EC102B00F055F941EC5F
:103E3000100B53EC182B51EC100B00F0B5FB94ED6C
:103E4000021B53EC112B00F047F953EC182B00F038
:103E5000ABFB94ED001B53EC112B00F03DF9BDECD6
:103E6000028B41EC100B70BD9FED070B10B553ECAE
:103E7000102B9FED070B51EC100B00F0E9F941EC12
:103E8000100B10BD0000000000000000000000004A
:103E9000000000000000F03F10B553EC112B51EC76
:103EA000100B00F019F941EC100B10BD00000000E0
:103EB0009FED050B10B553EC102B51EC100B00F0DF
:103EC000C7F941EC100B10BD00000000000000001D
:103ED0009FED050B10B553EC102B51EC100B00F0BF
:103EE00063FB41EC100B10BD0000000000000070EF
:103EF0009FED050B10B553EC102B51EC100B00F09F
:103F000053FB41EC100B10BD00000000000000103E
:103F100030EE200A704700009FED020A20EE000AF2
:103F2000704700000000001082B0CDE9000121F0D0
:103F3000004001909DED000B02B051EC100B70475A
:103F40000B4801780B48007830B10B4800880B4AC9
:103F500010800020084A10800648017031B100200E
:103F6000054A1080024A1070012070470020FCE7CB
:103F7000020000201800002006000020040000209D
:103F800008B54FF4A060FDF733FF0020034640F270
:103F9000473240F6B73100904FF08040FEF754F9B9
:103FA0004FF4E130FEF722FC4FF4E130FEF798FCCD
:103FB000FDF7D4FE4FF400704310044A4FF4FA7139
:103FC00000900348FCF7FAFF08BD0000000402401F
:103FD0000064004010B5FFF7D3FF06E001E0FDF7F5
:103FE000C5FFFFF7ADFF0028F9D1F7E700B52DEDCC
:103FF000048B83B041EC190B00F016FC41EC180B5C
:1040000018EE100A18EE901A8DED008B002818BFDC
:104010000120084320F00040C0F17F6000F1E04043
:10402000C00F14D019EE101A19EE900A8DED009BF6
:10403000002918BF0121084320F00040C0F17F6033
:1040400000F1E040C00F04BF0120FCF746FD51EC39
:10405000180B03B0BDEC048B00BD81F0004170472C
:1040600080F00040704721F00041704720F0004090
:104070007047000021F00042A2F16052B2F5801FAB
:1040800001F0004328BFD2F17F6C0BD95FEA001C1E
:1040900043EAC20242EB507018BF704728BF20F0BD
:1040A00001007047B2F5801FBCBF184670474FEA49
:1040B000410C1CF5001F02D2084600F0E1BD70B5AE
:1040C00000F01CFB00000089FFF7F6BF4FF0004036
:1040D000A0F580007047000010B591EA030F48BFBB
:1040E00083F0004300F17484841A71EB030C05D251
:1040F000121943EB0C03001B61EB0C01DFF824E108
:104100004FEA1154A4EB135C1EEA430F18BF9EEA5A
:10411000445F73D023EA0E03DCF1200E21EA045140
:1041200043F4801332D322FA0CFE10EB0E0023FA74
:104130000CFE41EB0E01CCF1200E03FA0EFE10EB4B
:104140000E0051F10001B1F5801FCCF1200E32D2EA
:1041500001EB045112FA0EF2BDE8104058BF70474F
:10416000401C38BF5FEA420218BF7047002814BFE6
:1041700020F0010041F100014FEA410313F5001F57
:1041800038BF7047A1F1C04100F006BB012A43EBE4
:104190000302ACF1200CDCF11F0E32BF4FF0000E19
:1041A00023FA0CF310EB030041EB0451B4EB115F65
:1041B000D0D0A1EB045101F5801149085FEA30002D
:1041C00001EB04510ED350F1000038BF12FA0EFE7D
:1041D00008D1BDE81040C9E7401C38BF5FEA420281
:1041E000CAD1C3E7BDE810404FEA410313F5001FF1
:1041F00038BF7047A1F1C04100F0CEBA9EEA445FDB
:1042000008D011EA5E0FBDE8104004BF01F0004184
:1042100000207047BDE8104070B500F06FFA00BF95
:1042200064FBBE3E0000E0FF02494FF0000000F0DA
:104230002CBD00BF0000F87F491058BFC1F14041BC
:104240005B1058BFC3F140438B42EFF300807047CF
:104250002DE9C04130B4DFF8A0C23CEA111418BF08
:104260003CEA131400F0EC8081EA03051CEA111407
:1042700044EAD57418BF1CEA131500F0C780A4EBFC
:1042800005044FF0004545EAC12145EAC32341EA50
:10429000505143EA525304F17F74994204F50034BB
:1042A0004FEAC0204FEAC22208BF904200F09C8033
:1042B0004FEA13650FF24016765D4FEA134506FB91
:1042C00005F7C7F1807706FB07F74FEAD737A7FB5B
:1042D00003687642C8F58038A7FB06CE38BFA8F140
:1042E000010807FB08E64FF0000EA6FB028CE6FB78
:1042F00003CEDCF1000CCEF1004E38BFAEF1010E62
:10430000A6FB0C584FF000074FF00005E6FB0E87A8
:10431000A1FB08C6A0FB07CE16EB0E0645F1000573
:10432000E1FB076515F1E04E7EBFA4F580345FEA3E
:1043300046066D4116F1800745F100054FEA172743
:104340004FEA066647EA0567A6F1DE46B6F1805FEA
:104350004FEA15251FD9384624F0010C05EBC4712E
:10436000BCF1FE6F01EB0C1102D8F0BCBDE800817E
:1043700024425CBF01F5801E9EEAC47F02D4F0BCDB
:10438000BDE80081244238D4F0BCA1F1C041BDE8B1
:10439000004100F001BA4FEAD22242EA43524FEA0A
:1043A000D323A7FB02864FEAD02040EA415007FB07
:1043B00003661EEA0E0F4FEAD12105FB026658BFC5
:1043C000A6EB0056B6EB00564FEA520E4EEAC37EFD
:1043D00018EB0E0E56EB530EBDD518EB02085E41DE
:1043E0007F1C55F10005B6E74FF480154FF000072C
:1043F0004FF000064FF00008ADE7F0BC4FF00000B2
:1044000001F1C04101F00041BDE8008111EA0C1F3B
:104410000CEA131500D00CE013EA0C1F00F0258005
:104420004FF00000F0BC81EA030101F00041BDE85B
:104430000081F0BCBDE8004181EA030100F0ACB9A5
:10444000F0BCBDE8004170B500F058F9097EFC3EB3
:1044500000F007B881EA03014FF0000001F00041CD
:10446000704781EA030100F097B9F0BCBDE8004154
:104470004FF0000021497047FFFDFBF9F7F5F4F21A
:10448000F0EEEDEBE9E8E6E4E3E1E0DEDDDBDAD8EF
:10449000D7D5D4D3D1D0CFCDCCCBCAC8C7C6C5C44D
:1044A000C2C1C0BFBEBDBCBBBAB9B8B7B6B5B4B364
:1044B000B2B1B0AFAEADACABAAA9A8A8A7A6A5A44F
:1044C000A3A3A2A1A09F9F9E9D9C9C9B9A99999813
:1044D0009797969595949393929191908F8F8E8EB6
:1044E0008D8C8C8B8B8A8989888887878685858443
:1044F00084838382828181800000FF070000F87F2F
:1045000010F0004248BF4042B0FA80F310FA03F1C5
:104510000AD0C3F11D0303F580634FEA415002EB5B
:10452000035202EBD12170474FF0000070470000AA
:1045300051EA030C17D41CF5801F58BFBCF5801F2F
:1045400000F10680994218BF704708BF904270473B
:1045500007D711F5801F58BF13F5801F19D4994252
:104560007047894270471CF5801F08D5BCF5801F35
:10457000F7D58B4218BF704708BF824270474FF48F
:10458000001C1CEB410F38BF1CEB430F01D28B42C8
:10459000704770B500F0B2F8922449004FF0005116
:1045A0004FF08053FFF748BEDFF848C170B51CEAF2
:1045B000111E1EBF1CEA13159EEA0C0F95EA0C0F84
:1045C00000F06F8081EA030423EA4C134EEAD47EA4
:1045D00021EA4C1141F4801143F48013AE44A1FB55
:1045E000024CA0FB0365AEF17F7E361955EB0C053E
:1045F000A1FB034C4CF10003A0FB021C16EB0C06C4
:10460000654153F10003094218BF46F0010613F457
:10461000007F0BD14FEA03314FEA0530340341EA02
:10462000155140EA16506FF003020AE04FEAC32129
:104630004FEAC520F40241EA555140EA56506FF066
:10464000020202EB2E4201EB025585EACE710AD03E
:104650005FEA440C18BF24F0004450F1000041F11F
:10466000000120EAD47040F2FE7C624500D270BDA9
:10467000A84214BF4FF080444FF04044002E08BFC2
:104680000024BEF1806FA8BFA1F1C041BDE8704019
:1046900080F282804FF0000001F1C04101F0004142
:1046A00070479EEA0C0F0CEA131518BF95EA0C0F21
:1046B00006D04FF0000081EA030E0EF0004170BDFD
:1046C00000F01CF88900013E00F007B800F009B8BE
:1046D0004FEA430C5FEA5C5C08D081EA030100F01A
:1046E0005BB84FEA410C5FEA5C5CF6D14FF000002A
:1046F000014970470000FF070000F87F0EF1020E2D
:104700002EF0030E5EF8046B364205D4012A43EB0B
:10471000030515F5001F12D8012841EB010C1CF50B
:10472000001F0CD80ED14FEAD17C15F5001F0CEB01
:104730004C0C0CF1020C08BF4CEBD37C04E04FF0A6
:10474000080C01E04FEAD37C0CEB4C0526FA05F689
:1047500006F00706B6F1040C06D20EEB860CBDE897
:1047600070404CF0010C6047DFE80CF0090B0202CE
:104770004FF000414FF00000A1F5002170BD194637
:104780001046012851EB010418BFD4F5001484BF72
:10479000002001F0004170BD0808A0F500114FEAAB
:1047A0003101704753EA010C17D41CF5801F58BF24
:1047B000BCF5801F00F106808B4218BF704708BF10
:1047C0008242704707D713F5801F58BF11F5801F2D
:1047D00019D48B4270479B4270471CF5801F08D547
:1047E000BCF5801FF7D5994218BF704708BF9042AB
:1047F00070474FF4001C1CEB430F38BF1CEB410FFC
:1048000001D2994270470FB40CBC03BCFFF7C1BE84
:1048100091EA030F10B581F000413FF565AC83F0DC
:10482000004300F0D5B800002DE9F04101F5801CEF
:10483000BCF5001FC0F2A9804FEA115C21EA0C51BF
:104840000CF1FD0C41F480115FEA5C0C0CF5C07CAE
:1048500001D34000494130A4890241EA90518702C6
:104860008E0E0A0CA45D04FB04F602FB06F6C6F1EC
:104870004046A4FB0662F60D46EA422606FB06F415
:10488000A4FB01235242C3F1404338BF5B1EA6FB89
:1048900002420024E6FB0324D20B42EA4446A6FB74
:1048A0000623A1FB02E2A3FB07E4E3FB61426442AF
:1048B000C2F1404E38BFAEF1010EA6FB04234FF00B
:1048C0000002E6FB0E32A2FB03463400E2FB626408
:1048D000A1FB06E6A4FB07E8E4FB61687642C8F1A9
:1048E000405838BFA8F10108A2FB06E4A3FB08E585
:1048F000E2FB6854A1FB05E6A7FB04E8E1FB648644
:1049000018F1200556F10006A809A8F11B08B10905
:1049100008F03F08B8F10A0F40EA86601CD901EBA5
:104920000C51BDE8F08100BFFCF5EEE8E2DDD8D324
:10493000CFCBC7C3C0BDB9B6B4B1AEACA9A7A5A310
:10494000A19F9D9B9A9896959392908F8D8C8B8921
:104950008887868584838281A0FB006800FB01F242
:1049600008EB4208B8EB872807D5341858EB010448
:10497000D5D5401C51F10001D1E7341A78EB010480
:10498000CDD4401E71F10001C9E75FEA4C0C5FEA2B
:104990009C5C0DD105D34FF0000001F00041BDE853
:1049A000F081BDE8F04170B5FFF7A8FE6DDBFFBEFA
:1049B000BDE8F0414FF00000004970470000F87F6B
:1049C00010B591EA030F48BF83F000433FF58CAB6D
:1049D000841A71EB030C07D212198CF0004C43EBD4
:1049E0000C03001B61EB0C01DFF8A4E14FEA11544A
:1049F000A4EB135C1EEA430F18BF9EEA445F00F06D
:104A0000B08023EA6E03524221EA0451C3EB6E03E5
:104A100038BF5B1EDCF1200E25D322FA0CFE10EB12
:104A20000E0043FA0CFE41EB0E01CCF1200E03FA0E
:104A30000EFE10EB0E0051F10001CCF1200E29D436
:104A400012FA0EF201EB0451BDE8104058BF704756
:104A5000401C1CBFB2F1004F704700280CBF491C1E
:104A600020F00100704712EB020E43EB030218BF67
:104A70004FF0010E4EEA4202ACF1200CDCF11E0EAA
:104A800054D943FA0CFE10EB0E0051F1FF31CCF17A
:104A90001E0ED5D50EF1010E12FA0EFE404141EB6D
:104AA000010101EB445C5FEA5C5C10D910EBDE7045
:104AB00001EB045138BFBEF1004FBDE8104018BFF4
:104AC000704700280CBF491C20F00100704730D20D
:104AD0004FEAD42C11F5001124F400641BD0B1FA74
:104AE00081F20B3AA41AA41ED2F12003914030FAAD
:104AF00003F31943904001EBCC71002C01EB0451FE
:104B0000BDE81040A8BF704701F1C0414FF0000060
:104B100001F000417047B0FA80F310FA03F100D1C0
:104B200010BDE41A173C4805C90AE4E701EB04513B
:104B300010BD491001EB0451BDE810404FEA3000B0
:104B400002E04FF0000170474A0008BF0042F8D071
:104B5000B2F5001F28BF704701F000414FF0000080
:104B600070479EEA445F07D011EA5E0FBDE810402F
:104B700004BF002100207047BDE8104070B5FFF76A
:104B8000BDFD00BF40DFF63E83F000411046704798
:104B90000000E0FF43004FEAD30C4FEA3C0C4340D7
:104BA0001FBF40070CF1605113F0FE4F70471CF01F
:104BB000006F03D100200CF0004170470CF000435F
:104BC00043EA507010B540EACC0000F00EF800BF88
:104BD000000000924FEA0001FFF7DEBD4FF00041F8
:104BE0004FF00000A1F5002170470EF1020E2EF0EB
:104BF000030E5EF8044B244204D44FEA4102B2F1A2
:104C00007F4F11D84FEA4003B3F17F4F0CD80ED13C
:104C10004FEAD07CB2F17F4F0CEB4C0C0CF1020C44
:104C200008BF4CEBD17C04E04FF0080C01E04FEAE8
:104C3000D17C0CEB4C0324FA03F404F00704B4F128
:104C4000040C06D20EEB840CBDE810404CF0010CB5
:104C50006047DFE80CF0070802024FF00040A0F5C3
:104C6000800010BD0846420018BFD2F1807288BF94
:104C700000F0004010BD4FF04070E1EE100A7047A8
:104C8000FF2141EAD050C00570470CF00F03092BFB
:104C900008BF082000F059800A2B0BD0082B18BF42
:104CA000704708BF1CF0400F0AD04FF000004FF0D3
:104CB000000170471CF0400F18BF4FF000407047D4
:104CC0001CF0100F08D020F0704300F07F4242EA41
:104CD000D3014FEA4370704700F0604021F07F42FB
:104CE00042EA000201F07F4040EA727070474FF0E4
:104CF000FF0C4CF4E06C1CEA11531CBF9CEA030C43
:104D00009445C2BFDA4201EB02517047002B0DD02F
:104D1000BCF1000F0FD0002A01F00041A4BF41F008
:104D2000E04141F07F614FF00000704701F0004129
:104D30004FF00000704750EA01334FF09B0C18BF52
:104D40004CF0806C7FF470AA70471CF4801F11D067
:104D50001CF4E02F03D06FEACC31490070474FF0CC
:104D60004050EFF3008222F0704242EA000282F3E8
:104D7000008870474FF000007047000000000000FE
:104D8000920A0640920A8640000080BF00000000A0
:104D90000000000000000000000080BF00000000D4
:104DA0000000000000000000000080BF000080BF85
:104DB000000000000000000000000000000080BFB4
:104DC000000000000000000000000000000080BFA4
:104DD00043EC7F3F0000803F43EC7F3F0FB17F3FBC
:104DE0006D4E7F3F6DC47E3F24137E3FAC3A7D3FC6
:104DF000283B7C3FBE147B3F9DC7793FF853783FEB
:104E000007BA763F0BFA743F4714733F0809713FA6
:104E10009ED86E3F5E836C3FA7096A3FD86B673FA1
:104E200059AA643F98C5613F05BE5E3F1A945B3F37
:104E30005348583F31DB543F3D4D513F029F4D3F5A
:104E400012D1493F03E4453F70D8413FF9AE3D3FA1
:104E50004268393FF304353FBB85303F4AEB2B3F77
:104E60005636273F9967223FD17F1D3FC07F183FAD
:104E70002A68133FDA390E3F9BF5083F3D9C033FFC
:104E8000275DFC3EEA5AF13E7533E63E80E8DA3EA5
:104E9000CA7BCF3E15EFC33E2A44B83ED47CAC3E1D
:104EA000E59AA03E31A0943E938E883ECCCF783ECA
:104EB000135C603EC2C5473EA2102F3E8340163EA3
:104EC00073B2FA3D36BDC83D05A9963D30FB483D5D
:104ED000B00AC93C0BA88C24B00AC9BC30FB48BD41
:104EE00005A996BD36BDC8BD73B2FABD834016BED6
:104EF000A2102FBEC2C547BE135C60BECCCF78BE29
:104F0000938E88BE31A094BEE59AA0BED47CACBE80
:104F10002A44B8BE15EFC3BECA7BCFBE80E8DABE56
:104F20007533E6BEEA5AF1BE275DFCBE3D9C03BF69
:104F30009BF508BFDA390EBF2A6813BFC07F18BFC0
:104F4000D17F1DBF996722BF563627BF4AEB2BBFC3
:104F5000BB8530BFF30435BF426839BFF9AE3DBFF2
:104F600070D841BF03E445BF12D149BF029F4DBF76
:104F70003D4D51BF31DB54BF534858BF1A945BBFFE
:104F800005BE5EBF98C561BF59AA64BFD86B67BF35
:104F9000A7096ABF5E836CBF9ED86EBF080971BF48
:104FA000471473BF0BFA74BF07BA76BFF85378BFC4
:104FB0009DC779BFBE147BBF283B7CBFAC3A7DBF89
:104FC00024137EBF6DC47EBF6D4E7FBF0FB17FBF08
:104FD00043EC7FBF000080BF43EC7FBF0FB17FBFBA
:104FE0006D4E7FBF6DC47EBF24137EBFAC3A7DBFC4
:104FF000283B7CBFBE147BBF9DC779BFF85378BFE9
:1050000007BA76BF0BFA74BF471473BF080971BFA4
:105010009ED86EBF5E836CBFA7096ABFD86B67BF9F
:1050200059AA64BF98C561BF05BE5EBF1A945BBF35
:10503000534858BF31DB54BF3D4D51BF029F4DBF58
:1050400012D149BF03E445BF70D841BFF9AE3DBF9F
:10505000426839BFF30435BFBB8530BF4AEB2BBF75
:10506000563627BF996722BFD17F1DBFC07F18BFAB
:105070002A6813BFDA390EBF9BF508BF3D9C03BFFA
:10508000275DFCBEEA5AF1BE7533E6BE80E8DABEA3
:10509000CA7BCFBE15EFC3BE2A44B8BED47CACBE1B
:1050A000E59AA0BE31A094BE938E88BECCCF78BEC8
:1050B000135C60BEC2C547BEA2102FBE834016BEA1
:1050C00073B2FABD36BDC8BD05A996BD30FB48BD5B
:1050D000B00AC9BC372354A5B00AC93C30FB483DCF
:1050E00005A9963D36BDC83D73B2FA3D8340163ED4
:1050F000A2102F3EC2C5473E135C603ECCCF783E27
:10510000938E883E31A0943EE59AA03ED47CAC3E7E
:105110002A44B83E15EFC33ECA7BCF3E80E8DA3E54
:105120007533E63EEA5AF13E275DFC3E3D9C033F67
:105130009BF5083FDA390E3F2A68133FC07F183FBE
:10514000D17F1D3F9967223F5636273F4AEB2B3FC1
:10515000BB85303FF304353F4268393FF9AE3D3FF0
:1051600070D8413F03E4453F12D1493F029F4D3F74
:105170003D4D513F31DB543F5348583F1A945B3FFC
:1051800005BE5E3F98C5613F59AA643FD86B673F33
:10519000A7096A3F5E836C3F9ED86E3F0809713F46
:1051A0004714733F0BFA743F07BA763FF853783FC2
:1051B0009DC7793FBE147B3F283B7C3FAC3A7D3F87
:1051C00024137E3F6DC47E3F6D4E7F3F0FB17F3F06
:1051D00043EC7F3F0000803F43EC7F3F0FB17F3FB8
:1051E000B00AC9BC00000000B00AC93C30FB483D11
:1051F00005A9963D36BDC83D73B2FA3D8340163EC3
:10520000A2102F3EC2C5473E135C603ECCCF783E15
:10521000938E883E31A0943EE59AA03ED47CAC3E6D
:105220002A44B83E15EFC33ECA7BCF3E80E8DA3E43
:105230007533E63EEA5AF13E275DFC3E3D9C033F56
:105240009BF5083FDA390E3F2A68133FC07F183FAD
:10525000D17F1D3F9967223F5636273F4AEB2B3FB0
:10526000BB85303FF304353F4268393FF9AE3D3FDF
:1052700070D8413F03E4453F12D1493F029F4D3F63
:105280003D4D513F31DB543F5348583F1A945B3FEB
:1052900005BE5E3F98C5613F59AA643FD86B673F22
:1052A000A7096A3F5E836C3F9ED86E3F0809713F35
:1052B0004714733F0BFA743F07BA763FF853783FB1
:1052C0009DC7793FBE147B3F283B7C3FAC3A7D3F76
:1052D00024137E3F6DC47E3F6D4E7F3F0FB17F3FF5
:1052E00043EC7F3F0000803F43EC7F3F0FB17F3FA7
:1052F0006D4E7F3F6DC47E3F24137E3FAC3A7D3FB1
:10530000283B7C3FBE147B3F9DC7793FF853783FD5
:1053100007BA763F0BFA743F4714733F0809713F91
:105320009ED86E3F5E836C3FA7096A3FD86B673F8C
:1053300059AA643F98C5613F05BE5E3F1A945B3F22
:105340005348583F31DB543F3D4D513F029F4D3F45
:1053500012D1493F03E4453F70D8413FF9AE3D3F8C
:105360004268393FF304353FBB85303F4AEB2B3F62
:105370005636273F9967223FD17F1D3FC07F183F98
:105380002A68133FDA390E3F9BF5083F3D9C033FE7
:10539000275DFC3EEA5AF13E7533E63E80E8DA3E90
:1053A000CA7BCF3E15EFC33E2A44B83ED47CAC3E08
:1053B000E59AA03E31A0943E938E883ECCCF783EB5
:1053C000135C603EC2C5473EA2102F3E8340163E8E
:1053D00073B2FA3D36BDC83D05A9963D30FB483D48
:1053E000B00AC93C0BA80C25B00AC9BC30FB48BDAB
:1053F00005A996BD36BDC8BD73B2FABD834016BEC1
:10540000A2102FBEC2C547BE135C60BECCCF78BE13
:10541000938E88BE31A094BEE59AA0BED47CACBE6B
:105420002A44B8BE15EFC3BECA7BCFBE80E8DABE41
:105430007533E6BEEA5AF1BE275DFCBE3D9C03BF54
:105440009BF508BFDA390EBF2A6813BFC07F18BFAB
:10545000D17F1DBF996722BF563627BF4AEB2BBFAE
:10546000BB8530BFF30435BF426839BFF9AE3DBFDD
:1054700070D841BF03E445BF12D149BF029F4DBF61
:105480003D4D51BF31DB54BF534858BF1A945BBFE9
:1054900005BE5EBF98C561BF59AA64BFD86B67BF20
:1054A000A7096ABF5E836CBF9ED86EBF080971BF33
:1054B000471473BF0BFA74BF07BA76BFF85378BFAF
:1054C0009DC779BFBE147BBF283B7CBFAC3A7DBF74
:1054D00024137EBF6DC47EBF6D4E7FBF0FB17FBFF3
:1054E00043EC7FBF000080BF43EC7FBF0FB17FBFA5
:1054F0006D4E7FBF6DC47EBF24137EBFAC3A7DBFAF
:10550000283B7CBFBE147BBF9DC779BFF85378BFD3
:1055100007BA76BF0BFA74BF471473BF080971BF8F
:105520009ED86EBF5E836CBFA7096ABFD86B67BF8A
:1055300059AA64BF98C561BF05BE5EBF1A945BBF20
:10554000534858BF31DB54BF3D4D51BF029F4DBF43
:1055500012D149BF03E445BF70D841BFF9AE3DBF8A
:10556000426839BFF30435BFBB8530BF4AEB2BBF60
:10557000563627BF996722BFD17F1DBFC07F18BF96
:105580002A6813BFDA390EBF9BF508BF3D9C03BFE5
:10559000275DFCBEEA5AF1BE7533E6BE80E8DABE8E
:1055A000CA7BCFBE15EFC3BE2A44B8BED47CACBE06
:1055B000E59AA0BE31A094BE938E88BECCCF78BEB3
:1055C000135C60BEC2C547BEA2102FBE834016BE8C
:1055D00073B2FABD36BDC8BD05A996BD30FB48BD46
:1055E000B00AC9BC9E3B8DA5B00AC93C00000000B2
:1055F000000000000000F03F000000000000F83F45
:1056000000000000000000000000004003B8E23F7E
:10561000000000000000000006D0CF43EBFD4C3E30
:10562000033333333333E33FFFAB6FDBB66DDB3F25
:105630004D268F515555D53F01411DA96074D13F6D
:1056400065DBC9934A86CD3FEF4E454A287ECA3F67
:105650003E5555555555C53F93BDBE166CC166BFE9
:105660002CDE25AF6A56113FF16BD2C541BDBBBEE2
:10567000D0A4BE726937663E000000000000000042
:10568000A0560008000000206C000000C4010008C3
:105690000C5700086C000020D4460000E001000810
:1056A00000000000000000000000000000000000FA
:1056B00000000000000000000000000000008C421C
:1056C00000008C4200008C4200000000000000003E
:1056D00000000DC3000000000000000000007AC3BD
:1056E000000000000000204200000C420000604169
:1056F00000000000000000000000000000000102A7
:0C5700000304010203040607080900006E
:040000050800018965
:00000001FF
