:020000040800F2
:10000000384D0020690200084D220008FD2000083C
:10001000492200086D0C0008E934000800000000C7
:10002000000000000000000000000000852A000819
:10003000851C0008000000007F0200088102000803
:10004000830200088302000883020008830200087C
:10005000830200088302000883020008830200086C
:10006000830200088302000883020008830200085C
:10007000830200088302000883020008830200084C
:10008000830200088302000883020008830200083C
:10009000710C000883020008830200088302000834
:1000A00083020008DD2B0008830200088302000899
:1000B000F92B0008452C0008612C00088302000879
:1000C00083020008830200088302000883020008FC
:1000D00083020008830200088302000883020008EC
:1000E00083020008830200088302000883020008DC
:1000F000992C00088302000883020008830200088C
:1001000083020008830200087D2C00088302000897
:1001100083020008512F00088302000883020008B0
:10012000830200088302000883020008830200089B
:10013000830200088302000883020008830200088B
:10014000830200088302000883020008830200087B
:10015000830200088302000883020008830200086B
:10016000830200088302000883020008830200085B
:10017000830200088302000883020008830200084B
:10018000830200088302000800F002F800F05CF827
:100190000AA090E8000C82448344AAF10107DA45E2
:1001A00001D100F051F8AFF2090EBAE80F0013F0D8
:1001B000010F18BFFB1A43F001031847945F0000BA
:1001C000B45F00000A444FF0000C10F8013B13F03C
:1001D000070408BF10F8014B1D1108BF10F8015BA0
:1001E000641E05D010F8016B641E01F8016BF9D193
:1001F00013F0080F1EBF10F8014BAD1C0C1B09D1EA
:100200006D1E58BF01F801CBFAD505E014F8016B5B
:1002100001F8016B6D1EF9D59142D6D370470000ED
:100220000023002400250026103A28BF78C1FBD8FF
:10023000520728BF30C148BF0B6070471FB505F09B
:100240000AFA1FBD10B510BD00F076F91146FFF790
:10025000F5FF04F03FFB00F094F903B4FFF7F2FF61
:1002600003BC00F097F9000009488047094800479F
:10027000FEE7FEE7FEE7FEE7FEE7FEE7FEE7FEE756
:10028000FEE7FEE704480549054A064B70470000B3
:10029000752B00088901000838070020384D002020
:1002A0003849002038490020DFED300AB5EEC00A99
:1002B00060EE200ABDEEE01A11EE100AF1EE10FA1F
:1002C00038BF401E00EE100A9FED291AB8EEC00A92
:1002D00070EEC00A20EE810ABCEEC00A10EE100AD1
:1002E00000EE100A0028B8EEC00A10EE810AB8BF6E
:1002F000002004DBB0F5807FC8BF4FF480701D493B
:1003000060EE000AB6EE001ADFED1C2A9FED1A2AF5
:1003100060EE011A60EE225A20EE813A20EE022AA7
:1003200021EEA01A01EB800073EE655A62EE202ADE
:10033000B7EE006A33EE003AD0EC043A76EE611A7A
:1003400071EE600A35EEE20A33EE413A32EEC21A3D
:1003500070EEA10A20EE230A64EE831A04EE200A4E
:1003600045EE011A31EE800A7047000083F9223E03
:1003700000008043A4580008ABAA2A3EABAAAA3EBC
:10038000DFED300AB5EEC00A60EE200ABDEEE01ADD
:1003900011EE100AF1EE10FA38BF401E00EE100AFE
:1003A0009FED291AB8EEC00A70EEC00A20EE810A4D
:1003B000BCEEC00A10EE100A00EE100A0028B8EEDB
:1003C000C00A10EE810AB8BF002004DBB0F5807FC0
:1003D000C8BF4FF480701D4960EE000AB6EE001AE7
:1003E000DFED1C2A9FED1A2A60EE011A60EE225AF8
:1003F00020EE813A20EE022A21EEA01A01EB8000C5
:1004000073EE655A62EE202AB7EE006A33EE003AC8
:10041000D0EC043A76EE611A71EE600A35EEE20A2B
:1004200033EE413A32EEC21A70EEA10A20EE230AF0
:1004300064EE831A04EE200A45EE011A31EE800ABA
:100440007047000083F9223E00008043B45C00083E
:10045000ABAA2A3EABAAAA3E10B5203AC0F00B8048
:10046000B1E81850203AA0E81850B1E81850A0E8B8
:100470001850BFF4F5AF5FEA027C24BFB1E8185012
:10048000A0E8185044BF18C918C0BDE810405FEA82
:10049000827C24BF51F8043B40F8043B08BF7047FE
:1004A000D20728BF31F8023B48BF11F8012B28BF03
:1004B00020F8023B48BF00F8012B70474FF00002C4
:1004C00000B5134694469646203922BFA0E80C504A
:1004D000A0E80C50B1F12001BFF4F7AF090728BF25
:1004E000A0E80C5048BF0CC05DF804EB890028BFA1
:1004F00040F8042B08BF704748BF20F8022B11F0CA
:10050000804F18BF00F8012B704770477047704745
:1005100010B500F009F8006810BD10B5044600F0F1
:1005200003F8046010BD000000487047D4060020A6
:1005300000487047D40600207546FFF7F9FFAE4625
:1005400005006946534620F00700854618B020B5DF
:10055000FFF798FEBDE820404FF000064FF000077F
:100560004FF000084FF0000B21F00701AC46ACE85B
:10057000C009ACE8C009ACE8C009ACE8C0098D46C8
:10058000704710B50446AFF300802046BDE8104028
:10059000FFF763BE01491820ABBEFEE7260002004C
:1005A000704700002DE9F0412DED068BD2B00546D5
:1005B0000E46174618214CA8FFF780FF00204990EF
:1005C0004A904B9049A9284601F0C8F89DED490A88
:1005D000DFEDDB0A80EE201A11EE104A204604F00F
:1005E000C9FF41EC180B9FEDD70B53EC102B04F017
:1005F000CBFC439142909DED4A0ADFEDD10A80EE9B
:10060000201A11EE104A204604F0B4FF41EC180BFA
:100610009FEDCC0B53EC102B04F0B6FC45914490AD
:100620009DED4B0ADFEDC60A80EE201A11EE104A4E
:10063000204604F09FFF41EC180B9FEDC20B53ECDA
:10064000102B04F0A1FC47914690482130A8FFF7F9
:1006500035FF002491E0BD4800EB8400D0ED000A96
:10066000B0EE600AFFF720FEF0EE408A42A800EBF1
:10067000C40090ED001BB0EE410AF0EE610A51ECAF
:10068000100B04F0B9F908EE100AB0EE480AFFF7B3
:100690000BFEF0EE400A9FEDAE0A9FEDAE1A01EEA2
:1006A000200AD5ED000A48EEC00A10EE908A4046B6
:1006B00004F060FF04EB440230AB03EBC20203C260
:1006C000A24800EB8400D0ED000AB0EE600AFFF70C
:1006D00057FEF0EE408A42A800EBC40090ED001BEC
:1006E000B0EE410AF0EE610A51EC100B04F084F90F
:1006F00008EE100AB0EE480AFFF7D6FDF0EE400A09
:100700009FED930A9FED931A01EE200AD5ED010AA1
:1007100048EEC00A10EE908A404604F02BFF04EB2E
:100720004402521C30AB03EBC20203C242A800EBEE
:10073000C40090ED001BB0EE410AF0EE610A51ECEE
:10074000100B04F059F908EE100AB0EE480AFFF752
:1007500017FED5ED020A9FED7F1A41EE000A10EE5A
:10076000908A404604F006FF04EB4402921C30AB32
:1007700003EBC20203C2601CC4B2032CFFF66BAFD2
:1007800048211EA8FFF79AFE002460E042A800EB73
:10079000C40090ED001BB0EE410AF0EE610A51EC8E
:1007A000100B04F029F908EE100AB0EE480AFFF722
:1007B000E7FDDFED680A60EE208A644800EB840004
:1007C000D0ED000AB0EE600AFFF76EFDD5ED000A2D
:1007D00020EE208A5D4800EB8400D0ED000AB0EEE8
:1007E000600AFFF7CDFDD5ED010A00EE808A9FED8E
:1007F0005A0A38EE400ADFED590A30EE200A68EE58
:10080000808A42A800EBC40090ED001BB0EE410AC4
:10081000F0EE610A51EC100B04F0EEF808EE100A4D
:10082000B0EE480AFFF740FDD5ED020A9FED491AE8
:1008300060EE810A40EE808A18EE908A404604F00D
:1008400099FE1EAB03EB441203C2601CC4B2032C1E
:100850009CDB48210CA8FFF731FE96ED000B8DEDD7
:10086000060B96ED020B8DED080B96ED040B8DED4E
:100870000A0B18216846FFF721FE1EA801F09EF919
:100880000CAA30A91EA801F0B9F96A4606A90CA85D
:1008900004F063F800241EE0684600EBC40090ED0D
:1008A000001BB0EE410AF0EE610A9FED2D1B53ECE8
:1008B000112B51EC100B04F08DF941EC180B9FED4E
:1008C0002A0B53EC102B04F05FFB4CAA02EBC40282
:1008D00003C2601CC4B2032CDEDB002428E04CA859
:1008E00000EBC40090ED001BB0EE410AF0EE610A8F
:1008F0009FED1F1B53EC112B51EC100B04F044FB2C
:1009000041EC1A0B9FED1C0B53EC102B04F062F919
:1009100041EC190B9FED1A0B53EC102B04F09EF8D1
:1009200041EC180B04F0AEFA47F82400601CC4B286
:10093000032CD4DB52B0BDEC068BBDE8F081000087
:10094000000034434AD8124DFB2109407458000876
:1009500000000943000046430000364300003442D3
:1009600000000060FB21094000000000008066409C
:100970000000000000009B40000000000080764066
:10098000000000000000E03F70B52DED108B9AB024
:1009900006460C46242111A8FFF790FD11A9304608
:1009A00001F0B8FB9FEDAA0AB0EE408A9FEDA80ABD
:1009B0008DED100A00200D900E900F900A900B9074
:1009C0000C90079008900990049005900690019073
:1009D000029003909FED9E0AF0EE408A9FED9C0AE4
:1009E000B0EE409A9FED9A0AF0EE409A9FED980A79
:1009F00010EE105A9FED960AB0EE40EA9FED940A71
:100A0000F0EE40EA0DAA14A911A802F09AFD0AAA74
:100A100017A914A802F095FD07AA11A917A802F0BA
:100A200090FD9DED0D0A20EE000ADDED0E0A9DED14
:100A30000E1A00EE810ADDED0F0A9DED0F1A00EE91
:100A4000810AF1EEC00AF0EE608A9DED0A0A20EEFE
:100A5000000ADDED0B0A9DED0B1A00EE810ADDEDBB
:100A60000C0A9DED0C1A00EE810AF1EEC00AB0EE00
:100A7000609A9DED070A20EE000ADDED080A9DED63
:100A8000081A00EE810ADDED090A9DED091A00EE53
:100A9000810AF1EEC00AF0EE609A38EE890A30EE73
:100AA000290AF0EE000A80EE201AB0EE418A38EEF4
:100AB000680A20EE080A78EE490A20EE200A78EE4D
:100AC000690A60EE200AB1EEE00A8DED100A28EE08
:100AD000890A20EE290AB1EE001AC0EE010A9DED46
:100AE000100A80EE801A11EE105A18EE900A04F0E7
:100AF00041FD41EC1B0B9FED571BB0EE4B0AF0EE96
:100B00006B0A02F061FFB0EE40AAF0EE60AA9FED22
:100B1000530B53EC102B51EC1A0B04F05BF841EC27
:100B20001C0B284604F026FD41EC1A0B9FED491BD7
:100B3000B0EE4A0AF0EE6A0A02F046FFB0EE40DA82
:100B4000F0EE60DA53EC1C2B51EC1D0B04F028FC8A
:100B500041EC1F0B03F050FF00EE100AF1EEC00A4B
:100B6000B0EE60EA284604F005FD41EC1D0B9FED58
:100B7000391BB0EE4D0AF0EE6D0A02F025FFB0EE23
:100B800040BAF0EE60BA9FED331B9FED360B02F0DA
:100B90001BFFB0EE40CAF0EE60CA53EC1B2B51ECC9
:100BA0001C0B04F0FDFB41EC1A0B03F025FF00EEDB
:100BB000100AF1EEC00AF0EE60EA04AB0DAA07A934
:100BC0000AA802F04DFC01AA0AA90DA802F00EFC29
:100BD0009DED110ADDED140A30EE200AF6EE000A52
:100BE00020EE200ADDED040A0EEE200ADDED010AFA
:100BF00000EEEE0A84ED000A9DED120ADDED150A05
:100C000030EE200AF6EE000A20EE200ADDED050A9D
:100C10000EEE200ADDED020A00EEEE0A84ED010A76
:100C20009DED130ADDED160A30EE200AF6EE000AFD
:100C300020EE200ADDED060A0EEE200ADDED030AA5
:100C400000EEEE0A84ED020A1AB0BDEC108B70BD06
:100C50000000000000000000000000400000000054
:100C600000001040000000000020764000BFFEE7BA
:100C70001CB508233D4A3E493E4800F03BFC00209D
:100C800005E03A49095C0DF80010411CC8B208287B
:100C9000F7DB45F65001009888421AD134480068C5
:100CA00040F28121884202D13349019808603048DE
:100CB000006840F28221884202D12F4901984860A1
:100CC0002B48006840F28321884202D12A490198CA
:100CD000886045F65601009888421AD12448006879
:100CE00040F28121884202D12449019808602048BD
:100CF000006840F28221884202D120490198486070
:100D00001B48006840F28321884202D11B490198A8
:100D100088601B49174800F03FF81949491C1548DD
:100D200000F03AF81649C91C124800F035F8154988
:100D3000104800F031F814490E4800F02DF813491E
:100D40000C4800F029F8114908310A4800F024F84D
:100D50000F49084800F020F80E49064800F01CF83A
:100D60000C490831034800F017F81CBD08000020AA
:100D70001000002000640040480600203C060020CF
:100D80000100F0107000F030030000120800003283
:100D9000030000140800003400220C4B994202D1D9
:100DA0000023836111E0C1F3130201F000730BB162
:100DB000C2600AE001F080630BB1026105E001F05E
:100DC00000630BB1826000E0426070477000F03059
:100DD0002DE9F04F8BB006460F4614461D46DDF850
:100DE00050804FF00009CA46CB46B5F5807F43D00E
:100DF00012DC102D34D008DC012D25D0022D26D098
:100E0000042D27D0082D4FD127E0202D2BD0402DA9
:100E10002CD0802D48D12CE0B5F5805F38D009DC8E
:100E2000B5F5007F2BD0B5F5806F2BD0B5F5006FF1
:100E30003AD12AE0B5F5005F2DD0B5F5804F2DD021
:100E4000B5F5004F30D12CE04FF000092DE04FF008
:100E500001092AE04FF0020927E04FF0030924E0DE
:100E60004FF0040921E04FF005091EE04FF006099C
:100E70001BE04FF0070918E04FF0080915E04FF0AC
:100E8000090912E04FF00A090FE04FF00B090CE0DE
:100E90004FF00C0909E04FF00D0906E04FF00E0984
:100EA00003E04FF00F0900E000BF00BFB8F5807FFE
:100EB0004BD01ADCB8F1100F3BD00CDCB8F1010FAD
:100EC0002BD0B8F1020F2BD0B8F1040F2BD0B8F112
:100ED000080F52D12AE0B8F1200F2DD0B8F1400F01
:100EE0002DD0B8F1800F48D12CE0B8F5805F38D014
:100EF00009DCB8F5007F2BD0B8F5806F2BD0B8F5A2
:100F0000006F3AD12AE0B8F5005F2DD0B8F5804FD8
:100F10002DD0B8F5004F30D12CE04FF0000A2DE075
:100F20004FF0010A2AE04FF0020A27E04FF0030ACF
:100F300024E04FF0040A21E04FF0050A1EE04FF0D4
:100F4000060A1BE04FF0070A18E04FF0080A15E008
:100F50004FF0090A12E04FF00A0A0FE04FF00B0AB7
:100F60000CE04FF00C0A09E04FF00D0A06E04FF0DC
:100F70000E0A03E04FF00F0A00E000BF00BF7F48F9
:100F8000304418B1B0F5806F1AD10CE04FF0090B66
:100F900000208DF8120014208DF80400012148066D
:100FA00001F04AFA0DE04FF0090B0E208DF8120007
:100FB00040208DF804000121000501F03DFA00E019
:100FC00000BF00BFC4F3090078BBA012A0F58010D9
:100FD0008038092834D2DFE800F0050A0F14191E02
:100FE00023292E000121084601F016FA29E00121EB
:100FF000022001F011FA24E00121042001F00CFA92
:101000001FE00121082001F007FA1AE00121102059
:1010100001F002FA15E00121202001F0FDF910E0B5
:101020000121402001F0F8F90BE009E001218020C6
:1010300001F0F2F905E00121080201F0EDF900E00C
:1010400000BF00BF5A464946204600F093FF5A466B
:101050005146204600F08EFF45EA08000990022024
:101060008DF828008DF8290000208DF82A00012035
:101070008DF82B0009A9204600F0E0FE304600F074
:101080007FF800208DF81E008DF81F008DF82000DD
:101090008DF821008DF822008DF823008DF81A00BC
:1010A0008DF81B000B208DF81C0007208DF81D000B
:1010B0007D2F22D008DC0A2F0FD0142F11D0322F11
:1010C00013D0642F29D114E0FA2F1AD0B7F5FA7F84
:1010D0001BD0B7F57A7F20D11BE0C820ADF81800EF
:1010E0001CE06420ADF8180018E02820ADF81800C6
:1010F00014E01420ADF8180010E01020ADF818002E
:101100000CE00820ADF8180008E00420ADF8180045
:1011100004E00220ADF8180000E000BF00BF06A9FF
:10112000304600F0D6F800208DF8130001208DF82D
:1011300014000020ADF80800ADF80A00ADF80C006E
:10114000ADF80E00ADF8100001208DF8150002A8D2
:1011500000F032F800208DF8050003208DF806001D
:1011600001208DF8070001A801F072F80122022188
:10117000304600F0A5F80BB0BDE8F08F009CFFBF33
:1011800010B504460B48844209D10121480601F0FC
:1011900063F900214FF0007001F05EF908E00121D1
:1011A000880601F059F900214FF0806001F054F9F0
:1011B00010BD00000064004010B50021837A0122B8
:1011C00002FA03F13D4A126842F001023B4B1A60F9
:1011D0003A4A1C3212688A43384B1C331A60027B2D
:1011E000CAB9364A0C3212688A43344B0C331A603F
:1011F0004288C38842EA0343304A4032847A42F844
:1012000034300288838842EA03432C4A4032847A8D
:1012100002EBC4025360027B012A19D1274A0C3227
:1012200012680A43254B0C331A604288038842EA4D
:101230000343224A4032847A42F83430C288838899
:1012400042EA03431D4A4032847A02EBC4025360EF
:10125000C27A3AB9194A121D12688A43174B1B1DEC
:101260001A6006E0154A121D12680A43134B1B1D33
:101270001A60028932B9114A143212688A430F4B3C
:1012800014331A600289012A06D10C4A14321268FA
:101290000A430A4B14331A60427B012A06D1074ADB
:1012A0001C3212680A43054B1C331A60034A126849
:1012B00022F00102014B1A6010BD000000660040E0
:1012C0001AB143690B43436102E043698B434361B5
:1012D000704730B5024600200023146824F0020451
:1012E0001460146844F00104146000E05B1C54684E
:1012F00004F001041CB94FF6FF74A342F6D1546800
:1013000004F001040CB900206CE08C79012C04D1AC
:10131000146844F08004146003E0146824F080042E
:101320001460CC79012C04D1146844F0400414609A
:1013300003E0146824F0400414600C7A012C04D1FA
:10134000146844F02004146003E0146824F02004BE
:1013500014604C7A012C04D1146844F01004146019
:1013600003E0146824F0100414608C7A012C04D17A
:10137000146844F00804146003E0146824F00804BE
:101380001460CC7A012C04D1146844F00404146075
:1013900003E0146824F0040414608C78A407CD786A
:1013A00044EA05640D7944EA05444D7944EA05545C
:1013B0000D886D1E2C43D461146824F00104146060
:1013C000002300E05B1C546804F001041CB14FF6DC
:1013D000FF74A342F6D1546804F001040CB100205C
:1013E00000E0012030BD0246002019B9D36803F0A7
:1013F000030006E0012903D1136903F0030000E0B4
:101400000020704710B500F5D87303EB01131B687B
:1014100003F004031372137A53B900F5D87303EB86
:1014200001131B6840F2FF7404EA5353136009E090
:1014300000F5D87303EB01131B686FF0604404EAF6
:10144000D303536000F5D87303EB01131B6803F05B
:101450000203537200F5D87303EB01135B6803F0CA
:101460000F03937200F5D87303EB01135B681B0A3B
:10147000D37400F5D87303EB01139B68D37200F5A6
:10148000D87303EB01139B681C0A147300F5D8731F
:1014900003EB01139B681C0C547300F5D87303EB2A
:1014A00001139B681B0E937300F5D87303EB0113B4
:1014B000DB68D37300F5D87303EB0113DB681C0AF8
:1014C000147400F5D87303EB0113DB681C0C54741F
:1014D00000F5D87303EB0113DB681B0E937421B97D
:1014E000C36843F02003C36003E0036943F02003B3
:1014F000036110BD2DE9F04186B080460D461646C9
:101500001F46002400214046FFF76DFF18B9002058
:1015100006B0BDE8F08101AA00214046FFF772FF46
:10152000002405E00DF10F00005D3055601CC4B2D1
:10153000BC42F7DB019828600120E9E710B50246BC
:101540000020936803F08063B3F1806F00D110E056
:10155000936803F00063B3F1006F01D1012008E04C
:10156000936803F08053B3F1805F01D1022000E063
:101570000420042874D002F5C07303EB00131B6829
:1015800003F0010402F5C07303EB00131C600B7A37
:101590007BB94B7A0C8843EA445302F5C07404EBE0
:1015A00000142468234302F5C07404EB0014236084
:1015B00010E00B7A4C6843EAC4034C7A234302F5EB
:1015C000C07404EB00142468234302F5C07404EBD8
:1015D000001423608B7A03F00F038B7202F5C07343
:1015E00003EB00135B6823F00F0402F5C07303EBF9
:1015F00000135C6002F5C07303EB00135B688C7A28
:10160000234302F5C07404EB001463608B7B1C065B
:101610004B7B44EA03440B7B44EA0323CC7A234309
:1016200002F5C07404EB0014A3608B7C1C064B7C99
:1016300044EA03440B7C44EA0323CC7B234302F5B6
:10164000C07404EB0014E36002F5C07303EB0013F5
:101650001B6843F0010402F5C07303EB00131C6028
:1016600010BD000010B50246002321B1012907D0AA
:1016700002290FD109E090681D4C00EA04030BE039
:1016800090681C4C00EA040306E090681A4C00EADB
:10169000040301E0002300BF00BF184C181BA34245
:1016A00016D007DC83B16FF08060184470B1022857
:1016B00018D111E0B0F5007F10D0114C204448B192
:1016C000B0F5003F0ED10BE002230DE000230BE04C
:1016D000002309E0002307E0012305E0012303E0E4
:1016E000012301E0002300BF00BFD8B210BD0000FD
:1016F00003000004000300080000031000010008BC
:101700000001FFF72DE9F04385B081460D46904674
:101710001E4600240095019500208DF808008DF8E4
:1017200009008DF80A6000BF06E018F804100DF1FA
:101730000B000155601C84B2B442F6DB6946484692
:10174000FFF7FCFE0746002400BF39464846FFF776
:1017500089FF0128F9D105B0BDE8F083F0B52DED82
:10176000108B8DB006460D4600200A900B900C9011
:101770000790089009900490059006900024DDE001
:10178000FE4800EB8400D0ED000AB0EE600AFEF7E0
:101790008BFDB0EE408AF94800EB8400D0ED000AE2
:1017A000B0EE600AFEF780FDD6ED000A9FEDF41A58
:1017B00041EE000A28EE208AF04800EB8400D0EDCC
:1017C000000AB0EE600AFEF7DBFDF0EE408AEB485F
:1017D00000EB8400D0ED000AB0EE600AFEF7D0FD09
:1017E000D6ED010A9FEDE61A41EE000A08EEA08A46
:1017F0009FEDE40A28EE000A0AA800EB840080EDC1
:10180000000A96ED020ADFEDE00A20EE200A07A8A2
:1018100000EB840080ED000A9FEDDC1B9FEDDD0BEB
:1018200002F0D2F8B0EE409AF0EE609A9FEDD71B2E
:101830009FEDDA0B02F0C8F8B0EE40BAF0EE60BAF5
:1018400096ED020A10EE101A084603F093FE41ECE2
:101850001D0B9FEDCE1BB0EE4D0AF0EE6D0A02F0AF
:10186000B3F88DED020BC54800EB8400D0ED000A03
:10187000B0EE600AFEF784FDD6ED010A9FEDC01AB6
:1018800041EE000A10EE907A384603F073FE41EC08
:101890001F0B9FEDBE1BB0EE4F0AF0EE6F0A02F079
:1018A00093F8B0EE40DAF0EE60DAB44800EB840072
:1018B000D0ED000AB0EE600AFEF7F6FCD6ED000AA5
:1018C0009FEDAF1A41EE000A10EE907A384603F011
:1018D00051FE41EC1F0B9FEDAD1BB0EE4F0AF0EE39
:1018E0006F0A02F071F8B0EE40EAF0EE60EA53ECF5
:1018F0001D2B51EC1E0B03F0B1F8CDE900019DED5D
:10190000020B53EC102B9DED000B51EC100B03F070
:10191000A5F841EC1C0B53EC1B2B03F09FF841EC9A
:101920001A0B53EC192B03F03BFD41EC180B03F0A1
:1019300063F804A941F82400601CC4B2032CFFF62C
:101940001FAF0024CEE004A800EB840090ED000A55
:101950000AA800EB8400D0ED000A30EE600A10EE19
:10196000101A084603F006FE41EC190BB0EE490AC6
:10197000F0EE690A02F01EF8B0EE408AF0EE608ADE
:101980009FED880B53EC102B51EC180B03F0C0FAB1
:1019900025D20AA800EB840090ED001AB1EE411A9E
:1019A00004A800EB8400D0ED001A31EE611AB0EE0D
:1019B000410A07A800EB840090ED001AF0EE001A2F
:1019C00021EE211AF0EE410A01F0CCFEF0EE000A01
:1019D00020EE200A05EB840080ED000A80E004A8D8
:1019E00000EB840090ED000A10EE101A084603F098
:1019F000C1FD41EC1C0B9FED651BB0EE4C0AF0EEF7
:101A00006C0A01F0E1FFB0EE40AAF0EE60AA07A870
:101A100000EB840090ED000A10EE101A084603F067
:101A2000A9FD41EC1E0B9FED591BB0EE4E0AF0EEE6
:101A30006E0A01F0C9FFB0EE40CAF0EE60CA0AA813
:101A400000EB840090ED000A10EE101A084603F037
:101A500091FD41EC1E0B9FED4D1BB0EE4E0AF0EEDA
:101A60006E0A01F0B1FFB0EE40DAF0EE60DA53EC4E
:101A70001C2B51EC1D0B02F0F1FF41EC1B0B53EC46
:101A80001A2B03F08DFC41EC190B02F0B5FF00EEB0
:101A9000100AF1EEC00A07A800EB840090ED000ADE
:101AA000B1EE400A30EE600AB0EE408A04A800EBC6
:101AB000840090ED000A0AA800EB840090ED001A63
:101AC00030EE410AF0EE400AB0EE480A01F04AFE5C
:101AD000F0EE000A20EE200A05EB840080ED000AFB
:101AE000601CC4B2032CFFF62EAF00203FE005EBD4
:101AF0008001D1ED000A9FED2D1A80EE810ADFED05
:101B00002C0A20EE200A05EB800181ED000A05EB8E
:101B1000800191ED000ADFED260AB4EEE00AF1EE55
:101B200010FA0BDD05EB800191ED000ADFED210AD3
:101B300030EE600A05EB800181ED000A05EB8001C3
:101B400091ED000ADFED1C0AB4EEE00AF1EE10FAA6
:101B50000BD205EB800191ED000ADFED160A30EEA5
:101B6000200A05EB800181ED000A411CC8B2032860
:101B7000BDDB0DB0BDEC108BF0BD0000745800084B
:101B8000000009C30000C6C30000C64300000000F7
:101B9000000000400000000000207640000000002F
:101BA00000C068407B14AE47E17A843FDB0F4940B8
:101BB000000034430000B443000034C370B5054650
:101BC000002414E005EB441090ED001BB0EE410A38
:101BD000F0EE610A53EC102B9FED061B51EC110B3C
:101BE00002F0F8FF05EB441203C2601CC4B2032CE0
:101BF000E8DB70BD000000000000F03F2DE9F0417F
:101C00002DED028B06460F469046002430E000255D
:101C10002AE004EB4400284407EBC00090ED001BD1
:101C2000B0EE410AF0EE610A53EC102B9FED131B4E
:101C300051EC110B03F0A8F941EC180B06EB441022
:101C400090ED001BB0EE410AF0EE610A53EC102B50
:101C500051EC180B03F098F904EB44022A4408EB0A
:101C6000C20203C2681CC5B2032DD2DB601CC4B221
:101C7000032CCCDBBDEC028BBDE8F0810000000042
:101C80000000F0BF704700001EB503460C46002060
:101C90000090019002909FED1B0AF0EE401A6A46F8
:101CA0002146184601F022FC9DED000A20EE000AB4
:101CB000DDED010A9DED011A00EE810ADDED020A5B
:101CC0009DED021A00EE810AF1EEC00AF0EE601AF4
:101CD00093ED000A20EE000AD3ED010A93ED011AFC
:101CE00000EE810AD3ED020A93ED021A00EE810A9A
:101CF000F1EEC00A81EEA00AF0EE401AB0EE610AE1
:101D00001EBD00000000000000B50421034800F0E3
:101D100009F802480249086000BD000008060020DA
:101D20000C0600200246002003E0034BC35C135462
:101D3000401C8842F9D370470000040810B500F039
:101D4000CDFA33480068002860D19FED320A32484E
:101D500080ED000A314890ED020ADFED310AB4EE61
:101D6000E00AF1EE10FA04D29FED2D0A80ED020A8E
:101D70000DE02A4890ED020ADFED2A0AB4EEE00AEF
:101D8000F1EE10FA03DD9FED270A80ED020A2348E9
:101D900090ED020ADFED230A80EE201A9FED220A61
:101DA00021EE000A1C4880ED010A1C4890ED030A50
:101DB000DFED1B0AB4EEE00AF1EE10FA04D29FED5B
:101DC000180A80ED030A0DE0144890ED030ADFEDD8
:101DD000150AB4EEE00AF1EE10FA03DD9FED110AE8
:101DE00080ED030A0D4890ED030A9FED0E1AC0EE38
:101DF000010A9FED0E1A9FED0E0A10EEC10A064869
:101E000080ED020A9FED0B0B00F0BAFB10BD000045
:101E1000C805002000000000BC06002024060020A9
:101E2000000096C20000964200001643000048429F
:101E30000000AF430000000000006940F0B50A4612
:101E400000210023002400BF3DE0012505FA01F335
:101E5000156805EA03049C4234D105684F00032647
:101E6000BE40B543056015794E00B5400668354360
:101E700005601579012D02D01579022D16D18568DE
:101E80004F000326BE40B543856055794E00B540EE
:101E9000866835438560456801268E40B5434560B8
:101EA000456896798E40B6B235434560C5684F00A7
:101EB0000326BE40B543C560D5794E00B540C6681F
:101EC0003543C560491C1029BFD3F0BD7CB504461D
:101ED0000D461646C4F30900002839D1A012A0F51A
:101EE00080108038092833D2DFE800F0050A0F148B
:101EF000191E23282D000121084600F08DFA28E044
:101F00000121022000F088FA23E00121042000F0E2
:101F100083FA1EE00121082000F07EFA19E0012179
:101F2000102000F079FA14E00121202000F074FA6A
:101F30000FE00121402000F06FFA0AE0012180202B
:101F400000F06AFA05E00121080200F065FA00E0FD
:101F500000BF00BF00958DF8046000208DF80600DA
:101F60008DF8070002208DF8050069462046FFF72E
:101F700065FF7CBDF0B5002300244D07ED0E02FA8D
:101F800005F3CE1000F1200555F826504E07F70E48
:101F90000F26BE40B543CF1000F1200646F827506B
:101FA000CE1000F1200555F8265045EA0304CE1066
:101FB00000F1200545F82640F0BD00002DE9F04372
:101FC0002DED0A8B83B004460D46B0EE408A1746CD
:101FD00095ED000A20EE000AD5ED010A95ED011AF3
:101FE00000EE810AD5ED020A95ED021A00EE810A93
:101FF000F1EEC00A10EE908A29462046FFF744FE13
:1020000010EE109A94ED000A20EE000AD4ED010AB9
:1020100094ED011A00EE810AD4ED020A94ED021A41
:1020200000EE810AF1EEC00AF0EE608A0020009016
:102030000190029000263EE0484603F09BFA41ECF6
:102040001C0B9FED2C1BB0EE4C0AF0EE6C0A01F05D
:10205000BBFCB0EE40AAF0EE60AA404603F08AFA5C
:1020600041EC1C0B9FED231BB0EE4C0AF0EE6C0A0A
:1020700001F0AAFCB0EE40BAF0EE60BA53EC1A2BB5
:1020800051EC1B0B03F08CF941EC190B02F0B4FC82
:1020900000EE100AF1EEC00A80EEA80A04EB8600FA
:1020A000D0ED000A20EE200A684600EB860080EDA5
:1020B000000A701CC6B2032EBEDB002012E0694687
:1020C00001EB800191ED000A05EB8001D1ED000AE2
:1020D00030EE600A20EE080A07EB800181ED000A6D
:1020E000411CC8B20328EADB03B0BDEC0A8BBDE893
:1020F000F0830000000000000000004000BFFEE789
:1021000010B5012211460248FFF7E0FE10BD0000A5
:102110000010024070B52DED028B05460E460024DE
:102120007FE005EB840090ED000ADFED410A80EED0
:10213000201A9FED400A21EE000AB0EE408AFEF719
:10214000B3F8DFED3D8ADFED3D0A40EE808A00EE18
:10215000104AB8EE400ADFED3A0A20EE200ADFED21
:10216000340A80EE201A9FED330A21EE000AB0EE09
:10217000408AFEF799F828EE800A04EB440006EB4B
:10218000800080ED000A05EB840090ED000ADFED91
:10219000280A80EE201A9FED270A21EE000AB0EEF1
:1021A000408AFEF781F8DFED248ADFED240A40EE55
:1021B000808A00EE104AB8EE400ADFED210A20EED8
:1021C000200A9FED1B1AC0EE010A9FED1A0A20EEAD
:1021D000800AB0EE408AFEF7D3F828EE800A04EBBE
:1021E000440006EB800080ED010A05EB8400D0ED91
:1021F000000A9FED0F1A80EE810ADFED0E0A20EE35
:10220000200AB0EE408AFEF7BBF8DFED0E0A20EEA2
:10221000200A04EB440006EB800080ED020A601CFB
:10222000C4B2032CFFF67DAFBDEC028B70BD000085
:1022300000003443DB0F49400000094300004643DF
:102240000000F042000046C300BFFEE700BFFEE70B
:1022500070B5002100230F22C4781CB3174C2468EA
:1022600004F4E064C4F5E064C4F30721C1F104049C
:10227000E3B20A4144789C40E1B28478144021439F
:102280000C07210E0E4C05786155047804F01F05EB
:102290000124AC4005786D11AD0005F1E025C5F8CD
:1022A000004109E0047804F01F050124AC40054D0D
:1022B0000678761145F8264070BD00000CED00E070
:1022C00000E400E080E100E002490143024A1160BD
:1022D000704700000000FA050CED00E070B52DED30
:1022E000028B012000F088FB022000F085FB032018
:1022F00000F082FB02F088FA04464049206808603A
:1023000060684860A068886000200BE03B4951F895
:1023100020103B4A52F82020891A3A4A42F82010ED
:10232000411CC8B20328F1DB002007E0334951F813
:102330002010334A42F82010411CC8B20328F5DBB4
:102340002E480568002D01DB284600E0684200EEBB
:10235000900AB8EEE01ADFED2C1ADFED2C0AB0EE91
:10236000600A01EE610A10EE100A03F003F941EC75
:10237000180B02F041FB2649086020484568002DF3
:1023800001DB284600E0684200EE900AB8EEE01A51
:10239000DFED1D1ADFED1D0AB0EE600A01EE610AE5
:1023A00010EE100A03F0E6F841EC180B02F024FBE3
:1023B0001749486011488568002D01DB284600E078
:1023C000684200EE900AB8EEE01ADFED0F1ADFED7A
:1023D0000F0AB0EE600A01EE610A10EE100A03F077
:1023E000C9F841EC180B02F007FB0949886009495C
:1023F0000748FEF7C9FABDEC028B70BD74060020D9
:10240000C8060020800600203F55553E7B14D04270
:10241000240000201800002029B1064A1268024357
:10242000044B1A6004E0034A12688243014B1A60AD
:10243000704700003038024029B1064A1268024352
:10244000044B1A6004E0034A12688243014B1A608D
:10245000704700004038024029B1064A1268024322
:10246000044B1A6004E0034A12688243014B1A606D
:10247000704700002038024029B1064A1268024322
:10248000044B1A6004E0034A12688243014B1A604D
:102490007047000044380240F0B5002100220024BB
:1024A000022500260223324F3F6807F00C0121B1BC
:1024B000042905D0082937D105E02E4F076036E002
:1024C0002D4F076033E02A4F3F1F3F68C7F3805608
:1024D000274F3F1F3F6807F03F036EB1264FB7FB02
:1024E000F3F7DFF88CC0ACF1040CDCF800C0CCF3DF
:1024F000881C07FB0CF40CE01E4FB7FBF3F7DFF86A
:1025000070C0ACF1040CDCF800C0CCF3881C07FBF5
:102510000CF4174F3F1F3F68C7F301477F1C7D0036
:10252000B4FBF5F7076002E0124F076000BF00BF81
:102530000F4F3F6807F0F0010909104F7A5C0768F8
:10254000D74047600A4F3F6807F4E051890A0B4FB4
:102550007A5C4768D7408760054F3F6807F4604161
:10256000490B064F7A5C4768D740C760F0BD000052
:10257000083802400024F40000127A0011060020FE
:1025800030B52DED0E8B91B00446B0EE408AF0EEE2
:10259000608A00200D900E900F900A900B900C9086
:1025A000182104A8FDF78AFFFE48007800287AD198
:1025B0000120FC490870002011E004EB800191ED3E
:1025C000000AF94901EB8001D1ED000A30EE600A02
:1025D000F64901EB800181ED000A411CC8B20328D5
:1025E000EBDBF24890ED000A20EE000AD0ED010A84
:1025F00090ED011A00EE810AD0ED020A90ED021A68
:1026000000EE810AB1EEC09A90ED000A20EE000AB9
:10261000D0ED010A90ED011A00EE810AD0ED020A18
:1026200090ED021A00EE810AF1EEC00AE048C0ED1A
:10263000000A002524E019EE100A02F09BFF41EC8D
:102640001B0BDA4800EB850090ED000A10EE101A23
:10265000084602F08FFF41EC1D0B53EC182B02F0E3
:1026600093FC41EC1C0B53EC1B2B02F0B3FA41EC36
:102670001A0B02F0C1F9CD4941F82500681CC5B21A
:10268000032DD8DB00200BE0C74901EB800191ED61
:10269000000AC84901EB800181ED000A411CC8B263
:1026A0000328F1DB00BF002012E0BF4901EB8001ED
:1026B00091ED000ABF4901EB8001D1ED000A30EE37
:1026C000600A0DA901EB800181ED000A411CC8B22E
:1026D0000328EADB0AAA9FEDB80A0DA9B348FFF761
:1026E0006DFC002516E00AA800EB850090ED000ABD
:1026F000AE4800EB8500D0ED000A30EE200A10EE67
:10270000101A084602F036FF04AA02EBC50203C203
:10271000681CC5B2032DE6DB9DED082BB0EE420A26
:10272000F0EE620A9DED082BB0EE421AF0EE621A4E
:1027300053EC102B51EC110B02F026FC41EC1B0B5F
:102740009DED062BB0EE420AF0EE620A9DED062BDF
:10275000B0EE421AF0EE621A53EC102B51EC110B52
:1027600002F012FC41EC1A0B9DED042BB0EE420A74
:10277000F0EE620A9DED042BB0EE421AF0EE621A02
:1027800053EC102B51EC110B02F0FEFB41EC1D0B36
:1027900053EC1A2B02F062F941EC1C0B53EC1B2B8F
:1027A00002F05CF941EC190B02F026F900EE100A78
:1027B000F1EEC00A8148C0ED000A002520E07F4804
:1027C000006802F0D7FE41EC190B04A800EBC5002D
:1027D00090ED001BB0EE410AF0EE610A53EC182BAD
:1027E00051EC100B02F0D0FB41EC1A0B53EC192BFF
:1027F00002F0F0F904AA02EBC50203C2681CC5B2DC
:10280000032DDCDB002001900290039001AA04A9B3
:102810006548FDF7C7FE01984043029901FB01009E
:10282000039901FB010000EE100AF8EEC00AB1EEB8
:10283000E00A634880ED000A90ED000ADFED610ACE
:10284000B4EEE00AF1EE10FA1ADD002016E001A95C
:1028500051F820109622514300EE101AB8EEC00A2B
:102860005749D1ED000A80EE201ABDEEC10A10EEE4
:10287000101A01AA42F82010411CC8B20328E6DB56
:102880000120019900F076FE0220029900F072FE0C
:102890000320039900F06EFE434890ED020AD4ED48
:1028A000020A30EE600A10EE101A084602F062FECC
:1028B00041EC1C0B9FED441BB0EE4C0AF0EE6C0A91
:1028C00001F082F8B0EE40AAF0EE60AA364890ED32
:1028D000010AD4ED010A30EE600A10EE101A084623
:1028E00002F048FE41EC1E0B9FED371BB0EE4E0A86
:1028F000F0EE6E0A01F068F8B0EE40CAF0EE60CA81
:10290000294890ED000AD4ED000A30EE600A10EE7E
:10291000101A084602F02EFE41EC1E0B9FED2A1BFA
:10292000B0EE4E0AF0EE6E0A01F04EF8B0EE40DA6C
:10293000F0EE60DA53EC1C2B51EC1D0B02F08EF81C
:1029400041EC1B0B53EC1A2B02F088F841EC190BED
:1029500002F052F800EE100AF1EEC00AB7EE000ADB
:10296000F4EEC00AF1EE10FA19D39DED0D0A20EE37
:10297000000ADDED0E0A9DED0E1A00EE810ADDED76
:102980000F0A9DED0F1A00EE810AF1EEC00A084809
:1029900090ED000AF4EEC00AF1EE10FA2ADD0020F4
:1029A000004915E0EB05002018000020A4060020D7
:1029B000EC050020B00600209A99993FF005002010
:1029C000F405002000001643000000000000004055
:1029D00008700021012000F0CDFD0021022000F050
:1029E000C9FD0021032000F0C5FD012011B0BDECA0
:1029F0000E8B30BD0020F9E730B587B004461F4983
:102A000003C9CDE9050104F5407000900190002054
:102A10008DF808008DF8090008208DF80A00059847
:102A2000C0B28DF80B000598010A8DF80C100598BE
:102A3000010C8DF80D100598000E8DF80E0006980B
:102A4000C1B28DF80F100698010A8DF81010069883
:102A5000010C8DF811100698000E8DF812006946D1
:102A60000748FEF76BFD054600BF29460448FEF700
:102A7000F9FD0128F9D107B030BD00006458000805
:102A800000640040704700000CB5002001900090E9
:102A90003448006840F480303249086000BF314853
:102AA000006800F4003000900198401C01900098EC
:102AB00018B90198B0F5A06FF1D12A48006800F468
:102AC000003010B10120009001E00020009000983B
:102AD000012846D123484030006840F08050214909
:102AE000403108602048006840F480401E4908607A
:102AF0001C48083000681B49083108600846006817
:102B000040F4004008600846006840F4A0500860A7
:102B10001648091F0860081F006840F08070091FF0
:102B2000086000BF0F48006800F000700028F9D06E
:102B300040F205600E4908600A480830006820F03D
:102B400003000849083108600846006840F00200A8
:102B5000086000BF03480830006800F00C00082837
:102B6000F8D10CBD00380240007000400854400706
:102B7000003C024010B51548006840F4700013494D
:102B800008601348006840F0010011490860002007
:102B90000F49083108600E4800680E4908400C498A
:102BA00008600D48091D0860081F006820F4802097
:102BB000091F0860002006490C310860FFF764FF18
:102BC0004FF0006001498039086010BD88ED00E0D9
:102BD00000380240FFFFF6FE1030002410B501213E
:102BE000044800F076F8012803D10121014800F0E3
:102BF00061F810BD0000014010B50121880700F008
:102C000068F8012817D10121800700F053F80A481D
:102C10000088401C0849088008480088401C074973
:102C2000088005480088012805DB0020024908804B
:102C300001200349087010BD00000020060000209C
:102C40000200002010B50121044800F042F80128DC
:102C500003D10121014800F02DF810BD000400400F
:102C600010B50121044800F034F8012803D10121F6
:102C7000014800F01FF810BD0008004010B5012108
:102C8000044800F026F8012803D10121014800F092
:102C900011F810BD000C004010B50121044800F0EF
:102CA00018F8012803D10121014800F003F810BDF4
:102CB00000040140CA430282704721B1028842F0F9
:102CC0000102028004E002884FF6FE731A4002807F
:102CD000704730B50246002000230024158A05EA1B
:102CE0000103958905EA010413B10CB1012000E04C
:102CF000002030BD1AB183890B43838102E08389B0
:102D00008B438381704700002DE9FF4104460D4647
:102D100016461F46DDF828806949601A8C4270D03B
:102D20001ADC6849A4EB01008C426CD00ADCB4F1D7
:102D3000804F4ED064482044002852D0B0F5806FB8
:102D400071D156E0B0F5806F65D0B0F5006F6CD0F2
:102D5000B0F5406FF4D170E0B0F5923F21D009DCBE
:102D6000B0F5806F7AD0B0F5644F0AD0B0F5684FF7
:102D70007CD10EE0B0F5943F1BD0B0F5963F75D1F5
:102D80001FE001210846FFF777FB19208DF80000AE
:102D90006DE001210220FFF76FFB2C208DF8000071
:102DA00065E001210804FFF767FB18208DF800009B
:102DB0005DE001211920FFF75FFB2C208DF800005A
:102DC00055E001218804FFF757FB1A208DF8000019
:102DD0004DE001210846FFF72FFB1C208DF8000075
:102DE00045E001210220FFF727FB1D208DF80000A0
:102DF0003DE001210420FFF71FFB1E208DF800009D
:102E000035E023E0FFE701210820FFF715FB322022
:102E10008DF800002BE001211020FFF70DFB36207C
:102E20008DF8000023E021E0FFE701212020FFF7DB
:102E300003FB37208DF8000019E001214020FFF747
:102E4000FBFA2B208DF8000011E007E00121802023
:102E5000FFF7F2FA2C208DF8000008E001210802AB
:102E6000FFF7EAFA2D208DF8000000E000BF00BF58
:102E70000295ADF804600020ADF80C00ADF8060036
:102E800001A9204600F022F801212046FFF712FF99
:102E9000012211462046FFF72DFFF8B28DF8010000
:102EA00008F0FF008DF8020001208DF8030068464D
:102EB000FFF7CEF901212046FFF7FFFEBDE8FF81B5
:102EC000001C0040000C004000FCFFBF00220288F4
:102ED000184B98420ED0184B98420BD0B0F1804F4F
:102EE00008D0164B984205D0154B984202D0154B8E
:102EF000984204D14FF68F731A404B881A43124BF5
:102F0000984207D0114B984204D04FF6FF431A4025
:102F10000B891A4302804B68C3620B880385054BFB
:102F2000984202D0044B984201D18B7A0386012348
:102F3000838270470000014000040140000400400B
:102F400000080040000C0040001000400014004049
:102F500010B540F225514F4800F089F901287DD184
:102F600040F225514B4800F067F94A4800F038FA22
:102F70004949087049480078052870D2DFE800F018
:102F8000031532495700444800780D2803D04248C1
:102F900000784F2805D141480078401C3F4908700F
:102FA00002E000203D4908706FE03B4800780A28A5
:102FB00008D100203A49087038480078401C374949
:102FC00008700EE0344800780D280AD032480078A6
:102FD0004B2803D100203149087002E000202F491E
:102FE000087052E02C4800782E492D4A12788854F7
:102FF0002B480078401C2A49087008460078202891
:1030000006DB0020087025480078401C2349087022
:103010003BE0214800780A2805D120480078401C70
:103020001E49087002E000201C4908702DE01A4873
:1030300000780D2824D101201B494861194890EDE2
:10304000000A084680ED020A164890ED010A08467B
:1030500080ED030A134890ED020A01E016E010E04B
:10306000084680ED040A0F4890ED030A084680EDFB
:10307000000A0C4890ED040A084680ED010A04E0BD
:1030800000BF00200549087000BF02E0014800F0C1
:10309000A7F910BD005000401500002016000020C8
:1030A00017000020540600202406002010B588B028
:1030B000044604940020ADF81400ADF81600ADF8F5
:1030C0001800ADF81C000C20ADF81A000121FFF724
:1030D000A3F901210805FFF7AFF908220C212248C6
:1030E000FEF748FF082202212048FEF743FF002098
:1030F0008DF80A0001208DF80B0002208DF80800E1
:10310000C002019002208DF8090001A91648FEF7BF
:1031100095FE02208DF808000420019001A91348B3
:10312000FEF78CFE04A9124800F0F0F835208DF867
:103130000C0001208DF80F008DF80D008DF80E00A9
:103140004FF4A060FFF7C0F803A8FFF781F8012251
:1031500040F22551064800F0B4F80121044800F07F
:103160007AF808B010BD000000080240000C0240D0
:103170000050004010B588B0044604940020ADF81B
:103180001400ADF81600ADF81800ADF81C000C20C6
:10319000ADF81A0001210420FFF73EF9012188044F
:1031A000FFF74AF907220A212148FEF7E3FE07222A
:1031B0000B211F48FEF7DEFE00208DF80A000120DB
:1031C0008DF80B0002208DF80800400201900220CB
:1031D0008DF8090001A91648FEF730FE02208DF88F
:1031E00008008002019001A91148FEF727FE04A9FA
:1031F000104800F08BF827208DF80C0001208DF886
:103200000F008DF80D008DF80E004FF4A060FFF751
:103210005BF803A8FFF71CF8012240F2255105488E
:1032200000F04FF80121034800F015F808B010BD78
:10323000000802400048004010B50022002340F67C
:103240006A14A14200D100BF0A1201249440A3B223
:10325000DC43048010BD21B1828942F40052828196
:1032600004E082894DF6FF731A408281704770B581
:103270000246002400230025002040F66A16B142D1
:1032800000D100BFC1F3421501F01F03012606FA69
:1032900003F3012D02D19689334006E0022D02D1BD
:1032A000168A334001E0968A33400C12012606FA52
:1032B00004F41688344013B10CB1012000E0002062
:1032C00070BDF0B50346002400260025002040F61E
:1032D0006A17B94200D100BF1846C1F3421401F089
:1032E0001F06012707FA06F5012C01D10C3004E076
:1032F000022C01D1103000E014301AB107682F43BE
:10330000076002E00768AF430760F0BD2DE9FF47A3
:1033100005460E460024A14600BFA046B08900B174
:1033200000BF2C8A24F44054F08804432C82AC89DA
:1033300041F20C608443B0883189084371890843A5
:103340000443AC81AC8A24F44074B0890443AC8259
:103350006846FFF7A1F82048854202D01F48854201
:1033600002D1DDF80C9001E0DDF80890A88900F4A6
:10337000004040B109EBC90000EB09103168490079
:10338000B0FBF1F707E009EBC90000EB0910316869
:103390008900B0FBF1F76420B7FBF0F004012009CD
:1033A000642101FB1078A88900F4004040B132206C
:1033B00000EBC800B0FBF1F000F00700044308E0A8
:1033C000322000EB08106421B0FBF1F000F00F0098
:1033D00004432C81BDE8FF87001001400014014028
:1033E00001468888C0F30800704700003EB50446D7
:1033F0000D46134600200090019002909FED170AA1
:10340000F0EE401A6A462946204600F06FF89DED1E
:10341000000A20EE000ADDED010A9DED011A00EE22
:10342000810ADDED020A9DED021A00EE810AF1EE3D
:10343000C00AF0EE601A00200CE0694601EB800142
:1034400091ED000AC0EE210A03EB8001C1ED000AF4
:10345000411CC8B20328F0DB3EBD000000000000A4
:1034600070B586B005460E461446002003900490C1
:1034700005900090019002909FED1A0AF0EE401A1C
:1034800003AA3146284600F031F86A46214603A8CF
:1034900000F02CF89DED000A20EE000ADDED010A97
:1034A0009DED011A00EE810ADDED020A9DED021A82
:1034B00000EE810AF1EEC00AF0EE601A00200CE086
:1034C000694601EB800191ED000AC0EE210A03EB91
:1034D0008001C1ED000A411CC8B20328F0DB06B030
:1034E00070BD00000000000000BFFEE790ED010A83
:1034F000D1ED020A20EE200AD0ED020A91ED011A68
:1035000000EEC10A82ED000A90ED020AD1ED000A38
:1035100020EE200AD0ED000A91ED021A00EEC10A59
:1035200082ED010A90ED000AD1ED010A20EE200A99
:10353000D0ED010A91ED001A00EEC10A82ED020AF7
:10354000704791ED000AD0ED000A30EE600A82ED7E
:10355000000A91ED010AD0ED010A30EE600A82ED19
:10356000010A91ED020AD0ED020A30EE600A82ED06
:10357000020A7047F0B589B005460F4600242B4B70
:103580000FCB05AE0FC605F54070009001900020EE
:103590008DF808008DF8090008208DF80A000697BC
:1035A00000BF3FE005A810F834008DF80B0005A817
:1035B00030F83400010A8DF80C1005A850F83400DA
:1035C000010C8DF80D1005A850F83400000E8DF890
:1035D0000E0005A800EBC40001798DF80F1005A8B6
:1035E00000EBC4008088010A8DF8101005A800EBDC
:1035F000C4004068010C8DF8111005A800EBC40050
:103600004068000E8DF8120069460948FDF796FFE4
:10361000064600BF31460648FEF724F80128F9D1D6
:10362000601CC4B2022CBDDB09B0F0BDB457000869
:10363000006400402DE9F04194B005460E4617465F
:10364000002438222E4906A8FCF706FF05F5407035
:103650000190029000208DF80C008DF80D000820DC
:103660008DF80E000D960F9726491191494213913E
:1036700000BF3FE006A810F834008DF80F0006A840
:1036800030F83400010A8DF8101006A850F8340004
:10369000010C8DF8111006A850F83400000E8DF8BA
:1036A000120006A800EBC40001798DF8131006A8DB
:1036B00000EBC4008088010A8DF8141006A800EB06
:1036C000C4004068010C8DF8151006A800EBC4007A
:1036D0004068000E8DF8160001A90B48FDF72EFF7B
:1036E000804600BF41460848FDF7BCFF0128F9D1DC
:1036F000601CC4B2072CBDDB14B0BDE8F081000033
:103700007C570008C0E1E4000064004003B4019865
:103710004100009850EAC12018BF04204A0D18BF8C
:1037200040F0010040F2FF72B2EB515F08BF40F081
:103730000200012808BF052002B0704741000802BE
:1037400018BF04200A0E18BF40F001004FF07F425E
:1037500032EA010108BF40F00200012808BF05203D
:103760007047000010EE100A10B510EE901A4FF0DE
:10377000684202EB40032DED028BB3F1654F3CBF75
:1037800002EB4102B2F1654F7CD200BFC0F3C753D8
:10379000C1F3C7529A1A1B2A09DD10F0004F14BF5B
:1037A0009FED6E0A9FED6E0ABDEC028B10BD12F10B
:1037B0001A0F1BDA11F0004F09D010F0004F0CBFA8
:1037C0009FED680A9FED680ABDEC028B10BD80EE8C
:1037D000208A18EE100AFFF7B1FF042808BF00F096
:1037E000EFFFB0EE480ABDEC028B10BD4200B2EB19
:1037F000410F37D910F0004F19BFDFED5C1A9FED74
:103800005C1ADFED5C1A9FED5C1AB0EE602A0A4686
:10381000F1EE400A80F00041B0EE420A10460A1A6A
:103820005200B2F1807F34D2484010F0004FDFEDFB
:10383000532A9FED533A1DBFBEEE002A71EEE21AE5
:1038400031EE431AB6EE002A04BF71EEA21A31EE31
:10385000031AF0EE402A42EE602A40EE020A82EE9F
:10386000A02A18E011F0004F04BF9FED461AF0EEB9
:10387000411AD4D010F0004F1CBFDFED431A9FED6A
:10388000431A00E026E004BFDFED411A9FED411A24
:10389000C5E780EE202A22EE020ADFED3F0ADFEDC7
:1038A0003F2ABDEC028B40EE202ADFED3D0A40EEC0
:1038B000220ADFED3C2A40EE202ADFED3B0A40EEF3
:1038C000220A22EE000A00EE201A31EE020A30EE41
:1038D000210A10BD4FF07F42B2EB400F28BFB2EB80
:1038E000410F05D2BDEC028BBDE8104000F064BF73
:1038F00040EA01035B0008BF41F0FF410BD0B2EB8F
:10390000400F08BFB2EB410F08D120F0804000EE1D
:10391000100A21F0804100EE901A37E7B2EB400F19
:1039200012BF5FEA410240F0FF4001F000413FF466
:103930002DAF4A0092EA40033FF528AF002AACBF02
:103940009FED1A1A9FED1A1A20EE010A60EE810A05
:1039500010EE100A10EE901A18E70000DB0FC9BF36
:10396000DB0FC93FDB0F4940DB0F49C00000C9BF77
:1039700022AAFDB90000C93F22AAFD390060ED3E30
:10398000C30ACE3700000000000049C022AA7DBA59
:103990000000494022AA7D3A2DAD65BD8FB8D53DC6
:1039A0000FB511BE61C84C3EA8AAAABE0000804F48
:1039B0000000802F2DED020B019820F000400190B7
:1039C0009DED000B02B070472DE9F04D2DED040B7D
:1039D0002DED0E8B96B0DDE92550279CDDF890A0EB
:1039E00025F0004624F00048BAF1000F14BF012171
:1039F000002101EB4502FC4953184A1093422AD397
:103A0000002814BF0123002303EB44030B44F749B0
:103A10008B4220D358EA00019FEDF59B76D0DFF86A
:103A2000D8B35D4503D1BAF1000F05D188E0BAF1F2
:103A3000000F08BF002100D0012101EB450111F565
:103A4000001F08D8002814BF0121002101EB440108
:103A500011F5001F0BD99DED261B9DED240B16B013
:103A6000BDEC0E8B04B0BDE8F04D00F069BE002740
:103A7000002DBCBFE149884521DAE1498845A8BF4E
:103A800002271CDAC3451ADCDE4901EB2851142950
:103A900008DDC1F1340220FA02F101FA02F2824299
:103AA0000DD108E058B9C1F1140228FA02F101FA67
:103AB00002F2424503D101F00101C1F1020756EAC9
:103AC0000A0124D1002C22DA002D18BF022F01D0C8
:103AD000012F0AD00220FCF720FD16B0BDEC0E8BA2
:103AE00004B0BDE8F04D00F013BE0220FCF715FD58
:103AF00000F00EFE51EC100B00F072FF41EC100BC9
:103B000016B0BDEC0E8B04B0BDE8F08D18E09FED53
:103B1000BEAB9FEDBF8B002871D1B848804522D144
:103B200005F1804010F5801008BFBAF1000F07D0F2
:103B3000B3450ADC002CA8BF9DED260BE0DA0DE0B2
:103B4000B0EE490AF0EE690ADAE7002C06DA9DEDDC
:103B5000260B51EC100B00F043FF6FE0AE487844A9
:103B600090ED000BCCE7D8454DD1002C48DA2EB1B2
:103B700086423AD1BAF1000F42D126E0BAF1000FE5
:103B800013D00220FCF7C9FC00F0F6FD8DED020B0E
:103B90009DED240B8DED000B10EE900A039961F35F
:103BA0001E0003909DED020BAAE78DED02AB9DED8B
:103BB000240B1AEE901A10EE900A8DED000B61F3B3
:103BC0001E0003909DED020B9AE78DED028B9DED9B
:103BD000240B18EE901A10EE900A8DED000B61F395
:103BE0001E0003909DED020B8AE709DA9DED240B80
:103BF00051EC190B53EC102B00F0ECFF1EE020E011
:103C00009DED240B7CE786421BDAB4F1804F0DD08A
:103C1000A4F10050B0F1FF5013D1002D11DB9DED48
:103C2000240B51EC100B00F061FE07E09DED240B1E
:103C300053EC102B51EC100B00F0C2BC41EC100BFC
:103C40005EE79DED240B51EC100B00F0D1FDBAF1B5
:103C5000000FCDE90E0142D19FED710B46B3A6F1E5
:103C6000E040B0F17F600CD05E4538D1002D00DA25
:103C7000A7B3022F0CBF01204FF0FF3001F031F944
:103C8000DCE7002D01DD002C0DDA002D01DD002C1C
:103C90001FDB002D16DA002C14DB012F08BF9FED6F
:103CA000620B3FF42DAFB0EE4A0AF0EE6A0A27E746
:103CB000022F18BF002D0CD0012F0AD1002DFFF6C6
:103CC0001FAF06E0002DB8BF002C08DA012F3FF42B
:103CD00017AFB0EE480AF0EE680A11E71BE00120CA
:103CE00000EBE57050EA070115D0791EB0EE498A65
:103CF000F0EE698A084308BF9FED4D8B4E480025C2
:103D0000804570DD4D494E48884514DDB0420DDBDD
:103D1000002C19DB2FE00120FCF7FFFB16B0BDECF7
:103D20000E8B04B0BDE8F04D00F016BDB34502DCCB
:103D3000002C09DC1FE0864202DA002C1BDA03E0CB
:103D40005E452BDD002C16DD0220FCF7E6FB00F0C3
:103D500013FD8DED020B53EC1A2B51EC180B01F0F7
:103D600013F9CDE900010399019861F31E00039056
:103D70009DED020BC4E60220FCF7CFFB00F00CFD2A
:103D800010EE901A18EE900A8DED020B8DED008B5F
:103D900061F31E0003909DED020BB1E69DED0E0B4D
:103DA00053EC192B51EC100B01F0FAFA9FED260B96
:103DB000CDE9080153EC102B9DED080B51EC100BD5
:103DC00001F0E2F89FED221B53EC112B01F010FAE9
:103DD0009DED081B53EC112B01F0D6F89FED1E1B37
:103DE00053EC112B3CE08CE0FFFF1F00FFFF0F00A6
:103DF000000000000000F03F0000F03F0000F07FF6
:103E00000000404301FCFFFF000000000000F07FC5
:103E10000000000000000000E62500000000000097
:103E20000000000000000080000000000000F0FF23
:103E3000000000000000F0BF0000E0410000F0437F
:103E4000FFFFEF3F00000000000000000000D03F37
:103E5000555555555555D53F000000000000E03F31
:103E600001F0C6F99DED080B41EC1A0B53EC102B39
:103E700051EC100B01F088F853EC1A2B01F084F888
:103E800041EC1A0B9FEDFE0B53EC102B9DED080B34
:103E900051EC100B01F078F841EC1B0B9FEDFA0B85
:103EA00051EC1A0B53EC102B01F06EF841EC1A0B8D
:103EB0009FEDF70B53EC102B9DED080B51EC100B05
:103EC00001F062F853EC1A2B01F06AFA41EC1A0B7C
:103ED00051EC1B0B53EC1A2B00F0C0FD0690CDE902
:103EE00006519DED060B53EC1B2B51EC100B01F012
:103EF00057FA53EC1A2B01F07BF941EC100B00F050
:103F0000A1B90020B6F5801F0EDA9FEDE30B53EC4C
:103F1000102B9DED0E0B51EC100B01F035F8CDE997
:103F20000E016FF034000E4600EB2650A0F2FF3772
:103F3000C6F31300DA4940F07F6646F040568842E7
:103F4000D8BF002408DDD7498142C8BF012403DC63
:103F50000024A6F580167F1CD348784400EBC400EB
:103F60000F9690ED00CB9DED0E0B53EC1C2B51ECFE
:103F7000100B01F015FA9DED0E0B41EC1B0B53ECF1
:103F80001C2B51EC100B00F069FD41EC100B51ECB7
:103F9000190B53EC102B00F01DFE41EC1D0B51ECE6
:103FA0001B0B53EC1D2B00F0EFFF41EC1A0BBF482D
:103FB0008DED10AB7844109590ED000B4FF0005054
:103FC00040EA660000EB84408DED080B00F5002010
:103FD00009909DED080B53EC1C2B51EC100B01F0DC
:103FE000DFF99DED0E1B53EC112B01F001F941ECB3
:103FF000100B53EC102B9DED100B51EC100B00F03F
:10400000C3FF9DED080B41EC1C0B53EC102B9DEDF9
:10401000100B51EC100B00F0B7FF53EC1B2B01F011
:10402000E7F853EC1C2B01F0BBF953EC1D2B00F00F
:10403000ABFF41EC1C0B53EC1A2B51EC1A0B00F0AC
:10404000A3FF41EC1B0B9A480621B0EE4B0AF0EEA1
:104050006B0A784400F0E0FAB0EE401AF0EE601A15
:10406000B0EE41DAF0EE61DA53EC1B2B51EC1B0B96
:1040700000F08AFF53EC1D2B00F086FF9DED100B26
:1040800041EC1B0B53EC1A2B51EC100B00F0E6FC2F
:1040900053EC1C2B00F078FF53EC1B2B00F0DEFCE4
:1040A0009DED100B41EC1B0B53EC102B51EC100B46
:1040B00000F06AFF41EC1D0B9FED7FEB53EC1E2BD4
:1040C00000F0CCFC53EC1B2B00F0C8FC0890CDE9B1
:1040D00008519DED080B53EC1E2B51EC100B01F019
:1040E0005FF953EC1D2B01F05BF953EC1B2B01F036
:1040F0007FF89DED080B41EC1D0B53EC102B9DED53
:10410000100B51EC100B00F03FFF41EC1B0B53EC7C
:104110001A2B51EC1D0B00F037FF9DED080B41EC05
:104120001A0B53EC102B51EC1C0B00F02DFF53EC31
:104130001A2B00F093FC41EC1A0B51EC1B0B53ECC7
:104140001A2B00F08BFC0C90CDE90C519DED0C0B63
:1041500053EC1B2B51EC100B01F022F953EC1A2BF2
:1041600001F046F841EC1B0B9FED550B53EC102B67
:104170009DED0C0B51EC100B00F006FF41EC1A0BFF
:104180009FED510B51EC1B0B53EC102B00F0FCFE80
:1041900041EC1B0B9FED4E0B53EC102B9DED0C0BCC
:1041A00051EC100B00F0F0FE53EC1B2B00F056FC12
:1041B00041EC100B4848784400EBC40090ED001B24
:1041C00051EC100B53EC112B00F048FC41EC1B0B95
:1041D000384600F086FECDE9080153EC1B2B51EC6C
:1041E0001A0B00F03BFC41EC100B3C48784400EB10
:1041F000C40090ED00CB51EC100B53EC1C2B00F0E5
:104200002DFC9DED081B53EC112B00F027FC0690B4
:10421000CDE906519DED080B53EC102B9DED060BDF
:1042200051EC100B01F0BCF853EC1C2B01F0B8F86A
:1042300053EC1A2B01F0B4F853EC1B2B00F0D8FF11
:1042400041EC100B9DED261B53EC102B8DED001B4C
:1042500000959DED260B51EC100B00F095FE9DEDA9
:10426000000B41EC1A0B53EC102B9DED260B51EC7F
:10427000100B01F095F89DED061B53EC112B2FE070
:10428000000000604715F73FFE822B654715F73F9A
:1042900044DF5DF80BAE543E0000000000004043D8
:1042A0008E9803007AB60B00622100009021000076
:1042B0009A200000000000000000000000000840FC
:1042C000000000E009C7EE3FFD033ADC09C7EE3FFE
:1042D000F5015B14E02F3EBE261F0000E01E00002B
:1042E00000F052FE53EC1A2B00F0B8FB9DED060BCC
:1042F00041EC1A0B53EC102B9DED000B51EC100B05
:1043000000F042FECDE90C019DED0C0B51EC1A0BB7
:1043100053EC102B00F0A2FBCDE902010C46AA4998
:104320008C422FDB611A084318D19DED0C0B53EC26
:10433000102B9DED020B51EC100B01F031F841EC0C
:104340001B0B9FEDA30B51EC1A0B53EC102B00F041
:1043500085FB53EC1B2B00F015FF2DD20220FCF740
:10436000DCF800F009FA10EE901A18EE900A8DEDC4
:10437000020B8DED008B61F31E0003909DED020B8F
:10438000FFF7BEBB944A24F00041914214D39349F5
:10439000214408437FF4EFAC9DED0C0B53EC102B44
:1043A0009DED020B51EC100B00F0FAFF53EC1A2BB1
:1043B00000F0E8FE7FF6DFAC24F000408849894A2F
:1043C000002601EB205182422BDA481C4FF4801169
:1043D00021FA00F02044844AC0F30A517A44A1F241
:1043E000FF3192ED000B814A8DED080BCA4020EAA7
:1043F0000202C0F3130040F48010C1F1140120FA4E
:1044000001F60992002CB8BF76429DED080B53ECE3
:10441000102B9DED0C0B51EC100B00F0C1FFCDE902
:104420000C019DED0C0B51EC1A0B53EC102B00F012
:1044300015FB9FED6F0B0890CDE9085153EC102B45
:104440009DED080B51EC100B00F09EFD41EC1B0B99
:104450009FED690B53EC102B9DED080B51EC100BED
:1044600000F092FD9DED0C0B41EC1C0B53EC102B5E
:104470009DED080B51EC100B00F092FF53EC1A2B42
:1044800000F0B6FE9FED5E1B53EC112B00F07CFD9F
:1044900053EC1C2B00F0E2FA41EC1A0B51EC1B0B15
:1044A00053EC1A2B00F0DAFACDE902019DED020B74
:1044B00053EC1B2B51EC100B00F072FF53EC1A2B3A
:1044C00000F096FE9DED020B41EC1A0B53EC102B05
:1044D00051EC100B00F058FDCDE908014A489DED64
:1044E000080B0521784400F097F89DED081B51EC6E
:1044F000100B53EC112B00F047FD9DED021B53EC0C
:10450000112B00F075FECDE906019DED020B53EC79
:104510001A2B51EC100B00F037FD53EC1A2B00F066
:104520009DFA9FED3B0B41EC1A0B53EC102B9DEDCC
:10453000060B51EC100B00F033FF9DED060B41EC28
:104540001B0B53EC102B9DED020B51EC100B00F0EC
:104550001BFD53EC1B2B00F03DFB53EC1A2B00F022
:104560001FFF9DED021B53EC112B00F019FF53ECC4
:10457000192B00F03DFECDE9020101EB06500115BB
:104580000029C8BF039015DC9DED020B324651ECAB
:10459000100B01F09CF8FFF7B9F8042808BF00F0F1
:1045A000FBF832469DED020B51EC100B01F08FF839
:1045B000CDE902019DED020B51EC180B53EC102BD1
:1045C00000F0E2FCFFF73ABB000090400000000062
:1045D000FE822B654715973C00CC904000346F3F1E
:1045E00001FCFFFF0000E03F681D0000FFFF0F001F
:1045F00000000000432EE63F396CA80C615C20BE31
:10460000EF39FAFE422EE63F381C000000000000A1
:10461000000000000000004070B504462DED028B44
:104620004D1E00EBC500B0EE408AF0EE608A90EDC2
:10463000000B35F0060017D053EC182B51EC100B83
:1046400000F0A2FC41EC100B6D1E04EBC50090EDD8
:10465000001B51EC100B53EC112B00F0FFF941EC57
:10466000100B35F00600E7D1022D36D0042D1CD0FA
:10467000062D1CBFBDEC028B70BD53EC182B51EC0A
:10468000100B00F081FC94ED0A1B53EC112B00F091
:10469000E5F953EC182B00F077FC94ED081B53EC74
:1046A000112B00F0DBF941EC100B53EC182B51EC03
:1046B000100B00F069FC94ED061B53EC112B00F07D
:1046C000CDF953EC182B00F05FFC94ED040B53EC88
:1046D000102B00F0C3F941EC100B53EC182B51ECEC
:1046E000100B00F051FC94ED021B53EC112B00F069
:1046F000B5F953EC182B00F047FC94ED001B53EC7C
:10470000112B00F0ABF9BDEC028B41EC100B70BD2E
:104710009FED070B10B553EC102B9FED070B51ECE1
:10472000100B00F057FA41EC100B10BD0000000018
:104730000000000000000000000000000000F03F4A
:1047400010B553EC112B51EC100B00F087F941EC34
:10475000100B10BD000000009FED050B10B553ECD1
:10476000102B51EC100B00F035FA41EC100B10BD82
:1047700000000000000000009FED050B10B553EC99
:10478000102B51EC100B00F0FFFB41EC100B10BD97
:1047900000000000000000709FED050B10B553EC09
:1047A000102B51EC100B00F0EFFB41EC100B10BD87
:1047B000000000000000001030EE200A70470000EA
:1047C0009FED020A20EE000A704700000000001072
:1047D0001CB5054903C9CDE9000108236A4600213B
:1047E0000248FCF78FFF1CBD6457000800640040BE
:1047F00082B0CDE9000121F0004001909DED000B59
:1048000002B051EC100B704701480068704700007F
:10481000605700080B4801780B48007830B10B480E
:1048200000880B4A10800020084A1080064801705A
:1048300031B10020054A1080024A107001207047F3
:104840000020FCE7020000201400002006000020E9
:104850000400002008B54FF4A060FDF735FD0020EE
:10486000034640F2473240F2E73100904FF080407B
:10487000FEF74AFA4FF4E130FEF718FC4FF4E1304E
:10488000FEF778FCFDF73CFCFDF73EFA4FF40070B4
:1048900043100E4A4FF4FA7100900D48FCF798FA55
:1048A000FFF796FF4FF47A7211460120FEF7C2FE21
:1048B0004FF47A7211460220FEF7BCFE4FF47A7272
:1048C00011460320FEF7B6FE08BD000000040240BA
:1048D0000064004010B5FFF7BDFF06E001E0FDF702
:1048E0002DFAFFF797FF0028F9D1F7E700B52DED76
:1048F000048B83B041EC190B00F086FC41EC180BE3
:1049000018EE100A18EE901A8DED008B002818BFD3
:104910000120084320F00040C0F17F6000F1E0403A
:10492000C00F14D019EE101A19EE900A8DED009BED
:10493000002918BF0121084320F00040C0F17F602A
:1049400000F1E040C00F04BF0120FBF7E6FD51EC91
:10495000180B03B0BDEC048B00BD2DE9F0412DED2B
:10496000028B074688461646002433E000252DE0DA
:1049700008EBC50090ED002BB0EE420AF0EE620AA3
:1049800004EB4400284407EBC00090ED002BB0EE90
:10499000421AF0EE621A53EC102B51EC110B00F09E
:1049A000F3FA41EC180B06EBC40090ED001BB0EEDF
:1049B000410AF0EE610A53EC102B51EC180B00F099
:1049C0004DF806EBC40203C2681CC5B2032DCFDB51
:1049D000601CC4B2032CC9DBBDEC028BBDE8F081C6
:1049E00081F00041704780F00040704721F00041A5
:1049F000704720F00040704721F00042A2F1605261
:104A0000B2F5801F01F0004328BFD2F17F6C0BD9B3
:104A10005FEA001C43EAC20242EB507018BF7047C5
:104A200028BF20F001007047B2F5801FBCBF1846B8
:104A300070474FEA410C1CF5001F02D2084600F0F7
:104A40000FBE70B500F04AFB00000089FFF7F6BF0B
:104A50004FF00040A0F580007047000010B591EACB
:104A6000030F48BF83F0004300F1A284841A71EB66
:104A7000030C05D2121943EB0C03001B61EB0C0174
:104A8000DFF824E14FEA1154A4EB135C1EEA430F54
:104A900018BF9EEA445F73D023EA0E03DCF1200EB8
:104AA00021EA045143F4801332D322FA0CFE10EBB6
:104AB0000E0023FA0CFE41EB0E01CCF1200E03FA9E
:104AC0000EFE10EB0E0051F10001B1F5801FCCF18C
:104AD000200E32D201EB045112FA0EF2BDE8104062
:104AE00058BF7047401C38BF5FEA420218BF70478A
:104AF000002814BF20F0010041F100014FEA4103FA
:104B000013F5001F38BF7047A1F1C04100F034BB5E
:104B1000012A43EB0302ACF1200CDCF11F0E32BF83
:104B20004FF0000E23FA0CF310EB030041EB04519D
:104B3000B4EB115FD0D0A1EB045101F5801149080D
:104B40005FEA300001EB04510ED350F1000038BF92
:104B500012FA0EFE08D1BDE81040C9E7401C38BF6C
:104B60005FEA4202CAD1C3E7BDE810404FEA410301
:104B700013F5001F38BF7047A1F1C04100F0FCBA27
:104B80009EEA445F08D011EA5E0FBDE8104004BF02
:104B900001F0004100207047BDE8104070B500F002
:104BA0009DFA00BF64FBBE3E0000E0FF02494FF0EB
:104BB000000000F05ABD00BF0000F87F491058BF48
:104BC000C1F140415B1058BFC3F140438B42EFF34A
:104BD000008070472DE9C04130B4DFF8A0C23CEA44
:104BE000111418BF3CEA131400F0EC8081EA0305AD
:104BF0001CEA111444EAD57418BF1CEA131500F01E
:104C0000C780A4EB05044FF0004545EAC12145EA01
:104C1000C32341EA505143EA525304F17F7499424D
:104C200004F500344FEAC0204FEAC22208BF904288
:104C300000F09C804FEA13650FF24016765D4FEA54
:104C4000134506FB05F7C7F1807706FB07F74FEA28
:104C5000D737A7FB03687642C8F58038A7FB06CE96
:104C600038BFA8F1010807FB08E64FF0000EA6FBCD
:104C7000028CE6FB03CEDCF1000CCEF1004E38BF17
:104C8000AEF1010EA6FB0C584FF000074FF00005E7
:104C9000E6FB0E87A1FB08C6A0FB07CE16EB0E06AF
:104CA00045F10005E1FB076515F1E04E7EBFA4F577
:104CB00080345FEA46066D4116F1800745F1000534
:104CC0004FEA17274FEA066647EA0567A6F1DE4670
:104CD000B6F1805F4FEA15251FD9384624F0010C44
:104CE00005EBC471BCF1FE6F01EB0C1102D8F0BCF6
:104CF000BDE8008124425CBF01F5801E9EEAC47FAE
:104D000002D4F0BCBDE80081244238D4F0BCA1F14B
:104D1000C041BDE8004100F02FBA4FEAD22242EA7A
:104D200043524FEAD323A7FB02864FEAD02040EA42
:104D3000415007FB03661EEA0E0F4FEAD12105FB27
:104D4000026658BFA6EB0056B6EB00564FEA520E6D
:104D50004EEAC37E18EB0E0E56EB530EBDD518EB84
:104D600002085E417F1C55F10005B6E74FF480153F
:104D70004FF000074FF000064FF00008ADE7F0BC21
:104D80004FF0000001F1C04101F00041BDE8008199
:104D900011EA0C1F0CEA131500D00CE013EA0C1FEB
:104DA00000F025804FF00000F0BC81EA030101F023
:104DB0000041BDE80081F0BCBDE8004181EA03018B
:104DC00000F0DAB9F0BCBDE8004170B500F086F93A
:104DD000097EFC3E00F007B881EA03014FF00000B5
:104DE00001F00041704781EA030100F0C5B9F0BC51
:104DF000BDE800414FF0000021497047FFFDFBF97D
:104E0000F7F5F4F2F0EEEDEBE9E8E6E4E3E1E0DEFD
:104E1000DDDBDAD8D7D5D4D3D1D0CFCDCCCBCAC86F
:104E2000C7C6C5C4C2C1C0BFBEBDBCBBBAB9B8B796
:104E3000B6B5B4B3B2B1B0AFAEADACABAAA9A8A889
:104E4000A7A6A5A4A3A3A2A1A09F9F9E9D9C9C9B57
:104E50009A99999897979695959493939291919002
:104E60008F8F8E8E8D8C8C8B8B8A89898888878793
:104E70008685858484838382828181800000FF0708
:104E80000000F87F4FEA41034FEA5353A3F58063D4
:104E9000D3F11E03C8BFD3F1210C0CDD4FF000424B
:104EA00042EAC12242EA505232FA03FC8CEAE17C27
:104EB000ACEBE1707047102BC4BF0020704703F5C6
:104EC000787CBCF1FF3F04D06FF0004282EA210001
:104ED000704770B500F002F94992248000207047B5
:104EE000F2E710F0004248BF4042B0FA80F310FAF7
:104EF00003F10AD0C3F11D0303F580634FEA41506B
:104F000002EB035202EBD12170474FF000007047D3
:104F100051EA030C17D41CF5801F58BFBCF5801F45
:104F200000F10680994218BF704708BF9042704751
:104F300007D711F5801F58BF13F5801F19D4994268
:104F40007047894270471CF5801F08D5BCF5801F4B
:104F5000F7D58B4218BF704708BF824270474FF4A5
:104F6000001C1CEB410F38BF1CEB430F01D28B42DE
:104F7000704770B500F0B2F8922449004FF000512C
:104F80004FF08053FFF71ABEDFF848C170B51CEA36
:104F9000111E1EBF1CEA13159EEA0C0F95EA0C0F9A
:104FA00000F06F8081EA030423EA4C134EEAD47EBA
:104FB00021EA4C1141F4801143F48013AE44A1FB6B
:104FC000024CA0FB0365AEF17F7E361955EB0C0554
:104FD000A1FB034C4CF10003A0FB021C16EB0C06DA
:104FE000654153F10003094218BF46F0010613F46E
:104FF000007F0BD14FEA03314FEA0530340341EA19
:10500000155140EA16506FF003020AE04FEAC3213F
:105010004FEAC520F40241EA555140EA56506FF07C
:10502000020202EB2E4201EB025585EACE710AD054
:105030005FEA440C18BF24F0004450F1000041F135
:10504000000120EAD47040F2FE7C624500D270BDBF
:10505000A84214BF4FF080444FF04044002E08BFD8
:105060000024BEF1806FA8BFA1F1C041BDE870402F
:1050700080F282804FF0000001F1C04101F0004158
:1050800070479EEA0C0F0CEA131518BF95EA0C0F37
:1050900006D04FF0000081EA030E0EF0004170BD13
:1050A00000F01CF88900013E00F007B800F009B8D4
:1050B0004FEA430C5FEA5C5C08D081EA030100F030
:1050C0005BB84FEA410C5FEA5C5CF6D14FF0000040
:1050D000014970470000FF070000F87F0EF1020E43
:1050E0002EF0030E5EF8046B364205D4012A43EB22
:1050F000030515F5001F12D8012841EB010C1CF522
:10510000001F0CD80ED14FEAD17C15F5001F0CEB17
:105110004C0C0CF1020C08BF4CEBD37C04E04FF0BC
:10512000080C01E04FEAD37C0CEB4C0526FA05F69F
:1051300006F00706B6F1040C06D20EEB860CBDE8AD
:1051400070404CF0010C6047DFE80CF0090B0202E4
:105150004FF000414FF00000A1F5002170BD19464D
:105160001046012851EB010418BFD4F5001484BF88
:10517000002001F0004170BD0808A0F500114FEAC1
:105180003101704753EA010C17D41CF5801F58BF3A
:10519000BCF5801F00F106808B4218BF704708BF26
:1051A0008242704707D713F5801F58BF11F5801F43
:1051B00019D48B4270479B4270471CF5801F08D55D
:1051C000BCF5801FF7D5994218BF704708BF9042C1
:1051D00070474FF4001C1CEB430F38BF1CEB410F12
:1051E00001D2994270470FB40CBC03BCFFF7C1BE9B
:1051F00091EA030F10B581F000413FF537AC83F021
:10520000004300F0D5B800002DE9F04101F5801C05
:10521000BCF5001FC0F2A9804FEA115C21EA0C51D5
:105220000CF1FD0C41F480115FEA5C0C0CF5C07CC4
:1052300001D34000494130A4890241EA90518702DC
:105240008E0E0A0CA45D04FB04F602FB06F6C6F102
:105250004046A4FB0662F60D46EA422606FB06F42B
:10526000A4FB01235242C3F1404338BF5B1EA6FB9F
:1052700002420024E6FB0324D20B42EA4446A6FB8A
:105280000623A1FB02E2A3FB07E4E3FB61426442C5
:10529000C2F1404E38BFAEF1010EA6FB04234FF021
:1052A0000002E6FB0E32A2FB03463400E2FB62641E
:1052B000A1FB06E6A4FB07E8E4FB61687642C8F1BF
:1052C000405838BFA8F10108A2FB06E4A3FB08E59B
:1052D000E2FB6854A1FB05E6A7FB04E8E1FB64865A
:1052E00018F1200556F10006A809A8F11B08B1091C
:1052F00008F03F08B8F10A0F40EA86601CD901EBBC
:105300000C51BDE8F08100BFFCF5EEE8E2DDD8D33A
:10531000CFCBC7C3C0BDB9B6B4B1AEACA9A7A5A326
:10532000A19F9D9B9A9896959392908F8D8C8B8937
:105330008887868584838281A0FB006800FB01F258
:1053400008EB4208B8EB872807D5341858EB01045E
:10535000D5D5401C51F10001D1E7341A78EB010496
:10536000CDD4401E71F10001C9E75FEA4C0C5FEA41
:105370009C5C0DD105D34FF0000001F00041BDE869
:10538000F081BDE8F04170B5FFF7A8FE6DDBFFBE10
:10539000BDE8F0414FF00000004970470000F87F81
:1053A00010B591EA030F48BF83F000433FF55EABB1
:1053B000841A71EB030C07D212198CF0004C43EBEA
:1053C0000C03001B61EB0C01DFF8A4E14FEA115460
:1053D000A4EB135C1EEA430F18BF9EEA445F00F083
:1053E000B08023EA6E03524221EA0451C3EB6E03FC
:1053F00038BF5B1EDCF1200E25D322FA0CFE10EB29
:105400000E0043FA0CFE41EB0E01CCF1200E03FA24
:105410000EFE10EB0E0051F10001CCF1200E29D44C
:1054200012FA0EF201EB0451BDE8104058BF70476C
:10543000401C1CBFB2F1004F704700280CBF491C34
:1054400020F00100704712EB020E43EB030218BF7D
:105450004FF0010E4EEA4202ACF1200CDCF11E0EC0
:1054600054D943FA0CFE10EB0E0051F1FF31CCF190
:105470001E0ED5D50EF1010E12FA0EFE404141EB83
:10548000010101EB445C5FEA5C5C10D910EBDE705B
:1054900001EB045138BFBEF1004FBDE8104018BF0A
:1054A000704700280CBF491C20F00100704730D223
:1054B0004FEAD42C11F5001124F400641BD0B1FA8A
:1054C00081F20B3AA41AA41ED2F12003914030FAC3
:1054D00003F31943904001EBCC71002C01EB045114
:1054E000BDE81040A8BF704701F1C0414FF0000077
:1054F00001F000417047B0FA80F310FA03F100D1D7
:1055000010BDE41A173C4805C90AE4E701EB045151
:1055100010BD491001EB0451BDE810404FEA3000C6
:1055200002E04FF0000170474A0008BF0042F8D087
:10553000B2F5001F28BF704701F000414FF0000096
:1055400070479EEA445F07D011EA5E0FBDE8104045
:1055500004BF002100207047BDE8104070B5FFF780
:10556000BDFD00BF40DFF63E83F0004110467047AE
:105570000000E0FF43004FEAD30C4FEA3C0C4340ED
:105580001FBF40070CF1605113F0FE4F70471CF035
:10559000006F03D100200CF0004170470CF0004375
:1055A00043EA507010B540EACC0000F00EF800BF9E
:1055B000000000924FEA0001FFF7DEBD4FF000410E
:1055C0004FF00000A1F5002170470EF1020E2EF001
:1055D000030E5EF8044B244204D44FEA4102B2F1B8
:1055E0007F4F11D84FEA4003B3F17F4F0CD80ED153
:1055F0004FEAD07CB2F17F4F0CEB4C0C0CF1020C5B
:1056000008BF4CEBD17C04E04FF0080C01E04FEAFE
:10561000D17C0CEB4C0324FA03F404F00704B4F13E
:10562000040C06D20EEB840CBDE810404CF0010CCB
:105630006047DFE80CF0070802024FF00040A0F5D9
:10564000800010BD0846420018BFD2F1807288BFAA
:1056500000F0004010BD4FF04070E1EE100A7047BE
:10566000FF2141EAD050C00570470CF00F03092B11
:1056700008BF082000F059800A2B0BD0082B18BF58
:10568000704708BF1CF0400F0AD04FF000004FF0E9
:10569000000170471CF0400F18BF4FF000407047EA
:1056A0001CF0100F08D020F0704300F07F4242EA57
:1056B000D3014FEA4370704700F0604021F07F4211
:1056C00042EA000201F07F4040EA727070474FF0FA
:1056D000FF0C4CF4E06C1CEA11531CBF9CEA030C59
:1056E0009445C2BFDA4201EB02517047002B0DD046
:1056F000BCF1000F0FD0002A01F00041A4BF41F01F
:10570000E04141F07F614FF00000704701F000413F
:105710004FF00000704750EA01334FF09B0C18BF68
:105720004CF0806C7FF442AA70471CF4801F11D0AB
:105730001CF4E02F03D06FEACC31490070474FF0E2
:105740004050EFF3008222F0704242EA000282F3FE
:10575000008870474FF00000704700003C060020B2
:105760004806002001000000000000004D4F00002E
:10577000010000004D4F000000000000554D0000EA
:105780000200000053460000000000004D4F0000E2
:1057900001000000414300000000000044430000FD
:1057A000000000005648020000000000564C0200B5
:1057B000000000004A560000000000004247004080
:1057C00000000000554D0000050000005346000099
:1057D00000000000584D010000000000584D02007C
:1057E000000000004D4F0000010000004143000098
:1057F00000000000414300000000000041430000A1
:10580000000000004443000000000000444300008A
:10581000000000004443000000000000535000005E
:105820000000000053500000000000005350000032
:10583000000000005648030000000000564C030022
:10584000000000000000000000000000424700408F
:105850000000000055510040000000004951004088
:105860000000000050580040000000005658004062
:105870000000000000000000920A0640920A8640E4
:10588000000080BF000000000000000000000000D9
:10589000000080BF000000000000000000000000C9
:1058A000000080BF43EC7F3F0000803F43EC7F3F20
:1058B0000FB17F3F6D4E7F3F6DC47E3F24137E3F0F
:1058C000AC3A7D3F283B7C3FBE147B3F9DC7793F70
:1058D000F853783F07BA763F0BFA743F4714733F8B
:1058E0000809713F9ED86E3F5E836C3FA7096A3FEF
:1058F000D86B673F59AA643F98C5613F05BE5E3FBC
:105900001A945B3F5348583F31DB543F3D4D513F64
:10591000029F4D3F12D1493F03E4453F70D8413FBC
:10592000F9AE3D3F4268393FF304353FBB85303F18
:105930004AEB2B3F5636273F9967223FD17F1D3FC9
:10594000C07F183F2A68133FDA390E3F9BF5083FA6
:105950003D9C033F275DFC3EEA5AF13E7533E63E2F
:1059600080E8DA3ECA7BCF3E15EFC33E2A44B83EFC
:10597000D47CAC3EE59AA03E31A0943E938E883E06
:10598000CCCF783E135C603EC2C5473EA2102F3E8E
:105990008340163E73B2FA3D36BDC83D05A9963D1B
:1059A00030FB483DB00AC93C0BA88C24B00AC9BCE6
:1059B00030FB48BD05A996BD36BDC8BD73B2FABD62
:1059C000834016BEA2102FBEC2C547BE135C60BE88
:1059D000CCCF78BE938E88BE31A094BEE59AA0BE8F
:1059E000D47CACBE2A44B8BE15EFC3BECA7BCFBEC2
:1059F00080E8DABE7533E6BEEA5AF1BE275DFCBE2A
:105A00003D9C03BF9BF508BFDA390EBF2A6813BF60
:105A1000C07F18BFD17F1DBF996722BF563627BFF1
:105A20004AEB2BBFBB8530BFF30435BF426839BF9B
:105A3000F9AE3DBF70D841BF03E445BF12D149BFA5
:105A4000029F4DBF3D4D51BF31DB54BF534858BF3E
:105A50001A945BBF05BE5EBF98C561BF59AA64BFFB
:105A6000D86B67BFA7096ABF5E836CBF9ED86EBF45
:105A7000080971BF471473BF0BFA74BF07BA76BF2A
:105A8000F85378BF9DC779BFBE147BBF283B7CBF4E
:105A9000AC3A7DBF24137EBF6DC47EBF6D4E7FBF09
:105AA0000FB17FBF43EC7FBF000080BF43EC7FBFDF
:105AB0000FB17FBF6D4E7FBF6DC47EBF24137EBF0D
:105AC000AC3A7DBF283B7CBFBE147BBF9DC779BF6E
:105AD000F85378BF07BA76BF0BFA74BF471473BF89
