:020000040800F2
:1000000048550020690200089D2100080D200008C5
:10001000992100086D0C0008D53B00080000000085
:10002000000000000000000000000000ED2D0008AE
:10003000851C0008000000007F0200088102000803
:10004000830200088302000883020008830200087C
:10005000830200088302000883020008830200086C
:10006000830200088302000883020008830200085C
:10007000830200088302000883020008830200084C
:10008000830200088302000883020008830200083C
:10009000710C000883020008830200088302000834
:1000A00083020008452F000883020008830200082D
:1000B000612F0008AD2F0008C92F00088302000837
:1000C00083020008830200088302000883020008FC
:1000D000830200088302000883020008D936000862
:1000E00083020008830200088302000883020008DC
:1000F0000130000883020008830200088302000820
:100100008302000883020008E52F0008830200082C
:1001100083020008B9320008830200088302000845
:10012000830200088302000883020008830200089B
:10013000830200088302000883020008830200088B
:10014000830200088302000883020008830200087B
:10015000830200088302000883020008830200086B
:10016000830200088302000883020008830200085B
:10017000830200088302000883020008830200084B
:10018000830200088302000800F002F800F05CF827
:100190000AA090E8000C82448344AAF10107DA45E2
:1001A00001D100F051F8AFF2090EBAE80F0013F0D8
:1001B000010F18BFFB1A43F0010318476C710000D0
:1001C0008C7100000A444FF0000C10F8013B13F052
:1001D000070408BF10F8014B1D1108BF10F8015BA0
:1001E000641E05D010F8016B641E01F8016BF9D193
:1001F00013F0080F1EBF10F8014BAD1C0C1B09D1EA
:100200006D1E58BF01F801CBFAD505E014F8016B5B
:1002100001F8016B6D1EF9D59142D6D370470000ED
:100220000023002400250026103A28BF78C1FBD8FF
:10023000520728BF30C148BF0B6070471FB506F09A
:1002400062FA1FBD10B510BD00F076F91146FFF738
:10025000F5FF05F082FB00F094F903B4FFF7F2FF1D
:1002600003BC00F097F9000009488047094800479F
:10027000FEE7FEE7FEE7FEE7FEE7FEE7FEE7FEE756
:10028000FEE7FEE704480549054A064B70470000B3
:10029000DD2E000889010008480F00204855002085
:1002A0004851002048510020DFED300AB5EEC00A69
:1002B00060EE200ABDEEE01A11EE100AF1EE10FA1F
:1002C00038BF401E00EE100A9FED291AB8EEC00A92
:1002D00070EEC00A20EE810ABCEEC00A10EE100AD1
:1002E00000EE100A0028B8EEC00A10EE810AB8BF6E
:1002F000002004DBB0F5807FC8BF4FF480701D493B
:1003000060EE000AB6EE001ADFED1C2A9FED1A2AF5
:1003100060EE011A60EE225A20EE813A20EE022AA7
:1003200021EEA01A01EB800073EE655A62EE202ADE
:10033000B7EE006A33EE003AD0EC043A76EE611A7A
:1003400071EE600A35EEE20A33EE413A32EEC21A3D
:1003500070EEA10A20EE230A64EE831A04EE200A4E
:1003600045EE011A31EE800A7047000083F9223E03
:100370000000804358690008ABAA2A3EABAAAA3EF7
:10038000DFED300AB5EEC00A60EE200ABDEEE01ADD
:1003900011EE100AF1EE10FA38BF401E00EE100AFE
:1003A0009FED291AB8EEC00A70EEC00A20EE810A4D
:1003B000BCEEC00A10EE100A00EE100A0028B8EEDB
:1003C000C00A10EE810AB8BF002004DBB0F5807FC0
:1003D000C8BF4FF480701D4960EE000AB6EE001AE7
:1003E000DFED1C2A9FED1A2A60EE011A60EE225AF8
:1003F00020EE813A20EE022A21EEA01A01EB8000C5
:1004000073EE655A62EE202AB7EE006A33EE003AC8
:10041000D0EC043A76EE611A71EE600A35EEE20A2B
:1004200033EE413A32EEC21A70EEA10A20EE230AF0
:1004300064EE831A04EE200A45EE011A31EE800ABA
:100440007047000083F9223E00008043686D000879
:10045000ABAA2A3EABAAAA3E10B5203AC0F00B8048
:10046000B1E81850203AA0E81850B1E81850A0E8B8
:100470001850BFF4F5AF5FEA027C24BFB1E8185012
:10048000A0E8185044BF18C918C0BDE810405FEA82
:10049000827C24BF51F8043B40F8043B08BF7047FE
:1004A000D20728BF31F8023B48BF11F8012B28BF03
:1004B00020F8023B48BF00F8012B70474FF00002C4
:1004C00000B5134694469646203922BFA0E80C504A
:1004D000A0E80C50B1F12001BFF4F7AF090728BF25
:1004E000A0E80C5048BF0CC05DF804EB890028BFA1
:1004F00040F8042B08BF704748BF20F8022B11F0CA
:10050000804F18BF00F8012B704770477047704745
:1005100010B500F009F8006810BD10B5044600F0F1
:1005200003F8046010BD000000487047E80E00208A
:1005300000487047E80E00207546FFF7F9FFAE4609
:1005400005006946534620F00700854618B020B5DF
:10055000FFF798FEBDE820404FF000064FF000077F
:100560004FF000084FF0000B21F00701AC46ACE85B
:10057000C009ACE8C009ACE8C009ACE8C0098D46C8
:10058000704710B50446AFF300802046BDE8104028
:10059000FFF763BE01491820ABBEFEE7260002004C
:1005A000704700002DE9F0412DED068BD2B00546D5
:1005B0000E46174618214CA8FFF780FF00204990EF
:1005C0004A904B9049A9284601F0C8F89DED490A88
:1005D000DFEDDB0A80EE201A11EE104A204606F00D
:1005E00021F841EC180B9FEDD70B53EC102B05F0C5
:1005F00023FD439142909DED4A0ADFEDD10A80EE42
:10060000201A11EE104A204606F00CF841EC180BA7
:100610009FEDCC0B53EC102B05F00EFD4591449053
:100620009DED4B0ADFEDC60A80EE201A11EE104A4E
:10063000204605F0F7FF41EC180B9FEDC20B53EC81
:10064000102B05F0F9FC47914690482130A8FFF7A0
:1006500035FF002491E0BD4800EB8400D0ED000A96
:10066000B0EE600AFFF720FEF0EE408A42A800EBF1
:10067000C40090ED001BB0EE410AF0EE610A51ECAF
:10068000100B05F0FDF908EE100AB0EE480AFFF76E
:100690000BFEF0EE400A9FEDAE0A9FEDAE1A01EEA2
:1006A000200AD5ED000A48EEC00A10EE908A4046B6
:1006B00005F0B8FF04EB440230AB03EBC20203C207
:1006C000A24800EB8400D0ED000AB0EE600AFFF70C
:1006D00057FEF0EE408A42A800EBC40090ED001BEC
:1006E000B0EE410AF0EE610A51EC100B05F0C8F9CA
:1006F00008EE100AB0EE480AFFF7D6FDF0EE400A09
:100700009FED930A9FED931A01EE200AD5ED010AA1
:1007100048EEC00A10EE908A404605F083FF04EBD5
:100720004402521C30AB03EBC20203C242A800EBEE
:10073000C40090ED001BB0EE410AF0EE610A51ECEE
:10074000100B05F09DF908EE100AB0EE480AFFF70D
:1007500017FED5ED020A9FED7F1A41EE000A10EE5A
:10076000908A404605F05EFF04EB4402921C30ABD9
:1007700003EBC20203C2601CC4B2032CFFF66BAFD2
:1007800048211EA8FFF79AFE002460E042A800EB73
:10079000C40090ED001BB0EE410AF0EE610A51EC8E
:1007A000100B05F06DF908EE100AB0EE480AFFF7DD
:1007B000E7FDDFED680A60EE208A644800EB840004
:1007C000D0ED000AB0EE600AFFF76EFDD5ED000A2D
:1007D00020EE208A5D4800EB8400D0ED000AB0EEE8
:1007E000600AFFF7CDFDD5ED010A00EE808A9FED8E
:1007F0005A0A38EE400ADFED590A30EE200A68EE58
:10080000808A42A800EBC40090ED001BB0EE410AC4
:10081000F0EE610A51EC100B05F032F908EE100A07
:10082000B0EE480AFFF740FDD5ED020A9FED491AE8
:1008300060EE810A40EE808A18EE908A404605F00C
:10084000F1FE1EAB03EB441203C2601CC4B2032CC6
:100850009CDB48210CA8FFF731FE96ED000B8DEDD7
:10086000060B96ED020B8DED080B96ED040B8DED4E
:100870000A0B18216846FFF721FE1EA801F09EF919
:100880000CAA30A91EA801F0B9F96A4606A90CA85D
:1008900005F0A6F800241EE0684600EBC40090EDC9
:1008A000001BB0EE410AF0EE610A9FED2D1B53ECE8
:1008B000112B51EC100B05F0D1F941EC180B9FED09
:1008C0002A0B53EC102B05F0B7FB4CAA02EBC40229
:1008D00003C2601CC4B2032CDEDB002428E04CA859
:1008E00000EBC40090ED001BB0EE410AF0EE610A8F
:1008F0009FED1F1B53EC112B51EC100B05F09CFBD3
:1009000041EC1A0B9FED1C0B53EC102B05F0A6F9D4
:1009100041EC190B9FED1A0B53EC102B05F0E2F88C
:1009200041EC180B05F0F2FA47F82400601CC4B241
:10093000032CD4DB52B0BDEC068BBDE8F081000087
:10094000000034434AD8124DFB21094028690008B1
:1009500000000943000046430000364300003442D3
:1009600000000060FB21094000000000008066409C
:100970000000000000009B40000000000080764066
:10098000000000000000E03F70B52DED108B9AB024
:1009900006460C46242111A8FFF790FD11A9304608
:1009A00001F060FB9FEDAA0AB0EE408A9FEDA80A15
:1009B0008DED100A00200D900E900F900A900B9074
:1009C0000C90079008900990049005900690019073
:1009D000029003909FED9E0AF0EE408A9FED9C0AE4
:1009E000B0EE409A9FED9A0AF0EE409A9FED980A79
:1009F00010EE105A9FED960AB0EE40EA9FED940A71
:100A0000F0EE40EA0DAA14A911A803F010F90AAA01
:100A100017A914A803F00BF907AA11A917A803F046
:100A200006F99DED0D0A20EE000ADDED0E0A9DEDA2
:100A30000E1A00EE810ADDED0F0A9DED0F1A00EE91
:100A4000810AF1EEC00AF0EE608A9DED0A0A20EEFE
:100A5000000ADDED0B0A9DED0B1A00EE810ADDEDBB
:100A60000C0A9DED0C1A00EE810AF1EEC00AB0EE00
:100A7000609A9DED070A20EE000ADDED080A9DED63
:100A8000081A00EE810ADDED090A9DED091A00EE53
:100A9000810AF1EEC00AF0EE609A38EE890A30EE73
:100AA000290AF0EE000A80EE201AB0EE418A38EEF4
:100AB000680A20EE080A78EE490A20EE200A78EE4D
:100AC000690A60EE200AB1EEE00A8DED100A28EE08
:100AD000890A20EE290AB1EE001AC0EE010A9DED46
:100AE000100A80EE801A11EE105A18EE900A05F0E6
:100AF00099FD41EC1B0B9FED571BB0EE4B0AF0EE3E
:100B00006B0A03F03DFBB0EE40AAF0EE60AA9FED49
:100B1000530B53EC102B51EC1A0B05F09FF841ECE2
:100B20001C0B284605F07EFD41EC1A0B9FED491B7E
:100B3000B0EE4A0AF0EE6A0A03F022FBB0EE40DAA9
:100B4000F0EE60DA53EC1C2B51EC1D0B05F080FC31
:100B500041EC1F0B04F094FF00EE100AF1EEC00A06
:100B6000B0EE60EA284605F05DFD41EC1D0B9FEDFF
:100B7000391BB0EE4D0AF0EE6D0A03F001FBB0EE4A
:100B800040BAF0EE60BA9FED331B9FED360B03F0D9
:100B9000F7FAB0EE40CAF0EE60CA53EC1B2B51ECF2
:100BA0001C0B05F055FC41EC1A0B04F069FF00EE3C
:100BB000100AF1EEC00AF0EE60EA04AB0DAA07A934
:100BC0000AA802F0C3FF01AA0AA90DA802F084FF37
:100BD0009DED110ADDED140A30EE200AF6EE000A52
:100BE00020EE200ADDED040A0EEE200ADDED010AFA
:100BF00000EEEE0A84ED000A9DED120ADDED150A05
:100C000030EE200AF6EE000A20EE200ADDED050A9D
:100C10000EEE200ADDED020A00EEEE0A84ED010A76
:100C20009DED130ADDED160A30EE200AF6EE000AFD
:100C300020EE200ADDED060A0EEE200ADDED030AA5
:100C400000EEEE0A84ED020A1AB0BDEC108B70BD06
:100C50000000000000000000000000400000000054
:100C600000001040000000000020764000BFFEE7BA
:100C70001CB508233D4A3E493E4800F03BFC00209D
:100C800005E03A49095C0DF80010411CC8B208287B
:100C9000F7DB45F65001009888421AD134480068C5
:100CA00040F28121884202D13349019808603048DE
:100CB000006840F28221884202D12F4901984860A1
:100CC0002B48006840F28321884202D12A490198CA
:100CD000886045F65601009888421AD12448006879
:100CE00040F28121884202D12449019808602048BD
:100CF000006840F28221884202D120490198486070
:100D00001B48006840F28321884202D11B490198A8
:100D100088601B49174800F03FF81949491C1548DD
:100D200000F03AF81649C91C124800F035F8154988
:100D3000104800F031F814490E4800F02DF813491E
:100D40000C4800F029F8114908310A4800F024F84D
:100D50000F49084800F020F80E49064800F01CF83A
:100D60000C490831034800F017F81CBD0A000020A8
:100D70001400002000640040840E0020780E002043
:100D80000100F0107000F030030000120800003283
:100D9000030000140800003400220C4B994202D1D9
:100DA0000023836111E0C1F3130201F000730BB162
:100DB000C2600AE001F080630BB1026105E001F05E
:100DC00000630BB1826000E0426070477000F03059
:100DD0002DE9F04F8BB006460F4614461D46DDF850
:100DE00050804FF00009CA46CB46B5F5807F43D00E
:100DF00012DC102D34D008DC012D25D0022D26D098
:100E0000042D27D0082D4FD127E0202D2BD0402DA9
:100E10002CD0802D48D12CE0B5F5805F38D009DC8E
:100E2000B5F5007F2BD0B5F5806F2BD0B5F5006FF1
:100E30003AD12AE0B5F5005F2DD0B5F5804F2DD021
:100E4000B5F5004F30D12CE04FF000092DE04FF008
:100E500001092AE04FF0020927E04FF0030924E0DE
:100E60004FF0040921E04FF005091EE04FF006099C
:100E70001BE04FF0070918E04FF0080915E04FF0AC
:100E8000090912E04FF00A090FE04FF00B090CE0DE
:100E90004FF00C0909E04FF00D0906E04FF00E0984
:100EA00003E04FF00F0900E000BF00BFB8F5807FFE
:100EB0004BD01ADCB8F1100F3BD00CDCB8F1010FAD
:100EC0002BD0B8F1020F2BD0B8F1040F2BD0B8F112
:100ED000080F52D12AE0B8F1200F2DD0B8F1400F01
:100EE0002DD0B8F1800F48D12CE0B8F5805F38D014
:100EF00009DCB8F5007F2BD0B8F5806F2BD0B8F5A2
:100F0000006F3AD12AE0B8F5005F2DD0B8F5804FD8
:100F10002DD0B8F5004F30D12CE04FF0000A2DE075
:100F20004FF0010A2AE04FF0020A27E04FF0030ACF
:100F300024E04FF0040A21E04FF0050A1EE04FF0D4
:100F4000060A1BE04FF0070A18E04FF0080A15E008
:100F50004FF0090A12E04FF00A0A0FE04FF00B0AB7
:100F60000CE04FF00C0A09E04FF00D0A06E04FF0DC
:100F70000E0A03E04FF00F0A00E000BF00BF7F48F9
:100F8000304418B1B0F5806F1AD10CE04FF0090B66
:100F900000208DF8120014208DF80400012148066D
:100FA00001F0F2F90DE04FF0090B0E208DF8120060
:100FB00040208DF804000121000501F0E5F900E072
:100FC00000BF00BFC4F3090078BBA012A0F58010D9
:100FD0008038092834D2DFE800F0050A0F14191E02
:100FE00023292E000121084601F0BEF929E0012144
:100FF000022001F0B9F924E00121042001F0B4F944
:101000001FE00121082001F0AFF91AE001211020B2
:1010100001F0AAF915E00121202001F0A5F910E066
:101020000121402001F0A0F90BE009E0012180201E
:1010300001F09AF905E00121080201F095F900E0BC
:1010400000BF00BF5A464946204600F013FF5A46EB
:101050005146204600F00EFF45EA080009900220A4
:101060008DF828008DF8290000208DF82A00012035
:101070008DF82B0009A9204600F060FE304600F0F4
:101080007FF800208DF81E008DF81F008DF82000DD
:101090008DF821008DF822008DF823008DF81A00BC
:1010A0008DF81B000B208DF81C0007208DF81D000B
:1010B0007D2F22D008DC0A2F0FD0142F11D0322F11
:1010C00013D0642F29D114E0FA2F1AD0B7F5FA7F84
:1010D0001BD0B7F57A7F20D11BE0C820ADF81800EF
:1010E0001CE06420ADF8180018E02820ADF81800C6
:1010F00014E01420ADF8180010E01020ADF818002E
:101100000CE00820ADF8180008E00420ADF8180045
:1011100004E00220ADF8180000E000BF00BF06A9FF
:10112000304600F0D6F800208DF8130001208DF82D
:1011300014000020ADF80800ADF80A00ADF80C006E
:10114000ADF80E00ADF8100001208DF8150002A8D2
:1011500000F032F800208DF8050003208DF806001D
:1011600001208DF8070001A801F01AF801220221E0
:10117000304600F0A5F80BB0BDE8F08F009CFFBF33
:1011800010B504460B48844209D10121480601F0FC
:101190000BF900214FF0007001F006F908E0012181
:1011A000880601F001F900214FF0806001F0FCF8A1
:1011B00010BD00000064004010B50021837A0122B8
:1011C00002FA03F13D4A126842F001023B4B1A60F9
:1011D0003A4A1C3212688A43384B1C331A60027B2D
:1011E000CAB9364A0C3212688A43344B0C331A603F
:1011F0004288C38842EA0343304A4032847A42F844
:1012000034300288838842EA03432C4A4032847A8D
:1012100002EBC4025360027B012A19D1274A0C3227
:1012200012680A43254B0C331A604288038842EA4D
:101230000343224A4032847A42F83430C288838899
:1012400042EA03431D4A4032847A02EBC4025360EF
:10125000C27A3AB9194A121D12688A43174B1B1DEC
:101260001A6006E0154A121D12680A43134B1B1D33
:101270001A60028932B9114A143212688A430F4B3C
:1012800014331A600289012A06D10C4A14321268FA
:101290000A430A4B14331A60427B012A06D1074ADB
:1012A0001C3212680A43054B1C331A60034A126849
:1012B00022F00102014B1A6010BD000000660040E0
:1012C0001AB143690B43436102E043698B434361B5
:1012D000704730B5024600200023146824F0020451
:1012E0001460146844F00104146000E05B1C54684E
:1012F00004F001041CB94FF6FF74A342F6D1546800
:1013000004F001040CB900206CE08C79012C04D1AC
:10131000146844F08004146003E0146824F080042E
:101320001460CC79012C04D1146844F0400414609A
:1013300003E0146824F0400414600C7A012C04D1FA
:10134000146844F02004146003E0146824F02004BE
:1013500014604C7A012C04D1146844F01004146019
:1013600003E0146824F0100414608C7A012C04D17A
:10137000146844F00804146003E0146824F00804BE
:101380001460CC7A012C04D1146844F00404146075
:1013900003E0146824F0040414608C78A407CD786A
:1013A00044EA05640D7944EA05444D7944EA05545C
:1013B0000D886D1E2C43D461146824F00104146060
:1013C000002300E05B1C546804F001041CB14FF6DC
:1013D000FF74A342F6D1546804F001040CB100205C
:1013E00000E0012030BD0246002019B9D36803F0A7
:1013F000030006E0012903D1136903F0030000E0B4
:101400000020704710B500F5D87303EB01131B687B
:1014100003F004031372137A53B900F5D87303EB86
:1014200001131B6840F2FF7404EA5353136009E090
:1014300000F5D87303EB01131B686FF0604404EAF6
:10144000D303536000F5D87303EB01131B6803F05B
:101450000203537200F5D87303EB01135B6803F0CA
:101460000F03937200F5D87303EB01135B681B0A3B
:10147000D37400F5D87303EB01139B68D37200F5A6
:10148000D87303EB01139B681C0A147300F5D8731F
:1014900003EB01139B681C0C547300F5D87303EB2A
:1014A00001139B681B0E937300F5D87303EB0113B4
:1014B000DB68D37300F5D87303EB0113DB681C0AF8
:1014C000147400F5D87303EB0113DB681C0C54741F
:1014D00000F5D87303EB0113DB681B0E937421B97D
:1014E000C36843F02003C36003E0036943F02003B3
:1014F000036110BD2DE9F04186B080460D461646C9
:101500001F46002400214046FFF76DFF18B9002058
:1015100006B0BDE8F08101AA00214046FFF772FF46
:10152000002405E00DF10F00005D3055601CC4B2D1
:10153000BC42F7DB019828600120E9E710B50246BC
:101540000020936803F08063B3F1806F00D110E056
:10155000936803F00063B3F1006F01D1012008E04C
:10156000936803F08053B3F1805F01D1022000E063
:101570000420042874D002F5C07303EB00131B6829
:1015800003F0010402F5C07303EB00131C600B7A37
:101590007BB94B7A0C8843EA445302F5C07404EBE0
:1015A00000142468234302F5C07404EB0014236084
:1015B00010E00B7A4C6843EAC4034C7A234302F5EB
:1015C000C07404EB00142468234302F5C07404EBD8
:1015D000001423608B7A03F00F038B7202F5C07343
:1015E00003EB00135B6823F00F0402F5C07303EBF9
:1015F00000135C6002F5C07303EB00135B688C7A28
:10160000234302F5C07404EB001463608B7B1C065B
:101610004B7B44EA03440B7B44EA0323CC7A234309
:1016200002F5C07404EB0014A3608B7C1C064B7C99
:1016300044EA03440B7C44EA0323CC7B234302F5B6
:10164000C07404EB0014E36002F5C07303EB0013F5
:101650001B6843F0010402F5C07303EB00131C6028
:1016600010BD000010B50246002321B1012907D0AA
:1016700002290FD109E090681D4C00EA04030BE039
:1016800090681C4C00EA040306E090681A4C00EADB
:10169000040301E0002300BF00BF184C181BA34245
:1016A00016D007DC83B16FF08060184470B1022857
:1016B00018D111E0B0F5007F10D0114C204448B192
:1016C000B0F5003F0ED10BE002230DE000230BE04C
:1016D000002309E0002307E0012305E0012303E0E4
:1016E000012301E0002300BF00BFD8B210BD0000FD
:1016F00003000004000300080000031000010008BC
:101700000001FFF72DE9F04385B081460D46904674
:101710001E4600240095019500208DF808008DF8E4
:1017200009008DF80A6000BF06E018F804100DF1FA
:101730000B000155601C84B2B442F6DB6946484692
:10174000FFF7FCFE0746002400BF39464846FFF776
:1017500089FF0128F9D105B0BDE8F083F0B52DED82
:10176000108B8DB006460D4600200A900B900C9011
:101770000790089009900490059006900024DDE001
:10178000FE4800EB8400D0ED000AB0EE600AFEF7E0
:101790008BFDB0EE408AF94800EB8400D0ED000AE2
:1017A000B0EE600AFEF780FDD6ED000A9FEDF41A58
:1017B00041EE000A28EE208AF04800EB8400D0EDCC
:1017C000000AB0EE600AFEF7DBFDF0EE408AEB485F
:1017D00000EB8400D0ED000AB0EE600AFEF7D0FD09
:1017E000D6ED010A9FEDE61A41EE000A08EEA08A46
:1017F0009FEDE40A28EE000A0AA800EB840080EDC1
:10180000000A96ED020ADFEDE00A20EE200A07A8A2
:1018100000EB840080ED000A9FEDDC1B9FEDDD0BEB
:1018200002F0AEFCB0EE409AF0EE609A9FEDD71B4E
:101830009FEDDA0B02F0A4FCB0EE40BAF0EE60BA15
:1018400096ED020A10EE101A084604F0EBFE41EC89
:101850001D0B9FEDCE1BB0EE4D0AF0EE6D0A02F0AF
:101860008FFC8DED020BC54800EB8400D0ED000A23
:10187000B0EE600AFEF784FDD6ED010A9FEDC01AB6
:1018800041EE000A10EE907A384604F0CBFE41ECAF
:101890001F0B9FEDBE1BB0EE4F0AF0EE6F0A02F079
:1018A0006FFCB0EE40DAF0EE60DAB44800EB840092
:1018B000D0ED000AB0EE600AFEF7F6FCD6ED000AA5
:1018C0009FEDAF1A41EE000A10EE907A384604F010
:1018D000A9FE41EC1F0B9FEDAD1BB0EE4F0AF0EEE1
:1018E0006F0A02F04DFCB0EE40EAF0EE60EA53EC15
:1018F0001D2B51EC1E0B04F0F5F8CDE900019DED18
:10190000020B53EC102B9DED000B51EC100B04F06F
:10191000E9F841EC1C0B53EC1B2B04F0E3F841EC11
:101920001A0B53EC192B04F093FD41EC180B04F047
:10193000A7F804A941F82400601CC4B2032CFFF6E8
:101940001FAF0024CEE004A800EB840090ED000A55
:101950000AA800EB8400D0ED000A30EE600A10EE19
:10196000101A084604F05EFE41EC190BB0EE490A6D
:10197000F0EE690A02F0F8FBB0EE408AF0EE608A01
:101980009FED880B53EC102B51EC180B04F018FB57
:1019900025D20AA800EB840090ED001AB1EE411A9E
:1019A00004A800EB8400D0ED001A31EE611AB0EE0D
:1019B000410A07A800EB840090ED001AF0EE001A2F
:1019C00021EE211AF0EE410A02F042FAF0EE000A8E
:1019D00020EE200A05EB840080ED000A80E004A8D8
:1019E00000EB840090ED000A10EE101A084604F097
:1019F00019FE41EC1C0B9FED651BB0EE4C0AF0EE9E
:101A00006C0A02F0BDFBB0EE40AAF0EE60AA07A897
:101A100000EB840090ED000A10EE101A084604F066
:101A200001FE41EC1E0B9FED591BB0EE4E0AF0EE8D
:101A30006E0A02F0A5FBB0EE40CAF0EE60CA0AA83A
:101A400000EB840090ED000A10EE101A084604F036
:101A5000E9FD41EC1E0B9FED4D1BB0EE4E0AF0EE82
:101A60006E0A02F08DFBB0EE40DAF0EE60DA53EC75
:101A70001C2B51EC1D0B04F035F841EC1B0B53EC07
:101A80001A2B04F0E5FC41EC190B03F0F9FF00EE12
:101A9000100AF1EEC00A07A800EB840090ED000ADE
:101AA000B1EE400A30EE600AB0EE408A04A800EBC6
:101AB000840090ED000A0AA800EB840090ED001A63
:101AC00030EE410AF0EE400AB0EE480A02F0C0F9EA
:101AD000F0EE000A20EE200A05EB840080ED000AFB
:101AE000601CC4B2032CFFF62EAF00203FE005EBD4
:101AF0008001D1ED000A9FED2D1A80EE810ADFED05
:101B00002C0A20EE200A05EB800181ED000A05EB8E
:101B1000800191ED000ADFED260AB4EEE00AF1EE55
:101B200010FA0BDD05EB800191ED000ADFED210AD3
:101B300030EE600A05EB800181ED000A05EB8001C3
:101B400091ED000ADFED1C0AB4EEE00AF1EE10FAA6
:101B50000BD205EB800191ED000ADFED160A30EEA5
:101B6000200A05EB800181ED000A411CC8B2032860
:101B7000BDDB0DB0BDEC108BF0BD00002869000886
:101B8000000009C30000C6C30000C64300000000F7
:101B9000000000400000000000207640000000002F
:101BA00000C068407B14AE47E17A843FDB0F4940B8
:101BB000000034430000B443000034C370B5054650
:101BC000002414E005EB441090ED001BB0EE410A38
:101BD000F0EE610A53EC102B9FED061B51EC110B3C
:101BE00004F03CF805EB441203C2601CC4B2032CA1
:101BF000E8DB70BD000000000000F03F2DE9F0417F
:101C00002DED028B06460F469046002430E000255D
:101C10002AE004EB4400284407EBC00090ED001BD1
:101C2000B0EE410AF0EE610A53EC102B9FED131B4E
:101C300051EC110B04F000FA41EC180B06EB4410C8
:101C400090ED001BB0EE410AF0EE610A53EC102B50
:101C500051EC180B04F0F0F904EB44022A4408EBB1
:101C6000C20203C2681CC5B2032DD2DB601CC4B221
:101C7000032CCCDBBDEC028BBDE8F0810000000042
:101C80000000F0BF704700001EB503460C46002060
:101C90000090019002909FED1B0AF0EE401A6A46F8
:101CA0002146184601F098FF9DED000A20EE000A3B
:101CB000DDED010A9DED011A00EE810ADDED020A5B
:101CC0009DED021A00EE810AF1EEC00AF0EE601AF4
:101CD00093ED000A20EE000AD3ED010A93ED011AFC
:101CE00000EE810AD3ED020A93ED021A00EE810A9A
:101CF000F1EEC00A81EEA00AF0EE401AB0EE610AE1
:101D00001EBD00000000000000B50421034800F0E3
:101D100009F802480249086000BD00005C0E00207E
:101D2000600E00200246002003E0034BC35C135406
:101D3000401C8842F9D3704700000408F0B50A46F9
:101D400000210023002400BF3DE0012505FA01F336
:101D5000156805EA03049C4234D105684F00032648
:101D6000BE40B543056015794E00B5400668354361
:101D700005601579012D02D01579022D16D18568DF
:101D80004F000326BE40B543856055794E00B540EF
:101D9000866835438560456801268E40B5434560B9
:101DA000456896798E40B6B235434560C5684F00A8
:101DB0000326BE40B543C560D5794E00B540C66820
:101DC0003543C560491C1029BFD3F0BD7CB504461E
:101DD0000D461646C4F30900002839D1A012A0F51B
:101DE00080108038092833D2DFE800F0050A0F148C
:101DF000191E23282D000121084600F0B5FA28E01D
:101E00000121022000F0B0FA23E00121042000F0BB
:101E1000ABFA1EE00121082000F0A6FA19E001212A
:101E2000102000F0A1FA14E00121202000F09CFA1B
:101E30000FE00121402000F097FA0AE00121802004
:101E400000F092FA05E00121080200F08DFA00E0AE
:101E500000BF00BF00958DF8046000208DF80600DB
:101E60008DF8070002208DF8050069462046FFF72F
:101E700065FF7CBDF0B5002300244D07ED0E02FA8E
:101E800005F3CE1000F1200555F826504E07F70E49
:101E90000F26BE40B543CF1000F1200646F827506C
:101EA000CE1000F1200555F8265045EA0304CE1067
:101EB00000F1200545F82640F0BD024600201369D8
:101EC0000B400BB1012000E0002070472DE9F043EA
:101ED0002DED0A8B83B004460D46B0EE408A1746BE
:101EE00095ED000A20EE000AD5ED010A95ED011AE4
:101EF00000EE810AD5ED020A95ED021A00EE810A84
:101F0000F1EEC00A10EE908A29462046FFF7BCFE8B
:101F100010EE109A94ED000A20EE000AD4ED010AAA
:101F200094ED011A00EE810AD4ED020A94ED021A32
:101F300000EE810AF1EEC00AF0EE608A0020009007
:101F40000190029000263EE0484604F06BFB41EC15
:101F50001C0B9FED2C1BB0EE4C0AF0EE6C0A02F04D
:101F60000FF9B0EE40AAF0EE60AA404604F05AFB2A
:101F700041EC1C0B9FED231BB0EE4C0AF0EE6C0AFB
:101F800002F0FEF8B0EE40BAF0EE60BA53EC1A2B55
:101F900051EC1B0B04F05CFA41EC190B03F070FDE3
:101FA00000EE100AF1EEC00A80EEA80A04EB8600EB
:101FB000D0ED000A20EE200A684600EB860080ED96
:101FC000000A701CC6B2032EBEDB002012E0694678
:101FD00001EB800191ED000A05EB8001D1ED000AD3
:101FE00030EE600A20EE080A07EB800181ED000A5E
:101FF000411CC8B20328EADB03B0BDEC0A8BBDE884
:10200000F0830000000000000000004000BFFEE779
:1020100010B501210B48FFF750FF0B4908700B4822
:10202000007848B908460078012805D108460078AC
:1020300006490870012010BD034800780349087064
:102040000020F8E700100240580E0020590E002032
:1020500010B5012211460248FFF7B8FE10BD00007E
:102060000010024070B52DED028B05460E4600248F
:102070007FE005EB840090ED000ADFED410A80EE81
:10208000201A9FED400A21EE000AB0EE408AFEF7CA
:102090000BF9DFED3D8ADFED3D0A40EE808A00EE70
:1020A000104AB8EE400ADFED3A0A20EE200ADFEDD2
:1020B000340A80EE201A9FED330A21EE000AB0EEBA
:1020C000408AFEF7F1F828EE800A04EB440006EBA4
:1020D000800080ED000A05EB840090ED000ADFED42
:1020E000280A80EE201A9FED270A21EE000AB0EEA2
:1020F000408AFEF7D9F8DFED248ADFED240A40EEAE
:10210000808A00EE104AB8EE400ADFED210A20EE88
:10211000200A9FED1B1AC0EE010A9FED1A0A20EE5D
:10212000800AB0EE408AFEF72BF928EE800A04EB15
:10213000440006EB800080ED010A05EB8400D0ED41
:10214000000A9FED0F1A80EE810ADFED0E0A20EEE5
:10215000200AB0EE408AFEF713F9DFED0E0A20EEFA
:10216000200A04EB440006EB800080ED020A601CAC
:10217000C4B2032CFFF67DAFBDEC028B70BD000036
:1021800000003443DB0F4940000009430000464390
:102190000000F042000046C300BFFEE700BFFEE7BC
:1021A00070B5002100230F22C4781CB3174C24689B
:1021B00004F4E064C4F5E064C4F30721C1F104044D
:1021C000E3B20A4144789C40E1B284781440214350
:1021D0000C07210E0E4C05786155047804F01F059C
:1021E0000124AC4005786D11AD0005F1E025C5F87E
:1021F000004109E0047804F01F050124AC40054DBE
:102200000678761145F8264070BD00000CED00E020
:1022100000E400E080E100E002490143024A11606D
:10222000704700000000FA050CED00E070B52DEDE0
:10223000028B012000F0DEFB022000F0DBFB03201C
:1022400000F0D8FB03F0F2FA044640492068086029
:1022500060684860A068886000200BE03B4951F846
:1022600020103B4A52F82020891A3A4A42F820109E
:10227000411CC8B20328F1DB002007E0334951F8C4
:102280002010334A42F82010411CC8B20328F5DB65
:102290002E480568002D01DB284600E0684200EE6C
:1022A000900AB8EEE01ADFED2C1ADFED2C0AB0EE42
:1022B000600A01EE610A10EE100A04F0B3F941EC75
:1022C000180B03F0DDFB2649086020484568002D07
:1022D00001DB284600E0684200EE900AB8EEE01A02
:1022E000DFED1D1ADFED1D0AB0EE600A01EE610A96
:1022F00010EE100A04F096F941EC180B03F0C0FB45
:102300001749486011488568002D01DB284600E028
:10231000684200EE900AB8EEE01ADFED0F1ADFED2A
:102320000F0AB0EE600A01EE610A10EE100A04F026
:1023300079F941EC180B03F0A3FB094988600949BE
:102340000748FEF721FBBDEC028B70BDA00E0020FC
:10235000DC0E0020AC0E00203F55553E7B14D042D1
:10236000280000201C00002029B1064A1268024300
:10237000044B1A6004E0034A12688243014B1A605E
:10238000704700003038024029B1064A1268024303
:10239000044B1A6004E0034A12688243014B1A603E
:1023A000704700004038024029B1064A12680243D3
:1023B000044B1A6004E0034A12688243014B1A601E
:1023C000704700002038024029B1064A12680243D3
:1023D000044B1A6004E0034A12688243014B1A60FE
:1023E0007047000044380240F0B50021002200246C
:1023F000022500260223324F3F6807F00C0121B16D
:10240000042905D0082937D105E02E4F076036E0B2
:102410002D4F076033E02A4F3F1F3F68C7F38056B8
:10242000274F3F1F3F6807F03F036EB1264FB7FBB2
:10243000F3F7DFF88CC0ACF1040CDCF800C0CCF38F
:10244000881C07FB0CF40CE01E4FB7FBF3F7DFF81A
:1024500070C0ACF1040CDCF800C0CCF3881C07FBA6
:102460000CF4174F3F1F3F68C7F301477F1C7D00E7
:10247000B4FBF5F7076002E0124F076000BF00BF32
:102480000F4F3F6807F0F0010909104F7A5C0768A9
:10249000D74047600A4F3F6807F4E051890A0B4F65
:1024A0007A5C4768D7408760054F3F6807F4604112
:1024B000490B064F7A5C4768D740C760F0BD000003
:1024C000083802400024F40000127A00650E002053
:1024D00070B52DED0E8B90B00446B0EE408AF0EE54
:1024E000608A0E4600200D900E900F900A900B907F
:1024F0000C90182104A8FDF7E1FFFE4800780028A1
:102500007AD10120FB490870002011E004EB800122
:1025100091ED000AF84901EB8001D1ED000A30EE9F
:10252000600AF64901EB800181ED000A411CC8B246
:102530000328EBDBF14890ED000A20EE000AD0ED15
:10254000010A90ED011A00EE810AD0ED020A90ED29
:10255000021A00EE810AB1EEC09A90ED000A20EE58
:10256000000AD0ED010A90ED011A00EE810AD0EDCB
:10257000020A90ED021A00EE810AF1EEC00AE0486C
:10258000C0ED000A002524E019EE100A04F04AF814
:1025900041EC1B0BD94800EB850090ED000A10EED2
:1025A000101A084604F03EF841EC1D0B53EC182BB2
:1025B00003F042FD41EC1C0B53EC1B2B03F04EFBD4
:1025C00041EC1A0B03F05CFACC4941F82500681C79
:1025D000C5B2032DD8DB00200BE0C74901EB800119
:1025E00091ED000AC74901EB800181ED000A411C11
:1025F000C8B20328F1DB00BF002012E0BE4901EBA6
:10260000800191ED000ABF4901EB8001D1ED000A84
:1026100030EE600A0DA901EB800181ED000A411C3A
:10262000C8B20328EADB0AAA9FEDB70A0DA9B3488E
:10263000FFF74CFC002516E00AA800EB850090EDA2
:10264000000AAE4800EB8500D0ED000A30EE200A0B
:1026500010EE101A084603F0E5FF04AA02EBC502CB
:1026600003C2681CC5B2032DE6DB3EB39DED0D0A27
:1026700020EE000ADDED0E0A9DED0E1A00EE810A35
:10268000DDED0F0A9DED0F1A00EE810AF1EEC00A92
:102690009B4890ED001A80EE810AF7EE000A30EEBA
:1026A000C00A10EE105A284603F0BCFF41EC190B8B
:1026B00053EC182B03F0C0FC41EC180B9DED082BDC
:1026C000B0EE420AF0EE620A9DED082BB0EE421A1F
:1026D000F0EE621A53EC102B51EC110B03F0ACFC32
:1026E00041EC190B9DED062BB0EE420AF0EE620AAA
:1026F0009DED062BB0EE421AF0EE621A53EC102B51
:1027000051EC110B03F098FC41EC1C0B9DED042BDC
:10271000B0EE420AF0EE620A9DED042BB0EE421AD2
:10272000F0EE621A53EC102B51EC110B03F084FC09
:1027300041EC1D0B53EC1C2B03F0D4F941EC1B0BAB
:1027400053EC192B03F0CEF941EC1A0B03F098F976
:1027500000EE100AF1EEC00A6C48C0ED000A002538
:1027600020E06A48006803F05DFF41EC190B04A803
:1027700000EBC50090ED001BB0EE410AF0EE610ADF
:1027800053EC182B51EC100B03F056FC41EC1A0BD8
:1027900053EC192B03F062FA04AA02EBC50203C240
:1027A000681CC5B2032DDCDB002001900290039071
:1027B00001AA04A95048FDF7F5FE0198404302998B
:1027C00001FB0100039901FB010000EE100AF8EE85
:1027D000C00AB1EEE00A4E4880ED000A90ED000A12
:1027E000DFED4C0AB4EEE00AF1EE10FA1ADD00203B
:1027F00016E001A951F820109622514300EE101A5C
:10280000B8EEC00A4249D1ED000A80EE201ABDEEB2
:10281000C10A10EE101A01AA42F82010411CC8B2D9
:102820000328E6DB0120019901F01AFA022002993F
:1028300001F016FA0320039901F012FA2E4890EDE8
:10284000020AD4ED020A30EE600A10EE101A0846B1
:1028500003F0E8FE41EC1C0B9FED2F1BB0EE4C0A81
:10286000F0EE6C0A01F08CFCB0EE40AAF0EE60AA2B
:10287000214890ED010AD4ED010A30EE600A10EE15
:10288000101A084603F0CEFE41EC1E0B9FED221BF2
:10289000B0EE4E0AF0EE6E0A01F072FCB0EE40CAE5
:1028A000F0EE60CA144890ED000AD4ED000A30EE54
:1028B000600A10EE101A084603F0B4FE41EC1E0B3D
:1028C0009FED151BB0EE4E0AF0EE6E0A01F058FCBB
:1028D000B0EE40DAF0EE60DA53EC1C2B51EC1D0B3D
:1028E00003F000F941EC1B0B53EC1A2B03F0FAF840
:1028F00016E000004B0E00201C000020C40E00203B
:102900004C0E0020D00E00209A99993F500E0020C6
:10291000540E00200000164300000000000000409C
:1029200041EC190B03F0ACF800EE100AF1EEC00A0E
:10293000B7EE000AF4EEC00AF1EE10FA19D39DEDDD
:102940000D0A20EE000ADDED0E0A9DED0E1A00EED6
:10295000810ADDED0F0A9DED0F1A00EE810AF1EEFE
:10296000C00A1C4890ED000AF4EEC00AF1EE10FA1D
:1029700017DD0020184908700021012001F070F9CE
:102980000021022001F06CF90021032001F068F918
:1029900012A1134801F002F8012010B0BDEC0E8B1B
:1029A00070BD104890ED020ABDEEC00A8DED000A20
:1029B00090ED010ABDEEC00A10EE103A90ED000A4B
:1029C000BDEEC00A10EE102A07A1054800F0E6FF90
:1029D0000020E2E74C0E00204B0E0020730D0A0091
:1029E000005000401C00002025640925640925646E
:1029F0000D0A000030B587B004461F4903C9CDE970
:102A0000050104F540700090019000208DF8080049
:102A10008DF8090008208DF80A000598C0B28DF8DD
:102A20000B000598010A8DF80C100598010C8DF823
:102A30000D100598000E8DF80E000698C1B28DF8A5
:102A40000F100698010A8DF810100698010C8DF8E9
:102A500011100698000E8DF8120069460748FEF71F
:102A60006DFD054600BF29460448FEF7FBFD012821
:102A7000F9D107B030BD00001869000800640040BB
:102A8000F0B52DED108B81B0FFF7D0FBC348007877
:102A9000002857D1FFF7BCFA0546002D51D0C04899
:102AA000007820B101284AD002284AD148E000200D
:102AB00002F042FE002023E0BA4991ED000ABA4933
:102AC000096801EB4101B94A02EB810181ED000A7D
:102AD000B44991ED010AB449096801EB410102EBE7
:102AE000810181ED010AAF4991ED020AAE49096801
:102AF00001EB410102EB810181ED020A411CC8B2E8
:102B00000328D9DBA74890ED020ABDEEC00A8DED7F
:102B1000000A90ED010ABDEEC00A10EE103A90EDE9
:102B2000000ABDEEC00A10EE102AA1A1A34800F0D1
:102B300035FF9D480068401C9B49086001E000E0AB
:102B400000BF27E19E48007800287CD196480068A5
:102B500000EB4000954901EB800090ED020AF9EE90
:102B6000040AB4EEE00AF1EE10FA13DB00200EE0E6
:102B70009FED940A944981ED000A9FED920A81ED40
:102B8000010A9FED920A81ED020A411CC8B2032896
:102B9000EEDBC4E09FED8B0A10EE107A9FED890A00
:102BA000B0EE40FA9FED8A0A10EE104A7E480068A7
:102BB00000EB40007D4901EB800090ED000AB1EE92
:102BC000400ADFED840A30EE200AB0EE408A7648F3
:102BD000006800EB400001EB800090ED010AF3EE8D
:102BE0000E0A30EE600A10EE107A204603F01AFD4D
:102BF00041EC1E0BB0EE4E0AF0EE6E0A02F0E8F861
:102C0000B0EE40CAF0EE60CA384603F00BFD41EC6E
:102C10001D0B53EC1C2B03F00FFA41EC1A0B204652
:102C200003F000FD41EC1E0BB0EE4E0AF0EE6E0A12
:102C300001F036FAB0EE40CAF0EE60CA18EE100AA3
:102C400003F0F0FC00E0A4E041EC1D0B53EC1C2B66
:102C500003F0F2F941EC1B0B53EC1A2B02F042FF8C
:102C600041EC190B02F00CFF08EE900A204603F02D
:102C7000D9FC41EC1E0BB0EE4E0AF0EE6E0A01F0EC
:102C80000FFAB0EE40CAF0EE60CA384603F0CAFC54
:102C900041EC1D0B53EC1C2B03F0CEF941EC1A0B4D
:102CA000204603F0BFFC41EC1E0BB0EE4E0AF0EEE6
:102CB0006E0A02F08DF8B0EE40CAF0EE60CAB1EED6
:102CC000480A10EE100A03F0ADFC41EC1D0B53EC6A
:102CD0001C2B03F0B1F941EC1B0B53EC1A2B02F047
:102CE00001FF41EC190B02F0CBFE0FEE100A0020A1
:102CF00012E03549C1ED008A81ED01FA2A490968DF
:102D000001EB4101294A02EB810191ED020A2E49B2
:102D100081ED020A411CC8B20328EADB00BF00268D
:102D200021480068401C00EB4000204A02EB800074
:102D300090ED020A10EE101A084603F073FC41EC05
:102D4000180B9FED250B53EC102B03F073FA01D8F1
:102D5000012600E0002631469FED210B1A48FFF7BF
:102D6000B7FB012814D11048006800EB40000F4960
:102D700001EB800090ED020ADFED1B0AB4EE600A61
:102D8000F1EE10FA04D008480068401C06490860BB
:102D900000BF00BF01B0BDEC108BF0BD490E00209C
:102DA0004A0E00201C0000203400002038000020C3
:102DB00025640925640925640D0A000000500040BF
:102DC000480E002000000000B80E00200000F0C3F4
:102DD000A7E78E3D0000A0420000000000187C40E4
:102DE0000000000000805140008004C470470000D3
:102DF0000CB50020019000903448006840F4803009
:102E00003249086000BF3148006800F4003000908B
:102E10000198401C0190009818B90198B0F5A06F76
:102E2000F1D12A48006800F4003010B10120009070
:102E300001E0002000900098012846D1234840304E
:102E4000006840F080502149403108602048006807
:102E500040F480401E4908601C48083000681B4947
:102E6000083108600846006840F4004008600846E1
:102E7000006840F4A05008601648091F0860081F49
:102E8000006840F08070091F086000BF0F480068AC
:102E900000F000700028F9D040F205600E4908608B
:102EA0000A480830006820F003000849083108602B
:102EB0000846006840F00200086000BF0348083080
:102EC000006800F00C000828F8D10CBD0038024062
:102ED0000070004008544007003C024010B51548FF
:102EE000006840F47000134908601348006840F01F
:102EF00001001149086000200F49083108600E48A0
:102F000000680E4908400C4908600D48091D08601A
:102F1000081F006820F48020091F0860002006496F
:102F20000C310860FFF764FF4FF000600149803901
:102F3000086010BD88ED00E000380240FFFFF6FE9B
:102F40001030002410B50121044800F076F8012863
:102F500003D10121014800F061F810BD00000140DB
:102F600010B50121880700F068F8012817D1012168
:102F7000800700F053F80A480088401C0849088080
:102F800008480088401C0749088005480088012837
:102F900005DB00200249088001200349087010BDAC
:102FA00000000020060000200200002010B50121D2
:102FB000044800F042F8012803D10121014800F043
:102FC0002DF810BD0004004010B50121044800F0A8
:102FD00034F8012803D10121014800F01FF810BD89
:102FE0000008004010B50121044800F026F801282F
:102FF00003D10121014800F011F810BD000C004080
:1030000010B50121044800F018F8012803D101216E
:10301000014800F003F810BD00040140CA430282D9
:10302000704721B1028842F00102028004E0028868
:103030004FF6FE731A400280704730B502460020FA
:1030400000230024158A05EA0103958905EA010495
:1030500013B10CB1012000E0002030BD1AB183890A
:103060000B43838102E083898B4383817047000097
:103070002DE9FF4104460D4616461F46DDF828801F
:103080006949601A8C4270D01ADC6849A4EB0100CF
:103090008C426CD00ADCB4F1804F4ED0644820449E
:1030A000002852D0B0F5806F71D156E0B0F5806F36
:1030B00065D0B0F5006F6CD0B0F5406FF4D170E022
:1030C000B0F5923F21D009DCB0F5806F7AD0B0F531
:1030D000644F0AD0B0F5684F7CD10EE0B0F5943F54
:1030E0001BD0B0F5963F75D11FE001210846FFF7D0
:1030F0006BF919208DF800006DE001210220FFF727
:1031000063F92C208DF8000065E001210804FFF729
:103110005BF918208DF800005DE001211920FFF710
:1031200053F92C208DF8000055E001218804FFF7A9
:103130004BF91A208DF800004DE001210846FFF7F9
:1031400023F91C208DF8000045E001210220FFF743
:103150001BF91D208DF800003DE001210420FFF740
:1031600013F91E208DF8000035E023E0FFE7012170
:103170000820FFF709F932208DF800002BE001212B
:103180001020FFF701F936208DF8000023E021E040
:10319000FFE701212020FFF7F7F837208DF8000026
:1031A00019E001214020FFF7EFF82B208DF80000F7
:1031B00011E007E001218020FFF7E6F82C208DF8D0
:1031C000000008E001210802FFF7DEF82D208DF84D
:1031D000000000E000BF00BF0295ADF804600020D1
:1031E000ADF80C00ADF8060001A9204600F022F869
:1031F00001212046FFF712FF012211462046FFF76A
:103200002DFFF8B28DF8010008F0FF008DF80200E4
:1032100001208DF803006846FEF7C2FF0121204619
:10322000FFF7FFFEBDE8FF81001C0040000C0040DE
:1032300000FCFFBF00220288184B98420ED0184BAA
:1032400098420BD0B0F1804F08D0164B984205D071
:10325000154B984202D0154B984204D14FF68F730C
:103260001A404B881A43124B984207D0114B984290
:1032700004D04FF6FF431A400B891A4302804B6873
:10328000C3620B880385054B984202D0044B9842D9
:1032900001D18B7A038601238382704700000140AD
:1032A000000401400004004000080040000C004001
:1032B000001000400014004010B5002440F22551D9
:1032C000CE4800F0B2FA012808D140F22551CB488F
:1032D00000F083FAC94800F0E4FBC4B2C8480078A3
:1032E00010281DD2DFE800F0081D344960778EA356
:1032F000BAD1E8F2F1F0EFEE472C0ED1C1480078D8
:10330000C0EB0010C0490844BD4909784454BC488A
:103310000078401CBA49087002E00F20B8490870D4
:103320004EE1302C10DB332C0EDCB6480078C0EBBD
:103330000010B5490844B24909784454B0480078AF
:10334000401CAF49087002E00F20AD49087037E11A
:10335000582C0ED1AB480078C0EB0010AA490844A5
:10336000A74909784454A6480078401CA44908702D
:1033700002E00F20A249087022E12B2C01D02D2C55
:103380000ED1A0480078C0EB00109F4908449C492A
:10339000097844549A480078401C9949087002E022
:1033A0000F20974908700BE1302C10DB392C0EDC14
:1033B00094480078C0EB001093490844904909787C
:1033C00044548F480078401C8D49087002E00F205B
:1033D0008B490870F4E0302C10DB392C0EDC894866
:1033E0000078C0EB001088490844854909784454A6
:1033F00083480078401C8249087002E00F20804911
:103400000870DDE0592C0ED17E480078C0EB00102A
:103410007D4908447A490978445479480078401C29
:103420007749087002E00F2075490870C8E02B2C1E
:1034300001D02D2C0ED173480078C0EB00107249DA
:1034400008446F49097844546D480078401C6C4921
:10345000087002E00F206A490870B1E0302C10DBE0
:10346000392C0EDC67480078C0EB00106649084430
:1034700063490978445462480078401C60490870E8
:1034800002E00F205E4908709AE0302C10DB392CE6
:103490000EDC5C480078C0EB00105B4908445849DA
:1034A0000978445456480078401C5549087002E099
:1034B0000F205349087083E03B2C08D10120534969
:1034C000087018E067E05CE044E02CE014E05A2C5F
:1034D0000ED14C480078C0EB00104B4908444849D5
:1034E0000978445446480078401C4549087002E079
:1034F0000F204349087063E0302C10DB392C0EDCC0
:1035000040480078C0EB00103F4908443C49097826
:1035100044543B480078401C3949087002E00F20B1
:10352000374908704CE0302C10DB392C0EDC354864
:103530000078C0EB001034490844314909784454FC
:103540002F480078401C2E49087002E00F202C49BB
:10355000087035E0302C10DB392C0EDC294800785F
:10356000C0EB0010284908442549097844542448F0
:103570000078401C2249087002E00F2020490870A2
:103580001EE03B2C03D101202049087002E00F20EF
:103590001B49087014E000201949087000BF09E0B9
:1035A0000021184A1278C2EB0212174B1A44115428
:1035B000411CC8B20E28F3DB00201449087000BF7C
:1035C00000BF12480078012816D10D4800780A285B
:1035D0000DD100BF09E000210A4A1278C2EB0212A5
:1035E000094B1A441154411CC8B20E28F3DB0020C9
:1035F000034908700549087010BD000000500040E4
:103600001900002009000020900E00200800002072
:1036100010B588B0044604940020ADF81400ADF84D
:103620001600ADF81800ADF81C000C20ADF81A001B
:103630000121FEF799FE01210805FEF7A5FE0822EB
:103640000C212248FEF716FC082202212048FEF732
:1036500011FC00208DF80A0001208DF80B000220DB
:103660008DF80800C002019002208DF8090001A920
:103670001648FEF763FB02208DF808000420019035
:1036800001A91348FEF75AFB04A9124800F01CF9DF
:1036900035208DF80C0001208DF80F008DF80D00FD
:1036A0008DF80E004FF4A060FEF7B6FD03A8FEF7FC
:1036B00077FD012240F22551064800F0E0F8012193
:1036C000044800F099F808B010BD0000000802405E
:1036D000000C02400050004010B5002440F225517B
:1036E000074800F0A2F8012808D140F2255104480B
:1036F00000F073F8024800F0D4F9C4B210BD000025
:103700000048004010B588B0044604940020ADF88D
:103710001400ADF81600ADF81800ADF81C000C2030
:10372000ADF81A0001210420FEF71EFE01218804D5
:10373000FEF72AFE07220A212148FEF79BFB0722FB
:103740000B211F48FEF796FB00208DF80A00012090
:103750008DF80B0002208DF8080040020190022035
:103760008DF8090001A91648FEF7E8FA02208DF845
:1037700008008002019001A91148FEF7DFFA04A9B0
:10378000104800F0A1F827208DF80C0001208DF8DA
:103790000F008DF80D008DF80E004FF4A060FEF7BD
:1037A0003BFD03A8FEF7FCFC012240F22551054831
:1037B00000F065F80121034800F01EF808B010BDC4
:1037C000000802400048004001F40072B2F5007F9A
:1037D00000D100BFCA430280704710B50022002309
:1037E00040F66A14A14200D100BF0A12012494409D
:1037F000A3B2DC43048010BD21B1828942F400529F
:10380000828104E082894DF6FF731A4082817047FD
:1038100002460020B1F5007F00D100BF13880B40A5
:103820000BB1012000E00020704770B50246002473
:1038300000230025002040F66A16B14200D100BFE7
:10384000C1F3421501F01F03012606FA03F3012D0F
:1038500002D19689334006E0022D02D1168A334008
:1038600001E0968A33400C12012606FA04F4168809
:10387000344013B10CB1012000E0002070BDF0B560
:103880000346002400260025002040F66A17B942AE
:1038900000D100BF1846C1F3421401F01F060127F2
:1038A00007FA06F5012C01D10C3004E0022C01D1FD
:1038B000103000E014301AB107682F43076002E0AF
:1038C0000768AF430760F0BD2DE9FF4705460E4688
:1038D0000024A14600BFA046B08900B100BF2C8AD9
:1038E00024F44054F08804432C82AC8941F20C60EB
:1038F0008443B08831890843718908430443AC810B
:10390000AC8A24F44074B0890443AC826846FEF764
:103910006BFD2048854202D01F48854202D1DDF868
:103920000C9001E0DDF80890A88900F4004040B157
:1039300009EBC90000EB091031684900B0FBF1F751
:1039400007E009EBC90000EB091031688900B0FB02
:10395000F1F76420B7FBF0F004012009642101FBBA
:103960001078A88900F4004040B1322000EBC80074
:10397000B0FBF1F000F00700044308E0322000EB58
:1039800008106421B0FBF1F000F00F0004432C811B
:10399000BDE8FF8700100140001401400FB470B56E
:1039A00086B006460CA8019073E00B9800785C285E
:1039B0001CD10B98401C0B9000786E2809D07228FF
:1039C0000FD10D21304600F071F80B98401C0B9080
:1039D0000BE00A21304600F069F80B98401C0B9070
:1039E00003E00B98401C0B9000BF4BE00B98007855
:1039F000252840D10B98401C0B900078642818D0E3
:103A0000732833D1019810C801900BE0217830461B
:103A100000F04CF800BF40213046FFF7F9FE0028C7
:103A2000F9D0641C20780028F0D10B98401C0B9032
:103A300020E0019820C801900A2202A9284601F03E
:103A40005BFF02AC0BE02178304600F02FF800BF9E
:103A500040213046FFF7DCFE0028F9D0641C2078B6
:103A60000028F0D10B98401C0B9003E00B98401CF1
:103A70000B9000BF06E00B9810F8011B0B9030462E
:103A800000F014F800BF40213046FFF7C1FE0028C7
:103A9000F9D00B980078002887D106B070BC5DF88B
:103AA00014FB01468888C0F30800704730B504460F
:103AB0000D4600BF80212046FFF7AAFE0028F9D05E
:103AC00080212046FFF780FE40212046FFF77CFE44
:103AD000C5F30800A08030BD3EB504460D46134630
:103AE00000200090019002909FED170AF0EE401A1E
:103AF0006A462946204600F06FF89DED000A20EE48
:103B0000000ADDED010A9DED011A00EE810ADDEDEE
:103B1000020A9DED021A00EE810AF1EEC00AF0EEF3
:103B2000601A00200CE0694601EB800191ED000A6B
:103B3000C0EE210A03EB8001C1ED000A411CC8B2AE
:103B40000328F0DB3EBD00000000000070B586B029
:103B500005460E4614460020039004900590009000
:103B6000019002909FED1A0AF0EE401A03AA314626
:103B7000284600F031F86A46214603A800F02CF8E8
:103B80009DED000A20EE000ADDED010A9DED011A0F
:103B900000EE810ADDED020A9DED021A00EE810AB7
:103BA000F1EEC00AF0EE601A00200CE0694601EB6D
:103BB000800191ED000AC0EE210A03EB8001C1ED06
:103BC000000A411CC8B20328F0DB06B070BD00003B
:103BD0000000000000BFFEE790ED010AD1ED020AEF
:103BE00020EE200AD0ED020A91ED011A00EEC10A82
:103BF00082ED000A90ED020AD1ED000A20EE200AC3
:103C0000D0ED000A91ED021A00EEC10A82ED010A20
:103C100090ED000AD1ED010A20EE200AD0ED010A54
:103C200091ED001A00EEC10A82ED020A704791ED93
:103C3000000AD0ED000A30EE600A82ED000A91ED34
:103C4000010AD0ED010A30EE600A82ED010A91ED21
:103C5000020AD0ED020A30EE600A82ED020A7047D5
:103C6000F0B589B005460F4600242B4B0FCB05AEAF
:103C70000FC605F540700090019000208DF80800F7
:103C80008DF8090008208DF80A00069700BF3FE074
:103C900005A810F834008DF80B0005A830F83400A2
:103CA000010A8DF80C1005A850F83400010C8DF8AD
:103CB0000D1005A850F83400000E8DF80E0005A870
:103CC00000EBC40001798DF80F1005A800EBC400CB
:103CD0008088010A8DF8101005A800EBC400406828
:103CE000010C8DF8111005A800EBC4004068000E0F
:103CF0008DF8120069460948FDF720FC064600BF12
:103D000031460648FDF7AEFC0128F9D1601CC4B26B
:103D1000022CBDDB09B0F0BD6868000800640040FB
:103D20002DE9F04194B005460E461746002438228E
:103D30002E4906A8FCF790FB05F540700190029013
:103D400000208DF80C008DF80D0008208DF80E0075
:103D50000D960F97264911914942139100BF3FE0FC
:103D600006A810F834008DF80F0006A830F83400CB
:103D7000010A8DF8101006A850F83400010C8DF8D7
:103D8000111006A850F83400000E8DF8120006A895
:103D900000EBC40001798DF8131006A800EBC400F5
:103DA0008088010A8DF8141006A800EBC400406852
:103DB000010C8DF8151006A800EBC4004068000E39
:103DC0008DF8160001A90B48FDF7B8FB804600BF2F
:103DD00041460848FDF746FC0128F9D1601CC4B2F1
:103DE000072CBDDB14B0BDE8F0810000306800088E
:103DF000C0E1E4000064004003B401984100009871
:103E000050EAC12018BF04204A0D18BF40F001003D
:103E100040F2FF72B2EB515F08BF40F00200012890
:103E200008BF052002B070474100080218BF0420F7
:103E30000A0E18BF40F001004FF07F4232EA010144
:103E400008BF40F00200012808BF052070470000AD
:103E500010EE100A10B510EE901A4FF0684202EB07
:103E600040032DED028BB3F1654F3CBF02EB4102E5
:103E7000B2F1654F7CD200BFC0F3C753C1F3C75244
:103E80009A1A1B2A09DD10F0004F14BF9FED6E0A2D
:103E90009FED6E0ABDEC028B10BD12F11A0F1BDAFA
:103EA00011F0004F09D010F0004F0CBF9FED680AD1
:103EB0009FED680ABDEC028B10BD80EE208A18EEE3
:103EC000100AFFF7B1FF042808BF01F02DFCB0EE87
:103ED000480ABDEC028B10BD4200B2EB410F37D94E
:103EE00010F0004F19BFDFED5C1A9FED5C1ADFED9B
:103EF0005C1A9FED5C1AB0EE602A0A46F1EE400AA9
:103F000080F00041B0EE420A10460A1A5200B2F1A7
:103F1000807F34D2484010F0004FDFED532A9FEDF0
:103F2000533A1DBFBEEE002A71EEE21A31EE431A7B
:103F3000B6EE002A04BF71EEA21A31EE031AF0EEBB
:103F4000402A42EE602A40EE020A82EEA02A18E0E1
:103F500011F0004F04BF9FED461AF0EE411AD4D085
:103F600010F0004F1CBFDFED431A9FED431A00E035
:103F700026E004BFDFED411A9FED411AC5E780EE50
:103F8000202A22EE020ADFED3F0ADFED3F2ABDECD8
:103F9000028B40EE202ADFED3D0A40EE220ADFEDE3
:103FA0003C2A40EE202ADFED3B0A40EE220A22EEB8
:103FB000000A00EE201A31EE020A30EE210A10BD8E
:103FC0004FF07F42B2EB400F28BFB2EB410F05D25A
:103FD000BDEC028BBDE8104001F0A2BB40EA01033A
:103FE0005B0008BF41F0FF410BD0B2EB400F08BFB0
:103FF000B2EB410F08D120F0804000EE100A21F012
:10400000804100EE901A37E7B2EB400F12BF5FEA33
:10401000410240F0FF4001F000413FF42DAF4A0063
:1040200092EA40033FF528AF002AACBF9FED1A1A71
:104030009FED1A1A20EE010A60EE810A10EE100AB6
:1040400010EE901A18E70000DB0FC9BFDB0FC93F65
:10405000DB0F4940DB0F49C00000C9BF22AAFDB9F0
:104060000000C93F22AAFD390060ED3EC30ACE37E9
:1040700000000000000049C022AA7DBA00004940AB
:1040800022AA7D3A2DAD65BD8FB8D53D0FB511BEC5
:1040900061C84C3EA8AAAABE0000804F0000802F35
:1040A00010B52F499FED2C1B2DED020B84B0059808
:1040B00020F000408842D8BF9DED040B2DDD29493A
:1040C000884209D1049840B94FF00100FCF725FA65
:1040D00001F0F6FA06B010BD05DB9DED040B01F012
:1040E000DBFA06B010BD68469DED040B00F0D4FE6F
:1040F00010F0030004BF9DED021B9DED000B0CD0E2
:1041000001280ED09DED021B9DED000B022817D05B
:10411000012001F011FA06B010BD01F0D9F806B087
:1041200010BD9DED021B9DED000B012001F004FA76
:1041300051EC100B01F097FC06B041EC100B10BDD8
:1041400001F0C6F851EC100B01F08DFC06B041EC0B
:10415000100B10BD00000000000000000000000077
:10416000FB21E93F0000F07F2DED020B019820F0CC
:10417000004001909DED000B02B070470000000070
:104180002DE9F04D2DED040B2DED0E8B96B0DDE9F4
:104190002550279CDDF890A025F0004624F000482B
:1041A000BAF1000F14BF0121002101EB4502FC49C7
:1041B00053184A1093422AD3002814BF0123002326
:1041C00003EB44030B44F7498B4220D358EA000128
:1041D0009FEDF59B76D0DFF8D8B35D4503D1BAF1FA
:1041E000000F05D188E0BAF1000F08BF002100D010
:1041F000012101EB450111F5001F08D8002814BF6B
:104200000121002101EB440111F5001F0BD99DEDA7
:10421000261B9DED240B16B0BDEC0E8B04B0BDE843
:10422000F04D01F043BA0027002DBCBFE14988459D
:1042300021DAE1498845A8BF02271CDAC3451ADC08
:10424000DE4901EB2851142908DDC1F1340220FABE
:1042500002F101FA02F282420DD108E058B9C1F12F
:10426000140228FA02F101FA02F2424503D101F0E8
:104270000101C1F1020756EA0A0124D1002C22DA19
:10428000002D18BF022F01D0012F0AD00220FCF709
:1042900044F916B0BDEC0E8B04B0BDE8F04D01F052
:1042A000E3B90220FCF739F901F0DEF951EC100B0B
:1042B00001F0D9FB41EC100B16B0BDEC0E8B04B035
:1042C000BDE8F08D18E09FEDBEAB9FEDBF8B0028E1
:1042D00071D1B848804522D105F1804010F5801099
:1042E00008BFBAF1000F07D0B3450ADC002CA8BF05
:1042F0009DED260BE0DA0DE0B0EE490AF0EE690A1A
:10430000DAE7002C06DA9DED260B51EC100B01F0DC
:10431000AAFB6FE0AE48784490ED000BCCE7D8459F
:104320004DD1002C48DA2EB186423AD1BAF1000FB5
:1043300042D126E0BAF1000F13D00220FCF7EDF8CD
:1043400001F0CEF98DED020B9DED240B8DED000BF0
:1043500010EE900A039961F31E0003909DED020B8D
:10436000AAE78DED02AB9DED240B1AEE901A10EE2C
:10437000900A8DED000B61F31E0003909DED020B82
:104380009AE78DED028B9DED240B18EE901A10EE3E
:10439000900A8DED000B61F31E0003909DED020B62
:1043A0008AE709DA9DED240B51EC190B53EC102B25
:1043B00001F054FC1EE020E09DED240B7CE78642DA
:1043C0001BDAB4F1804F0DD0A4F10050B0F1FF50D2
:1043D00013D1002D11DB9DED240B51EC100B01F0DE
:1043E000C8FA07E09DED240B53EC102B51EC100B99
:1043F00000F0C2BC41EC100B5EE79DED240B51ECCC
:10440000100B01F007FABAF1000FCDE90E0142D10D
:104410009FED710B46B3A6F1E040B0F17F600CD088
:104420005E4538D1002D00DAA7B3022F0CBF012062
:104430004FF0FF3001F099FDDCE7002D01DD002C8D
:104440000DDA002D01DD002C1FDB002D16DA002C0B
:1044500014DB012F08BF9FED620B3FF42DAFB0EED0
:104460004A0AF0EE6A0A27E7022F18BF002D0CD087
:10447000012F0AD1002DFFF61FAF06E0002DB8BFB7
:10448000002C08DA012F3FF417AFB0EE480AF0EE27
:10449000680A11E71BE0012000EBE57050EA070114
:1044A00015D0791EB0EE498AF0EE698A084308BF3C
:1044B0009FED4D8B4E480025804570DD4D494E489F
:1044C000884514DDB0420DDB002C19DB2FE0012004
:1044D000FCF723F816B0BDEC0E8B04B0BDE8F04D30
:1044E00001F0EEB8B34502DC002C09DC1FE0864287
:1044F00002DA002C1BDA03E05E452BDD002C16DD12
:104500000220FCF70AF801F0EBF88DED020B53ECFA
:104510001A2B51EC180B01F08FFDCDE90001039926
:10452000019861F31E0003909DED020BC4E602208A
:10453000FBF7F3FF01F0E4F810EE901A18EE900A82
:104540008DED020B8DED008B61F31E0003909DED50
:10455000020BB1E69DED0E0B53EC192B51EC100B39
:1045600001F076FF9FED260BCDE9080153EC102BEF
:104570009DED080B51EC100B01F05EFD9FED221B31
:1045800053EC112B01F08CFE9DED081B53EC112B0D
:1045900001F052FD9FED1E1B53EC112B3CE08CE013
:1045A000FFFF1F00FFFF0F00000000000000F03FB2
:1045B0000000F03F0000F07F0000404301FCFFFFDF
:1045C000000000000000F07F00000000000000007C
:1045D000162F000000000000000000000000008016
:1045E000000000000000F0FF000000000000F0BF2D
:1045F0000000E0410000F043FFFFEF3F000000003B
:10460000000000000000D03F555555555555D53F89
:10461000000000000000E03F01F042FE9DED080BAD
:1046200041EC1A0B53EC102B51EC100B01F004FD74
:1046300053EC1A2B01F000FD41EC1A0B9FEDFE0B21
:1046400053EC102B9DED080B51EC100B01F0F4FC1A
:1046500041EC1B0B9FEDFA0B51EC1A0B53EC102B9A
:1046600001F0EAFC41EC1A0B9FEDF70B53EC102B19
:104670009DED080B51EC100B01F0DEFC53EC1A2BF6
:1046800001F0E6FE41EC1A0B51EC1B0B53EC1A2B1C
:1046900001F028FA0690CDE906519DED060B53EC8A
:1046A0001B2B51EC100B01F0D3FE53EC1A2B01F035
:1046B000F7FD41EC100B00F0A1B90020B6F5801F0A
:1046C0000EDA9FEDE30B53EC102B9DED0E0B51EC2E
:1046D000100B01F0B1FCCDE90E016FF034000E4675
:1046E00000EB2650A0F2FF37C6F31300DA4940F082
:1046F0007F6646F040568842D8BF002408DDD7497F
:104700008142C8BF012403DC0024A6F580167F1C6B
:10471000D348784400EBC4000F9690ED00CB9DED9C
:104720000E0B53EC1C2B51EC100B01F091FE9DED88
:104730000E0B41EC1B0B53EC1C2B51EC100B01F03E
:10474000D1F941EC100B51EC190B53EC102B01F08B
:1047500085FA41EC1D0B51EC1B0B53EC1D2B01F0AA
:104760006BFC41EC1A0BBF488DED10AB78441095F3
:1047700090ED000B4FF0005040EA660000EB8440E3
:104780008DED080B00F5002009909DED080B53EC12
:104790001C2B51EC100B01F05BFE9DED0E1B53EC3E
:1047A000112B01F07DFD41EC100B53EC102B9DED16
:1047B000100B51EC100B01F03FFC9DED080B41EC90
:1047C0001C0B53EC102B9DED100B51EC100B01F05A
:1047D00033FC53EC1B2B01F063FD53EC1C2B01F05D
:1047E00037FE53EC1D2B01F027FC41EC1C0B53EC66
:1047F0001A2B51EC1A0B01F01FFC41EC1B0B9A48D1
:104800000621B0EE4B0AF0EE6B0A784400F018FE79
:10481000B0EE401AF0EE601AB0EE41DAF0EE61DA76
:1048200053EC1B2B51EC1B0B01F006FC53EC1D2B26
:1048300001F002FC9DED100B41EC1B0B53EC1A2B0D
:1048400051EC100B01F04EF953EC1C2B01F0F4FB72
:1048500053EC1B2B01F046F99DED100B41EC1B0BAB
:1048600053EC102B51EC100B01F0E6FB41EC1D0B4F
:104870009FED7FEB53EC1E2B01F034F953EC1B2B17
:1048800001F030F90890CDE908519DED080B53EC8B
:104890001E2B51EC100B01F0DBFD53EC1D2B01F036
:1048A000D7FD53EC1B2B01F0FBFC9DED080B41ECFD
:1048B0001D0B53EC102B9DED100B51EC100B01F068
:1048C000BBFB41EC1B0B53EC1A2B51EC1D0B01F005
:1048D000B3FB9DED080B41EC1A0B53EC102B51EC84
:1048E0001C0B01F0A9FB53EC1A2B01F0FBF841EC77
:1048F0001A0B51EC1B0B53EC1A2B01F0F3F80C9034
:10490000CDE90C519DED0C0B53EC1B2B51EC100B16
:1049100001F09EFD53EC1A2B01F0C2FC41EC1B0B85
:104920009FED550B53EC102B9DED0C0B51EC100B28
:1049300001F082FB41EC1A0B9FED510B51EC1B0B6C
:1049400053EC102B01F078FB41EC1B0B9FED4E0B51
:1049500053EC102B9DED0C0B51EC100B01F06CFB8C
:1049600053EC1B2B01F0BEF841EC100B4848784487
:1049700000EBC40090ED001B51EC100B53EC112B1D
:1049800001F0B0F841EC1B0B384601F0EEFACDE92E
:10499000080153EC1B2B51EC1A0B01F0A3F841EC6E
:1049A000100B3C48784400EBC40090ED00CB51EC78
:1049B000100B53EC1C2B01F095F89DED081B53ECEC
:1049C000112B01F08FF80690CDE906519DED080BF3
:1049D00053EC102B9DED060B51EC100B01F038FD44
:1049E00053EC1C2B01F034FD53EC1A2B01F030FD7D
:1049F00053EC1B2B01F054FC41EC100B9DED261BDE
:104A000053EC102B8DED001B00959DED260B51EC0A
:104A1000100B01F011FB9DED000B41EC1A0B53EC58
:104A2000102B9DED260B51EC100B01F011FD9DEDAF
:104A3000061B53EC112B2FE0000000604715F73FD9
:104A4000FE822B654715F73F44DF5DF80BAE543E01
:104A500000000000000040438E9803007AB60B006F
:104A6000622A0000C02A00009A290000000000000D
:104A70000000000000000840000000E009C7EE3F11
:104A8000FD033ADC09C7EE3FF5015B14E02F3EBEA3
:104A900026280000E027000001F0CEFA53EC1A2B84
:104AA00001F020F89DED060B41EC1A0B53EC102B96
:104AB0009DED000B51EC100B01F0BEFACDE90C019D
:104AC0009DED0C0B51EC1A0B53EC102B01F00AF876
:104AD000CDE902010C46AA498C422FDB611A08433A
:104AE00018D19DED0C0B53EC102B9DED020B51ECEE
:104AF000100B01F0ADFC41EC1B0B9FEDA30B51EC37
:104B00001A0B53EC102B00F0EDFF53EC1B2B01F0B4
:104B100091FB2DD20220FBF700FD00F0E1FD10EE2D
:104B2000901A18EE900A8DED020B8DED008B61F35B
:104B30001E0003909DED020BFFF7BEBB944A24F0CC
:104B40000041914214D39349214408437FF4EFACD0
:104B50009DED0C0B53EC102B9DED020B51EC100B4B
:104B600001F076FC53EC1A2B01F064FB7FF6DFAC0E
:104B700024F000408849894A002601EB20518242F6
:104B80002BDA481C4FF4801121FA00F02044844AAB
:104B9000C0F30A517A44A1F2FF3192ED000B814A31
:104BA0008DED080BCA4020EA0202C0F3130040F466
:104BB0008010C1F1140120FA01F60992002CB8BF4F
:104BC00076429DED080B53EC102B9DED0C0B51EC38
:104BD000100B01F03DFCCDE90C019DED0C0B51ECEF
:104BE0001A0B53EC102B00F07DFF9FED6F0B08901C
:104BF000CDE9085153EC102B9DED080B51EC100B37
:104C000001F01AFA41EC1B0B9FED690B53EC102BD2
:104C10009DED080B51EC100B01F00EFA9DED0C0B05
:104C200041EC1C0B53EC102B9DED080B51EC100BC1
:104C300001F00EFC53EC1A2B01F032FB9FED5E1BD2
:104C400053EC112B01F0F8F953EC1C2B00F04AFF48
:104C500041EC1A0B51EC1B0B53EC1A2B00F042FFEA
:104C6000CDE902019DED020B53EC1B2B51EC100B17
:104C700001F0EEFB53EC1A2B01F012FB9DED020B41
:104C800041EC1A0B53EC102B51EC100B01F0D4F942
:104C9000CDE908014A489DED080B0521784400F054
:104CA000CFFB9DED081B51EC100B53EC112B01F0C9
:104CB000C3F99DED021B53EC112B01F0F1FACDE984
:104CC00006019DED020B53EC1A2B51EC100B01F079
:104CD000B3F953EC1A2B00F005FF9FED3B0B41ECB1
:104CE0001A0B53EC102B9DED060B51EC100B01F041
:104CF000AFFB9DED060B41EC1B0B53EC102B9DED18
:104D0000020B51EC100B01F097F953EC1B2B00F048
:104D1000A5FF53EC1A2B01F09BFB9DED021B53ECFE
:104D2000112B01F095FB53EC192B01F0B9FACDE9E9
:104D3000020101EB065001150029C8BF039015DCE4
:104D40009DED020B324651EC100B01F018FDFFF700
:104D500053F8042808BF00F0D3FC32469DED020B47
:104D600051EC100B01F00BFDCDE902019DED020BA2
:104D700051EC180B53EC102B01F05EF9FFF73ABB26
:104D80000000904000000000FE822B654715973C14
:104D900000CC904000346F3F01FCFFFF0000E03F7B
:104DA00098260000FFFF0F0000000000432EE63FA2
:104DB000396CA80C615C20BEEF39FAFE422EE63F4A
:104DC0003825000000000000000000000000004046
:104DD00010B52F499FED2C1B2DED020B84B00598CB
:104DE00020F000408842DCBF00209DED040B32DD46
:104DF0002849884209D1049840B94FF00100FBF7D7
:104E00008CFB00F05DFC06B010BD05DB9DED040BD6
:104E100000F042FC06B010BD68469DED040B00F0AA
:104E20003BF810F0030011D0012818D09DED021BB3
:104E30009DED000B02281AD000F04AFA51EC100B3D
:104E400000F011FE06B041EC100B10BD9DED021BF1
:104E50009DED000B012000F06FFB06B010BD9DED35
:104E6000021B9DED000B00F033FA06B010BD0120CF
:104E700000F062FB51EC100B00F0F5FD06B041ECC8
:104E8000100B10BD0000000000000000000000003A
:104E9000FB21E93F0000F07F2DE9F14F04462DEDA5
:104EA000020B2DED088B8AB09FEDE70B80ED020B16
:104EB000139EE74826F0004585420ADC9DED120B63
:104EC000002084ED000B0AB0BDEC088B03B0BDE8F8
:104ED000F08FE0489FEDE0AB9FEDE1BBA84247DDDE
:104EE000E14F9FEDE39B9FEDE48B9DED120B53ECA7
:104EF0001A2B51EC100B002E1CDD01F0A9FA41EC2D
:104F0000100BBD4208D053EC1B2B51EC100B01F0E1
:104F10009FFAC4E900010BE053EC192B51EC100B84
:104F200001F096FA53EC182B01F092FAC4E9000153
:104F30000120C8E700F0D6FD41EC100BBD4208D0BF
:104F400053EC1B2B51EC100B00F0CCFDC4E900011D
:104F50000BE053EC192B51EC100B00F0C3FD53EC9C
:104F6000182B00F0BFFDC4E900014FF0FF30AAE7A5
:104F7000C348A84279DB9DED120B51EC100B00F0F9
:104F800049FC41EC180B9FEDC00B53EC102B01F0CA
:104F900053F89FEDBF1B53EC112B00F0A3FD00F065
:104FA000B5FF074600F0E1FF41EC190B53EC1A2B5B
:104FB00001F042F853EC182B01F072F941EC180B98
:104FC00053EC1B2B51EC190B01F036F8DFF8C8A29B
:104FD00041EC100B4FEA15580125FA4453EC102B05
:104FE00051EC180B01F034FA032DC4E900013DD057
:104FF000C1F30A5005EB4511A8EB000011398142BD
:1050000034DA0AEB051BB0EE48AA9BED000BF0EE7C
:1050100068AA53EC102B51EC190B01F00DF841EC80
:105020001B0B51EC1A0B53EC1B2B01F011FA41EC4A
:10503000180B51EC1A0B53EC182B01F009FA53EC36
:105040001B2B01F005FA9BED020B41EC1A0B53EC04
:10505000102B51EC190B00F0EFFF53EC1A2B01F061
:10506000F7F941EC100B6D1CB8E70EE0002EA8BF5D
:105070003846BFF628AF94ED000B51EC100B00F052
:10508000F2FCC4E9000178421DE7C6F3130040F4C6
:10509000801EC6F30A50A0F2F530471100F01F053C
:1050A000C5F12000DDF848B0089000200690079078
:1050B0000520EC467949002D07EB0002794408BF32
:1050C00051F8221009D051F8223001EB8201AB4097
:1050D0004A68089922FA01F11943A1FB0E26A1FBA7
:1050E0000B131A449A4234BF0123002303EB060832
:1050F0000CEB8003D3E901A60E448E4234BF01219C
:10510000002192448A4411B1924502D903E09245AC
:1051100001D2012100E00021C3E901A641444CF87D
:105120002010011EA0F10100C4DC029800F1005023
:10513000850F0298DDE903678000DDF8148000F038
:1051400014FF41EC1A0B304600F026FF9FED541B74
:1051500053EC112B00F070FF41EC1B0B384600F0B4
:105160001BFF9FED511B53EC112B00F065FF41EC31
:10517000180B404600F010FF9FED4D1B53EC112B18
:1051800000F05AFF41EC190B51EC180B53EC192BA2
:1051900000F0A8FC53EC1B2B00F0A4FC53EC1A2BE2
:1051A00000F0A0FCCDE90801002008909DED080B5F
:1051B00053EC1A2B51EC100B01F04AF953EC1B2B5A
:1051C00001F046F953EC182B01F042F953EC192B7E
:1051D00001F066F89FED381B53EC112B00F02CFF0B
:1051E0009FED370B41EC180B53EC102B9DED080B8A
:1051F00051EC100B00F020FF53EC182B00F072FC68
:105200009FED310B41EC180B53EC102B9DED080B6F
:1052100051EC100B00F010FF53EC182B00F062FC67
:1052200041EC100B139810F0004F06D06D4251EC7A
:10523000100B00F018FC41EC100B284684ED000B1D
:1052400041E6000000000000000000000000000037
:10525000FB21E93F7CD9024000004054FB21F93F8B
:105260003163621A61B4D03DFB21F93F00000000B8
:105270000000601A61B4D03D7370032E8A19A33BFD
:10528000FB2139410000000083C8C96D305FE43F55
:10529000000000000000E03F5A220000A8210000AA
:1052A000000000000000103E000000000000103C64
:1052B000000000000000103A182D4454FB21F93D75
:1052C0003326A611460B113C00000054FB21F93D8A
:1052D00010B52DED040B2DED088B82B0B0EE419A88
:1052E000F0EE619A0B9820F000449FED4BABB4F1C7
:1052F000795F11DA9DED0A0B51EC100B00F006FE00
:10530000002801BFB0EE4A0AF0EE6A0A02B0BDEC16
:10531000088B04BF04B010BD9DED0A0B53EC102B9D
:1053200051EC100B00F088FE41EC180B3C480621B4
:10533000B0EE480AF0EE680A784400F081F853ECC9
:10534000182B51EC100B00F077FE9DED0A0B41EC91
:105350001B0B53EC192B51EC100B00F06DFE41ECC4
:10536000190B53EC1B2B51EC180B00F065FE53ECA2
:10537000192B01F06DF89FED2C0B41EC190B53EC40
:10538000102B51EC180B00F057FE41EC100B284885
:10539000844210DA53EC192B51EC100B01F058F841
:1053A00053EC1A2B00F07CFF41EC100B02B0BDEC6B
:1053B000088B04B010BD1F48A042BCBF9FED1E1B50
:1053C0008DED001B06DBA4F500100190002000907D
:1053D0009DED001B51EC100B53EC112B01F038F834
:1053E0009DED000B41EC180B53EC102B51EC1A0BFC
:1053F00001F02EF841EC1A0B53EC192B51EC180B61
:1054000001F026F853EC1A2B00F04AFF41EC100B88
:10541000CCE7000000000000000000000000F03FAA
:10542000C41E000000000000000000000000E03F7B
:105430003333D33F0000E93F000000000000D23FBB
:1054400070B504462DED028B4D1E00EBC500B0EE8D
:10545000408AF0EE608A90ED000B35F0060017D020
:1054600053EC182B51EC100B00F0E6FD41EC100B47
:105470006D1E04EBC50090ED001B51EC100B53ECBE
:10548000112B00F02FFB41EC100B35F00600E7D19B
:10549000022D36D0042D1CD0062D1CBFBDEC028B76
:1054A00070BD53EC182B51EC100B00F0C5FD94EDC2
:1054B0000A1B53EC112B00F015FB53EC182B00F0DA
:1054C000BBFD94ED081B53EC112B00F00BFB41ECE2
:1054D000100B53EC182B51EC100B00F0ADFD94EDBC
:1054E000061B53EC112B00F0FDFA53EC182B00F0C7
:1054F000A3FD94ED040B53EC102B00F0F3FA41ECF8
:10550000100B53EC182B51EC100B00F095FD94EDA3
:10551000021B53EC112B00F0E5FA53EC182B00F0B2
:105520008BFD94ED001B53EC112B00F0DBFABDEC6E
:10553000028B41EC100B70BD31B504462DED040B10
:105540002DED0A8BB0EE41BAF0EE61BA0B989DEDED
:105550000A0B20F00040B0F1795F0DDA51EC100B2E
:10556000FEF74AFC042808BF00F0CAF89DED0A0BBC
:10557000BDEC0A8B05B030BD53EC102B51EC100B79
:1055800000F05AFD41EC180B9DED0A0B53EC182B63
:1055900051EC100B00F050FD41EC190B2C48B0EE13
:1055A000480AF0EE680A05217844FFF749FF9FEDAD
:1055B0002ACBB0EE40AAF0EE60AA9CB353EC1C2BB1
:1055C00051EC190B00F038FD41EC1C0B53EC1A2B7D
:1055D00051EC190B00F030FD9FED210B41EC190B44
:1055E00053EC102B51EC1B0B00F026FD53EC192B48
:1055F00000F02EFF53EC182B00F01EFD53EC1B2B7C
:1056000000F026FF53EC1C2B00F022FF9DED0A1B3F
:1056100053EC112B00F044FEBDEC0A8B05B041ECBD
:10562000100B30BDFFE753EC1A2B51EC180B00F0B8
:1056300003FD53EC1C2B00F055FA53EC192B00F032
:10564000FBFC9DED0A1B53EC112B00F04BFAE3E73A
:10565000541D000000000000495555555555C5BF63
:10566000000000000000E03F9FED070B10B553EC79
:10567000102B9FED070B51EC100B00F0EFFA41ECF3
:10568000100B10BD00000000000000000000000032
:10569000000000000000F03F10B553EC102B51EC5F
:1056A000100B00F01FFA41EC100B10BD10B553ECBD
:1056B000112B51EC100B00F015FA41EC100B10BD42
:1056C0009FED050B10B553EC102B51EC100B00F0B7
:1056D000C5FA41EC100B10BD0000000000000000F6
:1056E0009FED050B10B553EC102B51EC100B00F097
:1056F000A3FC41EC100B10BD000000000000007086
:105700009FED050B10B553EC102B51EC100B00F076
:1057100093FC41EC100B10BD0000000000000010D5
:1057200030EE200A704700009FED020A20EE000ACA
:10573000704700000000001070B588B006460024D5
:105740002A4903C9CDE9060106F54070019002908F
:1057500000208DF80C008DF80D0008208DF80E004B
:1057600000BF3FE006A810F834008DF80F0006A82F
:1057700030F83400010A8DF8101006A850F83400F3
:10578000010C8DF8111006A850F83400000E8DF8A9
:10579000120006A800EBC40001798DF8131006A8CA
:1057A00000EBC4008088010A8DF8141006A800EBF5
:1057B000C4004068010C8DF8151006A800EBC40069
:1057C0004068000E8DF8160001A90948FBF7B6FEE7
:1057D000054600BF29460648FBF744FF0128F9D1DA
:1057E000601CC4B2012CBDDB08B070BD2868000885
:1057F000006400401CB5054903C9CDE90001082338
:105800006A4600210248FBF77DFF1CBD18680008AE
:105810000064004082B0CDE9000121F00040019019
:105820009DED000B02B051EC100B70470148006871
:1058300070470000106800080B4801780B4800789A
:1058400030B10B4800880B4A10800020084A1080B5
:105850000648017031B10020054A1080024A1070DC
:10586000012070470020FCE7020000201800002003
:10587000060000200400002008B54FF4A060FCF7EB
:10588000CBFC0020034640F2473240F2E731009063
:105890004FF08040FDF7ECFB4FF4E130FDF7B8FE30
:1058A0004FF4E130FDF72EFFFCF7D2FBFCF72CFAAA
:1058B0004FF4007043100E4A4FF4FA7100900D48F7
:1058C000FBF786FAFFF796FF4FF47A721146012034
:1058D000FEF726FA4FF47A7211460220FEF720FAFC
:1058E0004FF47A7211460320FEF71AFA08BD000041
:1058F0000004024000640040F0B503460D46164621
:10590000002729460A2E03D0002008702846F0BD43
:1059100033B9302001F8010B002008702846F6E763
:10592000002B03DA2D2001F8010B5B4242F21072CA
:105930000DE093FBF2F404B937B104F1300001F843
:10594000010B04FB123301270A2092FBF0F2002A1C
:10595000EFDC002008702846D9E710B5FFF78CFF70
:1059600006E001E0FDF78CF8FFF766FF0028F9D1AB
:10597000F7E700B52DED048B83B041EC190B00F077
:105980009BFC41EC180B18EE100A18EE901A8DEDE6
:10599000008B002818BF0120084320F00040C0F110
:1059A0007F6000F1E040C00F14D019EE101A19EE1C
:1059B000900A8DED009B002918BF0121084320F0BB
:1059C0000040C0F17F6000F1E040C00F04BF012043
:1059D000FAF7A3FD51EC180B03B0BDEC048B00BD2E
:1059E0002DE9F0412DED028B07468846164600242E
:1059F00033E000252DE008EBC50090ED002BB0EE64
:105A0000420AF0EE620A04EB4400284407EBC000AF
:105A100090ED002BB0EE421AF0EE621A53EC102B10
:105A200051EC110B00F008FB41EC180B06EBC40025
:105A300090ED001BB0EE410AF0EE610A53EC102B22
:105A400051EC180B00F04EF806EBC40203C2681CC0
:105A5000C5B2032DCFDB601CC4B2032CC9DBBDEC87
:105A6000028BBDE8F08181F00041704780F000407A
:105A7000704721F00041704720F00040704700005F
:105A800021F00042A2F16052B2F5801F01F0004304
:105A900028BFD2F17F6C0BD95FEA001C43EAC20237
:105AA00042EB507018BF704728BF20F001007047CC
:105AB000B2F5801FBCBF184670474FEA410C1CF579
:105AC000001F02D2084600F023BE70B500F05EFB56
:105AD00000000089FFF7F6BF4FF00040A0F58000FE
