:020000040800F2
:10000000D04C002071020008692400081923000860
:1000100065240008890F0008C13E000800000000A8
:100020000000000000000000000000007D2F00081C
:10003000A11F0008000000008702000889020008D4
:100040008B0200088B0200088B0200088B0200085C
:100050008B0200088B0200088B0200088B0200084C
:100060008B0200088B0200088B0200088B0200083C
:100070008B0200088B0200088B0200088B0200082C
:100080008B0200088B0200088B0200088B0200081C
:100090008D0F00088B0200088B0200088B020008FD
:1000A0008B020008D53000088B0200088B02000884
:1000B000F13000083D310008593100088B0200087A
:1000C0008B0200088B0200088B0200088B020008DC
:1000D0008B0200088B0200088B02000869380008B8
:1000E0008B0200088B0200088B0200088B020008BC
:1000F000913100088B0200088B0200088B02000877
:100100008B0200088B020008753100088B02000882
:100110008B020008493400088B0200088B0200089B
:100120008B0200088B0200088B0200088B0200087B
:100130008B0200088B0200088B0200088B0200086B
:100140008B0200088B0200088B0200088B0200085B
:100150008B0200088B0200088B0200088B0200084B
:100160008B0200088B0200088B0200088B0200083B
:100170008B0200088B0200088B0200088B0200082B
:100180008B0200088B02000800F002F800F061F812
:100190000AA090E8000C82448344AAF10107DA45E2
:1001A00001D100F056F8AFF2090EBAE80F0013F0D3
:1001B000010F18BFFB1A43F0010318471C7400001D
:1001C0003C7400000A444FF0000C10F8013B13F09F
:1001D000070408BF10F8014B1D1108BF10F8015BA0
:1001E000641E05D010F8016B641E01F8016BF9D193
:1001F00013F0080F1EBF10F8014BAD1C0C1B09D1EA
:100200006D1E58BF01F801CBFAD505E014F8016B5B
:1002100001F8016B6D1EF9D59142D6D370470000ED
:100220000023002400250026103A28BF78C1FBD8FF
:10023000520728BF30C148BF0B607047642900F0E7
:100240004B81002070471FB506F0ADFB1FBD10B5F8
:1002500010BD00F0FFFA1146FFF7F5FF05F09FFC17
:1002600000F01DFB03B4FFF7F2FF03BC00F020FB1E
:100270000948804709480047FEE7FEE7FEE7FEE73A
:10028000FEE7FEE7FEE7FEE7FEE7FEE70448054976
:10029000054A064B704700006D30000889010008D0
:1002A000D0060020D04C0020D0480020D0480020AC
:1002B000DFED300AB5EEC00A60EE200ABDEEE01AAE
:1002C00011EE100AF1EE10FA38BF401E00EE100ACF
:1002D0009FED291AB8EEC00A70EEC00A20EE810A1E
:1002E000BCEEC00A10EE100A00EE100A0028B8EEAC
:1002F000C00A10EE810AB8BF002004DBB0F5807F91
:10030000C8BF4FF480701D4960EE000AB6EE001AB7
:10031000DFED1C2A9FED1A2A60EE011A60EE225AC8
:1003200020EE813A20EE022A21EEA01A01EB800095
:1003300073EE655A62EE202AB7EE006A33EE003A99
:10034000D0EC043A76EE611A71EE600A35EEE20AFC
:1003500033EE413A32EEC21A70EEA10A20EE230AC1
:1003600064EE831A04EE200A45EE011A31EE800A8B
:100370007047000083F9223E00008043F86B0008BC
:10038000ABAA2A3EABAAAA3EDFED300AB5EEC00A00
:1003900060EE200ABDEEE01A11EE100AF1EE10FA3E
:1003A00038BF401E00EE100A9FED291AB8EEC00AB1
:1003B00070EEC00A20EE810ABCEEC00A10EE100AF0
:1003C00000EE100A0028B8EEC00A10EE810AB8BF8D
:1003D000002004DBB0F5807FC8BF4FF480701D495A
:1003E00060EE000AB6EE001ADFED1C2A9FED1A2A15
:1003F00060EE011A60EE225A20EE813A20EE022AC7
:1004000021EEA01A01EB800073EE655A62EE202AFD
:10041000B7EE006A33EE003AD0EC043A76EE611A99
:1004200071EE600A35EEE20A33EE413A32EEC21A5C
:1004300070EEA10A20EE230A64EE831A04EE200A6D
:1004400045EE011A31EE800A7047000083F9223E22
:100450000000804308700008ABAA2A3EABAAAA3E5F
:100460000FB41CB5074B06AA7B446946009005985B
:1004700000F0CFF90020694600F0DEF91CBC5DF801
:1004800014FB0000CD03000070B5044685690068C8
:10049000C10601D5302600E02026C00707D070BD78
:1004A000D4E9012130469047206A401C20626D1E2D
:1004B000F6D570BD70B5044685690078C00707D1D0
:1004C00070BDD4E9012120209047206A401C2062A1
:1004D0006D1EF6D570BD00002DE9F04106460024E2
:1004E00010687529314616A510D0AFF3008000289A
:1004F00002DA404213A507E031688A0701D512A548
:1005000002E0490704D511A5012401E0AFF3008002
:1005100000210A2206F1240709E0B0FBF2FCB0FB3F
:10052000F2F302FB1C00303078541846491C0028B6
:10053000F3D123462A463046BDE8F04100F00BB91E
:10054000000000002D0000002B0000002000000033
:100550002DE9F05F894604464FF0000ADFF824B128
:10056000FB44C0F820A02046E168884700287DD0E1
:10057000252806D0D4E901219047206A401C20623A
:10058000F1E700255F462046E168884720280646B7
:1005900007DB312E05D2B81910F8200C08B105433D
:1005A000F1E7A80701D525F00405C4F81CA0002731
:1005B000C4F818A02A2E09D0304605F035FA38B311
:1005C00004EB8708303EC8F8186019E059F8041B9E
:1005D000204604EB87029161E1688847012F0646B7
:1005E00018D1E069002820DA25F020051DE0D8F8B0
:1005F000180000EB800006EB40003038C8F8180007
:100600002046E1688847064605F00EFA0028EED13C
:10061000012F0AD02E2E08D12046E16888477F1C82
:100620000646022F45F02005C4DBA069002803DA46
:10063000404245F00105A061E80701D025F0100512
:10064000A6B1A6F14100192802D8203645F400656C
:100650004A463146204625604D46FFF7EFFD60B122
:10066000012807D0ED1D25F0070000E007E000F1AC
:10067000080978E705F1040975E730467AE7206A4A
:10068000BDE8F09FB06E000010B5203AC0F00B80BE
:10069000B1E81850203AA0E81850B1E81850A0E886
:1006A0001850BFF4F5AF5FEA027C24BFB1E81850E0
:1006B000A0E8185044BF18C918C0BDE810405FEA50
:1006C000827C24BF51F8043B40F8043B08BF7047CC
:1006D000D20728BF31F8023B48BF11F8012B28BFD1
:1006E00020F8023B48BF00F8012B70474FF0000292
:1006F00000B5134694469646203922BFA0E80C5018
:10070000A0E80C50B1F12001BFF4F7AF090728BFF2
:10071000A0E80C5048BF0CC05DF804EB890028BF6E
:1007200040F8042B08BF704748BF20F8022B11F097
:10073000804F18BF00F8012B704770477047704713
:1007400010B500F07FF8006810BD10B5044600F049
:1007500079F8046010BD2DE9F0470D4699469246A0
:10076000044600F124080168880604D5E06921F0F8
:100770001001216000E00120A84201DD471B00E0DC
:100780000027A1697A1902EB0900081AA0612078F4
:10079000C00602D42046FFF777FE002608E0D4E921
:1007A00001211AF806009047206A401C761C20623E
:1007B0004E45F4DB2078C0060AD52046FFF764FEDC
:1007C00006E0D4E9012130209047206A401C2062D5
:1007D000381EA7F10107F4DC07E0D4E9012118F87D
:1007E00005009047206A401C2062281EA5F10105E3
:1007F000F3DC2046FFF75EFE2078000602D50220DB
:10080000BDE8F0870120FBE701694A1C0261087816
:10081000704700B58FB0CDE9013100210591054940
:100820007944CDE9031011466846FFF791FE0FB0F9
:1008300000BD0000E5FFFFFF0A6802F8010B0A6037
:1008400070470000004870476C0600200048704761
:100850006C0600207546FFF7F9FFAE4605006946B5
:10086000534620F00700854618B020B5FFF70EFD6F
:10087000BDE820404FF000064FF000074FF00008A1
:100880004FF0000B21F00701AC46ACE8C009ACE822
:10089000C009ACE8C009ACE8C0098D46704710B586
:1008A0000446AFF300802046BDE81040FFF7DABCF5
:1008B00001491820ABBEFEE7260002007047000089
:1008C0002DE9F0412DED068BD2B005460E461746B8
:1008D00018214CA8FFF70AFF002049904A904B903E
:1008E00049A9284601F0C8F89DED490ADFEDDB0A69
:1008F00080EE201A11EE104A204605F0E3FF41EC8D
:10090000180B9FEDD70B53EC102B05F0E5FC439132
:1009100042909DED4A0ADFEDD10A80EE201A11EED9
:10092000104A204605F0CEFF41EC180B9FEDCC0B92
:1009300053EC102B05F0D0FC459144909DED4B0AF3
:10094000DFEDC60A80EE201A11EE104A204605F0AF
:10095000B9FF41EC180B9FEDC20B53EC102B05F0C7
:10096000BBFC47914690482130A8FFF7BFFE00240A
:1009700091E0BD4800EB8400D0ED000AB0EE600AC3
:10098000FFF796FCF0EE408A42A800EBC40090ED21
:10099000001BB0EE410AF0EE610A51EC100B05F0BD
:1009A00091F908EE100AB0EE480AFFF781FCF0EE6C
:1009B000400A9FEDAE0A9FEDAE1A01EE200AD5ED7A
:1009C000000A48EEC00A10EE908A404605F07AFF11
:1009D00004EB440230AB03EBC20203C2A24800EBBB
:1009E0008400D0ED000AB0EE600AFFF7CDFCF0EE17
:1009F000408A42A800EBC40090ED001BB0EE410A13
:100A0000F0EE610A51EC100B05F05CF908EE100AEB
:100A1000B0EE480AFFF74CFCF0EE400A9FED930A57
:100A20009FED931A01EE200AD5ED010A48EEC00AA7
:100A300010EE908A404605F045FF04EB4402521C3C
:100A400030AB03EBC20203C242A800EBC40090ED3E
:100A5000001BB0EE410AF0EE610A51EC100B05F0FC
:100A600031F908EE100AB0EE480AFFF78DFCD5ED1B
:100A7000020A9FED7F1A41EE000A10EE908A40466E
:100A800005F020FF04EB4402921C30AB03EBC202E2
:100A900003C2601CC4B2032CFFF66BAF48211EA832
:100AA000FFF724FE002460E042A800EBC40090EDB4
:100AB000001BB0EE410AF0EE610A51EC100B05F09C
:100AC00001F908EE100AB0EE480AFFF75DFCDFED11
:100AD000680A60EE208A644800EB8400D0ED000ACA
:100AE000B0EE600AFFF7E4FBD5ED000A20EE208AA5
:100AF0005D4800EB8400D0ED000AB0EE600AFFF71D
:100B000043FCD5ED010A00EE808A9FED5A0A38EECB
:100B1000400ADFED590A30EE200A68EE808A42A8CA
:100B200000EBC40090ED001BB0EE410AF0EE610A4C
:100B300051EC100B05F0C6F808EE100AB0EE480AAA
:100B4000FFF7B6FBD5ED020A9FED491A60EE810A68
:100B500040EE808A18EE908A404605F0B3FE1EAB48
:100B600003EB441203C2601CC4B2032C9CDB48217B
:100B70000CA8FFF7BBFD96ED000B8DED060B96ED77
:100B8000020B8DED080B96ED040B8DED0A0B182171
:100B90006846FFF7ABFD1EA801F09EF90CAA30A92C
:100BA0001EA801F0B9F96A4606A90CA805F03AF8A2
:100BB00000241EE0684600EBC40090ED001BB0EE80
:100BC000410AF0EE610A9FED2D1B53EC112B51EC05
:100BD000100B05F065F941EC180B9FED2A0B53EC57
:100BE000102B05F079FB4CAA02EBC40203C2601C77
:100BF000C4B2032CDEDB002428E04CA800EBC400C8
:100C000090ED001BB0EE410AF0EE610A9FED1F1B54
:100C100053EC112B51EC100B05F05EFB41EC1A0B61
:100C20009FED1C0B53EC102B05F03AF941EC190B1E
:100C30009FED1A0B53EC102B05F076F841EC180BD6
:100C400005F086FA47F82400601CC4B2032CD4DBFC
:100C500052B0BDEC068BBDE8F081000000003443CB
:100C60004AD8124DFB210940C86B00080000094317
:100C7000000046430000364300003442000000609C
:100C8000FB210940000000000080664000000000D9
:100C900000009B4000000000008076400000000043
:100CA0000000E03F70B52DED108B9AB006460C4663
:100CB000242111A8FFF71AFD11A9304601F038FBD5
:100CC0009FEDAA0AB0EE408A9FEDA80A8DED100AAA
:100CD00000200D900E900F900A900B900C900790B2
:100CE000089009900490059006900190029003905E
:100CF0009FED9E0AF0EE408A9FED9C0AB0EE409A6E
:100D00009FED9A0AF0EE409A9FED980A10EE105A65
:100D10009FED960AB0EE40EA9FED940AF0EE40EAAD
:100D20000DAA14A911A803F0F8F80AAA17A914A883
:100D300003F0F3F807AA11A917A803F0EEF89DED48
:100D40000D0A20EE000ADDED0E0A9DED0E1A00EEF2
:100D5000810ADDED0F0A9DED0F1A00EE810AF1EE1A
:100D6000C00AF0EE608A9DED0A0A20EE000ADDED71
:100D70000B0A9DED0B1A00EE810ADDED0C0A9DEDCC
:100D80000C1A00EE810AF1EEC00AB0EE609A9DEDF9
:100D9000070A20EE000ADDED080A9DED081A00EEB4
:100DA000810ADDED090A9DED091A00EE810AF1EED6
:100DB000C00AF0EE609A38EE890A30EE290AF0EEA9
:100DC000000A80EE201AB0EE418A38EE680A20EE62
:100DD000080A78EE490A20EE200A78EE690A60EEE9
:100DE000200AB1EEE00A8DED100A28EE890A20EE05
:100DF000290AB1EE001AC0EE010A9DED100A80EE3C
:100E0000801A11EE105A18EE900A05F05BFD41ECC5
:100E10001B0B9FED571BB0EE4B0AF0EE6B0A03F075
:100E200027FBB0EE40AAF0EE60AA9FED530B53EC07
:100E3000102B51EC1A0B05F033F841EC1C0B284633
:100E400005F040FD41EC1A0B9FED491BB0EE4A0A3C
:100E5000F0EE6A0A03F00CFBB0EE40DAF0EE60DA76
:100E600053EC1C2B51EC1D0B05F042FC41EC1F0B0D
:100E700004F028FF00EE100AF1EEC00AB0EE60EABE
:100E8000284605F01FFD41EC1D0B9FED391BB0EE10
:100E90004D0AF0EE6D0A03F0EBFAB0EE40BAF0EE58
:100EA00060BA9FED331B9FED360B03F0E1FAB0EE15
:100EB00040CAF0EE60CA53EC1B2B51EC1C0B05F042
:100EC00017FC41EC1A0B04F0FDFE00EE100AF1EEE7
:100ED000C00AF0EE60EA04AB0DAA07A90AA802F066
:100EE000ABFF01AA0AA90DA802F06CFF9DED110A43
:100EF000DDED140A30EE200AF6EE000A20EE200A9C
:100F0000DDED040A0EEE200ADDED010A00EEEE0A28
:100F100084ED000A9DED120ADDED150A30EE200A7F
:100F2000F6EE000A20EE200ADDED050A0EEE200A9C
:100F3000DDED020A00EEEE0A84ED010A9DED130AD2
:100F4000DDED160A30EE200AF6EE000A20EE200A49
:100F5000DDED060A0EEE200ADDED030A00EEEE0AD4
:100F600084ED020A1AB0BDEC108B70BD00000000C9
:100F700000000000000000400000000000001040E1
:100F8000000000000020764000BFFEE71CB50823EB
:100F90003D4A3E493E4800F03BFC002005E03A490E
:100FA000095C0DF80010411CC8B20828F7DB45F6B3
:100FB0005001009888421AD13448006840F28121DB
:100FC000884202D13349019808603048006840F2F5
:100FD0008221884202D12F49019848602B4800683D
:100FE00040F28321884202D12A490198886045F65F
:100FF0005601009888421AD12448006840F28121A5
:10100000884202D12449019808602048006840F2D3
:101010008221884202D12049019848601B4800681B
:1010200040F28321884202D11B49019888601B4904
:10103000174800F03FF81949491C154800F03AF8E4
:101040001649C91C124800F035F81549104800F03F
:1010500031F814490E4800F02DF813490C4800F0FF
:1010600029F8114908310A4800F024F80F490848C6
:1010700000F020F80E49064800F01CF80C49083131
:10108000034800F017F81CBD0A00002014000020DF
:101090000064004008060020FC0500200100F0105C
:1010A0007000F0300300001208000032030000144A
:1010B0000800003400220C4B994202D100238361C6
:1010C00011E0C1F3130201F000730BB1C2600AE03A
:1010D00001F080630BB1026105E001F000630BB128
:1010E000826000E0426070477000F0302DE9F04F00
:1010F0008BB006460F4614461D46DDF850804FF073
:101100000009CA46CB46B5F5807F43D012DC102DCE
:1011100034D008DC012D25D0022D26D0042D27D077
:10112000082D4FD127E0202D2BD0402D2CD0802D05
:1011300048D12CE0B5F5805F38D009DCB5F5007FEB
:101140002BD0B5F5806F2BD0B5F5006F3AD12AE0E2
:10115000B5F5005F2DD0B5F5804F2DD0B5F5004F1A
:1011600030D12CE04FF000092DE04FF001092AE0CA
:101170004FF0020927E04FF0030924E04FF0040983
:1011800021E04FF005091EE04FF006091BE04FF08B
:10119000070918E04FF0080915E04FF0090912E0BF
:1011A0004FF00A090FE04FF00B090CE04FF00C096B
:1011B00009E04FF00D0906E04FF00E0903E04FF093
:1011C0000F0900E000BF00BFB8F5807F4BD01ADCEC
:1011D000B8F1100F3BD00CDCB8F1010F2BD0B8F1F7
:1011E000020F2BD0B8F1040F2BD0B8F1080F52D159
:1011F0002AE0B8F1200F2DD0B8F1400F2DD0B8F172
:10120000800F48D12CE0B8F5805F38D009DCB8F504
:10121000007F2BD0B8F5806F2BD0B8F5006F3AD196
:101220002AE0B8F5005F2DD0B8F5804F2DD0B8F585
:10123000004F30D12CE04FF0000A2DE04FF0010AB2
:101240002AE04FF0020A27E04FF0030A24E04FF0B3
:10125000040A21E04FF0050A1EE04FF0060A1BE0E9
:101260004FF0070A18E04FF0080A15E04FF0090A9E
:1012700012E04FF00A0A0FE04FF00B0A0CE04FF0BB
:101280000C0A09E04FF00D0A06E04FF00E0A03E0E9
:101290004FF00F0A00E000BF00BF7F48304418B194
:1012A000B0F5806F1AD10CE04FF0090B00208DF8DB
:1012B000120014208DF804000121480601F0CAF93B
:1012C0000DE04FF0090B0E208DF8120040208DF834
:1012D00004000121000501F0BDF900E000BF00BFDE
:1012E000C4F3090078BBA012A0F58010803809284B
:1012F00034D2DFE800F0050A0F14191E23292E004E
:101300000121084601F096F929E00121022001F0AF
:1013100091F924E00121042001F08CF91FE0012162
:10132000082001F087F91AE00121102001F082F96C
:1013300015E00121202001F07DF910E0012140207D
:1013400001F078F90BE009E00121802001F072F949
:1013500005E00121080201F06DF900E000BF00BFC7
:101360005A464946204600F013FF5A465146204649
:1013700000F00EFF45EA0800099002208DF82800D1
:101380008DF8290000208DF82A0001208DF82B000F
:1013900009A9204600F060FE304600F07FF80020EA
:1013A0008DF81E008DF81F008DF820008DF82100AB
:1013B0008DF822008DF823008DF81A008DF81B009F
:1013C0000B208DF81C0007208DF81D007D2F22D0EA
:1013D00008DC0A2F0FD0142F11D0322F13D0642F16
:1013E00029D114E0FA2F1AD0B7F5FA7F1BD0B7F540
:1013F0007A7F20D11BE0C820ADF818001CE06420E3
:10140000ADF8180018E02820ADF8180014E01420FA
:10141000ADF8180010E01020ADF818000CE008201E
:10142000ADF8180008E00420ADF8180004E0022030
:10143000ADF8180000E000BF00BF06A9304600F07C
:10144000D6F800208DF8130001208DF8140000203C
:10145000ADF80800ADF80A00ADF80C00ADF80E00CC
:10146000ADF8100001208DF8150002A800F032F848
:1014700000208DF8050003208DF8060001208DF86E
:10148000070001A800F0F2FF01220221304600F01F
:10149000A5F80BB0BDE8F08F009CFFBF10B5044667
:1014A0000B48844209D10121480601F0E3F80021EC
:1014B0004FF0007001F0DEF808E00121880601F02D
:1014C000D9F800214FF0806001F0D4F810BD000081
:1014D0000064004010B50021837A012202FA03F172
:1014E0003D4A126842F001023B4B1A603A4A1C32F4
:1014F00012688A43384B1C331A60027BCAB9364AD9
:101500000C3212688A43344B0C331A604288C38809
:1015100042EA0343304A4032847A42F83430028847
:10152000838842EA03432C4A4032847A02EBC402A5
:101530005360027B012A19D1274A0C3212680A43F0
:10154000254B0C331A604288038842EA0343224A3F
:101550004032847A42F83430C288838842EA0343B6
:101560001D4A4032847A02EBC4025360C27A3AB90F
:10157000194A121D12688A43174B1B1D1A6006E098
:10158000154A121D12680A43134B1B1D1A6002896B
:1015900032B9114A143212688A430F4B14331A605D
:1015A0000289012A06D10C4A143212680A430A4BF6
:1015B00014331A60427B012A06D1074A1C32126892
:1015C0000A43054B1C331A60034A126822F00102D9
:1015D000014B1A6010BD0000006600401AB143695B
:1015E0000B43436102E043698B434361704730B56D
:1015F000024600200023146824F0020414601468DA
:1016000044F00104146000E05B1C546804F0010421
:101610001CB94FF6FF74A342F6D1546804F00104DC
:101620000CB900206CE08C79012C04D1146844F0D2
:101630008004146003E0146824F080041460CC7902
:10164000012C04D1146844F04004146003E01468D1
:1016500024F0400414600C7A012C04D1146844F086
:101660002004146003E0146824F0200414604C7A11
:10167000012C04D1146844F01004146003E01468D1
:1016800024F0100414608C7A012C04D1146844F006
:101690000804146003E0146824F008041460CC7A91
:1016A000012C04D1146844F00404146003E01468AD
:1016B00024F0040414608C78A407CD7844EA05640F
:1016C0000D7944EA05444D7944EA05540D886D1EB0
:1016D0002C43D461146824F001041460002300E05A
:1016E0005B1C546804F001041CB14FF6FF74A34264
:1016F000F6D1546804F001040CB1002000E0012090
:1017000030BD0246002019B9D36803F0030006E09B
:10171000012903D1136903F0030000E000207047A2
:1017200010B500F5D87303EB01131B6803F0040335
:101730001372137A53B900F5D87303EB01131B68C6
:1017400040F2FF7404EA5353136009E000F5D873C4
:1017500003EB01131B686FF0604404EAD30353608A
:1017600000F5D87303EB01131B6803F002035372F7
:1017700000F5D87303EB01135B6803F00F0393725A
:1017800000F5D87303EB01135B681B0AD37400F5F3
:10179000D87303EB01139B68D37200F5D87303EB86
:1017A00001139B681C0A147300F5D87303EB011333
:1017B0009B681C0C547300F5D87303EB01139B68F2
:1017C0001B0E937300F5D87303EB0113DB68D3731F
:1017D00000F5D87303EB0113DB681C0A147400F5E1
:1017E000D87303EB0113DB681C0C547400F5D87339
:1017F00003EB0113DB681B0E937421B9C36843F03C
:101800002003C36003E0036943F02003036110BDBC
:101810002DE9F04186B080460D4616461F4600244D
:1018200000214046FFF76DFF18B9002006B0BDE863
:10183000F08101AA00214046FFF772FF002405E075
:101840000DF10F00005D3055601CC4B2BC42F7DBE7
:10185000019828600120E9E710B50246002093684E
:1018600003F08063B3F1806F00D110E0936803F060
:101870000063B3F1006F01D1012008E0936803F029
:101880008053B3F1805F01D1022000E004200428DE
:1018900074D002F5C07303EB00131B6803F001045E
:1018A00002F5C07303EB00131C600B7A7BB94B7A13
:1018B0000C8843EA445302F5C07404EB0014246816
:1018C000234302F5C07404EB0014236010E00B7A8C
:1018D0004C6843EAC4034C7A234302F5C07404EB1A
:1018E00000142468234302F5C07404EB0014236041
:1018F0008B7A03F00F038B7202F5C07303EB0013B6
:101900005B6823F00F0402F5C07303EB00135C6007
:1019100002F5C07303EB00135B688C7A234302F576
:10192000C07404EB001463608B7B1C064B7B44EAA1
:1019300003440B7B44EA0323CC7A234302F5C074AF
:1019400004EB0014A3608B7C1C064B7C44EA03442C
:101950000B7C44EA0323CC7B234302F5C07404EBE5
:101960000014E36002F5C07303EB00131B6843F03F
:10197000010402F5C07303EB00131C6010BD0000EE
:1019800010B50246002321B1012907D002290FD149
:1019900009E090681D4C00EA04030BE090681C4CC1
:1019A00000EA040306E090681A4C00EA040301E030
:1019B000002300BF00BF184C181BA34216D007DC41
:1019C00083B16FF08060184470B1022818D111E023
:1019D000B0F5007F10D0114C204448B1B0F5003F65
:1019E0000ED10BE002230DE000230BE0002309E001
:1019F000002307E0012305E0012303E0012301E0C8
:101A0000002300BF00BFD8B210BD000003000004D7
:101A10000003000800000310000100080001FFF7A8
:101A20002DE9F04385B081460D4690461E460024C0
:101A30000095019500208DF808008DF809008DF8BB
:101A40000A6000BF06E018F804100DF10B00015504
:101A5000601C84B2B442F6DB69464846FFF7FCFEE0
:101A60000746002400BF39464846FFF789FF012892
:101A7000F9D105B0BDE8F083F0B52DED108B8DB038
:101A800006460D4600200A900B900C900790089097
:101A900009900490059006900024DDE0FE4800EBDC
:101AA0008400D0ED000AB0EE600AFEF701FCB0EE53
:101AB000408AF94800EB8400D0ED000AB0EE600ADD
:101AC000FEF7F6FBD6ED000A9FEDF41A41EE000A90
:101AD00028EE208AF04800EB8400D0ED000AB0EE3A
:101AE000600AFEF751FCF0EE408AEB4800EB840000
:101AF000D0ED000AB0EE600AFEF746FCD6ED010A12
:101B00009FEDE61A41EE000A08EEA08A9FEDE40A76
:101B100028EE000A0AA800EB840080ED000A96ED8A
:101B2000020ADFEDE00A20EE200A07A800EB84009D
:101B300080ED000A9FEDDC1B9FEDDD0B02F098FCB1
:101B4000B0EE409AF0EE609A9FEDD71B9FEDDA0B56
:101B500002F08EFCB0EE40BAF0EE60BA96ED020AEA
:101B600010EE101A084604F0ADFE41EC1D0B9FED7F
:101B7000CE1BB0EE4D0AF0EE6D0A02F079FC8DED51
:101B8000020BC54800EB8400D0ED000AB0EE600AFD
:101B9000FEF7FAFBD6ED010A9FEDC01A41EE000AEE
:101BA00010EE907A384604F08DFE41EC1F0B9FED4D
:101BB000BE1BB0EE4F0AF0EE6F0A02F059FCB0EE19
:101BC00040DAF0EE60DAB44800EB8400D0ED000AB1
:101BD000B0EE600AFEF76CFBD6ED000A9FEDAF1A7F
:101BE00041EE000A10EE907A384604F06BFE41ECAC
:101BF0001F0B9FEDAD1BB0EE4F0AF0EE6F0A02F027
:101C000037FCB0EE40EAF0EE60EA53EC1D2B51ECED
:101C10001E0B04F089F8CDE900019DED020B53EC99
:101C2000102B9DED000B51EC100B04F07DF841ECF6
:101C30001C0B53EC1B2B04F077F841EC1A0B53EC04
:101C4000192B04F055FD41EC180B04F03BF804A9E6
:101C500041F82400601CC4B2032CFFF61FAF00241F
:101C6000CEE004A800EB840090ED000A0AA800EB87
:101C70008400D0ED000A30EE600A10EE101A08461B
:101C800004F020FE41EC190BB0EE490AF0EE690AAF
:101C900002F0E2FBB0EE408AF0EE608A9FED880B26
:101CA00053EC102B51EC180B04F0DAFA25D20AA8E9
:101CB00000EB840090ED001AB1EE411A04A800EB8D
:101CC0008400D0ED001A31EE611AB0EE410A07A887
:101CD00000EB840090ED001AF0EE001A21EE211ABC
:101CE000F0EE410A02F02AFAF0EE000A20EE200A95
:101CF00005EB840080ED000A80E004A800EB84007E
:101D000090ED000A10EE101A084604F0DBFD41ECDD
:101D10001C0B9FED651BB0EE4C0AF0EE6C0A02F056
:101D2000A7FBB0EE40AAF0EE60AA07A800EB840083
:101D300090ED000A10EE101A084604F0C3FD41ECC5
:101D40001E0B9FED591BB0EE4E0AF0EE6E0A02F02C
:101D50008FFBB0EE40CAF0EE60CA0AA800EB840028
:101D600090ED000A10EE101A084604F0ABFD41ECAD
:101D70001E0B9FED4D1BB0EE4E0AF0EE6E0A02F008
:101D800077FBB0EE40DAF0EE60DA53EC1C2B51EC4E
:101D90001D0B03F0C9FF41EC1B0B53EC1A2B04F095
:101DA000A7FC41EC190B03F08DFF00EE100AF1EED9
:101DB000C00A07A800EB840090ED000AB1EE400ACB
:101DC00030EE600AB0EE408A04A800EB840090ED8B
:101DD000000A0AA800EB840090ED001A30EE410AD8
:101DE000F0EE400AB0EE480A02F0A8F9F0EE000A60
:101DF00020EE200A05EB840080ED000A601CC4B2CE
:101E0000032CFFF62EAF00203FE005EB8001D1ED63
:101E1000000A9FED2D1A80EE810ADFED2C0A20EEDC
:101E2000200A05EB800181ED000A05EB800191EDB0
:101E3000000ADFED260AB4EEE00AF1EE10FA0BDD3F
:101E400005EB800191ED000ADFED210A30EE600A1A
:101E500005EB800181ED000A05EB800191ED000AA0
:101E6000DFED1C0AB4EEE00AF1EE10FA0BD205EB3E
:101E7000800191ED000ADFED160A30EE200A05EB35
:101E8000800181ED000A411CC8B20328BDDB0DB002
:101E9000BDEC108BF0BD0000C86B0008000009C34A
:101EA0000000C6C30000C643000000000000004060
:101EB00000000000002076400000000000C06840E4
:101EC0007B14AE47E17A843FDB0F49400000344386
:101ED0000000B443000034C370B50546002414E08C
:101EE00005EB441090ED001BB0EE410AF0EE610AE4
:101EF00053EC102B9FED061B51EC110B03F0D0FFA0
:101F000005EB441203C2601CC4B2032CE8DB70BDB5
:101F1000000000000000F03F2DE9F0412DED028BA4
:101F200006460F469046002430E000252AE004EBE8
:101F30004400284407EBC00090ED001BB0EE410ABE
:101F4000F0EE610A53EC102B9FED131B51EC110BBB
:101F500004F0C2F941EC180B06EB441090ED001BA5
:101F6000B0EE410AF0EE610A53EC102B51EC180B65
:101F700004F0B2F904EB44022A4408EBC20203C2A3
:101F8000681CC5B2032DD2DB601CC4B2032CCCDBB1
:101F9000BDEC028BBDE8F081000000000000F0BF46
:101FA000704700001EB503460C46002000900190CB
:101FB00002909FED1B0AF0EE401A6A462146184631
:101FC00001F080FF9DED000A20EE000ADDED010A20
:101FD0009DED011A00EE810ADDED020A9DED021A67
:101FE00000EE810AF1EEC00AF0EE601A93ED000AED
:101FF00020EE000AD3ED010A93ED011A00EE810AEA
:10200000D3ED020A93ED021A00EE810AF1EEC00A46
:1020100081EEA00AF0EE401AB0EE610A1EBD00008B
:102020000000000000B50421034800F009F8024850
:102030000249086000BD0000E0050020E405002022
:102040000246002003E0034BC35C1354401C88424B
:10205000F9D3704700000408F0B50A4600210023B8
:10206000002400BF3DE0012505FA01F3156805EAEB
:1020700003049C4234D105684F000326BE40B5439B
:10208000056015794E00B540066835430560157941
:10209000012D02D01579022D16D185684F00032637
:1020A000BE40B543856055794E00B54086683543DE
:1020B0008560456801268E40B54345604568967940
:1020C0008E40B6B235434560C5684F000326BE401A
:1020D000B543C560D5794E00B540C6683543C56087
:1020E000491C1029BFD3F0BD7CB504460D461646E9
:1020F000C4F30900002839D1A012A0F5801080385F
:10210000092833D2DFE800F0050A0F14191E23282E
:102110002D000121084600F08DFA28E0012102205F
:1021200000F088FA23E00121042000F083FA1EE089
:102130000121082000F07EFA19E00121102000F0B2
:1021400079FA14E00121202000F074FA0FE0012157
:10215000402000F06FFA0AE00121802000F06AFAC6
:1021600005E00121080200F065FA00E000BF00BFB1
:1021700000958DF8046000208DF806008DF80700AA
:1021800002208DF8050069462046FFF765FF7CBDFB
:10219000F0B5002300244D07ED0E02FA05F3CE1032
:1021A00000F1200555F826504E07F70E0F26BE40C9
:1021B000B543CF1000F1200646F82750CE1000F1AD
:1021C000200555F8265045EA0304CE1000F12005FD
:1021D00045F82640F0BD00002DE9F0432DED0A8BB7
:1021E00083B004460D46B0EE408A174695ED000ACE
:1021F00020EE000AD5ED010A95ED011A00EE810AE4
:10220000D5ED020A95ED021A00EE810AF1EEC00A40
:1022100010EE908A29462046FFF7C4FE10EE109A71
:1022200094ED000A20EE000AD4ED010A94ED011AA3
:1022300000EE810AD4ED020A94ED021A00EE810A42
:10224000F1EEC00AF0EE608A00200090019002904A
:1022500000263EE0484604F035FB41EC1C0B9FEDA8
:102260002C1BB0EE4C0AF0EE6C0A02F001F9B0EE55
:1022700040AAF0EE60AA404604F024FB41EC1C0B9F
:102280009FED231BB0EE4C0AF0EE6C0A02F0F0F862
:10229000B0EE40BAF0EE60BA53EC1A2B51EC1B0BC7
:1022A00004F026FA41EC190B03F00CFD00EE100AC5
:1022B000F1EEC00A80EEA80A04EB8600D0ED000A19
:1022C00020EE200A684600EB860080ED000A701CB4
:1022D000C6B2032EBEDB002012E0694601EB80018E
:1022E00091ED000A05EB8001D1ED000A30EE600AA5
:1022F00020EE080A07EB800181ED000A411CC8B2FC
:102300000328EADB03B0BDEC0A8BBDE8F0830000D4
:10231000000000000000004000BFFEE710B50122F1
:1023200011460248FFF7E0FE10BD00000010024019
:1023300070B52DED028B05460E4600247FE005EBBF
:10234000840090ED000ADFED410A80EE201A9FED37
:10235000400A21EE000AB0EE408AFDF7A9FFDFED4A
:102360003D8ADFED3D0A40EE808A00EE104AB8EE6D
:10237000400ADFED3A0A20EE200ADFED340A80EE53
:10238000201A9FED330A21EE000AB0EE408AFDF7D5
:102390008FFF28EE800A04EB440006EB800080EDFE
:1023A000000A05EB840090ED000ADFED280A80EEBC
:1023B000201A9FED270A21EE000AB0EE408AFDF7B1
:1023C00077FFDFED248ADFED240A40EE808A00EEFD
:1023D000104AB8EE400ADFED210A20EE200A9FEDF8
:1023E0001B1AC0EE010A9FED1A0A20EE800AB0EE19
:1023F000408AFDF7C9FF28EE800A04EB440006EB93
:10240000800080ED010A05EB8400D0ED000A9FED0D
:102410000F1A80EE810ADFED0E0A20EE200AB0EEE0
:10242000408AFDF7B1FFDFED0E0A20EE200A04EB33
:10243000440006EB800080ED020A601CC4B2032C4D
:10244000FFF67DAFBDEC028B70BD00000000344391
:10245000DB0F494000000943000046430000F04202
:10246000000046C300BFFEE700BFFEE770B50021D5
:1024700000230F22C4781CB3174C246804F4E064D2
:10248000C4F5E064C4F30721C1F10404E3B20A41D6
:1024900044789C40E1B28478144021430C07210E1B
:1024A0000E4C05786155047804F01F050124AC40FA
:1024B00005786D11AD0005F1E025C5F8004109E092
:1024C000047804F01F050124AC40054D0678761110
:1024D00045F8264070BD00000CED00E000E400E08F
:1024E00080E100E002490143024A116070470000A8
:1024F0000000FA050CED00E070B52DED028B012017
:1025000000F08EFB022000F08BFB032000F088FB24
:1025100003F0AEFA044640492068086060684860ED
:10252000A068886000200BE03B4951F820103B4A2E
:1025300052F82020891A3A4A42F82010411CC8B2A9
:102540000328F1DB002007E0334951F82010334A1B
:1025500042F82010411CC8B20328F5DB2E4805685C
:10256000002D01DB284600E0684200EE900AB8EE3C
:10257000E01ADFED2C1ADFED2C0AB0EE600A01EE56
:10258000610A10EE100A04F09DF941EC180B03F0FB
:1025900099FB2649086020484568002D01DB284644
:1025A00000E0684200EE900AB8EEE01ADFED1D1A76
:1025B000DFED1D0AB0EE600A01EE610A10EE100AAE
:1025C00004F080F941EC180B03F07CFB17494860DC
:1025D00011488568002D01DB284600E0684200EEC6
:1025E000900AB8EEE01ADFED0F1ADFED0F0AB0EE39
:1025F000600A01EE610A10EE100A04F063F941EC82
:10260000180B03F05FFB0949886009490748FEF78A
:1026100049FBBDEC028B70BD240600206006002043
:10262000300600203F55553E7B14D0422800002044
:102630001C00002029B1064A12680243044B1A60AC
:1026400004E0034A12688243014B1A60704700009D
:102650003038024029B1064A12680243044B1A601E
:1026600004E0034A12688243014B1A60704700007D
:102670004038024029B1064A12680243044B1A60EE
:1026800004E0034A12688243014B1A60704700005D
:102690002038024029B1064A12680243044B1A60EE
:1026A00004E0034A12688243014B1A60704700003D
:1026B00044380240F0B50021002200240225002603
:1026C0000223324F3F6807F00C0121B1042905D0E5
:1026D000082937D105E02E4F076036E02D4F0760FF
:1026E00033E02A4F3F1F3F68C7F38056274F3F1FF5
:1026F0003F6807F03F036EB1264FB7FBF3F7DFF8F3
:102700008CC0ACF1040CDCF800C0CCF3881C07FBD7
:102710000CF40CE01E4FB7FBF3F7DFF870C0ACF120
:10272000040CDCF800C0CCF3881C07FB0CF4174F3A
:102730003F1F3F68C7F301477F1C7D00B4FBF5F7DF
:10274000076002E0124F076000BF00BF0F4F3F68F5
:1027500007F0F0010909104F7A5C0768D74047601D
:102760000A4F3F6807F4E051890A0B4F7A5C4768CB
:10277000D7408760054F3F6807F46041490B064F1B
:102780007A5C4768D740C760F0BD00000838024057
:102790000024F40000127A00E905002030B52DED88
:1027A0000E8B91B00446B0EE408AF0EE608A0020B5
:1027B0000D900E900F900A900B900C90182104A889
:1027C000FDF794FFFE48007800287AD10120FC49EB
:1027D0000870002011E004EB800191ED000AF94936
:1027E00001EB8001D1ED000A30EE600AF64901EB01
:1027F000800181ED000A411CC8B20328EBDBF248DE
:1028000090ED000A20EE000AD0ED010A90ED011AC9
:1028100000EE810AD0ED020A90ED021A00EE810A64
:10282000B1EEC09A90ED000A20EE000AD0ED010A48
:1028300090ED011A00EE810AD0ED020A90ED021A25
:1028400000EE810AF1EEC00AE048C0ED000A002562
:1028500024E019EE100A04F035F841EC1B0BDA48BD
:1028600000EB850090ED000A10EE101A084604F007
:1028700029F841EC1D0B53EC182B03F02DFD41EC16
:102880001C0B53EC1B2B03F00BFB41EC1A0B03F05E
:1028900019FACD4941F82500681CC5B2032DD8DBD3
:1028A00000200BE0C74901EB800191ED000AC84907
:1028B00001EB800181ED000A411CC8B20328F1DB65
:1028C00000BF002012E0BF4901EB800191ED000A3A
:1028D000BF4901EB8001D1ED000A30EE600A0DA97D
:1028E00001EB800181ED000A411CC8B20328EADB3C
:1028F0000AAAB7EE000A0DA9B348FFF76DFC002540
:1029000016E00AA800EB850090ED000AAE4800EB47
:102910008500D0ED000A30EE200A10EE101A0846AD
:1029200003F0D0FF04AA02EBC50203C2681CC5B2C3
:10293000032DE6DB9DED082BB0EE420AF0EE620AB5
:102940009DED082BB0EE421AF0EE621A53EC102BFC
:1029500051EC110B03F0C0FC41EC1B0B9DED062B61
:10296000B0EE420AF0EE620A9DED062BB0EE421A7E
:10297000F0EE621A53EC102B51EC110B03F0ACFC8F
:1029800041EC1A0B9DED042BB0EE420AF0EE620A08
:102990009DED042BB0EE421AF0EE621A53EC102BB0
:1029A00051EC110B03F098FC41EC1D0B53EC1A2B6E
:1029B00003F0BAF941EC1C0B53EC1B2B03F0B4F9F8
:1029C00041EC190B03F07EF900EE100AF1EEC00A9B
:1029D0008048C0ED000A002520E07E48006803F032
:1029E00071FF41EC190B04A800EBC50090ED001B32
:1029F000B0EE410AF0EE610A53EC182B51EC100BCB
:102A000003F06AFC41EC1A0B53EC192B03F048FA63
:102A100004AA02EBC50203C2681CC5B2032DDCDBAD
:102A2000002001900290039001AA04A96548FDF7D7
:102A300047FF01984043029901FB0100039901FB04
:102A4000010000EE100AF8EEC00AB1EEE00A62489A
:102A500080ED000A90ED000ADFED600AB4EEE00AB6
:102A6000F1EE10FA1ADD002016E001A951F820104D
:102A70009622514300EE101AB8EEC00A5649D1ED25
:102A8000000A80EE201ABDEEC10A10EE101A01AA4B
:102A900042F82010411CC8B20328E6DB012001994E
:102AA00001F054FA0220029901F050FA0320039930
:102AB00001F04CFA434890ED020AD4ED020A30EEE0
:102AC000600A10EE101A084603F0FCFE41EC1C0BE5
:102AD0009FED431BB0EE4C0AF0EE6C0A01F0C8FC0F
:102AE000B0EE40AAF0EE60AA364890ED010AD4EDAF
:102AF000010A30EE600A10EE101A084603F0E2FEFA
:102B000041EC1E0B9FED361BB0EE4E0AF0EE6E0A46
:102B100001F0AEFCB0EE40CAF0EE60CA294890ED7C
:102B2000000AD4ED000A30EE600A10EE101A0846D2
:102B300003F0C8FE41EC1E0B9FED291BB0EE4E0AC0
:102B4000F0EE6E0A01F094FCB0EE40DAF0EE60DADE
:102B500053EC1C2B51EC1D0B03F0E6F841EC1B0B66
:102B600053EC1A2B03F0E0F841EC190B03F0AAF830
:102B700000EE100AF1EEC00AB7EE000AF4EEC00A49
:102B8000F1EE10FA19D39DED0D0A20EE000ADDEDED
:102B90000E0A9DED0E1A00EE810ADDED0F0A9DED85
:102BA0000F1A00EE810AF1EEC00A084890ED000A03
:102BB000F4EEC00AF1EE10FA2CDD0020004913E01B
:102BC000CF0500201C00002048060020D005002072
:102BD00054060020D4050020D8050020000016432C
:102BE000000000000000004008700021012001F0FA
:102BF000ADF90021022001F0A9F90021032001F024
:102C0000A5F905A1054800F09BFF012011B0BDEC1E
:102C10000E8B30BD0020F9E7730D0A000050004014
:102C200030B587B004461F4903C9CDE9050104F555
:102C300040700090019000208DF808008DF8090088
:102C400008208DF80A000598C0B28DF80B00059891
:102C5000010A8DF80C100598010C8DF80D100598DF
:102C6000000E8DF80E000698C1B28DF80F10069870
:102C7000010A8DF810100698010C8DF811100698B5
:102C8000000E8DF8120069460748FEF7E5FD05467F
:102C900000BF29460448FEF773FE0128F9D107B0AA
:102CA00030BD0000B86B00080064004070B52DED29
:102CB000108BFFF721FCA548007800287DD1A4489F
:102CC000006800EB4000A34901EB800090ED020A90
:102CD000F9EE040AB4EEE00AF1EE10FA02DB00208D
:102CE0009B4908609A48006800EB4000994901EB55
:102CF000800090ED020AF9EE040AB4EEE00AF1EE6B
:102D000010FA0DDB9FED940A944880ED000A9FEDC8
:102D1000920A80ED010A9FED920A80ED020AC8E056
:102D20009FED8D0A10EE105A9FED8B0AB0EE40FA1F
:102D30009FED8C0A10EE104A8548006800EB4000B9
:102D4000844901EB800090ED000AB1EE400ADFED0E
:102D5000860A30EE200AB0EE408A7D48006800EB1B
:102D6000400001EB800090ED010AF3EE0E0A30EE18
:102D7000600A10EE105A204603F0A4FD41EC1E0B31
:102D8000B0EE4E0AF0EE6E0A02F09AF9B0EE40CACA
:102D9000F0EE60CA284603F095FD41EC1D0B53ECA4
:102DA0001C2B03F099FA41EC1A0B204603F08AFD24
:102DB00041EC1E0BB0EE4E0A00E097E0F0EE6E0A1A
:102DC00001F0E6FAB0EE40CAF0EE60CA18EE100A62
:102DD00003F078FD41EC1D0B53EC1C2B03F07CFA47
:102DE00041EC1B0B53EC1A2B02F09EFF41EC190B2C
:102DF00002F068FF08EE900A204603F063FD41EC04
:102E00001E0BB0EE4E0AF0EE6E0A01F0C1FAB0EE03
:102E100040CAF0EE60CA284603F054FD41EC1D0B99
:102E200053EC1C2B03F058FA41EC1A0B204603F02C
:102E300049FD41EC1E0BB0EE4E0AF0EE6E0A02F0B8
:102E40003FF9B0EE40CAF0EE60CAB1EE480A10EEAB
:102E5000100A03F037FD41EC1D0B53EC1C2B03F063
:102E60003BFA41EC1B0B53EC1A2B02F05DFF41ECDB
:102E7000190B02F027FF0FEE100A002016E0374969
:102E8000C1ED008A81ED01FA3149096801EB410188
:102E9000304A02EB810191ED020AF0EE080A30EEB1
:102EA000200A2E4981ED020A411CC8B20328E6DB44
:102EB00000BF9FED2E0B2948FFF770FC012814D1AD
:102EC0002348006800EB4000224901EB800090EDB0
:102ED000020ADFED280AB4EE600AF1EE10FA04D01F
:102EE0001B480068401C1A49086000BF00BF184812
:102EF00090ED000AB8EEC00A00F0A6FE002409E03A
:102F00001D4800EB8400D0ED000AB0EE600A00F02E
:102F10009BFE641C032CF3DB00240FE00C480068CC
:102F200000EB40000B4901EB800000EB8400D0ED8A
:102F3000000AB0EE600A00F087FE641C032CEDDB93
:102F400000F02EFDBDEC108B70BD0000CC05002004
:102F50003400002038000020000000003C06002063
:102F60000000F0C37B5B563D0000A0420000000063
:102F700000805140008004C41C0000207047000005
:102F80000CB50020019000903448006840F4803077
:102F90003249086000BF3148006800F400300090FA
:102FA0000198401C0190009818B90198B0F5A06FE5
:102FB000F1D12A48006800F4003010B101200090DF
:102FC00001E0002000900098012846D123484030BD
:102FD000006840F080502149403108602048006876
:102FE00040F480401E4908601C48083000681B49B6
:102FF000083108600846006840F400400860084650
:10300000006840F4A05008601648091F0860081FB7
:10301000006840F08070091F086000BF0F4800681A
:1030200000F000700028F9D040F205600E490860F9
:103030000A480830006820F0030008490831086099
:103040000846006840F00200086000BF03480830EE
:10305000006800F00C000828F8D10CBD00380240D0
:103060000070004008544007003C024010B515486D
:10307000006840F47000134908601348006840F08D
:1030800001001149086000200F49083108600E480E
:1030900000680E4908400C4908600D48091D086089
:1030A000081F006820F48020091F086000200649DE
:1030B0000C310860FFF764FF4FF000600149803970
:1030C000086010BD88ED00E000380240FFFFF6FE0A
:1030D0001030002410B50121044800F076F80128D2
:1030E00003D10121014800F061F810BD000001404A
:1030F00010B50121880700F068F8012817D10121D7
:10310000800700F053F80A480088401C08490880EE
:1031100008480088401C07490880054800880128A5
:1031200005DB00200249088001200349087010BD1A
:1031300000000020060000200200002010B5012140
:10314000044800F042F8012803D10121014800F0B1
:103150002DF810BD0004004010B50121044800F016
:1031600034F8012803D10121014800F01FF810BDF7
:103170000008004010B50121044800F026F801289D
:1031800003D10121014800F011F810BD000C0040EE
:1031900010B50121044800F018F8012803D10121DD
:1031A000014800F003F810BD00040140CA43028248
:1031B000704721B1028842F00102028004E00288D7
:1031C0004FF6FE731A400280704730B50246002069
:1031D00000230024158A05EA0103958905EA010404
:1031E00013B10CB1012000E0002030BD1AB1838979
:1031F0000B43838102E083898B4383817047000006
:103200002DE9FF4104460D4616461F46DDF828808D
:103210006949601A8C4270D01ADC6849A4EB01003D
:103220008C426CD00ADCB4F1804F4ED0644820440C
:10323000002852D0B0F5806F71D156E0B0F5806FA4
:1032400065D0B0F5006F6CD0B0F5406FF4D170E090
:10325000B0F5923F21D009DCB0F5806F7AD0B0F59F
:10326000644F0AD0B0F5684F7CD10EE0B0F5943FC2
:103270001BD0B0F5963F75D11FE001210846FFF73E
:1032800009FA19208DF800006DE001210220FFF7F6
:1032900001FA2C208DF8000065E001210804FFF7F9
:1032A000F9F918208DF800005DE001211920FFF7E1
:1032B000F1F92C208DF8000055E001218804FFF77A
:1032C000E9F91A208DF800004DE001210846FFF7CA
:1032D000C1F91C208DF8000045E001210220FFF714
:1032E000B9F91D208DF800003DE001210420FFF711
:1032F000B1F91E208DF8000035E023E0FFE7012141
:103300000820FFF7A7F932208DF800002BE00121FB
:103310001020FFF79FF936208DF8000023E021E010
:10332000FFE701212020FFF795F937208DF80000F5
:1033300019E001214020FFF78DF92B208DF80000C6
:1033400011E007E001218020FFF784F92C208DF89F
:10335000000008E001210802FFF77CF92D208DF81C
:10336000000000E000BF00BF0295ADF8046000203F
:10337000ADF80C00ADF8060001A9204600F022F8D7
:1033800001212046FFF712FF012211462046FFF7D8
:103390002DFFF8B28DF8010008F0FF008DF8020053
:1033A00001208DF803006846FFF760F801212046F0
:1033B000FFF7FFFEBDE8FF81001C0040000C00404D
:1033C00000FCFFBF00220288184B98420ED0184B19
:1033D00098420BD0B0F1804F08D0164B984205D0E0
:1033E000154B984202D0154B984204D14FF68F737B
:1033F0001A404B881A43124B984207D0114B9842FF
:1034000004D04FF6FF431A400B891A4302804B68E1
:10341000C3620B880385054B984202D0044B984247
:1034200001D18B7A0386012383827047000001401B
:10343000000401400004004000080040000C00406F
:10344000001000400014004010B5002440F2255147
:10345000CE4800F0BCFA012808D140F22551CB48F3
:1034600000F083FAC94800F091FCC4B2C848007863
:1034700010281DD2DFE800F0081D344960778EA3C4
:10348000BAD1E8F2F1F0EFEE472C0ED1C148007846
:10349000C0EB0010C0490844BD4909784454BC48F9
:1034A0000078401CBA49087002E00F20B849087043
:1034B0004EE1302C10DB332C0EDCB6480078C0EB2C
:1034C0000010B5490844B24909784454B04800781E
:1034D000401CAF49087002E00F20AD49087037E189
:1034E000582C0ED1AB480078C0EB0010AA49084414
:1034F000A74909784454A6480078401CA44908709C
:1035000002E00F20A249087022E12B2C01D02D2CC3
:103510000ED1A0480078C0EB00109F4908449C4998
:10352000097844549A480078401C9949087002E090
:103530000F20974908700BE1302C10DB392C0EDC82
:1035400094480078C0EB00109349084490490978EA
:1035500044548F480078401C8D49087002E00F20C9
:103560008B490870F4E0302C10DB392C0EDC8948D4
:103570000078C0EB00108849084485490978445414
:1035800083480078401C8249087002E00F2080497F
:103590000870DDE0592C0ED17E480078C0EB001099
:1035A0007D4908447A490978445479480078401C98
:1035B0007749087002E00F2075490870C8E02B2C8D
:1035C00001D02D2C0ED173480078C0EB0010724949
:1035D00008446F49097844546D480078401C6C4990
:1035E000087002E00F206A490870B1E0302C10DB4F
:1035F000392C0EDC67480078C0EB0010664908449F
:1036000063490978445462480078401C6049087056
:1036100002E00F205E4908709AE0302C10DB392C54
:103620000EDC5C480078C0EB00105B490844584948
:103630000978445456480078401C5549087002E007
:103640000F205349087083E03B2C08D101205349D7
:10365000087018E067E05CE044E02CE014E05A2CCD
:103660000ED14C480078C0EB00104B490844484943
:103670000978445446480078401C4549087002E0E7
:103680000F204349087063E0302C10DB392C0EDC2E
:1036900040480078C0EB00103F4908443C49097895
:1036A00044543B480078401C3949087002E00F2020
:1036B000374908704CE0302C10DB392C0EDC3548D3
:1036C0000078C0EB0010344908443149097844546B
:1036D0002F480078401C2E49087002E00F202C492A
:1036E000087035E0302C10DB392C0EDC29480078CE
:1036F000C0EB00102849084425490978445424485F
:103700000078401C2249087002E00F202049087010
:103710001EE03B2C03D101202049087002E00F205D
:103720001B49087014E000201949087000BF09E027
:103730000021184A1278C2EB0212174B1A44115496
:10374000411CC8B20E28F3DB00201449087000BFEA
:1037500000BF12480078012816D10D4800780A28C9
:103760000DD100BF09E000210A4A1278C2EB021213
:10377000094B1A441154411CC8B20E28F3DB002037
:10378000034908700549087010BD00000050004052
:103790001900002009000020140600200800002065
:1037A00010B588B0044604940020ADF81400ADF8BC
:1037B0001600ADF81800ADF81C000C20ADF81A008A
:1037C0000121FEF737FF01210805FEF743FF08221C
:1037D0000C212248FEF7DCFC082202212048FEF7DB
:1037E000D7FC00208DF80A0001208DF80B00022084
:1037F0008DF80800C002019002208DF8090001A98F
:103800001648FEF729FC02208DF8080004200190DC
:1038100001A91348FEF720FC04A9124800F026F97C
:1038200035208DF80C0001208DF80F008DF80D006B
:103830008DF80E004FF4A060FEF754FE03A8FEF7CB
:1038400015FE012240F22551064800F0EAF8012158
:10385000044800F099F808B010BD000000080240CC
:10386000000C02400050004010B5002440F22551E9
:10387000074800F0ACF8012808D140F2255104486F
:1038800000F073F8024800F081FAC4B210BD0000E5
:103890000048004010B588B0044604940020ADF8FC
:1038A0001400ADF81600ADF81800ADF81C000C209F
:1038B000ADF81A0001210420FEF7BCFE01218804A6
:1038C000FEF7C8FE07220A212148FEF761FC072205
:1038D0000B211F48FEF75CFC00208DF80A00012038
:1038E0008DF80B0002208DF80800400201900220A4
:1038F0008DF8090001A91648FEF7AEFB02208DF8ED
:1039000008008002019001A91148FEF7A5FB04A957
:10391000104800F0ABF827208DF80C0001208DF83E
:103920000F008DF80D008DF80E004FF4A060FEF72B
:10393000D9FD03A8FEF79AFD012240F22551054862
:1039400000F06FF80121034800F01EF808B010BD28
:10395000000802400048004001F40072B2F5007F08
:1039600000D100BFCA430280704710B50022002377
:1039700040F66A14A14200D100BF0A12012494400B
:10398000A3B2DC43048010BD21B1828942F400520D
:10399000828104E082894DF6FF731A40828170476C
:1039A00010B502A1024800F0CBF810BD0D0A0000CE
:1039B0000050004002460020B1F5007F00D100BF5A
:1039C00013880B400BB1012000E00020704770B558
:1039D0000246002400230025002040F66A16B1426A
:1039E00000D100BFC1F3421501F01F03012606FA02
:1039F00003F3012D02D19689334006E0022D02D156
:103A0000168A334001E0968A33400C12012606FAEA
:103A100004F41688344013B10CB1012000E00020FA
:103A200070BDF0B50346002400260025002040F6B6
:103A30006A17B94200D100BF1846C1F3421401F021
:103A40001F06012707FA06F5012C01D10C3004E00E
:103A5000022C01D1103000E014301AB107682F4356
:103A6000076002E00768AF430760F0BD2DE9FF473C
:103A700005460E460024A14600BFA046B08900B10D
:103A800000BF2C8A24F44054F08804432C82AC8973
:103A900041F20C608443B08831890843718908433E
:103AA0000443AC81AC8A24F44074B0890443AC82F2
:103AB0006846FEF7FFFD2048854202D01F48854238
:103AC00002D1DDF80C9001E0DDF80890A88900F43F
:103AD000004040B109EBC90000EB09103168490012
:103AE000B0FBF1F707E009EBC90000EB0910316802
:103AF0008900B0FBF1F76420B7FBF0F00401200966
:103B0000642101FB1078A88900F4004040B1322004
:103B100000EBC800B0FBF1F000F00700044308E040
:103B2000322000EB08106421B0FBF1F000F00F0030
:103B300004432C81BDE8FF870010014000140140C0
:103B40000FB470B586B006460CA8019073E00B98D0
:103B500000785C281CD10B98401C0B9000786E28D4
:103B600009D072280FD10D21304600F014F90B98BE
:103B7000401C0B900BE00A21304600F00CF90B982A
:103B8000401C0B9003E00B98401C0B9000BF4BE0D7
:103B90000B980078252840D10B98401C0B9000789A
:103BA000642818D0732833D1019810C801900BE015
:103BB0002178304600F0EFF800BF40213046FFF793
:103BC000F9FE0028F9D0641C20780028F0D10B9869
:103BD000401C0B9020E0019820C801900A2202A905
:103BE000284601F0ABFF02AC0BE02178304600F034
:103BF000D2F800BF40213046FFF7DCFE0028F9D0A4
:103C0000641C20780028F0D10B98401C0B9003E036
:103C10000B98401C0B9000BF06E00B9810F8011B9E
:103C20000B90304600F0B7F800BF40213046FFF758
:103C3000C1FE0028F9D00B980078002887D106B083
:103C400070BC5DF814FB000070B52DED0C8B84B0DA
:103C5000B0EE408A0020019002900390BDEEC80AA9
:103C600010EE104AB5EEC08AF1EE10FA3DD2BFEE6A
:103C7000000AB4EEC08AF1EE10FA36DD251E01DB33
:103C8000294600E06942084602F0BFFA41EC1B0BEE
:103C900018EE100A02F016FE41EC1D0BB0EE4D0AB4
:103CA000F0EE6D0A00F0D8FBB0EE40CAF0EE60CA4C
:103CB00053EC1B2B51EC1C0B02F01AFD41EC1A0BC0
:103CC0009FED290B53EC102B02F006FB41EC190B76
:103CD00002F06EFA06463346BDEEC80A10EE102A10
:103CE00023A101A8FCF7BCFB35E0251E01DB29461A
:103CF00000E06942084602F088FA41EC1B0B18EE1E
:103D0000100A02F0DFFD41EC1D0BB0EE4D0AF0EEA3
:103D10006D0A00F0A1FBB0EE40CAF0EE60CA53ECB1
:103D20001B2B51EC1C0B02F0E3FC41EC1A0B9FED3A
:103D30000E0B53EC102B02F0CFFA41EC190B02F0F2
:103D400037FA06463346BDEEC80A10EE102A0BA11C
:103D500001A8FCF785FB01A90B48FFF7F1FE04B0B1
:103D6000BDEC0C8B70BD0000000000000000244082
:103D70002D25642E253031640900000025642E2590
:103D8000303164090000000000500040014688887E
:103D9000C0F30800704730B504460D4600BF8021CF
:103DA0002046FFF707FE0028F9D080212046FFF7C4
:103DB000D3FD40212046FFF7CFFDC5F30800A080CA
:103DC00030BD00003EB504460D461346002000906D
:103DD000019002909FED170AF0EE401A6A462946BC
:103DE000204600F06FF89DED000A20EE000ADDEDA0
:103DF000010A9DED011A00EE810ADDED020A9DED3A
:103E0000021A00EE810AF1EEC00AF0EE601A0020FC
:103E10000CE0694601EB800191ED000AC0EE210A39
:103E200003EB8001C1ED000A411CC8B20328F0DB9E
:103E30003EBD00000000000070B586B005460E468D
:103E40001446002003900490059000900190029089
:103E50009FED1A0AF0EE401A03AA3146284600F0F8
:103E600031F86A46214603A800F02CF89DED000ABF
:103E700020EE000ADDED010A9DED011A00EE810A37
:103E8000DDED020A9DED021A00EE810AF1EEC00A94
:103E9000F0EE601A00200CE0694601EB800191ED24
:103EA000000AC0EE210A03EB8001C1ED000A411CAB
:103EB000C8B20328F0DB06B070BD000000000000AF
:103EC00000BFFEE790ED010AD1ED020A20EE200AC4
:103ED000D0ED020A91ED011A00EEC10A82ED000A4E
:103EE00090ED020AD1ED000A20EE200AD0ED000A82
:103EF00091ED021A00EEC10A82ED010A90ED000A6E
:103F0000D1ED010A20EE200AD0ED010A91ED001A50
:103F100000EEC10A82ED020A704791ED000AD0ED71
:103F2000000A30EE600A82ED000A91ED010AD0ED40
:103F3000010A30EE600A82ED010A91ED020AD0ED2D
:103F4000020A30EE600A82ED020A7047F0B589B0CD
:103F500005460F4600242B4B0FCB05AE0FC605F5CB
:103F600040700090019000208DF808008DF8090045
:103F700008208DF80A00069700BF3FE005A810F85A
:103F800034008DF80B0005A830F83400010A8DF8D4
:103F90000C1005A850F83400010C8DF80D1005A880
:103FA00050F83400000E8DF80E0005A800EBC40098
:103FB00001798DF80F1005A800EBC4008088010A74
:103FC0008DF8101005A800EBC4004068010C8DF8B6
:103FD000111005A800EBC4004068000E8DF8120017
:103FE00069460948FDF738FC064600BF31460648D9
:103FF000FDF7C6FC0128F9D1601CC4B2022CBDDB60
:1040000009B0F0BD086B0008006400402DE9F041E4
:1040100094B005460E461746002438222E4906A8BD
:10402000FCF732FB05F540700190029000208DF8FE
:104030000C008DF80D0008208DF80E000D960F97DE
:10404000264911914942139100BF3FE006A810F89C
:1040500034008DF80F0006A830F83400010A8DF8FE
:10406000101006A850F83400010C8DF8111006A8A5
:1040700050F83400000E8DF8120006A800EBC400C2
:1040800001798DF8131006A800EBC4008088010A9E
:104090008DF8141006A800EBC4004068010C8DF8E0
:1040A000151006A800EBC4004068000E8DF816003D
:1040B00001A90B48FDF7D0FB804600BF41460848E8
:1040C000FDF75EFC0128F9D1601CC4B2072CBDDBF2
:1040D00014B0BDE8F0810000D06A0008C0E1E4003F
:1040E0000064004003B401984100009850EAC120E8
:1040F00018BF04204A0D18BF40F0010040F2FF72C3
:10410000B2EB515F08BF40F00200012808BF052054
:1041100002B070474100080218BF04200A0E18BF01
:1041200040F001004FF07F4232EA010108BF40F049
:104130000200012808BF05207047000010EE100A99
:1041400010B510EE901A4FF0684202EB40032DEDCF
:10415000028BB3F1654F3CBF02EB4102B2F1654FF8
:104160007CD200BFC0F3C753C1F3C7529A1A1B2AAF
:1041700009DD10F0004F14BF9FED6E0A9FED6E0A2F
:10418000BDEC028B10BD12F11A0F1BDA11F0004FBB
:1041900009D010F0004F0CBF9FED680A9FED680A30
:1041A000BDEC028B10BD80EE208A18EE100AFFF7DE
:1041B000B1FF042808BF01F02FFCB0EE480ABDECA7
:1041C000028B10BD4200B2EB410F37D910F0004F07
:1041D00019BFDFED5C1A9FED5C1ADFED5C1A9FEDF5
:1041E0005C1AB0EE602A0A46F1EE400A80F0004107
:1041F000B0EE420A10460A1A5200B2F1807F34D261
:10420000484010F0004FDFED532A9FED533A1DBF99
:10421000BEEE002A71EEE21A31EE431AB6EE002A23
:1042200004BF71EEA21A31EE031AF0EE402A42EEFC
:10423000602A40EE020A82EEA02A18E011F0004F38
:1042400004BF9FED461AF0EE411AD4D010F0004F93
:104250001CBFDFED431A9FED431A00E026E004BFC8
:10426000DFED411A9FED411AC5E780EE202A22EECC
:10427000020ADFED3F0ADFED3F2ABDEC028B40EE84
:10428000202ADFED3D0A40EE220ADFED3C2A40EE17
:10429000202ADFED3B0A40EE220A22EE000A00EE61
:1042A000201A31EE020A30EE210A10BD4FF07F4293
:1042B000B2EB400F28BFB2EB410F05D2BDEC028B31
:1042C000BDE8104001F0A4BB40EA01035B0008BF59
:1042D00041F0FF410BD0B2EB400F08BFB2EB410FF2
:1042E00008D120F0804000EE100A21F0804100EE5D
:1042F000901A37E7B2EB400F12BF5FEA410240F07D
:10430000FF4001F000413FF42DAF4A0092EA400324
:104310003FF528AF002AACBF9FED1A1A9FED1A1A7D
:1043200020EE010A60EE810A10EE100A10EE901ADB
:1043300018E70000DB0FC9BFDB0FC93FDB0F4940A7
:10434000DB0F49C00000C9BF22AAFDB90000C93F68
:1043500022AAFD390060ED3EC30ACE3700000000FE
:10436000000049C022AA7DBA0000494022AA7D3A35
:104370002DAD65BD8FB8D53D0FB511BE61C84C3EA2
:10438000A8AAAABE0000804F0000802F00000000F5
:1043900010B52F499FED2C1B2DED020B84B0059815
:1043A00020F000408842D8BF9DED040B2DDD294947
:1043B000884209D1049840B94FF00100FCF7C5F9D3
:1043C00001F0F6FA06B010BD05DB9DED040B01F01F
:1043D000DBFA06B010BD68469DED040B00F0D4FE7C
:1043E00010F0030004BF9DED021B9DED000B0CD0EF
:1043F00001280ED09DED021B9DED000B022817D069
:10440000012001F011FA06B010BD01F0D9F806B094
:1044100010BD9DED021B9DED000B012001F004FA83
:1044200051EC100B01F041FC06B041EC100B10BD3B
:1044300001F0C6F851EC100B01F037FC06B041EC6E
:10444000100B10BD00000000000000000000000084
:10445000FB21E93F0000F07F2DED020B019820F0D9
:10446000004001909DED000B02B07047000000007D
:104470002DE9F04D2DED040B2DED0E8B96B0DDE901
:104480002550279CDDF890A025F0004624F0004838
:10449000BAF1000F14BF0121002101EB4502FC49D4
:1044A00053184A1093422AD3002814BF0123002333
:1044B00003EB44030B44F7498B4220D358EA000135
:1044C0009FEDF59B76D0DFF8D8B35D4503D1BAF107
:1044D000000F05D188E0BAF1000F08BF002100D01D
:1044E000012101EB450111F5001F08D8002814BF78
:1044F0000121002101EB440111F5001F0BD99DEDB5
:10450000261B9DED240B16B0BDEC0E8B04B0BDE850
:10451000F04D01F043BA0027002DBCBFE1498845AA
:1045200021DAE1498845A8BF02271CDAC3451ADC15
:10453000DE4901EB2851142908DDC1F1340220FACB
:1045400002F101FA02F282420DD108E058B9C1F13C
:10455000140228FA02F101FA02F2424503D101F0F5
:104560000101C1F1020756EA0A0124D1002C22DA26
:10457000002D18BF022F01D0012F0AD00220FCF716
:10458000E4F816B0BDEC0E8B04B0BDE8F04D01F0C0
:10459000E3B90220FCF7D9F801F0DEF951EC100B79
:1045A00001F083FB41EC100B16B0BDEC0E8B04B098
:1045B000BDE8F08D18E09FEDBEAB9FEDBF8B0028EE
:1045C00071D1B848804522D105F1804010F58010A6
:1045D00008BFBAF1000F07D0B3450ADC002CA8BF12
:1045E0009DED260BE0DA0DE0B0EE490AF0EE690A27
:1045F000DAE7002C06DA9DED260B51EC100B01F0EA
:1046000054FB6FE0AE48784490ED000BCCE7D84502
:104610004DD1002C48DA2EB186423AD1BAF1000FC2
:1046200042D126E0BAF1000F13D00220FCF78DF83A
:1046300001F0CEF98DED020B9DED240B8DED000BFD
:1046400010EE900A039961F31E0003909DED020B9A
:10465000AAE78DED02AB9DED240B1AEE901A10EE39
:10466000900A8DED000B61F31E0003909DED020B8F
:104670009AE78DED028B9DED240B18EE901A10EE4B
:10468000900A8DED000B61F31E0003909DED020B6F
:104690008AE709DA9DED240B51EC190B53EC102B32
:1046A00001F0FEFB1EE020E09DED240B7CE786423E
:1046B0001BDAB4F1804F0DD0A4F10050B0F1FF50DF
:1046C00013D1002D11DB9DED240B51EC100B01F0EB
:1046D00072FA07E09DED240B53EC102B51EC100BFC
:1046E00000F0C2BC41EC100B5EE79DED240B51ECD9
:1046F000100B01F0B1F9BAF1000FCDE90E0142D172
:104700009FED710B46B3A6F1E040B0F17F600CD095
:104710005E4538D1002D00DAA7B3022F0CBF01206F
:104720004FF0FF3001F071FDDCE7002D01DD002CC2
:104730000DDA002D01DD002C1FDB002D16DA002C18
:1047400014DB012F08BF9FED620B3FF42DAFB0EEDD
:104750004A0AF0EE6A0A27E7022F18BF002D0CD094
:10476000012F0AD1002DFFF61FAF06E0002DB8BFC4
:10477000002C08DA012F3FF417AFB0EE480AF0EE34
:10478000680A11E71BE0012000EBE57050EA070121
:1047900015D0791EB0EE498AF0EE698A084308BF49
:1047A0009FED4D8B4E480025804570DD4D494E48AC
:1047B000884514DDB0420DDB002C19DB2FE0012011
:1047C000FBF7C3FF16B0BDEC0E8B04B0BDE8F04D97
:1047D00001F0EEB8B34502DC002C09DC1FE0864294
:1047E00002DA002C1BDA03E05E452BDD002C16DD1F
:1047F0000220FBF7AAFF01F0EBF88DED020B53EC62
:104800001A2B51EC180B01F067FDCDE9000103995B
:10481000019861F31E0003909DED020BC4E6022097
:10482000FBF793FF01F0E4F810EE901A18EE900AEF
:104830008DED020B8DED008B61F31E0003909DED5D
:10484000020BB1E69DED0E0B53EC192B51EC100B46
:1048500001F04EFF9FED260BCDE9080153EC102B24
:104860009DED080B51EC100B01F036FD9FED221B66
:1048700053EC112B01F064FE9DED081B53EC112B42
:1048800001F02AFD9FED1E1B53EC112B3CE08CE048
:10489000FFFF1F00FFFF0F00000000000000F03FBF
:1048A0000000F03F0000F07F0000404301FCFFFFEC
:1048B000000000000000F07F000000000000000089
:1048C000D62E000000000000000000000000008064
:1048D000000000000000F0FF000000000000F0BF3A
:1048E0000000E0410000F043FFFFEF3F0000000048
:1048F000000000000000D03F555555555555D53F97
:10490000000000000000E03F01F01AFE9DED080BE2
:1049100041EC1A0B53EC102B51EC100B01F0DCFCAA
:1049200053EC1A2B01F0D8FC41EC1A0B9FEDFE0B57
:1049300053EC102B9DED080B51EC100B01F0CCFC4F
:1049400041EC1B0B9FEDFA0B51EC1A0B53EC102BA7
:1049500001F0C2FC41EC1A0B9FEDF70B53EC102B4E
:104960009DED080B51EC100B01F0B6FC53EC1A2B2B
:1049700001F0BEFE41EC1A0B51EC1B0B53EC1A2B51
:1049800001F0D2F90690CDE906519DED060B53ECEE
:104990001B2B51EC100B01F0ABFE53EC1A2B01F06A
:1049A000CFFD41EC100B00F0A1B90020B6F5801F3F
:1049B0000EDA9FEDE30B53EC102B9DED0E0B51EC3B
:1049C000100B01F089FCCDE90E016FF034000E46AA
:1049D00000EB2650A0F2FF37C6F31300DA4940F08F
:1049E0007F6646F040568842D8BF002408DDD7498C
:1049F0008142C8BF012403DC0024A6F580167F1C79
:104A0000D348784400EBC4000F9690ED00CB9DEDA9
:104A10000E0B53EC1C2B51EC100B01F069FE9DEDBD
:104A20000E0B41EC1B0B53EC1C2B51EC100B01F04B
:104A30007BF941EC100B51EC190B53EC102B01F0EE
:104A40002FFA41EC1D0B51EC1B0B53EC1D2B01F00D
:104A500043FC41EC1A0BBF488DED10AB7844109528
:104A600090ED000B4FF0005040EA660000EB8440F0
:104A70008DED080B00F5002009909DED080B53EC1F
:104A80001C2B51EC100B01F033FE9DED0E1B53EC73
:104A9000112B01F055FD41EC100B53EC102B9DED4B
:104AA000100B51EC100B01F017FC9DED080B41ECC5
:104AB0001C0B53EC102B9DED100B51EC100B01F067
:104AC0000BFC53EC1B2B01F03BFD53EC1C2B01F0BA
:104AD0000FFE53EC1D2B01F0FFFB41EC1C0B53ECC4
:104AE0001A2B51EC1A0B01F0F7FB41EC1B0B9A4807
:104AF0000621B0EE4B0AF0EE6B0A784400F018FE87
:104B0000B0EE401AF0EE601AB0EE41DAF0EE61DA83
:104B100053EC1B2B51EC1B0B01F0DEFB53EC1D2B5C
:104B200001F0DAFB9DED100B41EC1B0B53EC1A2B43
:104B300051EC100B01F0F8F853EC1C2B01F0CCFBFE
:104B400053EC1B2B01F0F0F89DED100B41EC1B0B0F
:104B500053EC102B51EC100B01F0BEFB41EC1D0B84
:104B60009FED7FEB53EC1E2B01F0DEF853EC1B2B7B
:104B700001F0DAF80890CDE908519DED080B53ECEF
:104B80001E2B51EC100B01F0B3FD53EC1D2B01F06B
:104B9000AFFD53EC1B2B01F0D3FC9DED080B41EC5A
:104BA0001D0B53EC102B9DED100B51EC100B01F075
:104BB00093FB41EC1B0B53EC1A2B51EC1D0B01F03A
:104BC0008BFB9DED080B41EC1A0B53EC102B51ECB9
:104BD0001C0B01F081FB53EC1A2B01F0A5F841EC02
:104BE0001A0B51EC1B0B53EC1A2B01F09DF80C9097
:104BF000CDE90C519DED0C0B53EC1B2B51EC100B24
:104C000001F076FD53EC1A2B01F09AFC41EC1B0BE2
:104C10009FED550B53EC102B9DED0C0B51EC100B35
:104C200001F05AFB41EC1A0B9FED510B51EC1B0BA1
:104C300053EC102B01F050FB41EC1B0B9FED4E0B86
:104C400053EC102B9DED0C0B51EC100B01F044FBC1
:104C500053EC1B2B01F068F841EC100B48487844EA
:104C600000EBC40090ED001B51EC100B53EC112B2A
:104C700001F05AF841EC1B0B384601F0C6FACDE9B9
:104C8000080153EC1B2B51EC1A0B01F04DF841ECD1
:104C9000100B3C48784400EBC40090ED00CB51EC85
:104CA000100B53EC1C2B01F03FF89DED081B53EC4F
:104CB000112B01F039F80690CDE906519DED080B56
:104CC00053EC102B9DED060B51EC100B01F010FD79
:104CD00053EC1C2B01F00CFD53EC1A2B01F008FDDA
:104CE00053EC1B2B01F02CFC41EC100B9DED261B13
:104CF00053EC102B8DED001B00959DED260B51EC18
:104D0000100B01F0E9FA9DED000B41EC1A0B53EC8E
:104D1000102B9DED260B51EC100B01F0E9FC9DEDE5
:104D2000061B53EC112B2FE0000000604715F73FE6
:104D3000FE822B654715F73F44DF5DF80BAE543E0E
:104D400000000000000040438E9803007AB60B007C
:104D5000222A0000802A00005A29000000000000DA
:104D60000000000000000840000000E009C7EE3F1E
:104D7000FD033ADC09C7EE3FF5015B14E02F3EBEB0
:104D8000E6270000A027000001F0A6FA53EC1A2B3A
:104D900000F0CAFF9DED060B41EC1A0B53EC102BF3
:104DA0009DED000B51EC100B01F096FACDE90C01D2
:104DB0009DED0C0B51EC1A0B53EC102B00F0B4FFD3
:104DC000CDE902010C46AA498C422FDB611A084347
:104DD00018D19DED0C0B53EC102B9DED020B51ECFB
:104DE000100B01F085FC41EC1B0B9FEDA30B51EC6C
:104DF0001A0B53EC102B00F097FF53EC1B2B01F018
:104E000069FB2DD20220FBF7A0FC00F0E1FD10EEC3
:104E1000901A18EE900A8DED020B8DED008B61F368
:104E20001E0003909DED020BFFF7BEBB944A24F0D9
:104E30000041914214D39349214408437FF4EFACDD
:104E40009DED0C0B53EC102B9DED020B51EC100B58
:104E500001F04EFC53EC1A2B01F03CFB7FF6DFAC6B
:104E600024F000408849894A002601EB2051824203
:104E70002BDA481C4FF4801121FA00F02044844AB8
:104E8000C0F30A517A44A1F2FF3192ED000B814A3E
:104E90008DED080BCA4020EA0202C0F3130040F473
:104EA0008010C1F1140120FA01F60992002CB8BF5C
:104EB00076429DED080B53EC102B9DED0C0B51EC45
:104EC000100B01F015FCCDE90C019DED0C0B51EC24
:104ED0001A0B53EC102B00F027FF9FED6F0B08907F
:104EE000CDE9085153EC102B9DED080B51EC100B44
:104EF00001F0F2F941EC1B0B9FED690B53EC102B09
:104F00009DED080B51EC100B01F0E6F99DED0C0B3B
:104F100041EC1C0B53EC102B9DED080B51EC100BCE
:104F200001F0E6FB53EC1A2B01F00AFB9FED5E1B30
:104F300053EC112B01F0D0F953EC1C2B00F0F4FED4
:104F400041EC1A0B51EC1B0B53EC1A2B00F0ECFE4E
:104F5000CDE902019DED020B53EC1B2B51EC100B24
:104F600001F0C6FB53EC1A2B01F0EAFA9DED020B9F
:104F700041EC1A0B53EC102B51EC100B01F0ACF977
:104F8000CDE908014A489DED080B0521784400F061
:104F9000CFFB9DED081B51EC100B53EC112B01F0D6
:104FA0009BF99DED021B53EC112B01F0C9FACDE9E1
:104FB00006019DED020B53EC1A2B51EC100B01F086
:104FC0008BF953EC1A2B00F0AFFE9FED3B0B41EC3D
:104FD0001A0B53EC102B9DED060B51EC100B01F04E
:104FE00087FB9DED060B41EC1B0B53EC102B9DED4D
:104FF000020B51EC100B01F06FF953EC1B2B00F07E
:105000004FFF53EC1A2B01F073FB9DED021B53EC89
:10501000112B01F06DFB53EC192B01F091FACDE946
:10502000020101EB065001150029C8BF039015DCF1
:105030009DED020B324651EC100B01F0F0FCFFF736
:1050400051F8042808BF00F0D3FC32469DED020B56
:1050500051EC100B01F0E3FCCDE902019DED020BD8
:1050600051EC180B53EC102B01F036F9FFF73ABB5B
:105070000000904000000000FE822B654715973C21
:1050800000CC904000346F3F01FCFFFF0000E03F88
:1050900058260000FFFF0F0000000000432EE63FEF
:1050A000396CA80C615C20BEEF39FAFE422EE63F57
:1050B000F824000000000000000000000000004094
:1050C00010B52F499FED2C1B2DED020B84B00598D8
:1050D00020F000408842DCBF00209DED040B32DD53
:1050E0002849884209D1049840B94FF00100FBF7E4
:1050F0002CFB00F05DFC06B010BD05DB9DED040B44
:1051000000F042FC06B010BD68469DED040B00F0B7
:105110003BF810F0030011D0012818D09DED021BC0
:105120009DED000B02281AD000F04AFA51EC100B4A
:1051300000F0BBFD06B041EC100B10BD9DED021B55
:105140009DED000B012000F06FFB06B010BD9DED42
:10515000021B9DED000B00F033FA06B010BD0120DC
:1051600000F062FB51EC100B00F09FFD06B041EC2B
:10517000100B10BD00000000000000000000000047
:10518000FB21E93F0000F07F2DE9F14F04462DEDB2
:10519000020B2DED088B8AB09FEDE70B80ED020B23
:1051A000139EE74826F0004585420ADC9DED120B70
:1051B000002084ED000B0AB0BDEC088B03B0BDE805
:1051C000F08FE0489FEDE0AB9FEDE1BBA84247DDEB
:1051D000E14F9FEDE39B9FEDE48B9DED120B53ECB4
:1051E0001A2B51EC100B002E1CDD01F081FA41EC62
:1051F000100BBD4208D053EC1B2B51EC100B01F0EF
:1052000077FAC4E900010BE053EC192B51EC100BB9
:1052100001F06EFA53EC182B01F06AFAC4E90001B0
:105220000120C8E700F080FD41EC100BBD4208D022
:1052300053EC1B2B51EC100B00F076FDC4E9000180
:105240000BE053EC192B51EC100B00F06DFD53ECFF
:10525000182B00F069FDC4E900014FF0FF30AAE708
:10526000C348A84279DB9DED120B51EC100B00F006
:10527000F3FB41EC180B9FEDC00B53EC102B01F02E
:105280002BF89FEDBF1B53EC112B00F04DFD00F0F0
:105290005FFF074600F0B9FF41EC190B53EC1A2BE6
:1052A00001F01AF853EC182B01F04AF941EC180BF5
:1052B00053EC1B2B51EC190B01F00EF8DFF8C8A2D0
:1052C00041EC100B4FEA15580125FA4453EC102B12
:1052D00051EC180B01F00CFA032DC4E900013DD08C
:1052E000C1F30A5005EB4511A8EB000011398142CA
:1052F00034DA0AEB051BB0EE48AA9BED000BF0EE8A
:1053000068AA53EC102B51EC190B00F0E5FF41ECAF
:105310001B0B51EC1A0B53EC1B2B01F0E9F941EC80
:10532000180B51EC1A0B53EC182B01F0E1F953EC6C
:105330001B2B01F0DDF99BED020B41EC1A0B53EC3A
:10534000102B51EC190B00F0C7FF53EC1A2B01F096
:10535000CFF941EC100B6D1CB8E70EE0002EA8BF92
:105360003846BFF628AF94ED000B51EC100B00F05F
:105370009CFCC4E9000178421DE7C6F3130040F429
:10538000801EC6F30A50A0F2F530471100F01F0549
:10539000C5F12000DDF848B0089000200690079085
:1053A0000520EC467949002D07EB0002794408BF3F
:1053B00051F8221009D051F8223001EB8201AB40A4
:1053C0004A68089922FA01F11943A1FB0E26A1FBB4
:1053D0000B131A449A4234BF0123002303EB06083F
:1053E0000CEB8003D3E901A60E448E4234BF0121A9
:1053F000002192448A4411B1924502D903E09245BA
:1054000001D2012100E00021C3E901A641444CF88A
:105410002010011EA0F10100C4DC029800F1005030
:10542000850F0298DDE903678000DDF8148000F045
:10543000ECFE41EC1A0B304600F0FEFE9FED541BD3
:1054400053EC112B00F048FF41EC1B0B384600F0E9
:10545000F3FE9FED511B53EC112B00F03DFF41EC8F
:10546000180B404600F0E8FE9FED4D1B53EC112B4E
:1054700000F032FF41EC190B51EC180B53EC192BD7
:1054800000F052FC53EC1B2B00F04EFC53EC1A2B9B
:1054900000F04AFCCDE90801002008909DED080BC2
:1054A00053EC1A2B51EC100B01F022F953EC1B2B8F
:1054B00001F01EF953EC182B01F01AF953EC192BDB
:1054C00001F03EF89FED381B53EC112B00F004FF68
:1054D0009FED370B41EC180B53EC102B9DED080B97
:1054E00051EC100B00F0F8FE53EC182B00F01CFCF4
:1054F0009FED310B41EC180B53EC102B9DED080B7D
:1055000051EC100B00F0E8FE53EC182B00F00CFCF3
:1055100041EC100B139810F0004F06D06D4251EC87
:10552000100B00F0C2FB41EC100B284684ED000B81
:1055300041E6000000000000000000000000000044
:10554000FB21E93F7CD9024000004054FB21F93F98
:105550003163621A61B4D03DFB21F93F00000000C5
:105560000000601A61B4D03D7370032E8A19A33B0A
:10557000FB2139410000000083C8C96D305FE43F62
:10558000000000000000E03F1A2200006821000037
:10559000000000000000103E000000000000103C71
:1055A000000000000000103A182D4454FB21F93D82
:1055B0003326A611460B113C00000054FB21F93D97
:1055C00010B52DED040B2DED088B82B0B0EE419A95
:1055D000F0EE619A0B9820F000449FED4BABB4F1D4
:1055E000795F11DA9DED0A0B51EC100B00F0B0FD64
:1055F000002801BFB0EE4A0AF0EE6A0A02B0BDEC24
:10560000088B04BF04B010BD9DED0A0B53EC102BAA
:1056100051EC100B00F060FE41EC180B3C480621E9
:10562000B0EE480AF0EE680A784400F081F853ECD6
:10563000182B51EC100B00F04FFE9DED0A0B41ECC6
:105640001B0B53EC192B51EC100B00F045FE41ECF9
:10565000190B53EC1B2B51EC180B00F03DFE53ECD7
:10566000192B01F045F89FED2C0B41EC190B53EC75
:10567000102B51EC180B00F02FFE41EC100B2848BA
:10568000844210DA53EC192B51EC100B01F030F876
:1056900053EC1A2B00F054FF41EC100B02B0BDECA0
:1056A000088B04B010BD1F48A042BCBF9FED1E1B5D
:1056B0008DED001B06DBA4F500100190002000908A
:1056C0009DED001B51EC100B53EC112B01F010F869
:1056D0009DED000B41EC180B53EC102B51EC1A0B09
:1056E00001F006F841EC1A0B53EC192B51EC180B96
:1056F00000F0FEFF53EC1A2B00F022FF41EC100BE0
:10570000CCE7000000000000000000000000F03FB7
:10571000841E000000000000000000000000E03FC8
:105720003333D33F0000E93F000000000000D23FC8
:1057300070B504462DED028B4D1E00EBC500B0EE9A
:10574000408AF0EE608A90ED000B35F0060017D02D
:1057500053EC182B51EC100B00F0BEFD41EC100B7C
:105760006D1E04EBC50090ED001B51EC100B53ECCB
:10577000112B00F0D9FA41EC100B35F00600E7D1FF
:10578000022D36D0042D1CD0062D1CBFBDEC028B83
:1057900070BD53EC182B51EC100B00F09DFD94EDF7
:1057A0000A1B53EC112B00F0BFFA53EC182B00F03E
:1057B00093FD94ED081B53EC112B00F0B5FA41EC6E
:1057C000100B53EC182B51EC100B00F085FD94EDF1
:1057D000061B53EC112B00F0A7FA53EC182B00F02A
:1057E0007BFD94ED040B53EC102B00F09DFA41EC83
:1057F000100B53EC182B51EC100B00F06DFD94EDD9
:10580000021B53EC112B00F08FFA53EC182B00F015
:1058100063FD94ED001B53EC112B00F085FABDECF9
:10582000028B41EC100B70BD31B504462DED040B1D
:105830002DED0A8BB0EE41BAF0EE61BA0B989DEDFA
:105840000A0B20F00040B0F1795F0DDA51EC100B3B
:10585000FEF748FC042808BF00F0CAF89DED0A0BCB
:10586000BDEC0A8B05B030BD53EC102B51EC100B86
:1058700000F032FD41EC180B9DED0A0B53EC182B98
:1058800051EC100B00F028FD41EC190B2C48B0EE48
:10589000480AF0EE680A05217844FFF749FF9FEDBA
:1058A0002ACBB0EE40AAF0EE60AA9CB353EC1C2BBE
:1058B00051EC190B00F010FD41EC1C0B53EC1A2BB2
:1058C00051EC190B00F008FD9FED210B41EC190B79
:1058D00053EC102B51EC1B0B00F0FEFC53EC192B7E
:1058E00000F006FF53EC182B00F0F6FC53EC1B2BDA
:1058F00000F0FEFE53EC1C2B00F0FAFE9DED0A1B9F
:1059000053EC112B00F01CFEBDEC0A8B05B041ECF2
:10591000100B30BDFFE753EC1A2B51EC180B00F0C5
:10592000DBFC53EC1C2B00F0FFF953EC192B00F0BF
:10593000D3FC9DED0A1B53EC112B00F0F5F9E3E7C6
:10594000141D000000000000495555555555C5BFB0
:10595000000000000000E03F9FED070B10B553EC86
:10596000102B9FED070B51EC100B00F099FA41EC56
:10597000100B10BD0000000000000000000000003F
:10598000000000000000F03F10B553EC102B51EC6C
:10599000100B00F0C9F941EC100B10BD10B553EC21
:1059A000112B51EC100B00F0BFF941EC100B10BDA6
:1059B0009FED050B10B553EC102B51EC100B00F0C4
:1059C0006FFA41EC100B10BD000000000000000059
:1059D0009FED050B10B553EC102B51EC100B00F0A4
:1059E0007BFC41EC100B10BD0000000000000070BB
:1059F0009FED050B10B553EC102B51EC100B00F084
:105A00006BFC41EC100B10BD00000000000000100A
:105A100030EE200A704700009FED020A20EE000AD7
:105A2000704700000000001030380A2801D2012021
:105A300070470020704700001CB5054903C9CDE937
:105A4000000108236A4600210248FBF7E9FF1CBD5C
:105A5000B86A00080064004082B0CDE9000121F07E
:105A6000004001909DED000B02B051EC100B70470F
:105A70000148006870470000B06A00080B480178D0
:105A80000B48007830B10B4800880B4A108000208A
:105A9000084A10800648017031B10020054A108084
:105AA000024A1070012070470020FCE7020000202D
:105AB00018000020060000200400002008B54FF464
:105AC000A060FCF70FFD0020034640F2473240F291
:105AD000E73100904FF08040FDF792FB4FF4E1304A
