:020000040800F2
:100000002847002029020008B118000893180008AA
:10001000AD180008E508000853260008000000009D
:10002000000000000000000000000000C51A0008E9
:10003000DD160008000000003F0200084102000831
:10004000430200084302000843020008430200087C
:10005000430200084302000843020008430200086C
:10006000430200084302000843020008430200085C
:10007000430200084302000843020008430200084C
:10008000430200084302000843020008430200083C
:10009000E908000843020008430200084302000880
:1000A000430200081D1C0008430200084302000828
:1000B000391C0008851C0008A11C00084302000828
:1000C00043020008430200084302000843020008FC
:1000D000430200084302000843020008B12300085D
:1000E00043020008430200084302000843020008DC
:1000F000D91C00084302000843020008430200081C
:100100004302000843020008BD1C00084302000827
:1001100043020008911F0008430200084302000840
:10012000430200084302000843020008430200089B
:10013000430200084302000843020008430200088B
:10014000430200084302000843020008430200087B
:10015000430200084302000843020008430200086B
:10016000430200084302000843020008430200085B
:10017000430200084302000843020008430200084B
:10018000430200084302000800F002F800F03CF8C7
:100190000AA090E8000C82448344AAF10107DA45E2
:1001A00001D100F031F8AFF2090EBAE80F0013F0F8
:1001B000010F18BFFB1A43F001031847744D0000EC
:1001C000944D0000103A24BF78C878C1FAD852077D
:1001D00024BF30C830C144BF04680C6070470000C1
:1001E0000023002400250026103A28BF78C1FBD840
:1001F000520728BF30C148BF0B6070471FB504F0DD
:10020000A4F91FBD10B510BD00F044F91146FFF769
:10021000F5FF03F0D9FA00F062F903B4FFF7F2FF3B
:1002200003BC00F065F90000094880470948004711
:10023000FEE7FEE7FEE7FEE7FEE7FEE7FEE7FEE796
:10024000FEE7FEE704480549054A064B70470000F3
:10025000B51B00088901000828010020284700205C
:100260002843002028430020DFED300AB5EEC00A05
:1002700060EE200ABDEEE01A11EE100AF1EE10FA5F
:1002800038BF401E00EE100A9FED291AB8EEC00AD2
:1002900070EEC00A20EE810ABCEEC00A10EE100A11
:1002A00000EE100A0028B8EEC00A10EE810AB8BFAE
:1002B000002004DBB0F5807FC8BF4FF480701D497B
:1002C00060EE000AB6EE001ADFED1C2A9FED1A2A36
:1002D00060EE011A60EE225A20EE813A20EE022AE8
:1002E00021EEA01A01EB800073EE655A62EE202A1F
:1002F000B7EE006A33EE003AD0EC043A76EE611ABB
:1003000071EE600A35EEE20A33EE413A32EEC21A7D
:1003100070EEA10A20EE230A64EE831A04EE200A8E
:1003200045EE011A31EE800A7047000083F9223E43
:100330000000804380460008ABAA2A3EABAAAA3E32
:10034000DFED300AB5EEC00A60EE200ABDEEE01A1D
:1003500011EE100AF1EE10FA38BF401E00EE100A3E
:100360009FED291AB8EEC00A70EEC00A20EE810A8D
:10037000BCEEC00A10EE100A00EE100A0028B8EE1B
:10038000C00A10EE810AB8BF002004DBB0F5807F00
:10039000C8BF4FF480701D4960EE000AB6EE001A27
:1003A000DFED1C2A9FED1A2A60EE011A60EE225A38
:1003B00020EE813A20EE022A21EEA01A01EB800005
:1003C00073EE655A62EE202AB7EE006A33EE003A09
:1003D000D0EC043A76EE611A71EE600A35EEE20A6C
:1003E00033EE413A32EEC21A70EEA10A20EE230A31
:1003F00064EE831A04EE200A45EE011A31EE800AFB
:100400007047000083F9223E00008043904A0008B4
:10041000ABAA2A3EABAAAA3E4FF0000200B5134693
:1004200094469646203922BFA0E80C50A0E80C5014
:10043000B1F12001BFF4F7AF090728BFA0E80C50C5
:1004400048BF0CC05DF804EB890028BF40F8042BBE
:1004500008BF704748BF20F8022B11F0804F18BF2B
:1004600000F8012B704770477047704710B500F0D7
:1004700009F8006810BD10B5044600F003F80460E8
:1004800010BD000000487047C800002000487047B9
:10049000C80000207546FFF7F9FFAE460500694623
:1004A000534620F00700854618B020B5FFF7CAFE76
:1004B000BDE820404FF000064FF000074FF0000865
:1004C0004FF0000B21F00701AC46ACE8C009ACE8E6
:1004D000C009ACE8C009ACE8C0098D46704710B54A
:1004E0000446AFF300802046BDE81040FFF795BEFC
:1004F00001491820ABBEFEE726000200704700004D
:100500002DE9F0412DED068BD2B005460E4617467B
:1005100018214CA8FFF780FF002049904A904B908B
:1005200049A9284600F046FE9DED490ADFEDDB0AA9
:1005300080EE201A11EE104A204603F095FF41ECA0
:10054000180B9FEDD70B53EC102B03F097FC439146
:1005500042909DED4A0ADFEDD10A80EE201A11EE9D
:10056000104A204603F080FF41EC180B9FEDCC0BA6
:1005700053EC102B03F082FC459144909DED4B0A07
:10058000DFEDC60A80EE201A11EE104A204603F075
:100590006BFF41EC180B9FEDC20B53EC102B03F0DB
:1005A0006DFC47914690482130A8FFF735FF0024A5
:1005B00091E0BD4800EB8400D0ED000AB0EE600A87
:1005C000FFF752FEF0EE408A42A800EBC40090ED27
:1005D000001BB0EE410AF0EE610A51EC100B03F083
:1005E00085F908EE100AB0EE480AFFF73DFEF0EE7E
:1005F000400A9FEDAE0A9FEDAE1A01EE200AD5ED3E
:10060000000A48EEC00A10EE908A404603F02CFF24
:1006100004EB440230AB03EBC20203C2A24800EB7E
:100620008400D0ED000AB0EE600AFFF789FEF0EE1C
:10063000408A42A800EBC40090ED001BB0EE410AD6
:10064000F0EE610A51EC100B03F050F908EE100ABD
:10065000B0EE480AFFF708FEF0EE400A9FED930A5D
:100660009FED931A01EE200AD5ED010A48EEC00A6B
:1006700010EE908A404603F0F7FE04EB4402521C51
:1006800030AB03EBC20203C242A800EBC40090ED02
:10069000001BB0EE410AF0EE610A51EC100B03F0C2
:1006A00025F908EE100AB0EE480AFFF749FED5ED2D
:1006B000020A9FED7F1A41EE000A10EE908A404632
:1006C00003F0D2FE04EB4402921C30AB03EBC202F7
:1006D00003C2601CC4B2032CFFF66BAF48211EA8F6
:1006E000FFF79AFE002460E042A800EBC40090ED02
:1006F000001BB0EE410AF0EE610A51EC100B03F062
:10070000F5F808EE100AB0EE480AFFF719FEDFED23
:10071000680A60EE208A644800EB8400D0ED000A8D
:10072000B0EE600AFFF7A0FDD5ED000A20EE208AAA
:100730005D4800EB8400D0ED000AB0EE600AFFF7E0
:10074000FFFDD5ED010A00EE808A9FED5A0A38EED2
:10075000400ADFED590A30EE200A68EE808A42A88E
:1007600000EBC40090ED001BB0EE410AF0EE610A10
:1007700051EC100B03F0BAF808EE100AB0EE480A7C
:10078000FFF772FDD5ED020A9FED491A60EE810A6E
:1007900040EE808A18EE908A404603F065FE1EAB5C
:1007A00003EB441203C2601CC4B2032C9CDB48213F
:1007B0000CA8FFF731FE96ED000B8DED060B96EDC4
:1007C000020B8DED080B96ED040B8DED0A0B182135
:1007D0006846FFF721FE1EA800F01CFF0CAA30A9F6
:1007E0001EA800F037FF6A4606A90CA803F02FF8F0
:1007F00000241EE0684600EBC40090ED001BB0EE44
:10080000410AF0EE610A9FED2D1B53EC112B51ECC8
:10081000100B03F059F941EC180B9FED2A0B53EC28
:10082000102B03F02BFB4CAA02EBC40203C2601C8A
:10083000C4B2032CDEDB002428E04CA800EBC4008B
:1008400090ED001BB0EE410AF0EE610A9FED1F1B18
:1008500053EC112B51EC100B03F010FB41EC1A0B75
:100860009FED1C0B53EC102B03F02EF941EC190BF0
:100870009FED1A0B53EC102B03F06AF841EC180BA8
:1008800003F07AFA47F82400601CC4B2032CD4DBCE
:1008900052B0BDEC068BBDE8F0810000000034438F
:1008A0004AD8124DFB210940504600080000094378
:1008B0000000464300003643000034420000006060
:1008C000FB2109400000000000806640000000009D
:1008D00000009B4000000000008076400000000007
:1008E0000000E03F00BFFEE71CB508233D4A3E493B
:1008F0003E4800F03BFC002005E03A49095C0DF859
:100900000010411CC8B20828F7DB45F650010098DA
:1009100088421AD13448006840F28121884202D1CD
:100920003349019808603048006840F282218842CB
:1009300002D12F49019848602B48006840F283217A
:10094000884202D12A490198886045F656010098EC
:1009500088421AD12448006840F28121884202D19D
:100960002449019808602048006840F282218842AA
:1009700002D12049019848601B48006840F2832159
:10098000884202D11B49019888601B49174800F032
:100990003FF81949491C154800F03AF81649C91C96
:1009A000124800F035F81549104800F031F81449A4
:1009B0000E4800F02DF813490C4800F029F81149B1
:1009C00008310A4800F024F80F49084800F020F8E0
:1009D0000E49064800F01CF80C490831034800F0A5
:1009E00017F81CBD0A00002014000020006400401D
:1009F0007C000020700000200100F0107000F0303A
:100A00000300001208000032030000140800003444
:100A100000220C4B994202D10023836111E0C1F303
:100A2000130201F000730BB1C2600AE001F08063B1
:100A30000BB1026105E001F000630BB1826000E0E0
:100A4000426070477000F0302DE9F04F8BB00646E1
:100A50000F4614461D46DDF850804FF00009CA4687
:100A6000CB46B5F5807F43D012DC102D34D008DCA6
:100A7000012D25D0022D26D0042D27D0082D4FD1B1
:100A800027E0202D2BD0402D2CD0802D48D12CE0DC
:100A9000B5F5805F38D009DCB5F5007F2BD0B5F512
:100AA000806F2BD0B5F5006F3AD12AE0B5F5005F25
:100AB0002DD0B5F5804F2DD0B5F5004F30D12CE0BD
:100AC0004FF000092DE04FF001092AE04FF0020934
:100AD00027E04FF0030924E04FF0040921E04FF034
:100AE00005091EE04FF006091BE04FF0070918E06A
:100AF0004FF0080915E04FF0090912E04FF00A091C
:100B00000FE04FF00B090CE04FF00C0909E04FF03B
:100B10000D0906E04FF00E0903E04FF00F0900E069
:100B200000BF00BFB8F5807F4BD01ADCB8F1100FC2
:100B30003BD00CDCB8F1010F2BD0B8F1020F2BD059
:100B4000B8F1040F2BD0B8F1080F52D12AE0B8F158
:100B5000200F2DD0B8F1400F2DD0B8F1800F48D123
:100B60002CE0B8F5805F38D009DCB8F5007F2BD0D9
:100B7000B8F5806F2BD0B8F5006F3AD12AE0B8F500
:100B8000005F2DD0B8F5804F2DD0B8F5004F30D193
:100B90002CE04FF0000A2DE04FF0010A2AE04FF060
:100BA000020A27E04FF0030A24E04FF0040A21E094
:100BB0004FF0050A1EE04FF0060A1BE04FF0070A4F
:100BC00018E04FF0080A15E04FF0090A12E04FF064
:100BD0000A0A0FE04FF00B0A0CE04FF00C0A09E094
:100BE0004FF00D0A06E04FF00E0A03E04FF00F0A37
:100BF00000E000BF00BF7F48304418B1B0F5806FFF
:100C00001AD10CE04FF0090B00208DF812001420CF
:100C10008DF804000121480600F0A2FE0DE04FF01F
:100C2000090B0E208DF8120040208DF804000121E0
:100C3000000500F095FE00E000BF00BFC4F309000E
:100C400078BBA012A0F580108038092834D2DFE8E4
:100C500000F0050A0F14191E23292E000121084651
:100C600000F06EFE29E00121022000F069FE24E080
:100C70000121042000F064FE1FE00121082000F0A3
:100C80005FFE1AE00121102000F05AFE15E001215C
:100C9000202000F055FE10E00121402000F050FE21
:100CA0000BE009E00121802000F04AFE05E001216F
:100CB000080200F045FE00E000BF00BF5A4649466A
:100CC000204600F0C3FD5A465146204600F0BEFDC6
:100CD00045EA0800099002208DF828008DF82900C7
:100CE00000208DF82A0001208DF82B0009A920464C
:100CF00000F010FD304600F07FF800208DF81E0057
:100D00008DF81F008DF820008DF821008DF822004D
:100D10008DF823008DF81A008DF81B000B208DF83C
:100D20001C0007208DF81D007D2F22D008DC0A2F23
:100D30000FD0142F11D0322F13D0642F29D114E0EB
:100D4000FA2F1AD0B7F5FA7F1BD0B7F57A7F20D1EA
:100D50001BE0C820ADF818001CE06420ADF81800B6
:100D600018E02820ADF8180014E01420ADF81800A1
:100D700010E01020ADF818000CE00820ADF81800C5
:100D800008E00420ADF8180004E00220ADF81800D7
:100D900000E000BF00BF06A9304600F0D6F80020F2
:100DA0008DF8130001208DF814000020ADF8080024
:100DB000ADF80A00ADF80C00ADF80E00ADF810006B
:100DC00001208DF8150002A800F032F800208DF8FF
:100DD000050003208DF8060001208DF8070001A80A
:100DE00000F068FD01220221304600F0A5F80BB0AA
:100DF000BDE8F08F009CFFBF10B504460B4884424D
:100E000009D10121480600F0BBFD00214FF0007020
:100E100000F0B6FD08E00121880600F0B1FD0021D8
:100E20004FF0806000F0ACFD10BD00000064004099
:100E300010B50021837A012202FA03F13D4A1268BB
:100E400042F001023B4B1A603A4A1C3212688A4354
:100E5000384B1C331A60027BCAB9364A0C3212680E
:100E60008A43344B0C331A604288C38842EA0343F6
:100E7000304A4032847A42F834300288838842EA29
:100E800003432C4A4032847A02EBC4025360027B53
:100E9000012A19D1274A0C3212680A43254B0C3318
:100EA0001A604288038842EA0343224A4032847A25
:100EB00042F83430C288838842EA03431D4A4032F4
:100EC000847A02EBC4025360C27A3AB9194A121DFD
:100ED00012688A43174B1B1D1A6006E0154A121D43
:100EE00012680A43134B1B1D1A60028932B9114A5A
:100EF000143212688A430F4B14331A600289012A94
:100F000006D10C4A143212680A430A4B14331A6091
:100F1000427B012A06D1074A1C3212680A43054B5C
:100F20001C331A60034A126822F00102014B1A6056
:100F300010BD0000006600401AB143690B434361D5
:100F400002E043698B434361704730B5024600209D
:100F50000023146824F002041460146844F00104AF
:100F6000146000E05B1C546804F001041CB94FF6E7
:100F7000FF74A342F6D1546804F001040CB90020B8
:100F80006CE08C79012C04D1146844F08004146066
:100F900003E0146824F080041460CC79012C04D19F
:100FA000146844F04004146003E0146824F0400422
:100FB00014600C7A012C04D1146844F020041460ED
:100FC00003E0146824F0200414604C7A012C04D14E
:100FD000146844F01004146003E0146824F0100452
:100FE00014608C7A012C04D1146844F00804146055
:100FF00003E0146824F008041460CC7A012C04D1B6
:10100000146844F00404146003E0146824F0040439
:1010100014608C78A407CD7844EA05640D7944EA1D
:1010200005444D7944EA05540D886D1E2C43D46166
:10103000146824F001041460002300E05B1C546871
:1010400004F001041CB14FF6FF74A342F6D15468BA
:1010500004F001040CB1002000E0012030BD024684
:10106000002019B9D36803F0030006E0012903D179
:10107000136903F0030000E00020704710B500F58D
:10108000D87303EB01131B6803F004031372137A84
:1010900053B900F5D87303EB01131B6840F2FF74DA
:1010A00004EA5353136009E000F5D87303EB01130E
:1010B0001B686FF0604404EAD303536000F5D873F3
:1010C00003EB01131B6803F00203537200F5D8739E
:1010D00003EB01135B6803F00F03937200F5D87301
:1010E00003EB01135B681B0AD37400F5D87303EBA1
:1010F00001139B68D37200F5D87303EB01139B684F
:101100001C0A147300F5D87303EB01139B681C0CC5
:10111000547300F5D87303EB01139B681B0E937394
:1011200000F5D87303EB0113DB68D37300F5D873B4
:1011300003EB0113DB681C0A147400F5D87303EB8E
:101140000113DB681C0C547400F5D87303EB011316
:10115000DB681B0E937421B9C36843F02003C3609E
:1011600003E0036943F02003036110BD2DE9F04162
:1011700086B080460D4616461F4600240021404694
:10118000FFF76DFF18B9002006B0BDE8F08101AA95
:1011900000214046FFF772FF002405E00DF10F002B
:1011A000005D3055601CC4B2BC42F7DB019828607A
:1011B0000120E9E7F0B52DED108B8DB006460D4608
:1011C00000200A900B900C900790089009900490D2
:1011D000059006900024DDE0FE4800EB8400D0ED91
:1011E000000AB0EE600AFFF73FF8B0EE408AF94817
:1011F00000EB8400D0ED000AB0EE600AFFF734F88F
:10120000D6ED000A9FEDF41A41EE000A28EE208A7E
:10121000F04800EB8400D0ED000AB0EE600AFFF762
:101220008FF8F0EE408AEB4800EB8400D0ED000A26
:10123000B0EE600AFFF784F8D6ED010A9FEDE61ADA
:1012400041EE000A08EEA08A9FEDE40A28EE000AAB
:101250000AA800EB840080ED000A96ED020ADFED9B
:10126000E00A20EE200A07A800EB840080ED000AC7
:101270009FEDDC1B9FEDDD0B01F04AFBB0EE409AC9
:10128000F0EE609A9FEDD71B9FEDDA0B01F040FB6B
:10129000B0EE40BAF0EE60BA96ED020A10EE101A07
:1012A000084603F0E1F841EC1D0B9FEDCE1BB0EEBC
:1012B0004D0AF0EE6D0A01F02BFB8DED020BC548D7
:1012C00000EB8400D0ED000AB0EE600AFFF738F8BA
:1012D000D6ED010A9FEDC01A41EE000A10EE907A99
:1012E000384603F0C1F841EC1F0B9FEDBE1BB0EE7A
:1012F0004F0AF0EE6F0A01F00BFBB0EE40DAF0EEB1
:1013000060DAB44800EB8400D0ED000AB0EE600A69
:10131000FEF7AAFFD6ED000A9FEDAF1A41EE000AD4
:1013200010EE907A384603F09FF841EC1F0B9FEDCA
:10133000AD1BB0EE4F0AF0EE6F0A01F0E9FAB0EE25
:1013400040EAF0EE60EA53EC1D2B51EC1E0B02F06C
:10135000FFFACDE900019DED020B53EC102B9DED42
:10136000000B51EC100B02F0F3FA41EC1C0B53ECA8
:101370001B2B02F0EDFA41EC1A0B53EC192B02F087
:1013800089FF41EC180B02F0B1FA04A941F82400DE
:10139000601CC4B2032CFFF61FAF0024CEE004A8EB
:1013A00000EB840090ED000A0AA800EB8400D0ED69
:1013B000000A30EE600A10EE101A084603F054F8E6
:1013C00041EC190BB0EE490AF0EE690A01F096FA09
:1013D000B0EE408AF0EE608A9FED880B53EC102B44
:1013E00051EC180B02F00EFD25D20AA800EB840088
:1013F00090ED001AB1EE411A04A800EB8400D0ED84
:10140000001A31EE611AB0EE410A07A800EB840021
:1014100090ED001AF0EE001A21EE211AF0EE410ACA
:1014200001F044F9F0EE000A20EE200A05EB8400FA
:1014300080ED000A80E004A800EB840090ED000A33
:1014400010EE101A084603F00FF841EC1C0B9FED4C
:10145000651BB0EE4C0AF0EE6C0A01F059FAB0EEE2
:1014600040AAF0EE60AA07A800EB840090ED000A05
:1014700010EE101A084602F0F7FF41EC1E0B9FED2C
:10148000591BB0EE4E0AF0EE6E0A01F041FAB0EED2
:1014900040CAF0EE60CA0AA800EB840090ED000A92
:1014A00010EE101A084602F0DFFF41EC1E0B9FED14
:1014B0004D1BB0EE4E0AF0EE6E0A01F029FAB0EEC6
:1014C00040DAF0EE60DA53EC1C2B51EC1D0B02F00D
:1014D0003FFA41EC1B0B53EC1A2B02F0DBFE41EC04
:1014E000190B02F003FA00EE100AF1EEC00A07A889
:1014F00000EB840090ED000AB1EE400A30EE600A85
:10150000B0EE408A04A800EB840090ED000A0AA81F
:1015100000EB840090ED001A30EE410AF0EE400A34
:10152000B0EE480A01F0C2F8F0EE000A20EE200A00
:1015300005EB840080ED000A601CC4B2032CFFF6AA
:101540002EAF00203FE005EB8001D1ED000A9FEDBA
:101550002D1A80EE810ADFED2C0A20EE200A05EB21
:10156000800181ED000A05EB800191ED000ADFEDBD
:10157000260AB4EEE00AF1EE10FA0BDD05EB80016D
:1015800091ED000ADFED210A30EE600A05EB8001E3
:1015900081ED000A05EB800191ED000ADFED1C0AE8
:1015A000B4EEE00AF1EE10FA0BD205EB800191EDFA
:1015B000000ADFED160A30EE200A05EB800181ED0E
:1015C000000A411CC8B20328BDDB0DB0BDEC108B76
:1015D000F0BD000050460008000009C30000C6C36B
:1015E0000000C643000000000000004000000000B2
:1015F000002076400000000000C068407B14AE4729
:10160000E17A843FDB0F4940000034430000B443DB
:10161000000034C370B50546002414E005EB441007
:1016200090ED001BB0EE410AF0EE610A53EC102B76
:101630009FED061B51EC110B02F046FA05EB44122C
:1016400003C2601CC4B2032CE8DB70BD00000000C4
:101650000000F03F2DE9F0412DED028B06460F46CC
:101660009046002430E000252AE004EB44002844A2
:1016700007EBC00090ED001BB0EE410AF0EE610AEE
:1016800053EC102B9FED131B51EC110B02F0F6FBEA
:1016900041EC180B06EB441090ED001BB0EE410A34
:1016A000F0EE610A53EC102B51EC180B02F0E6FB44
:1016B00004EB44022A4408EBC20203C2681CC5B210
:1016C000032DD2DB601CC4B2032CCCDBBDEC028B3F
:1016D000BDE8F081000000000000F0BF704700008E
:1016E00000B50421034800F009F8024802490860E7
:1016F00000BD0000540000205800002002460020D9
:1017000003E0034BC35C1354401C8842F9D3704779
:1017100000000408F0B50A4600210023002400BFA1
:101720003DE0012505FA01F3156805EA03049C4232
:1017300034D105684F000326BE40B54305601579D6
:101740004E00B5400668354305601579012D02D07D
:101750001579022D16D185684F000326BE40B5438A
:10176000856055794E00B54086683543856045688B
:1017700001268E40B5434560456896798E40B6B2E5
:1017800035434560C5684F000326BE40B543C5607C
:10179000D5794E00B540C6683543C560491C10294F
:1017A000BFD3F0BD7CB504460D461646C4F3090010
:1017B000002839D1A012A0F580108038092833D232
:1017C000DFE800F0050A0F14191E23282D0001215F
:1017D000084600F0B5F828E00121022000F0B0F83A
:1017E00023E00121042000F0ABF81EE001210820D5
:1017F00000F0A6F819E00121102000F0A1F814E093
:101800000121202000F09CF80FE00121402000F091
:1018100097F80AE00121802000F092F805E001210C
:10182000080200F08DF800E000BF00BF00958DF8C1
:10183000046000208DF806008DF8070002208DF866
:10184000050069462046FFF765FF7CBDF0B5002323
:1018500000244D07ED0E02FA05F3CE1000F120052D
:1018600055F826504E07F70E0F26BE40B543CF1051
:1018700000F1200646F82750CE1000F1200555F85B
:10188000265045EA0304CE1000F1200545F8264015
:10189000F0BD00BFFEE7000010B50122114602486E
:1018A000FFF780FF10BD00000010024000BFFEE700
:1018B00000BFFEE770B5002100230F22C4781CB3DF
:1018C000174C246804F4E064C4F5E064C4F3072111
:1018D000C1F10404E3B20A4144789C40E1B2847847
:1018E000144021430C07210E0E4C057861550478F5
:1018F00004F01F050124AC4005786D11AD0005F121
:10190000E025C5F8004109E0047804F01F05012432
:10191000AC40054D0678761145F8264070BD0000B4
:101920000CED00E000E400E080E100E0024901434A
:10193000024A1160704700000000FA050CED00E05B
:1019400029B1064A12680243044B1A6004E0034AB4
:1019500012688243014B1A60704700003038024021
:1019600029B1064A12680243044B1A6004E0034A94
:1019700012688243014B1A607047000040380240F1
:1019800029B1064A12680243044B1A6004E0034A74
:1019900012688243014B1A607047000020380240F1
:1019A00029B1064A12680243044B1A6004E0034A54
:1019B00012688243014B1A607047000044380240AD
:1019C000F0B5002100220024022500260223324F18
:1019D0003F6807F00C0121B1042905D0082937D14F
:1019E00005E02E4F076036E02D4F076033E02A4FA9
:1019F0003F1F3F68C7F38056274F3F1F3F6807F0E0
:101A00003F036EB1264FB7FBF3F7DFF88CC0ACF1A4
:101A1000040CDCF800C0CCF3881C07FB0CF40CE0D1
:101A20001E4FB7FBF3F7DFF870C0ACF1040CDCF825
:101A300000C0CCF3881C07FB0CF4174F3F1F3F6816
:101A4000C7F301477F1C7D00B4FBF5F7076002E098
:101A5000124F076000BF00BF0F4F3F6807F0F00153
:101A60000909104F7A5C0768D74047600A4F3F6802
:101A700007F4E051890A0B4F7A5C4768D7408760CA
:101A8000054F3F6807F46041490B064F7A5C476891
:101A9000D740C760F0BD0000083802400024F400C1
:101AA00000127A005D00002010B5034A0349044883
:101AB000FEF726FD10BD0000B00000203800002019
:101AC00020000020704700000CB50020019000901D
:101AD0003448006840F480303249086000BF314823
:101AE000006800F4003000900198401C01900098BC
:101AF00018B90198B0F5A06FF1D12A48006800F438
:101B0000003010B10120009001E00020009000980A
:101B1000012846D123484030006840F080502149D8
:101B2000403108602048006840F480401E49086049
:101B30001C48083000681B490831086008460068E6
:101B400040F4004008600846006840F4A050086077
:101B50001648091F0860081F006840F08070091FC0
:101B6000086000BF0F48006800F000700028F9D03E
:101B700040F205600E4908600A480830006820F00D
:101B800003000849083108600846006840F0020078
:101B9000086000BF03480830006800F00C00082807
:101BA000F8D10CBD003802400070004008544007D6
:101BB000003C024010B51548006840F4700013491D
:101BC00008601348006840F00100114908600020D7
:101BD0000F49083108600E4800680E4908400C495A
:101BE00008600D48091D0860081F006820F4802067
:101BF000091F0860002006490C310860FFF764FFE8
:101C00004FF0006001498039086010BD88ED00E0A8
:101C100000380240FFFFF6FE1030002410B501210D
:101C2000044800F076F8012803D10121014800F0B2
:101C300061F810BD0000014010B50121880700F0D7
:101C400068F8012817D10121800700F053F80A48ED
:101C50000088401C0849088008480088401C074943
:101C6000088005480088012805DB0020024908801B
:101C700001200349087010BD00000020060000206C
:101C80000200002010B50121044800F042F80128AC
:101C900003D10121014800F02DF810BD00040040DF
:101CA00010B50121044800F034F8012803D10121C6
:101CB000014800F01FF810BD0008004010B50121D8
:101CC000044800F026F8012803D10121014800F062
:101CD00011F810BD000C004010B50121044800F0BF
:101CE00018F8012803D10121014800F003F810BDC4
:101CF00000040140CA430282704721B1028842F0C9
:101D00000102028004E002884FF6FE731A4002804E
:101D1000704730B50246002000230024158A05EAEA
:101D20000103958905EA010413B10CB1012000E01B
:101D3000002030BD1AB183890B43838102E083897F
:101D40008B438381704700002DE9FF4104460D4617
:101D500016461F46DDF828806949601A8C4270D00B
:101D60001ADC6849A4EB01008C426CD00ADCB4F1A7
:101D7000804F4ED064482044002852D0B0F5806F88
:101D800071D156E0B0F5806F65D0B0F5006F6CD0C2
:101D9000B0F5406FF4D170E0B0F5923F21D009DC8E
:101DA000B0F5806F7AD0B0F5644F0AD0B0F5684FC7
:101DB0007CD10EE0B0F5943F1BD0B0F5963F75D1C5
:101DC0001FE001210846FFF7EBFD19208DF8000008
:101DD0006DE001210220FFF7E3FD2C208DF80000CB
:101DE00065E001210804FFF7DBFD18208DF80000F5
:101DF0005DE001211920FFF7D3FD2C208DF80000B4
:101E000055E001218804FFF7CBFD1A208DF8000072
:101E10004DE001210846FFF7A3FD1C208DF80000CE
:101E200045E001210220FFF79BFD1D208DF80000F9
:101E30003DE001210420FFF793FD1E208DF80000F6
:101E400035E023E0FFE701210820FFF789FD32207C
:101E50008DF800002BE001211020FFF781FD3620D6
:101E60008DF8000023E021E0FFE701212020FFF7AB
:101E700077FD37208DF8000019E001214020FFF7A1
:101E80006FFD2B208DF8000011E007E0012180207C
:101E9000FFF766FD2C208DF8000008E00121080204
:101EA000FFF75EFD2D208DF8000000E000BF00BFB1
:101EB0000295ADF804600020ADF80C00ADF8060006
:101EC00001A9204600F022F801212046FFF712FF69
:101ED000012211462046FFF72DFFF8B28DF80100D0
:101EE00008F0FF008DF8020001208DF8030068461D
:101EF000FFF7E0FC01212046FFF7FFFEBDE8FF8170
:101F0000001C0040000C004000FCFFBF00220288C3
:101F1000184B98420ED0184B98420BD0B0F1804F1E
:101F200008D0164B984205D0154B984202D0154B5D
:101F3000984204D14FF68F731A404B881A43124BC4
:101F4000984207D0114B984204D04FF6FF431A40F5
:101F50000B891A4302804B68C3620B880385054BCB
:101F6000984202D0044B984201D18B7A0386012318
:101F700083827047000001400004014000040040DB
:101F800000080040000C0040001000400014004019
:101F900010B5002440F22551CE4800F09CFA0128EB
:101FA00008D140F22551CB4800F07AFAC94800F038
:101FB0004BFBC4B2C848007810281DD2DFE800F0FF
:101FC000081D344960778EA3BAD1E8F2F1F0EFEE44
:101FD000472C0ED1C1480078C0EB0010C04908441E
:101FE000BD4909784454BC480078401CBA4908707F
:101FF00002E00F20B84908704EE1302C10DB332C82
:102000000EDCB6480078C0EB0010B5490844B24970
:1020100009784454B0480078401CAF49087002E089
:102020000F20AD49087037E1582C0ED1AB4800782D
:10203000C0EB0010AA490844A74909784454A648AF
:102040000078401CA449087002E00F20A2490870E3
:1020500022E12B2C01D02D2C0ED1A0480078C0EB12
:1020600000109F4908449C49097844549A480078D4
:10207000401C9949087002E00F20974908700BE155
:10208000302C10DB392C0EDC94480078C0EB0010AB
:10209000934908449049097844548F480078401C7B
:1020A0008D49087002E00F208B490870F4E0302C55
:1020B00010DB392C0EDC89480078C0EB0010884911
:1020C000084485490978445483480078401C824973
:1020D000087002E00F2080490870DDE0592C0ED115
:1020E0007E480078C0EB00107D4908447A490978A1
:1020F000445479480078401C7749087002E00F206A
:1021000075490870C8E02B2C01D02D2C0ED17348D6
:102110000078C0EB0010724908446F4909784454B4
:102120006D480078401C6C49087002E00F206A4935
:102130000870B1E0302C10DB392C0EDC67480078D9
:10214000C0EB00106649084463490978445462486A
:102150000078401C6049087002E00F205E4908705A
:102160009AE0302C10DB392C0EDC5C480078C0EB98
:1021700000105B490844584909784454564800788F
:10218000401C5549087002E00F205349087083E055
:102190003B2C08D101205349087018E067E05CE04F
:1021A00044E02CE014E05A2C0ED14C480078C0EBEF
:1021B00000104B490844484909784454464800787F
:1021C000401C4549087002E00F204349087063E055
:1021D000302C10DB392C0EDC40480078C0EB0010AE
:1021E0003F4908443C49097844543B480078401C26
:1021F0003949087002E00F20374908704CE0302C54
:1022000010DB392C0EDC35480078C0EB0010344967
:1022100008443149097844542F480078401C2E491D
:10222000087002E00F202C49087035E0302C10DBDC
:10223000392C0EDC29480078C0EB001028490844EE
:1022400025490978445424480078401C22490870E4
:1022500002E00F20204908701EE03B2C03D1012032
:102260002049087002E00F201B49087014E000208C
:102270001949087000BF09E00021184A1278C2EB22
:102280000212174B1A441154411CC8B20E28F3DB3A
:1022900000201449087000BF00BF124800780128D0
:1022A00016D10D4800780A280DD100BF09E00021A1
:1022B0000A4A1278C2EB0212094B1A441154411C0B
:1022C000C8B20E28F3DB00200349087005490870E6
:1022D00010BD00000050004019000020090000203F
:1022E000880000200800002010B588B0044604943F
:1022F0000020ADF81400ADF81600ADF81800ADF8E8
:102300001C000C20ADF81A000121FFF719FB012178
:102310000805FFF725FB08220C212248FFF796FA53
:10232000082202212048FFF791FA00208DF80A00C8
:1023300001208DF80B0002208DF80800C0020190EA
:1023400002208DF8090001A91648FFF7E3F90220E1
:102350008DF808000420019001A91348FFF7DAF96D
:1023600004A9124800F006F935208DF80C00012070
:102370008DF80F008DF80D008DF80E004FF4A06061
:10238000FFF7D4FA03A8FFF795FA012240F225518E
:10239000064800F0CAF80121044800F090F808B09F
:1023A00010BD000000080240000C02400050004038
:1023B00010B5002440F22551074800F08CF80128A0
:1023C00008D140F22551044800F06AF8024800F0B4
:1023D0003BF9C4B210BD00000048004010B588B001
:1023E000044604940020ADF81400ADF81600ADF8D2
:1023F0001800ADF81C000C20ADF81A0001210420D3
:10240000FFF79EFA01218804FFF7AAFA07220A21A2
:102410002148FFF71BFA07220B211F48FFF716FA86
:1024200000208DF80A0001208DF80B0002208DF8A5
:1024300008004002019002208DF8090001A9164809
:10244000FFF768F902208DF808008002019001A9C9
:102450001148FFF75FF904A9104800F08BF8272016
:102460008DF80C0001208DF80F008DF80D008DF80F
:102470000E004FF4A060FFF759FA03A8FFF71AFA0D
:10248000012240F22551054800F04FF80121034890
:1024900000F015F808B010BD0008024000480040E8
:1024A00010B50022002340F66A14A14200D100BFFB
:1024B0000A1201249440A3B2DC43048010BD21B170
:1024C000828942F40052828104E082894DF6FF73D2
:1024D0001A408281704770B502460024002300250F
:1024E000002040F66A16B14200D100BFC1F3421588
:1024F00001F01F03012606FA03F3012D02D196898C
:10250000334006E0022D02D1168A334001E0968A5C
:1025100033400C12012606FA04F41688344013B135
:102520000CB1012000E0002070BDF0B5034600248E
:1025300000260025002040F66A17B94200D100BFEE
:102540001846C1F3421401F01F06012707FA06F5E9
:10255000012C01D10C3004E0022C01D1103000E03C
:1025600014301AB107682F43076002E00768AF43D1
:102570000760F0BD2DE9FF4705460E460024A14641
:1025800000BFA046B08900B100BF2C8A24F440549B
:10259000F08804432C82AC8941F20C608443B088FB
:1025A00031890843718908430443AC81AC8A24F41F
:1025B0004074B0890443AC826846FFF701FA2048B2
:1025C000854202D01F48854202D1DDF80C9001E01F
:1025D000DDF80890A88900F4004040B109EBC9007B
:1025E00000EB091031684900B0FBF1F707E009EB97
:1025F000C90000EB091031688900B0FBF1F76420D5
:10260000B7FBF0F004012009642101FB1078A889D0
:1026100000F4004040B1322000EBC800B0FBF1F004
:1026200000F00700044308E0322000EB08106421AA
:10263000B0FBF1F000F00F0004432C81BDE8FF87F0
:10264000001001400014014001468888C0F30800D2
:10265000704700BFFEE703B401984100009850EABC
:10266000C12018BF04204A0D18BF40F0010040F2FD
:10267000FF72B2EB515F08BF40F00200012808BFB3
:10268000052002B070474100080218BF04200A0E5E
:1026900018BF40F001004FF07F4232EA010108BF4D
:1026A00040F00200012808BF0520704710EE100A14
:1026B00010B510EE901A4FF0684202EB40032DED7A
:1026C000028BB3F1654F3CBF02EB4102B2F1654FA3
:1026D0007CD200BFC0F3C753C1F3C7529A1A1B2A5A
:1026E00009DD10F0004F14BF9FED6E0A9FED6E0ADA
:1026F000BDEC028B10BD12F11A0F1BDA11F0004F66
:1027000009D010F0004F0CBF9FED680A9FED680ADA
:10271000BDEC028B10BD80EE208A18EE100AFFF788
:10272000B2FF042808BF00F0EFFFB0EE480ABDEC8E
:10273000028B10BD4200B2EB410F37D910F0004FB1
:1027400019BFDFED5C1A9FED5C1ADFED5C1A9FED9F
:102750005C1AB0EE602A0A46F1EE400A80F00041B1
:10276000B0EE420A10460A1A5200B2F1807F34D20B
:10277000484010F0004FDFED532A9FED533A1DBF44
:10278000BEEE002A71EEE21A31EE431AB6EE002ACE
:1027900004BF71EEA21A31EE031AF0EE402A42EEA7
:1027A000602A40EE020A82EEA02A18E011F0004FE3
:1027B00004BF9FED461AF0EE411AD4D010F0004F3E
:1027C0001CBFDFED431A9FED431A00E026E004BF73
:1027D000DFED411A9FED411AC5E780EE202A22EE77
:1027E000020ADFED3F0ADFED3F2ABDEC028B40EE2F
:1027F000202ADFED3D0A40EE220ADFED3C2A40EEC2
:10280000202ADFED3B0A40EE220A22EE000A00EE0B
:10281000201A31EE020A30EE210A10BD4FF07F423D
:10282000B2EB400F28BFB2EB410F05D2BDEC028BDB
:10283000BDE8104000F064BF40EA01035B0008BF40
:1028400041F0FF410BD0B2EB400F08BFB2EB410F9C
:1028500008D120F0804000EE100A21F0804100EE07
:10286000901A37E7B2EB400F12BF5FEA410240F027
:10287000FF4001F000413FF42DAF4A0092EA4003CF
:102880003FF528AF002AACBF9FED1A1A9FED1A1A28
:1028900020EE010A60EE810A10EE100A10EE901A86
:1028A00018E70000DB0FC9BFDB0FC93FDB0F494052
:1028B000DB0F49C00000C9BF22AAFDB90000C93F13
:1028C00022AAFD390060ED3EC30ACE3700000000A9
:1028D000000049C022AA7DBA0000494022AA7D3AE0
:1028E0002DAD65BD8FB8D53D0FB511BE61C84C3E4D
:1028F000A8AAAABE0000804F0000802F2DED020B79
:10290000019820F0004001909DED000B02B070474F
:102910002DE9F04D2DED040B2DED0E8B96B0DDE97C
:102920002550279CDDF890A025F0004624F00048B3
:10293000BAF1000F14BF0121002101EB4502FC494F
:1029400053184A1093422AD3002814BF01230023AE
:1029500003EB44030B44F7498B4220D358EA0001B0
:102960009FEDF59B76D0DFF8D8B35D4503D1BAF182
:10297000000F05D188E0BAF1000F08BF002100D098
:10298000012101EB450111F5001F08D8002814BFF3
:102990000121002101EB440111F5001F0BD99DED30
:1029A000261B9DED240B16B0BDEC0E8B04B0BDE8CC
:1029B000F04D00F069BE0027002DBCBFE1498845FD
:1029C00021DAE1498845A8BF02271CDAC3451ADC91
:1029D000DE4901EB2851142908DDC1F1340220FA47
:1029E00002F101FA02F282420DD108E058B9C1F1B8
:1029F000140228FA02F101FA02F2424503D101F071
:102A00000101C1F1020756EA0A0124D1002C22DAA1
:102A1000002D18BF022F01D0012F0AD00220FDF790
:102A20002AFD16B0BDEC0E8B04B0BDE8F04D00F0F1
:102A300013BE0220FDF71FFD00F00EFE51EC100B3F
:102A400000F048FF41EC100B16B0BDEC0E8B04B04B
:102A5000BDE8F08D18E09FEDBEAB9FEDBF8B002869
:102A600071D1B848804522D105F1804010F5801021
:102A700008BFBAF1000F07D0B3450ADC002CA8BF8D
:102A80009DED260BE0DA0DE0B0EE490AF0EE690AA2
:102A9000DAE7002C06DA9DED260B51EC100B00F066
:102AA00019FF6FE0AE48784490ED000BCCE7D845B5
:102AB0004DD1002C48DA2EB186423AD1BAF1000F3E
:102AC00042D126E0BAF1000F13D00220FDF7D3FC6B
:102AD00000F0F6FD8DED020B9DED240B8DED000B4E
:102AE00010EE900A039961F31E0003909DED020B16
:102AF000AAE78DED02AB9DED240B1AEE901A10EEB5
:102B0000900A8DED000B61F31E0003909DED020B0A
:102B10009AE78DED028B9DED240B18EE901A10EEC6
:102B2000900A8DED000B61F31E0003909DED020BEA
:102B30008AE709DA9DED240B51EC190B53EC102BAD
:102B400000F0C2FF1EE020E09DED240B7CE78642F2
:102B50001BDAB4F1804F0DD0A4F10050B0F1FF505A
:102B600013D1002D11DB9DED240B51EC100B00F067
:102B700037FE07E09DED240B53EC102B51EC100BAE
:102B800000F0C2BC41EC100B5EE79DED240B51EC54
:102B9000100B00F0C1FDBAF1000FCDE90E0142D1DA
:102BA0009FED710B46B3A6F1E040B0F17F600CD011
:102BB0005E4538D1002D00DAA7B3022F0CBF0120EB
:102BC0004FF0FF3001F007F9DCE7002D01DD002CAC
:102BD0000DDA002D01DD002C1FDB002D16DA002C94
:102BE00014DB012F08BF9FED620B3FF42DAFB0EE59
:102BF0004A0AF0EE6A0A27E7022F18BF002D0CD010
:102C0000012F0AD1002DFFF61FAF06E0002DB8BF3F
:102C1000002C08DA012F3FF417AFB0EE480AF0EEAF
:102C2000680A11E71BE0012000EBE57050EA07019C
:102C300015D0791EB0EE498AF0EE698A084308BFC4
:102C40009FED4D8B4E480025804570DD4D494E4827
:102C5000884514DDB0420DDB002C19DB2FE001208C
:102C6000FDF709FC16B0BDEC0E8B04B0BDE8F04DCD
:102C700000F016BDB34502DC002C09DC1FE08642E3
:102C800002DA002C1BDA03E05E452BDD002C16DD9A
:102C90000220FDF7F0FB00F013FD8DED020B53EC6D
:102CA0001A2B51EC180B01F0E9F8CDE9000103995A
:102CB000019861F31E0003909DED020BC4E6022013
:102CC000FDF7D9FB00F00CFD10EE901A18EE900AFB
:102CD0008DED020B8DED008B61F31E0003909DEDD9
:102CE000020BB1E69DED0E0B53EC192B51EC100BC2
:102CF00001F0D0FA9FED260BCDE9080153EC102B23
:102D00009DED080B51EC100B01F0B8F89FED221B64
:102D100053EC112B01F0E6F99DED081B53EC112B40
:102D200001F0ACF89FED1E1B53EC112B3CE08CE046
:102D3000FFFF1F00FFFF0F00000000000000F03F3A
:102D40000000F03F0000F07F0000404301FCFFFF67
:102D5000000000000000F07F000000000000000004
:102D60007E24000000000000000000000000008041
:102D7000000000000000F0FF000000000000F0BFB5
:102D80000000E0410000F043FFFFEF3F00000000C3
:102D9000000000000000D03F555555555555D53F12
:102DA000000000000000E03F01F09CF99DED080BE1
:102DB00041EC1A0B53EC102B51EC100B01F05EF8A8
:102DC00053EC1A2B01F05AF841EC1A0B9FEDFE0B55
:102DD00053EC102B9DED080B51EC100B01F04EF84D
:102DE00041EC1B0B9FEDFA0B51EC1A0B53EC102B23
:102DF00001F044F841EC1A0B9FEDF70B53EC102B4C
:102E00009DED080B51EC100B01F038F853EC1A2B28
:102E100001F040FA41EC1A0B51EC1B0B53EC1A2B4E
:102E200000F096FD0690CDE906519DED060B53ECA2
:102E30001B2B51EC100B01F02DFA53EC1A2B01F067
:102E400051F941EC100B00F0A1B90020B6F5801F3C
:102E50000EDA9FEDE30B53EC102B9DED0E0B51ECB6
:102E6000100B01F00BF8CDE90E016FF034000E46A7
:102E700000EB2650A0F2FF37C6F31300DA4940F00A
:102E80007F6646F040568842D8BF002408DDD74907
:102E90008142C8BF012403DC0024A6F580167F1CF4
:102EA000D348784400EBC4000F9690ED00CB9DED25
:102EB0000E0B53EC1C2B51EC100B01F0EBF99DEDBC
:102EC0000E0B41EC1B0B53EC1C2B51EC100B00F0C8
:102ED0003FFD41EC100B51EC190B53EC102B00F0A3
:102EE000F3FD41EC1D0B51EC1B0B53EC1D2B00F0C3
:102EF000C5FF41EC1A0BBF488DED10AB784410951F
:102F000090ED000B4FF0005040EA660000EB84406B
:102F10008DED080B00F5002009909DED080B53EC9A
:102F20001C2B51EC100B01F0B5F99DED0E1B53EC71
:102F3000112B01F0D7F841EC100B53EC102B9DED49
:102F4000100B51EC100B00F099FF9DED080B41ECBC
:102F50001C0B53EC102B9DED100B51EC100B00F0E3
:102F60008DFF53EC1B2B01F0BDF853EC1C2B01F033
:102F700091F953EC1D2B00F081FF41EC1C0B53EC3D
:102F80001A2B51EC1A0B00F079FF41EC1B0B9A48FD
:102F90000621B0EE4B0AF0EE6B0A784400F0E0FA3E
:102FA000B0EE401AF0EE601AB0EE41DAF0EE61DAFF
:102FB00053EC1B2B51EC1B0B00F060FF53EC1D2B53
:102FC00000F05CFF9DED100B41EC1B0B53EC1A2B3A
:102FD00051EC100B00F0BCFC53EC1C2B00F04EFF2E
:102FE00053EC1B2B00F0B4FC9DED100B41EC1B0BC4
:102FF00053EC102B51EC100B00F040FF41EC1D0B7B
:103000009FED7FEB53EC1E2B00F0A2FC53EC1B2B2F
:1030100000F09EFC0890CDE908519DED080B53ECA3
:103020001E2B51EC100B01F035F953EC1D2B01F068
:1030300031F953EC1B2B01F055F89DED080B41ECD9
:103040001D0B53EC102B9DED100B51EC100B00F0F1
:1030500015FF41EC1B0B53EC1A2B51EC1D0B00F030
:103060000DFF9DED080B41EC1A0B53EC102B51ECAE
:103070001C0B00F003FF53EC1A2B00F069FC41EC31
:103080001A0B51EC1B0B53EC1A2B00F061FC0C904B
:10309000CDE90C519DED0C0B53EC1B2B51EC100B9F
:1030A00001F0F8F853EC1A2B01F01CF841EC1B0B63
:1030B0009FED550B53EC102B9DED0C0B51EC100BB1
:1030C00000F0DCFE41EC1A0B9FED510B51EC1B0B99
:1030D00053EC102B00F0D2FE41EC1B0B9FED4E0B7E
:1030E00053EC102B9DED0C0B51EC100B00F0C6FEB9
:1030F00053EC1B2B00F02CFC41EC100B484878449F
:1031000000EBC40090ED001B51EC100B53EC112BA5
:1031100000F01EFC41EC1B0B384600F05CFECDE9D4
:10312000080153EC1B2B51EC1A0B00F011FC41EC85
:10313000100B3C48784400EBC40090ED00CB51EC00
:10314000100B53EC1C2B00F003FC9DED081B53EC03
:10315000112B00F0FDFB0690CDE906519DED080B0B
:1031600053EC102B9DED060B51EC100B01F092F877
:1031700053EC1C2B01F08EF853EC1A2B01F08AF85B
:1031800053EC1B2B00F0AEFF41EC100B9DED261B0A
:1031900053EC102B8DED001B00959DED260B51EC93
:1031A000100B00F06BFE9DED000B41EC1A0B53EC85
:1031B000102B9DED260B51EC100B01F06BF89DEDE3
:1031C000061B53EC112B2FE0000000604715F73F62
:1031D000FE822B654715F73F44DF5DF80BAE543E8A
:1031E00000000000000040438E9803007AB60B00F8
:1031F000FA1F000028200000321F0000000000001D
:103200000000000000000840000000E009C7EE3F99
:10321000FD033ADC09C7EE3FF5015B14E02F3EBE2B
:10322000BE1D0000781D000000F028FE53EC1A2B94
:1032300000F08EFB9DED060B41EC1A0B53EC102BAE
:103240009DED000B51EC100B00F018FECDE90C01C8
:103250009DED0C0B51EC1A0B53EC102B00F078FB8E
:10326000CDE902010C46AA498C422FDB611A0843C2
:1032700018D19DED0C0B53EC102B9DED020B51EC76
:10328000100B01F007F841EC1B0B9FEDA30B51EC69
:103290001A0B53EC102B00F05BFB53EC1B2B00F0D4
:1032A000EBFE2DD20220FDF7E6F800F009FA10EE51
:1032B000901A18EE900A8DED020B8DED008B61F3E4
:1032C0001E0003909DED020BFFF7BEBB944A24F055
:1032D0000041914214D39349214408437FF4EFAC59
:1032E0009DED0C0B53EC102B9DED020B51EC100BD4
:1032F00000F0D0FF53EC1A2B00F0BEFE7FF6DFACDF
:1033000024F000408849894A002601EB205182427E
:103310002BDA481C4FF4801121FA00F02044844A33
:10332000C0F30A517A44A1F2FF3192ED000B814AB9
:103330008DED080BCA4020EA0202C0F3130040F4EE
:103340008010C1F1140120FA01F60992002CB8BFD7
:1033500076429DED080B53EC102B9DED0C0B51ECC0
:10336000100B00F097FFCDE90C019DED0C0B51EC1B
:103370001A0B53EC102B00F0EBFA9FED6F0B08903B
:10338000CDE9085153EC102B9DED080B51EC100BBF
:1033900000F074FD41EC1B0B9FED690B53EC102BFF
:1033A0009DED080B51EC100B00F068FD9DED0C0B32
:1033B00041EC1C0B53EC102B9DED080B51EC100B4A
:1033C00000F068FF53EC1A2B00F08CFE9FED5E1BA3
:1033D00053EC112B00F052FD53EC1C2B00F0B8FA0B
:1033E00041EC1A0B51EC1B0B53EC1A2B00F0B0FA0A
:1033F000CDE902019DED020B53EC1B2B51EC100BA0
:1034000000F048FF53EC1A2B00F06CFE9DED020B10
:1034100041EC1A0B53EC102B51EC100B00F02EFD6D
:10342000CDE908014A489DED080B0521784400F0DC
:1034300097F89DED081B51EC100B53EC112B00F08D
:103440001DFD9DED021B53EC112B00F04BFECDE951
:1034500006019DED020B53EC1A2B51EC100B00F002
:103460000DFD53EC1A2B00F073FA9FED3B0B41EC72
:103470001A0B53EC102B9DED060B51EC100B00F0CA
:1034800009FF9DED060B41EC1B0B53EC102B9DED42
:10349000020B51EC100B00F0F1FC53EC1B2B00F075
:1034A00013FB53EC1A2B00F0F5FE9DED021B53ECC1
:1034B000112B00F0EFFE53EC192B00F013FECDE9B9
:1034C000020101EB065001150029C8BF039015DC6D
:1034D0009DED020B324651EC100B01F072F8FFF734
:1034E000BAF8042808BF00F0FBF832469DED020B45
:1034F00051EC100B01F065F8CDE902019DED020BD6
:1035000051EC180B53EC102B00F0B8FCFFF73ABB52
:103510000000904000000000FE822B654715973C9C
:1035200000CC904000346F3F01FCFFFF0000E03F03
:10353000001C0000FFFF0F0000000000432EE63FCC
:10354000396CA80C615C20BEEF39FAFE422EE63FD2
:10355000D01A000000000000000000000000004041
:1035600070B504462DED028B4D1E00EBC500B0EE8C
:10357000408AF0EE608A90ED000B35F0060017D01F
:1035800053EC182B51EC100B00F078FC41EC100BB5
:103590006D1E04EBC50090ED001B51EC100B53ECBD
:1035A000112B00F0D5F941EC100B35F00600E7D1F6
:1035B000022D36D0042D1CD0062D1CBFBDEC028B75
:1035C00070BD53EC182B51EC100B00F057FC94ED30
:1035D0000A1B53EC112B00F0BBF953EC182B00F035
:1035E0004DFC94ED081B53EC112B00F0B1F941ECAC
:1035F000100B53EC182B51EC100B00F03FFC94ED2A
:10360000061B53EC112B00F0A3F953EC182B00F020
:1036100035FC94ED040B53EC102B00F099F941ECC0
:10362000100B53EC182B51EC100B00F027FC94ED11
:10363000021B53EC112B00F08BF953EC182B00F00C
:103640001DFC94ED001B53EC112B00F081F9BDEC37
:10365000028B41EC100B70BD9FED070B10B553ECC6
:10366000102B9FED070B51EC100B00F02DFA41ECE5
:10367000100B10BD00000000000000000000000062
:10368000000000000000F03F10B553EC112B51EC8E
:10369000100B00F05DF941EC100B10BD00000000B4
:1036A0009FED050B10B553EC102B51EC100B00F0F7
:1036B0000BFA41EC100B10BD0000000000000000F0
:1036C0009FED050B10B553EC102B51EC100B00F0D7
:1036D000D5FB41EC100B10BD000000000000007095
:1036E0009FED050B10B553EC102B51EC100B00F0B7
:1036F000C5FB41EC100B10BD0000000000000010E5
:1037000030EE200A704700009FED020A20EE000A0A
:10371000704700000000001082B0CDE9000121F0E8
:10372000004001909DED000B02B051EC100B704772
:103730000B4801780B48007830B10B4800880B4AE1
:1037400010800020084A10800648017031B1002026
:10375000054A1080024A1070012070470020FCE7E3
:1037600002000020180000200600002004000020B5
:1037700008B54FF4A060FEF7D9F80020034640F2E8
:10378000473240F2E73100904FF08040FEF7DCFA1C
:103790004FF4E130FEF7A8FD4FF4E130FEF71EFED6
:1037A000FEF77AF8FDF79CFF4FF400704310044ACF
:1037B0004FF4FA7100900348FDF746F908BD000088
:1037C000000402400064004010B5FFF7D1FF06E09E
:1037D00001E0FEF769F9FFF7ABFF0028F9D1F7E741
:1037E00000B52DED048B83B041EC190B00F086FC85
:1037F00041EC180B18EE100A18EE901A8DED008BA4
:10380000002818BF0120084320F00040C0F17F606D
:1038100000F1E040C00F14D019EE101A19EE900A12
:103820008DED009B002918BF0121084320F00040C6
:10383000C0F17F6000F1E040C00F04BF0120FCF741
:103840001AFE51EC180B03B0BDEC048B00BD2DE942
:10385000F0412DED028B074688461646002433E0E2
:1038600000252DE008EBC50090ED002BB0EE420ADC
:10387000F0EE620A04EB4400284407EBC00090ED30
:10388000002BB0EE421AF0EE621A53EC102B51EC02
:10389000110B00F0F3FA41EC180B06EBC40090EDAD
:1038A000001BB0EE410AF0EE610A53EC102B51EC14
:1038B000180B00F04DF806EBC40203C2681CC5B239
:1038C000032DCFDB601CC4B2032CC9DBBDEC028B23
:1038D000BDE8F08181F00041704780F00040704702
:1038E00021F00041704720F00040704721F0004275
:1038F000A2F16052B2F5801F01F0004328BFD2F15F
:103900007F6C0BD95FEA001C43EAC20242EB5070A5
:1039100018BF704728BF20F001007047B2F5801F24
:10392000BCBF184670474FEA410C1CF5001F02D27D
:10393000084600F00FBE70B500F04AFB0000008999
:10394000FFF7F6BF4FF00040A0F580007047000081
:1039500010B591EA030F48BF83F0004300F1A28441
:10396000841A71EB030C05D2121943EB0C03001BF4
:1039700061EB0C01DFF824E14FEA1154A4EB135C76
:103980001EEA430F18BF9EEA445F73D023EA0E037A
:10399000DCF1200E21EA045143F4801332D322FAE1
:1039A0000CFE10EB0E0023FA0CFE41EB0E01CCF1E5
:1039B000200E03FA0EFE10EB0E0051F10001B1F5DE
:1039C000801FCCF1200E32D201EB045112FA0EF21C
:1039D000BDE8104058BF7047401C38BF5FEA420244
:1039E00018BF7047002814BF20F0010041F100010A
:1039F0004FEA410313F5001F38BF7047A1F1C041E2
:103A000000F034BB012A43EB0302ACF1200CDCF1E3
:103A10001F0E32BF4FF0000E23FA0CF310EB030021
:103A200041EB0451B4EB115FD0D0A1EB045101F58F
:103A3000801149085FEA300001EB04510ED350F1C8
:103A4000000038BF12FA0EFE08D1BDE81040C9E7E9
:103A5000401C38BF5FEA4202CAD1C3E7BDE810404C
:103A60004FEA410313F5001F38BF7047A1F1C04171
:103A700000F0FCBA9EEA445F08D011EA5E0FBDE890
:103A8000104004BF01F0004100207047BDE8104025
:103A900070B500F09DFA00BF64FBBE3E0000E0FF81
:103AA00002494FF0000000F05ABD00BF0000F87F4F
:103AB000491058BFC1F140415B1058BFC3F14043AA
:103AC0008B42EFF3008070472DE9C04130B4DFF83E
:103AD000A0C23CEA111418BF3CEA131400F0EC80B9
:103AE00081EA03051CEA111444EAD57418BF1CEAE4
:103AF000131500F0C780A4EB05044FF0004545EA1C
:103B0000C12145EAC32341EA505143EA525304F12B
:103B10007F74994204F500344FEAC0204FEAC22274
:103B200008BF904200F09C804FEA13650FF24016E8
:103B3000765D4FEA134506FB05F7C7F1807706FB74
:103B400007F74FEAD737A7FB03687642C8F58038F6
:103B5000A7FB06CE38BFA8F1010807FB08E64FF027
:103B6000000EA6FB028CE6FB03CEDCF1000CCEF1CE
:103B7000004E38BFAEF1010EA6FB0C584FF0000707
:103B80004FF00005E6FB0E87A1FB08C6A0FB07CEA1
:103B900016EB0E0645F10005E1FB076515F1E04E59
:103BA0007EBFA4F580345FEA46066D4116F18007BA
:103BB00045F100054FEA17274FEA066647EA056711
:103BC000A6F1DE46B6F1805F4FEA15251FD93846CB
:103BD00024F0010C05EBC471BCF1FE6F01EB0C117C
:103BE00002D8F0BCBDE8008124425CBF01F5801E14
:103BF0009EEAC47F02D4F0BCBDE80081244238D4E0
:103C0000F0BCA1F1C041BDE8004100F02FBA4FEA7D
:103C1000D22242EA43524FEAD323A7FB02864FEA5D
:103C2000D02040EA415007FB03661EEA0E0F4FEA20
:103C3000D12105FB026658BFA6EB0056B6EB005635
:103C40004FEA520E4EEAC37E18EB0E0E56EB530EA1
:103C5000BDD518EB02085E417F1C55F10005B6E7A3
:103C60004FF480154FF000074FF000064FF00008AA
:103C7000ADE7F0BC4FF0000001F1C04101F00041A0
:103C8000BDE8008111EA0C1F0CEA131500D00CE00E
:103C900013EA0C1F00F025804FF00000F0BC81EA11
:103CA000030101F00041BDE80081F0BCBDE8004126
:103CB00081EA030100F0DAB9F0BCBDE8004170B55B
:103CC00000F086F9097EFC3E00F007B881EA0301A6
:103CD0004FF0000001F00041704781EA030100F05D
:103CE000C5B9F0BCBDE800414FF000002149704764
:103CF000FFFDFBF9F7F5F4F2F0EEEDEBE9E8E6E4B1
:103D0000E3E1E0DEDDDBDAD8D7D5D4D3D1D0CFCD37
:103D1000CCCBCAC8C7C6C5C4C2C1C0BFBEBDBCBB70
:103D2000BAB9B8B7B6B5B4B3B2B1B0AFAEADACAB6B
:103D3000AAA9A8A8A7A6A5A4A3A3A2A1A09F9F9E45
:103D40009D9C9C9B9A9999989797969595949393F7
:103D5000929191908F8F8E8E8D8C8C8B8B8A89898E
:103D60008888878786858584848383828281818011
:103D70000000FF070000F87F4FEA41034FEA53536A
:103D8000A3F58063D3F11E03C8BFD3F1210C0CDD72
:103D90004FF0004242EAC12242EA505232FA03FC9A
:103DA0008CEAE17CACEBE1707047102BC4BF0020C3
:103DB000704703F5787CBCF1FF3F04D06FF0004200
:103DC00082EA2100704770B500F002F94992248020
:103DD00000207047F2E710F0004248BF4042B0FABE
:103DE00080F310FA03F10AD0C3F11D0303F58063D9
:103DF0004FEA415002EB035202EBD12170474FF0E2
:103E00000000704751EA030C17D41CF5801F58BFFF
:103E1000BCF5801F00F10680994218BF704708BFAB
:103E20009042704707D711F5801F58BF13F5801FC8
:103E300019D499427047894270471CF5801F08D5F4
:103E4000BCF5801FF7D58B4218BF704708BF824270
:103E500070474FF4001C1CEB410F38BF1CEB430FA5
:103E600001D28B42704770B500F0B2F8922449003D
:103E70004FF000514FF08053FFF71ABEDFF848C1F2
:103E800070B51CEA111E1EBF1CEA13159EEA0C0F2A
:103E900095EA0C0F00F06F8081EA030423EA4C13CB
:103EA0004EEAD47E21EA4C1141F4801143F4801390
:103EB000AE44A1FB024CA0FB0365AEF17F7E361938
:103EC00055EB0C05A1FB034C4CF10003A0FB021CBD
:103ED00016EB0C06654153F10003094218BF46F08A
:103EE000010613F4007F0BD14FEA03314FEA05308E
:103EF000340341EA155140EA16506FF003020AE01C
:103F00004FEAC3214FEAC520F40241EA555140EA85
:103F100056506FF0020202EB2E4201EB025585EA89
:103F2000CE710AD05FEA440C18BF24F0004450F16F
:103F3000000041F1000120EAD47040F2FE7C6245AD
:103F400000D270BDA84214BF4FF080444FF04044EF
:103F5000002E08BF0024BEF1806FA8BFA1F1C041B0
:103F6000BDE8704080F282804FF0000001F1C04156
:103F700001F0004170479EEA0C0F0CEA131518BFC0
:103F800095EA0C0F06D04FF0000081EA030E0EF008
:103F9000004170BD00F01CF88900013E00F007B838
:103FA00000F009B84FEA430C5FEA5C5C08D081EA94
:103FB000030100F05BB84FEA410C5FEA5C5CF6D1AC
:103FC0004FF00000014970470000FF070000F87F34
:103FD0000EF1020E2EF0030E5EF8046B364205D48D
:103FE000012A43EB030515F5001F12D8012841EB08
:103FF000010C1CF5001F0CD80ED14FEAD17C15F531
:10400000001F0CEB4C0C0CF1020C08BF4CEBD37CEA
:1040100004E04FF0080C01E04FEAD37C0CEB4C05B8
:1040200026FA05F606F00706B6F1040C06D20EEBEA
:10403000860CBDE870404CF0010C6047DFE80CF0E6
:10404000090B02024FF000414FF00000A1F50021E2
:1040500070BD19461046012851EB010418BFD4F574
:10406000001484BF002001F0004170BD0808A0F5D5
:1040700000114FEA3101704753EA010C17D41CF5C7
:10408000801F58BFBCF5801F00F106808B4218BF0F
:10409000704708BF8242704707D713F5801F58BF8B
:1040A00011F5801F19D48B4270479B4270471CF555
:1040B000801F08D5BCF5801FF7D5994218BF7047FF
:1040C00008BF904270474FF4001C1CEB430F38BFF1
:1040D0001CEB410F01D2994270470FB40CBC03BCDA
:1040E000FFF7C1BE91EA030F10B581F000413FF523
:1040F00037AC83F0004300F0D5B800002DE9F04163
:1041000001F5801CBCF5001FC0F2A9804FEA115CCC
:1041100021EA0C510CF1FD0C41F480115FEA5C0CBA
:104120000CF5C07C01D34000494130A4890241EA2A
:10413000905187028E0E0A0CA45D04FB04F602FB6C
:1041400006F6C6F14046A4FB0662F60D46EA422694
:1041500006FB06F4A4FB01235242C3F1404338BFDF
:104160005B1EA6FB02420024E6FB0324D20B42EABC
:104170004446A6FB0623A1FB02E2A3FB07E4E3FB04
:1041800061426442C2F1404E38BFAEF1010EA6FB5F
:1041900004234FF00002E6FB0E32A2FB034634007C
:1041A000E2FB6264A1FB06E6A4FB07E8E4FB6168AE
:1041B0007642C8F1405838BFA8F10108A2FB06E4D6
:1041C000A3FB08E5E2FB6854A1FB05E6A7FB04E8B6
:1041D000E1FB648618F1200556F10006A809A8F154
:1041E0001B08B10908F03F08B8F10A0F40EA8660E1
:1041F0001CD901EB0C51BDE8F08100BFFCF5EEE8E5
:10420000E2DDD8D3CFCBC7C3C0BDB9B6B4B1AEAC75
:10421000A9A7A5A3A19F9D9B9A9896959392908FED
:104220008D8C8B898887868584838281A0FB00683A
:1042300000FB01F208EB4208B8EB872807D53418D9
:1042400058EB0104D5D5401C51F10001D1E7341AD7
:1042500078EB0104CDD4401E71F10001C9E75FEA9B
:104260004C0C5FEA9C5C0DD105D34FF0000001F0CF
:104270000041BDE8F081BDE8F04170B5FFF7A8FE50
:104280006DDBFFBEBDE8F0414FF000000049704714
:104290000000F87F10B591EA030F48BF83F0004398
:1042A0003FF55EAB841A71EB030C07D212198CF048
:1042B000004C43EB0C03001B61EB0C01DFF8A4E1A5
:1042C0004FEA1154A4EB135C1EEA430F18BF9EEA99
:1042D000445F00F0B08023EA6E03524221EA0451A9
:1042E000C3EB6E0338BF5B1EDCF1200E25D322FA30
:1042F0000CFE10EB0E0043FA0CFE41EB0E01CCF16C
:10430000200E03FA0EFE10EB0E0051F10001CCF16D
:10431000200E29D412FA0EF201EB0451BDE8104030
:1043200058BF7047401C1CBFB2F1004F70470028B7
:104330000CBF491C20F00100704712EB020E43EB4A
:10434000030218BF4FF0010E4EEA4202ACF1200CFE
:10435000DCF11E0E54D943FA0CFE10EB0E0051F1A5
:10436000FF31CCF11E0ED5D50EF1010E12FA0EFE64
:10437000404141EB010101EB445C5FEA5C5C10D918
:1043800010EBDE7001EB045138BFBEF1004FBDE809
:10439000104018BF704700280CBF491C20F00100D6
:1043A000704730D24FEAD42C11F5001124F4006488
:1043B0001BD0B1FA81F20B3AA41AA41ED2F1200349
:1043C000914030FA03F31943904001EBCC71002C7B
:1043D00001EB0451BDE81040A8BF704701F1C04196
:1043E0004FF0000001F000417047B0FA80F310FA7E
:1043F00003F100D110BDE41A173C4805C90AE4E7EF
:1044000001EB045110BD491001EB0451BDE810400F
:104410004FEA300002E04FF0000170474A0008BF49
:104420000042F8D0B2F5001F28BF704701F00041EC
:104430004FF0000070479EEA445F07D011EA5E0F1C
:10444000BDE8104004BF002100207047BDE81040C7
:1044500070B5FFF7BDFD00BF40DFF63E83F00041C1
:10446000104670470000E0FF43004FEAD30C4FEACC
:104470003C0C43401FBF40070CF1605113F0FE4F4E
:1044800070471CF0006F03D100200CF00041704712
:104490000CF0004343EA507010B540EACC0000F045
:1044A0000EF800BF000000924FEA0001FFF7DEBDEA
:1044B0004FF000414FF00000A1F5002170470EF1D0
:1044C000020E2EF0030E5EF8044B244204D44FEA91
:1044D0004102B2F17F4F11D84FEA4003B3F17F4F51
:1044E0000CD80ED14FEAD07CB2F17F4F0CEB4C0CC4
:1044F0000CF1020C08BF4CEBD17C04E04FF0080C2F
:1045000001E04FEAD17C0CEB4C0324FA03F404F0F5
:104510000704B4F1040C06D20EEB840CBDE8104085
:104520004CF0010C6047DFE80CF0070802024FF086
:104530000040A0F5800010BD0846420018BFD2F12F
:10454000807288BF00F0004010BD4FF04070E1EE77
:10455000100A7047FF2141EAD050C00570470CF0A7
:104560000F03092B08BF082000F059800A2B0BD03D
:10457000082B18BF704708BF1CF0400F0AD04FF03F
:1045800000004FF0000170471CF0400F18BF4FF0C3
:10459000004070471CF0100F08D020F0704300F06E
:1045A0007F4242EAD3014FEA4370704700F0604017
:1045B00021F07F4242EA000201F07F4040EA72703F
:1045C00070474FF0FF0C4CF4E06C1CEA11531CBF19
:1045D0009CEA030C9445C2BFDA4201EB02517047DA
:1045E000002B0DD0BCF1000F0FD0002A01F00041CC
:1045F000A4BF41F0E04141F07F614FF000007047FF
:1046000001F000414FF00000704750EA01334FF0D5
:104610009B0C18BF4CF0806C7FF442AA70471CF4CE
:10462000801F11D01CF4E02F03D06FEACC31490079
:1046300070474FF04050EFF3008222F0704242EAA0
:10464000000282F3008870474FF0000070470000BE
:1046500000000000920A0640920A8640000080BFD7
:10466000000000000000000000000000000080BF0B
:10467000000000000000000000000000000080BFFB
:1046800043EC7F3F0000803F43EC7F3F0FB17F3F13
:104690006D4E7F3F6DC47E3F24137E3FAC3A7D3F1D
:1046A000283B7C3FBE147B3F9DC7793FF853783F42
:1046B00007BA763F0BFA743F4714733F0809713FFE
:1046C0009ED86E3F5E836C3FA7096A3FD86B673FF9
:1046D00059AA643F98C5613F05BE5E3F1A945B3F8F
:1046E0005348583F31DB543F3D4D513F029F4D3FB2
:1046F00012D1493F03E4453F70D8413FF9AE3D3FF9
:104700004268393FF304353FBB85303F4AEB2B3FCE
:104710005636273F9967223FD17F1D3FC07F183F04
:104720002A68133FDA390E3F9BF5083F3D9C033F53
:10473000275DFC3EEA5AF13E7533E63E80E8DA3EFC
:10474000CA7BCF3E15EFC33E2A44B83ED47CAC3E74
:10475000E59AA03E31A0943E938E883ECCCF783E21
:10476000135C603EC2C5473EA2102F3E8340163EFA
:1047700073B2FA3D36BDC83D05A9963D30FB483DB4
:10478000B00AC93C0BA88C24B00AC9BC30FB48BD98
:1047900005A996BD36BDC8BD73B2FABD834016BE2D
:1047A000A2102FBEC2C547BE135C60BECCCF78BE80
:1047B000938E88BE31A094BEE59AA0BED47CACBED8
:1047C0002A44B8BE15EFC3BECA7BCFBE80E8DABEAE
:1047D0007533E6BEEA5AF1BE275DFCBE3D9C03BFC1
:1047E0009BF508BFDA390EBF2A6813BFC07F18BF18
:1047F000D17F1DBF996722BF563627BF4AEB2BBF1B
:10480000BB8530BFF30435BF426839BFF9AE3DBF49
:1048100070D841BF03E445BF12D149BF029F4DBFCD
:104820003D4D51BF31DB54BF534858BF1A945BBF55
:1048300005BE5EBF98C561BF59AA64BFD86B67BF8C
:10484000A7096ABF5E836CBF9ED86EBF080971BF9F
:10485000471473BF0BFA74BF07BA76BFF85378BF1B
:104860009DC779BFBE147BBF283B7CBFAC3A7DBFE0
:1048700024137EBF6DC47EBF6D4E7FBF0FB17FBF5F
:1048800043EC7FBF000080BF43EC7FBF0FB17FBF11
:104890006D4E7FBF6DC47EBF24137EBFAC3A7DBF1B
:1048A000283B7CBFBE147BBF9DC779BFF85378BF40
:1048B00007BA76BF0BFA74BF471473BF080971BFFC
:1048C0009ED86EBF5E836CBFA7096ABFD86B67BFF7
:1048D00059AA64BF98C561BF05BE5EBF1A945BBF8D
:1048E000534858BF31DB54BF3D4D51BF029F4DBFB0
:1048F00012D149BF03E445BF70D841BFF9AE3DBFF7
:10490000426839BFF30435BFBB8530BF4AEB2BBFCC
:10491000563627BF996722BFD17F1DBFC07F18BF02
:104920002A6813BFDA390EBF9BF508BF3D9C03BF51
:10493000275DFCBEEA5AF1BE7533E6BE80E8DABEFA
:10494000CA7BCFBE15EFC3BE2A44B8BED47CACBE72
:10495000E59AA0BE31A094BE938E88BECCCF78BE1F
:10496000135C60BEC2C547BEA2102FBE834016BEF8
:1049700073B2FABD36BDC8BD05A996BD30FB48BDB2
:10498000B00AC9BC372354A5B00AC93C30FB483D26
:1049900005A9963D36BDC83D73B2FA3D8340163E2B
:1049A000A2102F3EC2C5473E135C603ECCCF783E7E
:1049B000938E883E31A0943EE59AA03ED47CAC3ED6
:1049C0002A44B83E15EFC33ECA7BCF3E80E8DA3EAC
:1049D0007533E63EEA5AF13E275DFC3E3D9C033FBF
:1049E0009BF5083FDA390E3F2A68133FC07F183F16
:1049F000D17F1D3F9967223F5636273F4AEB2B3F19
:104A0000BB85303FF304353F4268393FF9AE3D3F47
:104A100070D8413F03E4453F12D1493F029F4D3FCB
:104A20003D4D513F31DB543F5348583F1A945B3F53
:104A300005BE5E3F98C5613F59AA643FD86B673F8A
:104A4000A7096A3F5E836C3F9ED86E3F0809713F9D
:104A50004714733F0BFA743F07BA763FF853783F19
:104A60009DC7793FBE147B3F283B7C3FAC3A7D3FDE
:104A700024137E3F6DC47E3F6D4E7F3F0FB17F3F5D
:104A800043EC7F3F0000803F43EC7F3F0FB17F3F0F
:104A9000B00AC9BC00000000B00AC93C30FB483D68
:104AA00005A9963D36BDC83D73B2FA3D8340163E1A
:104AB000A2102F3EC2C5473E135C603ECCCF783E6D
:104AC000938E883E31A0943EE59AA03ED47CAC3EC5
:104AD0002A44B83E15EFC33ECA7BCF3E80E8DA3E9B
:104AE0007533E63EEA5AF13E275DFC3E3D9C033FAE
:104AF0009BF5083FDA390E3F2A68133FC07F183F05
:104B0000D17F1D3F9967223F5636273F4AEB2B3F07
:104B1000BB85303FF304353F4268393FF9AE3D3F36
:104B200070D8413F03E4453F12D1493F029F4D3FBA
:104B30003D4D513F31DB543F5348583F1A945B3F42
:104B400005BE5E3F98C5613F59AA643FD86B673F79
:104B5000A7096A3F5E836C3F9ED86E3F0809713F8C
:104B60004714733F0BFA743F07BA763FF853783F08
:104B70009DC7793FBE147B3F283B7C3FAC3A7D3FCD
:104B800024137E3F6DC47E3F6D4E7F3F0FB17F3F4C
:104B900043EC7F3F0000803F43EC7F3F0FB17F3FFE
:104BA0006D4E7F3F6DC47E3F24137E3FAC3A7D3F08
:104BB000283B7C3FBE147B3F9DC7793FF853783F2D
:104BC00007BA763F0BFA743F4714733F0809713FE9
:104BD0009ED86E3F5E836C3FA7096A3FD86B673FE4
:104BE00059AA643F98C5613F05BE5E3F1A945B3F7A
:104BF0005348583F31DB543F3D4D513F029F4D3F9D
:104C000012D1493F03E4453F70D8413FF9AE3D3FE3
:104C10004268393FF304353FBB85303F4AEB2B3FB9
:104C20005636273F9967223FD17F1D3FC07F183FEF
:104C30002A68133FDA390E3F9BF5083F3D9C033F3E
:104C4000275DFC3EEA5AF13E7533E63E80E8DA3EE7
:104C5000CA7BCF3E15EFC33E2A44B83ED47CAC3E5F
:104C6000E59AA03E31A0943E938E883ECCCF783E0C
:104C7000135C603EC2C5473EA2102F3E8340163EE5
:104C800073B2FA3D36BDC83D05A9963D30FB483D9F
:104C9000B00AC93C0BA80C25B00AC9BC30FB48BD02
:104CA00005A996BD36BDC8BD73B2FABD834016BE18
:104CB000A2102FBEC2C547BE135C60BECCCF78BE6B
:104CC000938E88BE31A094BEE59AA0BED47CACBEC3
:104CD0002A44B8BE15EFC3BECA7BCFBE80E8DABE99
:104CE0007533E6BEEA5AF1BE275DFCBE3D9C03BFAC
:104CF0009BF508BFDA390EBF2A6813BFC07F18BF03
:104D0000D17F1DBF996722BF563627BF4AEB2BBF05
:104D1000BB8530BFF30435BF426839BFF9AE3DBF34
:104D200070D841BF03E445BF12D149BF029F4DBFB8
:104D30003D4D51BF31DB54BF534858BF1A945BBF40
:104D400005BE5EBF98C561BF59AA64BFD86B67BF77
:104D5000A7096ABF5E836CBF9ED86EBF080971BF8A
:104D6000471473BF0BFA74BF07BA76BFF85378BF06
:104D70009DC779BFBE147BBF283B7CBFAC3A7DBFCB
:104D800024137EBF6DC47EBF6D4E7FBF0FB17FBF4A
:104D900043EC7FBF000080BF43EC7FBF0FB17FBFFC
:104DA0006D4E7FBF6DC47EBF24137EBFAC3A7DBF06
:104DB000283B7CBFBE147BBF9DC779BFF85378BF2B
:104DC00007BA76BF0BFA74BF471473BF080971BFE7
:104DD0009ED86EBF5E836CBFA7096ABFD86B67BFE2
:104DE00059AA64BF98C561BF05BE5EBF1A945BBF78
:104DF000534858BF31DB54BF3D4D51BF029F4DBF9B
:104E000012D149BF03E445BF70D841BFF9AE3DBFE1
:104E1000426839BFF30435BFBB8530BF4AEB2BBFB7
:104E2000563627BF996722BFD17F1DBFC07F18BFED
:104E30002A6813BFDA390EBF9BF508BF3D9C03BF3C
:104E4000275DFCBEEA5AF1BE7533E6BE80E8DABEE5
:104E5000CA7BCFBE15EFC3BE2A44B8BED47CACBE5D
:104E6000E59AA0BE31A094BE938E88BECCCF78BE0A
:104E7000135C60BEC2C547BEA2102FBE834016BEE3
:104E800073B2FABD36BDC8BD05A996BD30FB48BD9D
:104E9000B00AC9BC9E3B8DA5B00AC93C0000000009
:104EA000000000000000F03F000000000000F83F9C
:104EB00000000000000000000000004003B8E23FD6
:104EC000000000000000000006D0CF43EBFD4C3E88
:104ED000033333333333E33FFFAB6FDBB66DDB3F7D
:104EE0004D268F515555D53F01411DA96074D13FC5
:104EF00065DBC9934A86CD3FEF4E454A287ECA3FBF
:104F00003E5555555555C53F93BDBE166CC166BF40
:104F10002CDE25AF6A56113FF16BD2C541BDBBBE39
:104F2000D0A4BE726937663E000000000000000099
:104F3000504F00080000002070000000C40100086D
:104F4000C04F000870000020B8460000E0010008D3
:104F50000000000000000000000000000000000051
:104F60000000000000000000000000000000000041
:104F70000000000000000000144EC8C300003442CE
:104F80000000344200003442000000000000000035
:104F90000000000000000000000000000080514000
:104FA0000000000000000000000000000000000001
:104FB00000010203040102030406070809000000BF
:040000050800018965
:00000001FF
