:020000040800F2
:10000000284700202902000815250008C5230008FC
:10001000112500087D1100080138000800000000CB
:10002000000000000000000000000000B52B0008E8
:10003000CD200008000000003F0200084102000837
:10004000430200084302000843020008430200087C
:10005000430200084302000843020008430200086C
:10006000430200084302000843020008430200085C
:10007000430200084302000843020008430200084C
:10008000430200084302000843020008430200083C
:1000900081110008430200084302000843020008DF
:1000A000430200080D2D0008430200084302000827
:1000B000292D0008752D0008912D00084302000825
:1000C00043020008430200084302000843020008FC
:1000D000430200084302000843020008A13400085C
:1000E00043020008430200084302000843020008DC
:1000F000C92D00084302000843020008430200081B
:100100004302000843020008AD2D00084302000826
:10011000430200088130000843020008430200083F
:10012000430200084302000843020008430200089B
:10013000430200084302000843020008430200088B
:10014000430200084302000843020008430200087B
:10015000430200084302000843020008430200086B
:10016000430200084302000843020008430200085B
:10017000430200084302000843020008430200084B
:10018000430200084302000800F002F800F03CF8C7
:100190000AA090E8000C82448344AAF10107DA45E2
:1001A00001D100F031F8AFF2090EBAE80F0013F0F8
:1001B000010F18BFFB1A43F0010318474C620000FF
:1001C0006C620000103A24BF78C878C1FAD8520790
:1001D00024BF30C830C144BF04680C6070470000C1
:1001E0000023002400250026103A28BF78C1FBD840
:1001F000520728BF30C148BF0B6070471FB505F0DC
:1002000072FB1FBD10B510BD00F076FC1146FFF764
:10021000F5FF04F0E9FC00F094FC03B4FFF7F2FFF3
:1002200003BC00F097FC00000948804709480047DC
:10023000FEE7FEE7FEE7FEE7FEE7FEE7FEE7FEE796
:10024000FEE7FEE704480549054A064B70470000F3
:10025000A52C00088901000828010020284700205B
:100260002843002028430020DFED300AB5EEC00A05
:1002700060EE200ABDEEE01A11EE100AF1EE10FA5F
:1002800038BF401E00EE100A9FED291AB8EEC00AD2
:1002900070EEC00A20EE810ABCEEC00A10EE100A11
:1002A00000EE100A0028B8EEC00A10EE810AB8BFAE
:1002B000002004DBB0F5807FC8BF4FF480701D497B
:1002C00060EE000AB6EE001ADFED1C2A9FED1A2A36
:1002D00060EE011A60EE225A20EE813A20EE022AE8
:1002E00021EEA01A01EB800073EE655A62EE202A1F
:1002F000B7EE006A33EE003AD0EC043A76EE611ABB
:1003000071EE600A35EEE20A33EE413A32EEC21A7D
:1003100070EEA10A20EE230A64EE831A04EE200A8E
:1003200045EE011A31EE800A7047000083F9223E43
:10033000000080435C5B0008ABAA2A3EABAAAA3E41
:10034000DFED300AB5EEC00A60EE200ABDEEE01A1D
:1003500011EE100AF1EE10FA38BF401E00EE100A3E
:100360009FED291AB8EEC00A70EEC00A20EE810A8D
:10037000BCEEC00A10EE100A00EE100A0028B8EE1B
:10038000C00A10EE810AB8BF002004DBB0F5807F00
:10039000C8BF4FF480701D4960EE000AB6EE001A27
:1003A000DFED1C2A9FED1A2A60EE011A60EE225A38
:1003B00020EE813A20EE022A21EEA01A01EB800005
:1003C00073EE655A62EE202AB7EE006A33EE003A09
:1003D000D0EC043A76EE611A71EE600A35EEE20A6C
:1003E00033EE413A32EEC21A70EEA10A20EE230A31
:1003F00064EE831A04EE200A45EE011A31EE800AFB
:100400007047000083F9223E000080436C5F0008C3
:10041000ABAA2A3EABAAAA3E018042804360704745
:100420002DE9F04F87B0426800924A680192B0F817
:1004300000E045889FEDFE0A00200390AE4506D1FE
:1004400008884988884204BF7146864504D007B0B1
:100450006FF00200BDE8F08F10465FEA010C1CBF90
:100460009FEDF41AF0EE400A42D000BFAEEB0C0153
:10047000B1F1004F05D300BFE0EC010A491EFBD1EA
:1004800013E0002911DD021F11F0010F1CBF121D26
:10049000C2ED000A4B1006D0C2ED010A08325B1E05
:1004A000C2ED000AF8D100EB8100ACF10101A0EC33
:1004B000011AB1F1004F04D3E0EC010A491EFBD14F
:1004C00013E0002911DD021F11F0010F1CBF121DE6
:1004D000C2ED000A4B1006D0C2ED010A08325B1EC5
:1004E000C2ED000AF8D100EB8100BCF1010CBDD1D6
:1004F0004FF0000A0295002D08BF002000F0068290
:100500004FEA5E0006900EFB05F00590401BF0EEF2
:10051000401A049000990AFB05F001EB8004019A4F
:1005200094ED000A02EB8000012621460346F0EE1E
:10053000610ABEF1000F5BD0A4EB85021EF0010F33
:1005400018D002EB850292ED001AB5EEC01AF1EE5A
:1005500010FA08DDB4EEE01AF1EE10FA0ADD00BF81
:10056000F0EE410A06E0B1EE411AF4EEC10AF1EEF6
:1005700010FAF5D3DDF818C0BCF1000F33D000BF7E
:1005800002EB850797ED001AB5EEC01AF1EE10FAEE
:1005900005DDB4EEE01AF1EE10FA09DD06E0B1EE89
:1005A000411AF4EEC10AF1EE10FA01D2F0EE410A5E
:1005B00002EBC50292ED001AB5EEC01AF1EE10FA88
:1005C00005DDB4EEE01AF1EE10FA09DD06E0B1EE59
:1005D000411AF4EEC10AF1EE10FA01D2F0EE410A2E
:1005E000BCF1010CCCD1049A01EB850C0CEB82041C
:1005F000F5EEC00AF1EE10FA00F08081B5EEC00A07
:10060000059AF1EE10FAA4EB820CD4BFB1EE401AB9
:10061000B0EE401AB4EE601AF1EE10FA5CD0AEEB18
:100620000A02571E58D005FB0AF20CEB820292ED2B
:10063000002A00BFB0EE421A05FB06F4B5EEC01A60
:1006400000EB8404F1EE10FAD8BFB1EE411AB4EE1B
:10065000601AF1EE10FA3CD1A5EB0A06B6F1004F94
:100660000BD300BF92ED000ADCED000A761EE2EC2F
:10067000010AACEC010AF5D10CE0002E0ADD00BF46
:1006800092ED000ADCED000A761EE2EC010AACEC09
:10069000010AF5D12A46B5F1004F0AD394ED000ABC
:1006A000D0ED000A521EE4EC010AA0EC010AF5D1DB
:1006B0000CE0002A0ADD00BF94ED000AD0ED000A2C
:1006C000521EE4EC010AA0EC010AF5D101200390CE
:1006D0000AE0761C7F1EADD10398012804D0B5EE48
:1006E000C00AF1EE10FA7CD0A5EB0A0091ED000AE9
:1006F0008B4699460746B0F1004F08D3D1ED000A6A
:10070000401E80EE801AA1EC011AF7D11FE00028EC
:100710001DDDABF1040110F0010F06D0F0EE400A30
:1007200080EEA01A81ED011A091D78100FD000BFCC
:10073000D1ED010A80EE801A81ED011AD1ED020A95
:1007400080EE801A81ED021A0831401EF0D1284651
:10075000B5F1004F09D300BFD3ED000A401E80EE73
:10076000801AA3EC011AF7D11FE000281DDDA9F1C2
:10077000040110F0010F06D0D1ED010A80EE801ABD
:1007800081ED011A091D68100FD000BF91ED011A0B
:10079000C1EE000AC1ED010AD1ED020A80EE801A15
:1007A00081ED021A0831401EF0D1DDE900124FF050
:1007B00000085FEA0E067CD0D04504BF01EB87013C
:1007C00002EB850258D091ED000ADC4648463B46D4
:1007D000B7F1004F0DD300BFD1ED000ABCEC011AF8
:1007E00000E08BE040EE410A5B1EE1EC010AF3D130
:1007F00033E0002F31DD0B1FABF1040C17F0010FBC
:100800000CD00CF1040CF0EE400A9CED002AB0EE86
:10081000601A00EEC21A83ED011A1B1D7C101AD05B
:10082000D3ED010A9CED011A40EE410A04E00000FC
:10083000000000000000803FC3ED010A0CF1080C2D
:1008400093ED021ADCED000A00EE601A83ED021A45
:100850000833641EE4D101EB87012B46B5F1004F4C
:100860000BD300BFF0EC010A92ED001A5B1E00EE04
:10087000601AA2EC011AF5D12FE0002B2DDDA2F1B8
:10088000040CA9F1040013F0010F0AD0001DDCEDE7
:10089000010A90ED001A40EE410ACCED010A0CF17C
:1008A000040C5C1017D000BF9CED011AD0ED010ABA
:1008B00000E019E000EE601A0830641E8CED011AA9
:1008C000DCED020A90ED001A40EE410ACCED020A7E
:1008D0000CF1080CE8D102EB850201EB8A01761ECF
:1008E00008F101087FF468AF00980AF1010A001DC1
:1008F00000900298401E02907FF40CAE03990020F5
:10090000012904BF07B0BDE8F08F00BFB5EEC00AF3
:10091000F1EE10FA08BF6FF0040007B0BDE8F08FE9
:100920002DE9F04F4468B0F8009045880888B1F888
:1009300002C0D2F804A04FF0000B854204BF138818
:10094000994507D15288944504BF9FED322A4FEA5A
:10095000950E03D06FF00200BDE8F08FD1F80400CF
:100960000AEB8B0866460027B0EE420A23465FEA90
:100970000E0224D090ED001AD3ED001A00EB8C008B
:10098000D3ED010A01EE810A90ED001A00EB8C0014
:10099000D3ED021A00EE810A90ED001A00EB8C00F4
:1009A000D3ED030A1033521E01EE810A90ED001AB6
:1009B000120400EB8C00120C00EE810ADAD115F063
:1009C00003020BD0F3EC010A90ED001A521E120440
:1009D00000EB8C0000EE810A120CF3D1781CA8EC1D
:1009E000010A87B24868721E160400EB8700360CB5
:1009F000BAD10BEB0C001FFA80FBA9F101001FFA22
:100A000080F904EB8504B9F1000FA7D10020BDE8FF
:100A1000F08F00000000000010B5203AC0F00B80FD
:100A2000B1E81850203AA0E81850B1E81850A0E8F2
:100A30001850BFF4F5AF5FEA027C24BFB1E818504C
:100A4000A0E8185044BF18C918C0BDE810405FEABC
:100A5000827C24BF51F8043B40F8043B08BF704738
:100A6000D20728BF31F8023B48BF11F8012B28BF3D
:100A700020F8023B48BF00F8012B70474FF00002FE
:100A800000B5134694469646203922BFA0E80C5084
:100A9000A0E80C50B1F12001BFF4F7AF090728BF5F
:100AA000A0E80C5048BF0CC05DF804EB890028BFDB
:100AB00040F8042B08BF704748BF20F8022B11F004
:100AC000804F18BF00F8012B704770477047704780
:100AD00010B500F009F8006810BD10B5044600F02C
:100AE00003F8046010BD000000487047C4000020F7
:100AF00000487047C40000207546FFF7F9FFAE4676
:100B000005006946534620F00700854618B020B519
:100B1000FFF798FBBDE820404FF000064FF00007BC
:100B20004FF000084FF0000B21F00701AC46ACE895
:100B3000C009ACE8C009ACE8C009ACE8C0098D4602
:100B4000704710B50446AFF300802046BDE8104062
:100B5000FFF763BB01491820ABBEFEE72600020089
:100B600070470000F0B52DED088BCBB005460E4662
:100B700017460020489049904A90459046904790EB
:100B800045A9284601F072F89DED450ADFEDCB0A34
:100B900080EE201A9FEDCA0A21EE000A8DED420A6E
:100BA000DDED460A9FEDC51A80EE810ADFEDC40A2D
:100BB00020EE200A8DED430ADDED470A9FEDBF1AB6
:100BC00080EE810ADFEDBE0A20EE200A8DED440A98
:100BD00024212BA8FFF752FF002465E0B94800EB61
:100BE0008400D0ED000AB0EE600AFFF73DFBB0EEE6
:100BF000408A42A800EB8400D0ED000AB0EE600A03
:100C0000FFF732FBF0EE400A9FEDAF0A9FEDAF1AFF
:100C100001EE200AD5ED000A48EE400A04EB44003C
:100C20002BA901EB8000C0ED000AA64800EB840070
:100C3000D0ED000AB0EE600AFFF782FBB0EE408A0A
:100C400042A800EB8400D0ED000AB0EE600AFFF786
:100C50000BFBDFED9D0A9FED9D1A41EE000A95ED1D
:100C6000010A08EE600A04EB4400401C2BA901EBCA
:100C7000800080ED000A42A800EB8400D0ED000A5D
:100C8000B0EE600AFFF75CFBD5ED020A9FED8F1A0C
:100C900041EE000A04EB4400801C2BA901EB80000C
:100CA000C0ED000A601CC4B2032C97DB242122A8EB
:100CB000FFF7E4FE242119A8FFF7E0FE002448E036
:100CC00042A800EB8400D0ED000AB0EE600AFFF706
:100CD00037FBDFED7E0A60EE208A7A4800EB840065
:100CE000D0ED000AB0EE600AFFF72AFBD5ED010A4D
:100CF00020EE200ADFED760A80EE208A714800EBB4
:100D00008400D0ED000AB0EE600AFFF7ADFAD5ED31
:100D1000000A00EE808A9FED6F0A38EE000A28EE86
:100D2000808A42A800EB8400D0ED000AB0EE600A91
:100D3000FFF79AFAD5ED020A9FED641A60EE810A78
:100D400000EE808A19A901EB041080ED008A601C76
:100D5000C4B2032CB4DB242110A8FFF78FFE242299
:100D60005D4907A8FFF758FE96ED000A8DED040ACD
:100D700096ED010A8DED050A96ED020A8DED060A43
:100D8000002001900290039010AB032211463AA874
:100D9000FFF742FB2BAB0322114640A8FFF73CFBB9
:100DA00022AB032211463CA8FFF736FB19AB032206
:100DB00011463EA8FFF730FB07AB0322114638A8C7
:100DC000FFF72AFB04AB0122032136A8FFF724FB1F
:100DD00001AB0122032134A8FFF71EFB3CA93EA86A
:100DE000FFF71EFB3AAA40A93CA8FFF799FD3AAAD3
:100DF0003AA938A8FFF794FD34AA36A93AA8FFF714
:100E00008FFD00201DE0359901EB800191ED000A76
:100E100048A901EB800181ED000A48A901EB80019E
:100E2000D1ED000A9FED261A80EE810ADFED230A3C
:100E300020EE200A48A901EB800181ED000A411C47
:100E4000C8B20328DFDB002431E048A800EB8400AF
:100E500090ED000ADFED210A30EEC00A10EE101A04
:100E6000084604F0CFFC41EC1B0BB0EE4B0AF0EE51
:100E70006B0A02F02BFFB0EE40AAF0EE60AA9FEDE5
:100E8000180B53EC102B51EC1A0B04F0C5F941EC84
:100E9000190B9FED150B53EC102B04F0F1FA41ECFC
:100EA000180B04F037F947F82400601CC4B2032C77
:100EB000CBDB4BB0BDEC088BF0BD00000000344331
:100EC000DB0F4940085B000800000943000046436F
:100ED000000036C300003442385B0008AE47CD4204
:100EE0000000004033331340000000000000008089
:100EF00070B52DED108B9AB006460C46242111A832
:100F0000FFF7BCFD11A9304601F068FA9FED940A85
:100F1000B0EE408A9FED920A8DED100A00200D90F0
:100F20000E900F900A900B900C90079008900990EB
:100F30000490059006900190029003909FED880A1E
:100F4000F0EE408A9FED860AB0EE409A9FED840A4B
:100F5000F0EE409A9FED820A10EE105A9FED800A43
:100F6000B0EE40EA9FED7E0AF0EE40EA0DAA14A929
:100F700011A802F072FC0AAA17A914A802F06DFCCD
:100F800007AA11A917A802F068FC0DA801F00AFB36
:100F9000F0EE408A0AA801F005FBB0EE409A07A8DF
:100FA00001F000FBF0EE409A38EE890A30EE290A93
:100FB000F0EE000A80EE201AB0EE418A38EE680AA0
:100FC00020EE080A78EE490A20EE200A78EE690A37
:100FD00060EE200AB1EEE00A8DED100A28EE890AD3
:100FE00020EE290AB1EE001AC0EE010A9DED100AAA
:100FF00080EE801A11EE105A18EE900A04F002FCEE
:1010000041EC1B0B9FED571BB0EE4B0AF0EE6B0A49
:1010100002F066FEB0EE40AAF0EE60AA9FED530B20
:1010200053EC102B51EC1A0B03F01CFF41EC1C0B82
:10103000284604F0E7FB41EC1A0B9FED4A1BB0EE8B
:101040004A0AF0EE6A0A02F04BFEB0EE40DAF0EE29
:1010500060DA53EC1C2B51EC1D0B04F0E9FA41EC67
:101060001F0B03F011FE00EE100AF1EEC00AB0EE05
:1010700060EA284604F0C6FB41EC1D0B9FED391BCE
:10108000B0EE4D0AF0EE6D0A02F02AFEB0EE40BA64
:10109000F0EE60BA9FED331B9FED360B02F020FEA1
:1010A000B0EE40CAF0EE60CA53EC1B2B51EC1C0BA7
:1010B00004F0BEFA41EC1A0B03F0E6FD00EE100A54
:1010C000F1EEC00AF0EE60EA04AB0DAA07A90AA887
:1010D00002F062FB01AA0AA90DA802F033FB9DED04
:1010E000110ADDED140A30EE200AF6EE000A20EEB9
:1010F000200ADDED040A0EEE200ADDED010A00EE05
:10110000EE0A84ED000A9DED120ADDED150A30EEBF
:10111000200AF6EE000A20EE200ADDED050A0EEEAA
:10112000200ADDED020A00EEEE0A84ED010A9DEDD3
:10113000130ADDED160A30EE200AF6EE000A20EE64
:10114000200ADDED060A0EEE200ADDED030A00EEB0
:10115000EE0A84ED020A1AB0BDEC108B70BD0000DF
:10116000000000000000000000000040000000003F
:1011700000001040000000000020764000BFFEE7A5
:101180001CB508233D4A3E493E4800F03BFC002088
:1011900005E03A49095C0DF80010411CC8B2082866
:1011A000F7DB45F65001009888421AD134480068B0
:1011B00040F28121884202D13349019808603048C9
:1011C000006840F28221884202D12F49019848608C
:1011D0002B48006840F28321884202D12A490198B5
:1011E000886045F65601009888421AD12448006864
:1011F00040F28121884202D12449019808602048A8
:10120000006840F28221884202D12049019848605A
:101210001B48006840F28321884202D11B49019893
:1012200088601B49174800F03FF81949491C1548C8
:1012300000F03AF81649C91C124800F035F8154973
:10124000104800F031F814490E4800F02DF8134909
:101250000C4800F029F8114908310A4800F024F838
:101260000F49084800F020F80E49064800F01CF825
:101270000C490831034800F017F81CBD0A00002093
:1012800014000020006400406C000020600000207A
:101290000100F0107000F03003000012080000326E
:1012A000030000140800003400220C4B994202D1C4
:1012B0000023836111E0C1F3130201F000730BB14D
:1012C000C2600AE001F080630BB1026105E001F049
:1012D00000630BB1826000E0426070477000F03044
:1012E0002DE9F04F8BB006460F4614461D46DDF83B
:1012F00050804FF00009CA46CB46B5F5807F43D0F9
:1013000012DC102D34D008DC012D25D0022D26D082
:10131000042D27D0082D4FD127E0202D2BD0402D94
:101320002CD0802D48D12CE0B5F5805F38D009DC79
:10133000B5F5007F2BD0B5F5806F2BD0B5F5006FDC
:101340003AD12AE0B5F5005F2DD0B5F5804F2DD00C
:10135000B5F5004F30D12CE04FF000092DE04FF0F3
:1013600001092AE04FF0020927E04FF0030924E0C9
:101370004FF0040921E04FF005091EE04FF0060987
:101380001BE04FF0070918E04FF0080915E04FF097
:10139000090912E04FF00A090FE04FF00B090CE0C9
:1013A0004FF00C0909E04FF00D0906E04FF00E096F
:1013B00003E04FF00F0900E000BF00BFB8F5807FE9
:1013C0004BD01ADCB8F1100F3BD00CDCB8F1010F98
:1013D0002BD0B8F1020F2BD0B8F1040F2BD0B8F1FD
:1013E000080F52D12AE0B8F1200F2DD0B8F1400FEC
:1013F0002DD0B8F1800F48D12CE0B8F5805F38D0FF
:1014000009DCB8F5007F2BD0B8F5806F2BD0B8F58C
:10141000006F3AD12AE0B8F5005F2DD0B8F5804FC3
:101420002DD0B8F5004F30D12CE04FF0000A2DE060
:101430004FF0010A2AE04FF0020A27E04FF0030ABA
:1014400024E04FF0040A21E04FF0050A1EE04FF0BF
:10145000060A1BE04FF0070A18E04FF0080A15E0F3
:101460004FF0090A12E04FF00A0A0FE04FF00B0AA2
:101470000CE04FF00C0A09E04FF00D0A06E04FF0C7
:101480000E0A03E04FF00F0A00E000BF00BF7F48E4
:10149000304418B1B0F5806F1AD10CE04FF0090B51
:1014A00000208DF8120014208DF804000121480658
:1014B00001F04EF90DE04FF0090B0E208DF81200EF
:1014C00040208DF804000121000501F041F900E001
:1014D00000BF00BFC4F3090078BBA012A0F58010C4
:1014E0008038092834D2DFE800F0050A0F14191EED
:1014F00023292E000121084601F01AF929E00121D3
:10150000022001F015F924E00121042001F010F976
:101510001FE00121082001F00BF91AE00121102041
:1015200001F006F915E00121202001F001F910E099
:101530000121402001F0FCF80BE009E001218020AE
:1015400001F0F6F805E00121080201F0F1F800E0F1
:1015500000BF00BF5A464946204600F091FE5A4659
:101560005146204600F08CFE45EA08000990022012
:101570008DF828008DF8290000208DF82A00012020
:101580008DF82B0009A9204600F0DEFD304600F062
:101590007FF800208DF81E008DF81F008DF82000C8
:1015A0008DF821008DF822008DF823008DF81A00A7
:1015B0008DF81B000B208DF81C0007208DF81D00F6
:1015C0007D2F22D008DC0A2F0FD0142F11D0322FFC
:1015D00013D0642F29D114E0FA2F1AD0B7F5FA7F6F
:1015E0001BD0B7F57A7F20D11BE0C820ADF81800DA
:1015F0001CE06420ADF8180018E02820ADF81800B1
:1016000014E01420ADF8180010E01020ADF8180018
:101610000CE00820ADF8180008E00420ADF8180030
:1016200004E00220ADF8180000E000BF00BF06A9EA
:10163000304600F0D6F800208DF8130001208DF818
:1016400014000020ADF80800ADF80A00ADF80C0059
:10165000ADF80E00ADF8100001208DF8150002A8BD
:1016600000F032F800208DF8050003208DF8060008
:1016700001208DF8070001A800F04EFF0122022191
:10168000304600F0A5F80BB0BDE8F08F009CFFBF1E
:1016900010B504460B48844209D10121480601F0E7
:1016A00067F800214FF0007001F062F808E00121B6
:1016B000880601F05DF800214FF0806001F058F8D5
:1016C00010BD00000064004010B50021837A0122A3
:1016D00002FA03F13D4A126842F001023B4B1A60E4
:1016E0003A4A1C3212688A43384B1C331A60027B18
:1016F000CAB9364A0C3212688A43344B0C331A602A
:101700004288C38842EA0343304A4032847A42F82E
:1017100034300288838842EA03432C4A4032847A78
:1017200002EBC4025360027B012A19D1274A0C3212
:1017300012680A43254B0C331A604288038842EA38
:101740000343224A4032847A42F83430C288838884
:1017500042EA03431D4A4032847A02EBC4025360DA
:10176000C27A3AB9194A121D12688A43174B1B1DD7
:101770001A6006E0154A121D12680A43134B1B1D1E
:101780001A60028932B9114A143212688A430F4B27
:1017900014331A600289012A06D10C4A14321268E5
:1017A0000A430A4B14331A60427B012A06D1074AC6
:1017B0001C3212680A43054B1C331A60034A126834
:1017C00022F00102014B1A6010BD000000660040CB
:1017D0001AB143690B43436102E043698B434361A0
:1017E000704730B5024600200023146824F002043C
:1017F0001460146844F00104146000E05B1C546839
:1018000004F001041CB94FF6FF74A342F6D15468EA
:1018100004F001040CB900206CE08C79012C04D197
:10182000146844F08004146003E0146824F0800419
:101830001460CC79012C04D1146844F04004146085
:1018400003E0146824F0400414600C7A012C04D1E5
:10185000146844F02004146003E0146824F02004A9
:1018600014604C7A012C04D1146844F01004146004
:1018700003E0146824F0100414608C7A012C04D165
:10188000146844F00804146003E0146824F00804A9
:101890001460CC7A012C04D1146844F00404146060
:1018A00003E0146824F0040414608C78A407CD7855
:1018B00044EA05640D7944EA05444D7944EA055447
:1018C0000D886D1E2C43D461146824F0010414604B
:1018D000002300E05B1C546804F001041CB14FF6C7
:1018E000FF74A342F6D1546804F001040CB1002047
:1018F00000E0012030BD0246002019B9D36803F092
:10190000030006E0012903D1136903F0030000E09E
:101910000020704710B500F5D87303EB01131B6866
:1019200003F004031372137A53B900F5D87303EB71
:1019300001131B6840F2FF7404EA5353136009E07B
:1019400000F5D87303EB01131B686FF0604404EAE1
:10195000D303536000F5D87303EB01131B6803F046
:101960000203537200F5D87303EB01135B6803F0B5
:101970000F03937200F5D87303EB01135B681B0A26
:10198000D37400F5D87303EB01139B68D37200F591
:10199000D87303EB01139B681C0A147300F5D8730A
:1019A00003EB01139B681C0C547300F5D87303EB15
:1019B00001139B681B0E937300F5D87303EB01139F
:1019C000DB68D37300F5D87303EB0113DB681C0AE3
:1019D000147400F5D87303EB0113DB681C0C54740A
:1019E00000F5D87303EB0113DB681B0E937421B968
:1019F000C36843F02003C36003E0036943F020039E
:101A0000036110BD2DE9F04186B080460D461646B3
:101A10001F46002400214046FFF76DFF18B9002043
:101A200006B0BDE8F08101AA00214046FFF772FF31
:101A3000002405E00DF10F00005D3055601CC4B2BC
:101A4000BC42F7DB019828600120E9E710B50246A7
:101A50000020936803F08063B3F1806F00D110E041
:101A6000936803F00063B3F1006F01D1012008E037
:101A7000936803F08053B3F1805F01D1022000E04E
:101A80000420042874D002F5C07303EB00131B6814
:101A900003F0010402F5C07303EB00131C600B7A22
:101AA0007BB94B7A0C8843EA445302F5C07404EBCB
:101AB00000142468234302F5C07404EB001423606F
:101AC00010E00B7A4C6843EAC4034C7A234302F5D6
:101AD000C07404EB00142468234302F5C07404EBC3
:101AE000001423608B7A03F00F038B7202F5C0732E
:101AF00003EB00135B6823F00F0402F5C07303EBE4
:101B000000135C6002F5C07303EB00135B688C7A12
:101B1000234302F5C07404EB001463608B7B1C0646
:101B20004B7B44EA03440B7B44EA0323CC7A2343F4
:101B300002F5C07404EB0014A3608B7C1C064B7C84
:101B400044EA03440B7C44EA0323CC7B234302F5A1
:101B5000C07404EB0014E36002F5C07303EB0013E0
:101B60001B6843F0010402F5C07303EB00131C6013
:101B700010BD000010B50246002321B1012907D095
:101B800002290FD109E090681D4C00EA04030BE024
:101B900090681C4C00EA040306E090681A4C00EAC6
:101BA000040301E0002300BF00BF184C181BA34230
:101BB00016D007DC83B16FF08060184470B1022842
:101BC00018D111E0B0F5007F10D0114C204448B17D
:101BD000B0F5003F0ED10BE002230DE000230BE037
:101BE000002309E0002307E0012305E0012303E0CF
:101BF000012301E0002300BF00BFD8B210BD0000E8
:101C000003000004000300080000031000010008A6
:101C10000001FFF72DE9F04385B081460D4690465F
:101C20001E4600240095019500208DF808008DF8CF
:101C300009008DF80A6000BF06E018F804100DF1E5
:101C40000B000155601C84B2B442F6DB694648467D
:101C5000FFF7FCFE0746002400BF39464846FFF761
:101C600089FF0128F9D105B0BDE8F083F0B52DED6D
:101C7000108B8DB006460D4600200A900B900C90FC
:101C80000790089009900490059006900024DDE0EC
:101C9000FE4800EB8400D0ED000AB0EE600AFEF7CB
:101CA000E3FAB0EE408AF94800EB8400D0ED000A78
:101CB000B0EE600AFEF7D8FAD6ED000A9FEDF41AEE
:101CC00041EE000A28EE208AF04800EB8400D0EDB7
:101CD000000AB0EE600AFEF733FBF0EE408AEB48F4
:101CE00000EB8400D0ED000AB0EE600AFEF728FB9E
:101CF000D6ED010A9FEDE61A41EE000A08EEA08A31
:101D00009FEDE40A28EE000A0AA800EB840080EDAB
:101D1000000A96ED020ADFEDE00A20EE200A07A88D
:101D200000EB840080ED000A9FEDDC1B9FEDDD0BD6
:101D300001F0D6FFB0EE409AF0EE609A9FEDD71B0F
:101D40009FEDDA0B01F0CCFFB0EE40BAF0EE60BAD6
:101D500096ED020A10EE101A084603F053FD41EC0E
:101D60001D0B9FEDCE1BB0EE4D0AF0EE6D0A01F09B
:101D7000B7FF8DED020BC54800EB8400D0ED000AE3
:101D8000B0EE600AFEF7DCFAD6ED010A9FEDC01A4C
:101D900041EE000A10EE907A384603F033FD41EC34
:101DA0001F0B9FEDBE1BB0EE4F0AF0EE6F0A01F065
:101DB00097FFB0EE40DAF0EE60DAB44800EB840052
:101DC000D0ED000AB0EE600AFEF74EFAD6ED000A3A
:101DD0009FEDAF1A41EE000A10EE907A384603F0FC
:101DE00011FD41EC1F0B9FEDAD1BB0EE4F0AF0EE65
:101DF0006F0A01F075FFB0EE40EAF0EE60EA53ECD6
:101E00001D2B51EC1E0B02F071FFCDE900019DED81
:101E1000020B53EC102B9DED000B51EC100B02F05C
:101E200065FF41EC1C0B53EC1B2B02F05FFF41ECF8
:101E30001A0B53EC192B03F0FBFB41EC180B02F0CF
:101E400023FF04A941F82400601CC4B2032CFFF650
:101E50001FAF0024CEE004A800EB840090ED000A40
:101E60000AA800EB8400D0ED000A30EE600A10EE04
:101E7000101A084603F0C6FC41EC190BB0EE490AF3
:101E8000F0EE690A01F022FFB0EE408AF0EE608ABF
:101E90009FED880B53EC102B51EC180B03F080F9DD
:101EA00025D20AA800EB840090ED001AB1EE411A89
:101EB00004A800EB8400D0ED001A31EE611AB0EEF8
:101EC000410A07A800EB840090ED001AF0EE001A1A
:101ED00021EE211AF0EE410A01F0D0FDF0EE000AE9
:101EE00020EE200A05EB840080ED000A80E004A8C3
:101EF00000EB840090ED000A10EE101A084603F083
:101F000081FC41EC1C0B9FED651BB0EE4C0AF0EE22
:101F10006C0A01F0E5FEB0EE40AAF0EE60AA07A858
:101F200000EB840090ED000A10EE101A084603F052
:101F300069FC41EC1E0B9FED591BB0EE4E0AF0EE12
:101F40006E0A01F0CDFEB0EE40CAF0EE60CA0AA8FB
:101F500000EB840090ED000A10EE101A084603F022
:101F600051FC41EC1E0B9FED4D1BB0EE4E0AF0EE06
:101F70006E0A01F0B5FEB0EE40DAF0EE60DA53EC36
:101F80001C2B51EC1D0B02F0B1FE41EC1B0B53EC72
:101F90001A2B03F04DFB41EC190B02F075FE00EE1D
:101FA000100AF1EEC00A07A800EB840090ED000AC9
:101FB000B1EE400A30EE600AB0EE408A04A800EBB1
:101FC000840090ED000A0AA800EB840090ED001A4E
:101FD00030EE410AF0EE400AB0EE480A01F04EFD44
:101FE000F0EE000A20EE200A05EB840080ED000AE6
:101FF000601CC4B2032CFFF62EAF00203FE005EBBF
:102000008001D1ED000A9FED2D1A80EE810ADFEDEF
:102010002C0A20EE200A05EB800181ED000A05EB79
:10202000800191ED000ADFED260AB4EEE00AF1EE40
:1020300010FA0BDD05EB800191ED000ADFED210ABE
:1020400030EE600A05EB800181ED000A05EB8001AE
:1020500091ED000ADFED1C0AB4EEE00AF1EE10FA91
:102060000BD205EB800191ED000ADFED160A30EE90
:10207000200A05EB800181ED000A411CC8B203284B
:10208000BDDB0DB0BDEC108BF0BD0000085B00089F
:10209000000009C30000C6C30000C64300000000E2
:1020A000000000400000000000207640000000001A
:1020B00000C068407B14AE47E17A843FDB0F4940A3
:1020C000000034430000B443000034C370470000F4
:1020D0003EB504460D4600200090019002909FED11
:1020E0000C0AB0EE402A6A462946204601F02AFB37
:1020F000684600F057FAB0EE402A204600F052FA47
:10210000C2EE000AB0EE602AB0EE420A3EBD000008
:102110000000000000B50421034800F009F802485F
:102120000249086000BD0000440000204800002073
:102130000246002003E0034BC35C1354401C88425A
:10214000F9D3704700000408F0B50A4600210023C7
:10215000002400BF3DE0012505FA01F3156805EAFA
:1021600003049C4234D105684F000326BE40B543AA
:10217000056015794E00B540066835430560157950
:10218000012D02D01579022D16D185684F00032646
:10219000BE40B543856055794E00B54086683543ED
:1021A0008560456801268E40B5434560456896794F
:1021B0008E40B6B235434560C5684F000326BE4029
:1021C000B543C560D5794E00B540C6683543C56096
:1021D000491C1029BFD3F0BD7CB504460D461646F8
:1021E000C4F30900002839D1A012A0F5801080386E
:1021F000092833D2DFE800F0050A0F14191E23283E
:102200002D000121084600F093FA28E00121022068
:1022100000F08EFA23E00121042000F089FA1EE08C
:102220000121082000F084FA19E00121102000F0BB
:102230007FFA14E00121202000F07AFA0FE001215A
:10224000402000F075FA0AE00121802000F070FAC9
:1022500005E00121080200F06BFA00E000BF00BFBA
:1022600000958DF8046000208DF806008DF80700B9
:1022700002208DF8050069462046FFF765FF7CBD0A
:10228000F0B5002300244D07ED0E02FA05F3CE1041
:1022900000F1200555F826504E07F70E0F26BE40D8
:1022A000B543CF1000F1200646F82750CE1000F1BC
:1022B000200555F8265045EA0304CE1000F120050C
:1022C00045F82640F0BD00002DE9F0472DED0A8BC2
:1022D00084B006460D4692461F46284600F062F935
:1022E00010EE108A29463046FFF7F2FE10EE109AE3
:1022F000304600F057F9B0EE408A0020019002907D
:10230000039000243EE0484603F07CFA41EC1C0BAD
:102310009FED2A1BB0EE4C0AF0EE6C0A01F0E0FCD7
:10232000B0EE40AAF0EE60AA404603F06BFA41EC32
:102330001C0B9FED221BB0EE4C0AF0EE6C0A01F074
:10234000CFFCB0EE40BAF0EE60BA53EC1A2B51EC71
:102350001B0B03F06DF941EC190B02F095FC00EE3C
:10236000100AF1EEC00A80EE880A06EB8400D0ED78
:10237000000A20EE200A01A800EB840080ED000A8C
:10238000601CC4B2032CBEDB002010E001A901EBED
:10239000800191ED000A05EB8001D1ED000A30EEDD
:1023A000600A07EB800181ED000A411CC8B20328D6
:1023B000ECDB04B0BDEC0A8BBDE8F0870000000048
:1023C0000000004000BFFEE710B5012211460248A0
:1023D000FFF702FF10BD00000010024070B52DEDA8
:1023E000028B05460E4600247FE005EB840090ED4D
:1023F000000ADFED410A80EE201A9FED400A21EE2F
:10240000000AB0EE408AFDF72FFFDFED3D8ADFEDD9
:102410003D0A40EE808A00EE104AB8EE400ADFED39
:102420003A0A20EE200ADFED340A80EE201A9FEDF2
:10243000330A21EE000AB0EE408AFDF715FF28EEC0
:10244000800A04EB440006EB800080ED000A05EBF7
:10245000840090ED000ADFED280A80EE201A9FED3F
:10246000270A21EE000AB0EE408AFDF7FDFEDFEDFF
:10247000248ADFED240A40EE808A00EE104AB8EE8E
:10248000400ADFED210A20EE200A9FED1B1AC0EE64
:10249000010A9FED1A0A20EE800AB0EE408AFDF78D
:1024A0004FFF28EE800A04EB440006EB800080ED2D
:1024B000010A05EB8400D0ED000A9FED0F1A80EEB3
:1024C000810ADFED0E0A20EE200AB0EE408AFDF709
:1024D00037FFDFED0E0A20EE200A04EB440006EB86
:1024E000800080ED020A601CC4B2032CFFF67DAFB1
:1024F000BDEC028B70BD000000003443DB0F49408F
:1025000000000943000046430000F042000046C3BB
:1025100000BFFEE700BFFEE770B5002100230F22D9
:10252000C4781CB3174C246804F4E064C4F5E06478
:10253000C4F30721C1F10404E3B20A4144789C408A
:10254000E1B28478144021430C07210E0E4C05782B
:102550006155047804F01F050124AC4005786D1125
:10256000AD0005F1E025C5F8004109E0047804F06C
:102570001F050124AC40054D0678761145F826402C
:1025800070BD00000CED00E000E400E080E100E040
:1025900002490143024A1160704700000000FA0539
:1025A0000CED00E090ED000ADFED110A20EE200AAC
:1025B000D0ED000A20EE200AD0ED010A9FED0C1AA2
:1025C00060EE810A90ED011A00EE810AD0ED020A58
:1025D0009FED071A60EE810A90ED021A00EE810A63
:1025E000F1EEC00AB2EE041A80EE810A70470000D4
:1025F0000000C84270B52DED028B012000F076FA84
:10260000022000F073FA032000F070FA02F088FA5A
:10261000044640492068086060684860A068886097
:1026200000200BE03B4951F820103B4A52F8202093
:10263000891A3A4A42F82010411CC8B20328F1DB3B
:10264000002007E0334951F82010334A42F82010A7
:10265000411CC8B20328F5DB2E480568002D01DBBC
:10266000284600E0684200EE900AB8EEE01ADFED7E
:102670002C1ADFED2C0AB0EE600A01EE610A10EEB2
:10268000100A03F0BFF841EC180B02F0FDFA2649DE
:10269000086020484568002D01DB284600E06842BC
:1026A00000EE900AB8EEE01ADFED1D1ADFED1D0A0C
:1026B000B0EE600A01EE610A10EE100A03F0A2F813
:1026C00041EC180B02F0E0FA1749486011488568A0
:1026D000002D01DB284600E0684200EE900AB8EECB
:1026E000E01ADFED0F1ADFED0F0AB0EE600A01EE1F
:1026F000610A10EE100A03F085F841EC180B02F0A5
:10270000C3FA0949886009490748FEF7F1FBBDECA7
:10271000028B70BD88000020B800002094000020CB
:102720003F55553EAE47CD42280000201C000020FA
:1027300029B1064A12680243044B1A6004E0034AB6
:1027400012688243014B1A60704700003038024023
:1027500029B1064A12680243044B1A6004E0034A96
:1027600012688243014B1A607047000040380240F3
:1027700029B1064A12680243044B1A6004E0034A76
:1027800012688243014B1A607047000020380240F3
:1027900029B1064A12680243044B1A6004E0034A56
:1027A00012688243014B1A607047000044380240AF
:1027B000F0B5002100220024022500260223324F1A
:1027C0003F6807F00C0121B1042905D0082937D151
:1027D00005E02E4F076036E02D4F076033E02A4FAB
:1027E0003F1F3F68C7F38056274F3F1F3F6807F0E2
:1027F0003F036EB1264FB7FBF3F7DFF88CC0ACF1A7
:10280000040CDCF800C0CCF3881C07FB0CF40CE0D3
:102810001E4FB7FBF3F7DFF870C0ACF1040CDCF827
:1028200000C0CCF3881C07FB0CF4174F3F1F3F6818
:10283000C7F301477F1C7D00B4FBF5F7076002E09A
:10284000124F076000BF00BF0F4F3F6807F0F00155
:102850000909104F7A5C0768D74047600A4F3F6804
:1028600007F4E051890A0B4F7A5C4768D7408760CC
:10287000054F3F6807F46041490B064F7A5C476893
:10288000D740C760F0BD0000083802400024F400C3
:1028900000127A004D00002010B52DED0E8B8CB08B
:1028A0000446B0EE408A002009900A900B900690F2
:1028B000079008900390049005909FED850AF0EE34
:1028C000408A84480078002840D10120814908705E
:1028D000002011E004EB8001D1ED000A7E4901EBFC
:1028E000800191ED001A70EEC10A7C4901EB800174
:1028F000C1ED000A411CC8B20328EBDB7748FFF7A3
:1029000051FE00200FE0754901EB8001D1ED000A76
:1029100060EE880A80EE801A704901EB800181ED3B
:10292000001A411CC8B20328EDDB00200BE06A4905
:1029300001EB8001D1ED000A694901EB8001C1ED95
:10294000000A411CC8B20328F1DB00BF002012E0DE
:10295000614901EB800191ED000A614901EB8001C1
:10296000D1ED000A30EE600A09A901EB800181ED8A
:10297000000A411CC8B20328EADB59495748FFF74F
:10298000A7FBF0EE408A06AB012209A95348FFF7E6
:102990009BFC002012E006A901EB800191ED000AEA
:1029A0004E4901EB8001D1ED000A30EE200A03A967
:1029B00001EB800181ED000A411CC8B20328EADB6B
:1029C00000200090019002906A4603A94248FEF759
:1029D000C9F80120009900F059FF0220019900F088
:1029E00055FF0320029900F051FF3B4890ED020A89
:1029F000D4ED020A30EE600A10EE101A084602F01A
:102A000001FF41EC1C0B9FED371BB0EE4C0AF0EEC2
:102A10006C0A01F065F9B0EE40AAF0EE60AA2E480B
:102A200090ED010AD4ED010A30EE600A10EE101AA2
:102A3000084602F0E7FE41EC1E0B9FED2A1BB0EEAC
:102A40004E0AF0EE6E0A01F04BF9B0EE40CAF0EE1D
:102A500060CA214890ED000AD4ED000A30EE600A09
:102A600010EE101A084602F0CDFE41EC1E0B9FED51
:102A70001D1BB0EE4E0AF0EE6E0A01F031F9B0EE19
:102A800040DAF0EE60DA53EC1C2B51EC1D0B02F037
:102A90002DF941EC1B0B53EC1A2B02F027F941ECFA
:102AA000190B02F0F1F800EE100AF1EEC00AB7EED1
:102AB000000AF4EEC00AF1EE10FA07D20020054930
:102AC000087001200CB0BDEC0E8B10BD0020F9E7A2
:102AD00000000000410000201C000020A000002099
:102AE000AC000020000000000000004030B587B0BE
:102AF00004461F4903C9CDE9050104F54070009063
:102B0000019000208DF808008DF8090008208DF84C
:102B10000A000598C0B28DF80B000598010A8DF8DF
:102B20000C100598010C8DF80D100598000E8DF80D
:102B30000E000698C1B28DF80F100698010A8DF8A4
:102B400010100698010C8DF811100698000E8DF8E3
:102B5000120069460748FEF779FF054600BF29467F
:102B60000448FFF707F80128F9D107B030BD00008D
:102B7000F85A00080064004010B5FFF73BFD0B4811
:102B8000007810B101280ED10CE0B2EE040A08481A
:102B9000FFF782FE012804D104480078401C034955
:102BA000087000E000BF00BF10BD00004000002022
:102BB00034000020704700000CB500200190009008
:102BC0003448006840F480303249086000BF314822
:102BD000006800F4003000900198401C01900098BB
:102BE00018B90198B0F5A06FF1D12A48006800F437
:102BF000003010B10120009001E00020009000980A
:102C0000012846D123484030006840F080502149D7
:102C1000403108602048006840F480401E49086048
:102C20001C48083000681B490831086008460068E5
:102C300040F4004008600846006840F4A050086076
:102C40001648091F0860081F006840F08070091FBF
:102C5000086000BF0F48006800F000700028F9D03D
:102C600040F205600E4908600A480830006820F00C
:102C700003000849083108600846006840F0020077
:102C8000086000BF03480830006800F00C00082806
:102C9000F8D10CBD003802400070004008544007D5
:102CA000003C024010B51548006840F4700013491C
:102CB00008601348006840F00100114908600020D6
:102CC0000F49083108600E4800680E4908400C4959
:102CD00008600D48091D0860081F006820F4802066
:102CE000091F0860002006490C310860FFF764FFE7
:102CF0004FF0006001498039086010BD88ED00E0A8
:102D000000380240FFFFF6FE1030002410B501210C
:102D1000044800F076F8012803D10121014800F0B1
:102D200061F810BD0000014010B50121880700F0D6
:102D300068F8012817D10121800700F053F80A48EC
:102D40000088401C0849088008480088401C074942
:102D5000088005480088012805DB0020024908801A
:102D600001200349087010BD00000020060000206B
:102D70000200002010B50121044800F042F80128AB
:102D800003D10121014800F02DF810BD00040040DE
:102D900010B50121044800F034F8012803D10121C5
:102DA000014800F01FF810BD0008004010B50121D7
:102DB000044800F026F8012803D10121014800F061
:102DC00011F810BD000C004010B50121044800F0BE
:102DD00018F8012803D10121014800F003F810BDC3
:102DE00000040140CA430282704721B1028842F0C8
:102DF0000102028004E002884FF6FE731A4002804E
:102E0000704730B50246002000230024158A05EAE9
:102E10000103958905EA010413B10CB1012000E01A
:102E2000002030BD1AB183890B43838102E083897E
:102E30008B438381704700002DE9FF4104460D4616
:102E400016461F46DDF828806949601A8C4270D00A
:102E50001ADC6849A4EB01008C426CD00ADCB4F1A6
:102E6000804F4ED064482044002852D0B0F5806F87
:102E700071D156E0B0F5806F65D0B0F5006F6CD0C1
:102E8000B0F5406FF4D170E0B0F5923F21D009DC8D
:102E9000B0F5806F7AD0B0F5644F0AD0B0F5684FC6
:102EA0007CD10EE0B0F5943F1BD0B0F5963F75D1C4
:102EB0001FE001210846FFF76BFC19208DF8000088
:102EC0006DE001210220FFF763FC2C208DF800004B
:102ED00065E001210804FFF75BFC18208DF8000075
:102EE0005DE001211920FFF753FC2C208DF8000034
:102EF00055E001218804FFF74BFC1A208DF80000F3
:102F00004DE001210846FFF723FC1C208DF800004E
:102F100045E001210220FFF71BFC1D208DF8000079
:102F20003DE001210420FFF713FC1E208DF8000076
:102F300035E023E0FFE701210820FFF709FC3220FC
:102F40008DF800002BE001211020FFF701FC362056
:102F50008DF8000023E021E0FFE701212020FFF7AA
:102F6000F7FB37208DF8000019E001214020FFF722
:102F7000EFFB2B208DF8000011E007E001218020FD
:102F8000FFF7E6FB2C208DF8000008E00121080285
:102F9000FFF7DEFB2D208DF8000000E000BF00BF32
:102FA0000295ADF804600020ADF80C00ADF8060005
:102FB00001A9204600F022F801212046FFF712FF68
:102FC000012211462046FFF72DFFF8B28DF80100CF
:102FD00008F0FF008DF8020001208DF8030068461C
:102FE000FFF79AFA01212046FFF7FFFEBDE8FF81B7
:102FF000001C0040000C004000FCFFBF00220288C3
:10300000184B98420ED0184B98420BD0B0F1804F1D
:1030100008D0164B984205D0154B984202D0154B5C
:10302000984204D14FF68F731A404B881A43124BC3
:10303000984207D0114B984204D04FF6FF431A40F4
:103040000B891A4302804B68C3620B880385054BCA
:10305000984202D0044B984201D18B7A0386012317
:1030600083827047000001400004014000040040DA
:1030700000080040000C0040001000400014004018
:1030800010B5002440F22551CE4800F09CFA0128EA
:1030900008D140F22551CB4800F07AFAC94800F037
:1030A0004BFBC4B2C848007810281DD2DFE800F0FE
:1030B000081D344960778EA3BAD1E8F2F1F0EFEE43
:1030C000472C0ED1C1480078C0EB0010C04908441D
:1030D000BD4909784454BC480078401CBA4908707E
:1030E00002E00F20B84908704EE1302C10DB332C81
:1030F0000EDCB6480078C0EB0010B5490844B24970
:1031000009784454B0480078401CAF49087002E088
:103110000F20AD49087037E1582C0ED1AB4800782C
:10312000C0EB0010AA490844A74909784454A648AE
:103130000078401CA449087002E00F20A2490870E2
:1031400022E12B2C01D02D2C0ED1A0480078C0EB11
:1031500000109F4908449C49097844549A480078D3
:10316000401C9949087002E00F20974908700BE154
:10317000302C10DB392C0EDC94480078C0EB0010AA
:10318000934908449049097844548F480078401C7A
:103190008D49087002E00F208B490870F4E0302C54
:1031A00010DB392C0EDC89480078C0EB0010884910
:1031B000084485490978445483480078401C824972
:1031C000087002E00F2080490870DDE0592C0ED114
:1031D0007E480078C0EB00107D4908447A490978A0
:1031E000445479480078401C7749087002E00F2069
:1031F00075490870C8E02B2C01D02D2C0ED17348D6
:103200000078C0EB0010724908446F4909784454B3
:103210006D480078401C6C49087002E00F206A4934
:103220000870B1E0302C10DB392C0EDC67480078D8
:10323000C0EB001066490844634909784454624869
:103240000078401C6049087002E00F205E49087059
:103250009AE0302C10DB392C0EDC5C480078C0EB97
:1032600000105B490844584909784454564800788E
:10327000401C5549087002E00F205349087083E054
:103280003B2C08D101205349087018E067E05CE04E
:1032900044E02CE014E05A2C0ED14C480078C0EBEE
:1032A00000104B490844484909784454464800787E
:1032B000401C4549087002E00F204349087063E054
:1032C000302C10DB392C0EDC40480078C0EB0010AD
:1032D0003F4908443C49097844543B480078401C25
:1032E0003949087002E00F20374908704CE0302C53
:1032F00010DB392C0EDC35480078C0EB0010344967
:1033000008443149097844542F480078401C2E491C
:10331000087002E00F202C49087035E0302C10DBDB
:10332000392C0EDC29480078C0EB001028490844ED
:1033300025490978445424480078401C22490870E3
:1033400002E00F20204908701EE03B2C03D1012031
:103350002049087002E00F201B49087014E000208B
:103360001949087000BF09E00021184A1278C2EB21
:103370000212174B1A441154411CC8B20E28F3DB39
:1033800000201449087000BF00BF124800780128CF
:1033900016D10D4800780A280DD100BF09E00021A0
:1033A0000A4A1278C2EB0212094B1A441154411C0A
:1033B000C8B20E28F3DB00200349087005490870E5
:1033C00010BD00000050004019000020090000203E
:1033D000780000200800002010B588B0044604944E
:1033E0000020ADF81400ADF81600ADF81800ADF8E7
:1033F0001C000C20ADF81A000121FFF799F90121FA
:103400000805FFF7A5F908220C212248FEF738FF2E
:10341000082202212048FEF733FF00208DF80A0021
:1034200001208DF80B0002208DF80800C0020190E9
:1034300002208DF8090001A91648FEF785FE02203A
:103440008DF808000420019001A91348FEF77CFEC6
:1034500004A9124800F006F935208DF80C0001206F
:103460008DF80F008DF80D008DF80E004FF4A06060
:10347000FFF78EF803A8FFF74FF8012240F225511D
:10348000064800F0CAF80121044800F090F808B09E
:1034900010BD000000080240000C02400050004037
:1034A00010B5002440F22551074800F08CF801289F
:1034B00008D140F22551044800F06AF8024800F0B3
:1034C0003BF9C4B210BD00000048004010B588B000
:1034D000044604940020ADF81400ADF81600ADF8D1
:1034E0001800ADF81C000C20ADF81A0001210420D2
:1034F000FFF71EF901218804FFF72AF907220A21A4
:103500002148FEF7BDFE07220B211F48FEF7B8FE3B
:1035100000208DF80A0001208DF80B0002208DF8A4
:1035200008004002019002208DF8090001A9164808
:10353000FEF70AFE02208DF808008002019001A922
:103540001148FEF701FE04A9104800F08BF827206F
:103550008DF80C0001208DF80F008DF80D008DF80E
:103560000E004FF4A060FFF713F803A8FEF7D4FF96
:10357000012240F22551054800F04FF8012103488F
:1035800000F015F808B010BD0008024000480040E7
:1035900010B50022002340F66A14A14200D100BFFA
:1035A0000A1201249440A3B2DC43048010BD21B16F
:1035B000828942F40052828104E082894DF6FF73D1
:1035C0001A408281704770B502460024002300250E
:1035D000002040F66A16B14200D100BFC1F3421587
:1035E00001F01F03012606FA03F3012D02D196898B
:1035F000334006E0022D02D1168A334001E0968A5C
:1036000033400C12012606FA04F41688344013B134
:103610000CB1012000E0002070BDF0B5034600248D
:1036200000260025002040F66A17B94200D100BFED
:103630001846C1F3421401F01F06012707FA06F5E8
:10364000012C01D10C3004E0022C01D1103000E03B
:1036500014301AB107682F43076002E00768AF43D0
:103660000760F0BD2DE9FF4705460E460024A14640
:1036700000BFA046B08900B100BF2C8A24F440549A
:10368000F08804432C82AC8941F20C608443B088FA
:1036900031890843718908430443AC81AC8A24F41E
:1036A0004074B0890443AC826846FFF781F8204833
:1036B000854202D01F48854202D1DDF80C9001E01E
:1036C000DDF80890A88900F4004040B109EBC9007A
:1036D00000EB091031684900B0FBF1F707E009EB96
:1036E000C90000EB091031688900B0FBF1F76420D4
:1036F000B7FBF0F004012009642101FB1078A889D0
:1037000000F4004040B1322000EBC800B0FBF1F003
:1037100000F00700044308E0322000EB08106421A9
:10372000B0FBF1F000F00F0004432C81BDE8FF87EF
:10373000001001400014014001468888C0F30800D1
:10374000704700003EB504460D4613460020009029
:10375000019002909FED0F0AF0EE401A6A4629464A
:10376000204600F04FF86846FEF71CFFF0EE401AC6
:1037700000200CE0694601EB800191ED000AC0EEEB
:10378000210A03EB8001C1ED000A411CC8B20328E5
:10379000F0DB3EBD0000000070B586B005460E4669
:1037A0001446002003900490059000900190029030
:1037B0009FED120AF0EE401A03AA3146284600F0A7
:1037C00021F86A46214603A800F01CF86846FEF777
:1037D000E9FEF0EE401A00200CE0694601EB8001A2
:1037E00091ED000AC0EE210A03EB8001C1ED000A51
:1037F000411CC8B20328F0DB06B070BD0000000019
:1038000000BFFEE790ED010AD1ED020A20EE200A8A
:10381000D0ED020A91ED011A00EEC10A82ED000A14
:1038200090ED020AD1ED000A20EE200AD0ED000A48
:1038300091ED021A00EEC10A82ED010A90ED000A34
:10384000D1ED010A20EE200AD0ED010A91ED001A17
:1038500000EEC10A82ED020A704791ED000AD0ED38
:10386000000A30EE600A82ED000A91ED010AD0ED07
:10387000010A30EE600A82ED010A91ED020AD0EDF4
:10388000020A30EE600A82ED020A7047F0B589B094
:1038900005460F4600242B4B0FCB05AE0FC605F592
:1038A00040700090019000208DF808008DF809000C
:1038B00008208DF80A00069700BF3FE005A810F821
:1038C00034008DF80B0005A830F83400010A8DF89B
:1038D0000C1005A850F83400010C8DF80D1005A847
:1038E00050F83400000E8DF80E0005A800EBC4005F
:1038F00001798DF80F1005A800EBC4008088010A3B
:103900008DF8101005A800EBC4004068010C8DF87C
:10391000111005A800EBC4004068000E8DF81200DD
:1039200069460948FEF792F8064600BF3146064848
:10393000FEF720F90128F9D1601CC4B2022CBDDBCE
:1039400009B0F0BD485A0008006400402DE9F0417C
:1039500094B005460E461746002438222E4906A884
:10396000FDF75AF805F540700190029000208DF89F
:103970000C008DF80D0008208DF80E000D960F97A5
:10398000264911914942139100BF3FE006A810F863
:1039900034008DF80F0006A830F83400010A8DF8C5
:1039A000101006A850F83400010C8DF8111006A86C
:1039B00050F83400000E8DF8120006A800EBC40089
:1039C00001798DF8131006A800EBC4008088010A65
:1039D0008DF8141006A800EBC4004068010C8DF8A7
:1039E000151006A800EBC4004068000E8DF8160004
:1039F00001A90B48FEF72AF8804600BF4146084857
:103A0000FEF7B8F80128F9D1601CC4B2072CBDDB61
:103A100014B0BDE8F0810000105A0008C0E1E400D5
:103A20000064004003B401984100009850EAC120AE
:103A300018BF04204A0D18BF40F0010040F2FF7289
:103A4000B2EB515F08BF40F00200012808BF05201B
:103A500002B070474100080218BF04200A0E18BFC8
:103A600040F001004FF07F4232EA010108BF40F010
:103A70000200012808BF05207047000010EE100A60
:103A800010B510EE901A4FF0684202EB40032DED96
:103A9000028BB3F1654F3CBF02EB4102B2F1654FBF
:103AA0007CD200BFC0F3C753C1F3C7529A1A1B2A76
:103AB00009DD10F0004F14BF9FED6E0A9FED6E0AF6
:103AC000BDEC028B10BD12F11A0F1BDA11F0004F82
:103AD00009D010F0004F0CBF9FED680A9FED680AF7
:103AE000BDEC028B10BD80EE208A18EE100AFFF7A5
:103AF000B1FF042808BF00F0EFFFB0EE480ABDECAC
:103B0000028B10BD4200B2EB410F37D910F0004FCD
:103B100019BFDFED5C1A9FED5C1ADFED5C1A9FEDBB
:103B20005C1AB0EE602A0A46F1EE400A80F00041CD
:103B3000B0EE420A10460A1A5200B2F1807F34D227
:103B4000484010F0004FDFED532A9FED533A1DBF60
:103B5000BEEE002A71EEE21A31EE431AB6EE002AEA
:103B600004BF71EEA21A31EE031AF0EE402A42EEC3
:103B7000602A40EE020A82EEA02A18E011F0004FFF
:103B800004BF9FED461AF0EE411AD4D010F0004F5A
:103B90001CBFDFED431A9FED431A00E026E004BF8F
:103BA000DFED411A9FED411AC5E780EE202A22EE93
:103BB000020ADFED3F0ADFED3F2ABDEC028B40EE4B
:103BC000202ADFED3D0A40EE220ADFED3C2A40EEDE
:103BD000202ADFED3B0A40EE220A22EE000A00EE28
:103BE000201A31EE020A30EE210A10BD4FF07F425A
:103BF000B2EB400F28BFB2EB410F05D2BDEC028BF8
:103C0000BDE8104000F064BF40EA01035B0008BF5C
:103C100041F0FF410BD0B2EB400F08BFB2EB410FB8
:103C200008D120F0804000EE100A21F0804100EE23
:103C3000901A37E7B2EB400F12BF5FEA410240F043
:103C4000FF4001F000413FF42DAF4A0092EA4003EB
:103C50003FF528AF002AACBF9FED1A1A9FED1A1A44
:103C600020EE010A60EE810A10EE100A10EE901AA2
:103C700018E70000DB0FC9BFDB0FC93FDB0F49406E
:103C8000DB0F49C00000C9BF22AAFDB90000C93F2F
:103C900022AAFD390060ED3EC30ACE3700000000C5
:103CA000000049C022AA7DBA0000494022AA7D3AFC
:103CB0002DAD65BD8FB8D53D0FB511BE61C84C3E69
:103CC000A8AAAABE0000804F0000802F2DED020B95
:103CD000019820F0004001909DED000B02B070476C
:103CE0002DE9F04D2DED040B2DED0E8B96B0DDE999
:103CF0002550279CDDF890A025F0004624F00048D0
:103D0000BAF1000F14BF0121002101EB4502FC496B
:103D100053184A1093422AD3002814BF01230023CA
:103D200003EB44030B44F7498B4220D358EA0001CC
:103D30009FEDF59B76D0DFF8D8B35D4503D1BAF19E
:103D4000000F05D188E0BAF1000F08BF002100D0B4
:103D5000012101EB450111F5001F08D8002814BF0F
:103D60000121002101EB440111F5001F0BD99DED4C
:103D7000261B9DED240B16B0BDEC0E8B04B0BDE8E8
:103D8000F04D00F069BE0027002DBCBFE149884519
:103D900021DAE1498845A8BF02271CDAC3451ADCAD
:103DA000DE4901EB2851142908DDC1F1340220FA63
:103DB00002F101FA02F282420DD108E058B9C1F1D4
:103DC000140228FA02F101FA02F2424503D101F08D
:103DD0000101C1F1020756EA0A0124D1002C22DABE
:103DE000002D18BF022F01D0012F0AD00220FCF7AE
:103DF00074FE16B0BDEC0E8B04B0BDE8F04D00F0C3
:103E000013BE0220FCF769FE00F00EFE51EC100B11
:103E100000F02DFF41EC100B16B0BDEC0E8B04B082
:103E2000BDE8F08D18E09FEDBEAB9FEDBF8B002885
:103E300071D1B848804522D105F1804010F580103D
:103E400008BFBAF1000F07D0B3450ADC002CA8BFA9
:103E50009DED260BE0DA0DE0B0EE490AF0EE690ABE
:103E6000DAE7002C06DA9DED260B51EC100B00F082
:103E7000FEFE6FE0AE48784490ED000BCCE7D845ED
:103E80004DD1002C48DA2EB186423AD1BAF1000F5A
:103E900042D126E0BAF1000F13D00220FCF71DFE3C
:103EA00000F0F6FD8DED020B9DED240B8DED000B6A
:103EB00010EE900A039961F31E0003909DED020B32
:103EC000AAE78DED02AB9DED240B1AEE901A10EED1
:103ED000900A8DED000B61F31E0003909DED020B27
:103EE0009AE78DED028B9DED240B18EE901A10EEE3
:103EF000900A8DED000B61F31E0003909DED020B07
:103F00008AE709DA9DED240B51EC190B53EC102BC9
:103F100000F0A8FF1EE020E09DED240B7CE7864228
:103F20001BDAB4F1804F0DD0A4F10050B0F1FF5076
:103F300013D1002D11DB9DED240B51EC100B00F083
:103F40005FFE07E09DED240B53EC102B51EC100BA2
:103F500000F0C2BC41EC100B5EE79DED240B51EC70
:103F6000100B00F0D1FDBAF1000FCDE90E0142D1E6
:103F70009FED710B46B3A6F1E040B0F17F600CD02D
:103F80005E4538D1002D00DAA7B3022F0CBF012007
:103F90004FF0FF3001F0EDF8DCE7002D01DD002CE3
:103FA0000DDA002D01DD002C1FDB002D16DA002CB0
:103FB00014DB012F08BF9FED620B3FF42DAFB0EE75
:103FC0004A0AF0EE6A0A27E7022F18BF002D0CD02C
:103FD000012F0AD1002DFFF61FAF06E0002DB8BF5C
:103FE000002C08DA012F3FF417AFB0EE480AF0EECC
:103FF000680A11E71BE0012000EBE57050EA0701B9
:1040000015D0791EB0EE498AF0EE698A084308BFE0
:104010009FED4D8B4E480025804570DD4D494E4843
:10402000884514DDB0420DDB002C19DB2FE00120A8
:10403000FCF753FD16B0BDEC0E8B04B0BDE8F04D9F
:1040400000F016BDB34502DC002C09DC1FE08642FF
:1040500002DA002C1BDA03E05E452BDD002C16DDB6
:104060000220FCF73AFD00F013FD8DED020B53EC3E
:104070001A2B51EC180B01F0CFF8CDE90001039990
:10408000019861F31E0003909DED020BC4E602202F
:10409000FCF723FD00F00CFD10EE901A18EE900ACC
:1040A0008DED020B8DED008B61F31E0003909DEDF5
:1040B000020BB1E69DED0E0B53EC192B51EC100BDE
:1040C00001F0B6FA9FED260BCDE9080153EC102B59
:1040D0009DED080B51EC100B01F09EF89FED221B9B
:1040E00053EC112B01F0CCF99DED081B53EC112B77
:1040F00001F092F89FED1E1B53EC112B3CE08CE07D
:10410000FFFF1F00FFFF0F00000000000000F03F56
:104110000000F03F0000F07F0000404301FCFFFF83
:10412000000000000000F07F000000000000000020
:104130008625000000000000000000000000008054
:10414000000000000000F0FF000000000000F0BFD1
:104150000000E0410000F043FFFFEF3F00000000DF
:10416000000000000000D03F555555555555D53F2E
:10417000000000000000E03F01F082F99DED080B17
:1041800041EC1A0B53EC102B51EC100B01F044F8DE
:1041900053EC1A2B01F040F841EC1A0B9FEDFE0B8B
:1041A00053EC102B9DED080B51EC100B01F034F883
:1041B00041EC1B0B9FEDFA0B51EC1A0B53EC102B3F
:1041C00001F02AF841EC1A0B9FEDF70B53EC102B82
:1041D0009DED080B51EC100B01F01EF853EC1A2B5F
:1041E00001F026FA41EC1A0B51EC1B0B53EC1A2B85
:1041F00000F07CFD0690CDE906519DED060B53ECD9
:104200001B2B51EC100B01F013FA53EC1A2B01F09D
:1042100037F941EC100B00F0A1B90020B6F5801F72
:104220000EDA9FEDE30B53EC102B9DED0E0B51ECD2
:10423000100B00F0F1FFCDE90E016FF034000E46D7
:1042400000EB2650A0F2FF37C6F31300DA4940F026
:104250007F6646F040568842D8BF002408DDD74923
:104260008142C8BF012403DC0024A6F580167F1C10
:10427000D348784400EBC4000F9690ED00CB9DED41
:104280000E0B53EC1C2B51EC100B01F0D1F99DEDF2
:104290000E0B41EC1B0B53EC1C2B51EC100B00F0E4
:1042A00025FD41EC100B51EC190B53EC102B00F0D9
:1042B000D9FD41EC1D0B51EC1B0B53EC1D2B00F0F9
:1042C000ABFF41EC1A0BBF488DED10AB7844109555
:1042D00090ED000B4FF0005040EA660000EB844088
:1042E0008DED080B00F5002009909DED080B53ECB7
:1042F0001C2B51EC100B01F09BF99DED0E1B53ECA8
:10430000112B01F0BDF841EC100B53EC102B9DED7F
:10431000100B51EC100B00F07FFF9DED080B41ECF2
:104320001C0B53EC102B9DED100B51EC100B00F0FF
:1043300073FF53EC1B2B01F0A3F853EC1C2B01F083
:1043400077F953EC1D2B00F067FF41EC1C0B53EC8D
:104350001A2B51EC1A0B00F05FFF41EC1B0B9A4833
:104360000621B0EE4B0AF0EE6B0A784400F0E0FA5A
:10437000B0EE401AF0EE601AB0EE41DAF0EE61DA1B
:1043800053EC1B2B51EC1B0B00F046FF53EC1D2B89
:1043900000F042FF9DED100B41EC1B0B53EC1A2B70
:1043A00051EC100B00F0A2FC53EC1C2B00F034FF7E
:1043B00053EC1B2B00F09AFC9DED100B41EC1B0BFA
:1043C00053EC102B51EC100B00F026FF41EC1D0BB1
:1043D0009FED7FEB53EC1E2B00F088FC53EC1B2B66
:1043E00000F084FC0890CDE908519DED080B53ECDA
:1043F0001E2B51EC100B01F01BF953EC1D2B01F09F
:1044000017F953EC1B2B01F03BF89DED080B41EC29
:104410001D0B53EC102B9DED100B51EC100B00F00D
:10442000FBFE41EC1B0B53EC1A2B51EC1D0B00F067
:10443000F3FE9DED080B41EC1A0B53EC102B51ECE5
:104440001C0B00F0E9FE53EC1A2B00F04FFC41EC82
:104450001A0B51EC1B0B53EC1A2B00F047FC0C9081
:10446000CDE90C519DED0C0B53EC1B2B51EC100BBB
:1044700001F0DEF853EC1A2B01F002F841EC1B0BB3
:104480009FED550B53EC102B9DED0C0B51EC100BCD
:1044900000F0C2FE41EC1A0B9FED510B51EC1B0BCF
:1044A00053EC102B00F0B8FE41EC1B0B9FED4E0BB4
:1044B00053EC102B9DED0C0B51EC100B00F0ACFEEF
:1044C00053EC1B2B00F012FC41EC100B48487844D5
:1044D00000EBC40090ED001B51EC100B53EC112BC2
:1044E00000F004FC41EC1B0B384600F042FECDE925
:1044F000080153EC1B2B51EC1A0B00F0F7FB41ECBD
:10450000100B3C48784400EBC40090ED00CB51EC1C
:10451000100B53EC1C2B00F0E9FB9DED081B53EC3A
:10452000112B00F0E3FB0690CDE906519DED080B41
:1045300053EC102B9DED060B51EC100B01F078F8AD
:1045400053EC1C2B01F074F853EC1A2B01F070F8AB
:1045500053EC1B2B00F094FF41EC100B9DED261B40
:1045600053EC102B8DED001B00959DED260B51ECAF
:10457000100B00F051FE9DED000B41EC1A0B53ECBB
:10458000102B9DED260B51EC100B01F051F89DED19
:10459000061B53EC112B2FE0000000604715F73F7E
:1045A000FE822B654715F73F44DF5DF80BAE543EA6
:1045B00000000000000040438E9803007AB60B0014
:1045C00002210000302100003A200000000000001D
:1045D0000000000000000840000000E009C7EE3FB6
:1045E000FD033ADC09C7EE3FF5015B14E02F3EBE48
:1045F000C61E0000801E000000F00EFE53EC1A2BB9
:1046000000F074FB9DED060B41EC1A0B53EC102BE4
:104610009DED000B51EC100B00F0FEFDCDE90C01FF
:104620009DED0C0B51EC1A0B53EC102B00F05EFBC4
:10463000CDE902010C46AA498C422FDB611A0843DE
:1046400018D19DED0C0B53EC102B9DED020B51EC92
:10465000100B00F0EDFF41EC1B0B9FEDA30B51EC99
:104660001A0B53EC102B00F041FB53EC1B2B00F00A
:10467000D1FE2DD20220FCF730FA00F009FA10EE3C
:10468000901A18EE900A8DED020B8DED008B61F300
:104690001E0003909DED020BFFF7BEBB944A24F071
:1046A0000041914214D39349214408437FF4EFAC75
:1046B0009DED0C0B53EC102B9DED020B51EC100BF0
:1046C00000F0B6FF53EC1A2B00F0A4FE7FF6DFAC2F
:1046D00024F000408849894A002601EB205182429B
:1046E0002BDA481C4FF4801121FA00F02044844A50
:1046F000C0F30A517A44A1F2FF3192ED000B814AD6
:104700008DED080BCA4020EA0202C0F3130040F40A
:104710008010C1F1140120FA01F60992002CB8BFF3
:1047200076429DED080B53EC102B9DED0C0B51ECDC
:10473000100B00F07DFFCDE90C019DED0C0B51EC51
:104740001A0B53EC102B00F0D1FA9FED6F0B089071
:10475000CDE9085153EC102B9DED080B51EC100BDB
:1047600000F05AFD41EC1B0B9FED690B53EC102B35
:104770009DED080B51EC100B00F04EFD9DED0C0B68
:1047800041EC1C0B53EC102B9DED080B51EC100B66
:1047900000F04EFF53EC1A2B00F072FE9FED5E1BF3
:1047A00053EC112B00F038FD53EC1C2B00F09EFA5B
:1047B00041EC1A0B51EC1B0B53EC1A2B00F096FA40
:1047C000CDE902019DED020B53EC1B2B51EC100BBC
:1047D00000F02EFF53EC1A2B00F052FE9DED020B61
:1047E00041EC1A0B53EC102B51EC100B00F014FDA4
:1047F000CDE908014A489DED080B0521784400F0F9
:1048000097F89DED081B51EC100B53EC112B00F0A9
:1048100003FD9DED021B53EC112B00F031FECDE9A1
:1048200006019DED020B53EC1A2B51EC100B00F01E
:10483000F3FC53EC1A2B00F059FA9FED3B0B41ECC3
:104840001A0B53EC102B9DED060B51EC100B00F0E6
:10485000EFFE9DED060B41EC1B0B53EC102B9DED79
:10486000020B51EC100B00F0D7FC53EC1B2B00F0AB
:10487000F9FA53EC1A2B00F0DBFE9DED021B53EC12
:10488000112B00F0D5FE53EC192B00F0F9FDCDE90A
:10489000020101EB065001150029C8BF039015DC89
:1048A0009DED020B324651EC100B01F058F8FFF76A
:1048B000B9F8042808BF00F0FBF832469DED020B62
:1048C00051EC100B01F04BF8CDE902019DED020B0C
:1048D00051EC180B53EC102B00F09EFCFFF73ABB89
:1048E0000000904000000000FE822B654715973CB9
:1048F00000CC904000346F3F01FCFFFF0000E03F20
:10490000081D0000FFFF0F0000000000432EE63FDF
:10491000396CA80C615C20BEEF39FAFE422EE63FEE
:10492000D81B000000000000000000000000004054
:1049300070B504462DED028B4D1E00EBC500B0EEA8
:10494000408AF0EE608A90ED000B35F0060017D03B
:1049500053EC182B51EC100B00F05EFC41EC100BEB
:104960006D1E04EBC50090ED001B51EC100B53ECD9
:10497000112B00F0BBF941EC100B35F00600E7D12C
:10498000022D36D0042D1CD0062D1CBFBDEC028B91
:1049900070BD53EC182B51EC100B00F03DFC94ED66
:1049A0000A1B53EC112B00F0A1F953EC182B00F06B
:1049B00033FC94ED081B53EC112B00F097F941ECFC
:1049C000100B53EC182B51EC100B00F025FC94ED60
:1049D000061B53EC112B00F089F953EC182B00F057
:1049E0001BFC94ED040B53EC102B00F07FF941EC11
:1049F000100B53EC182B51EC100B00F00DFC94ED48
:104A0000021B53EC112B00F071F953EC182B00F042
:104A100003FC94ED001B53EC112B00F067F9BDEC87
:104A2000028B41EC100B70BD9FED070B10B553ECE2
:104A3000102B9FED070B51EC100B00F013FA41EC1B
:104A4000100B10BD0000000000000000000000007E
:104A5000000000000000F03F10B553EC112B51ECAA
:104A6000100B00F043F941EC100B10BD00000000EA
:104A70009FED050B10B553EC102B51EC100B00F013
:104A8000F1F941EC100B10BD000000000000000027
:104A90009FED050B10B553EC102B51EC100B00F0F3
:104AA000BBFB41EC100B10BD0000000000000070CB
:104AB0009FED050B10B553EC102B51EC100B00F0D3
:104AC000ABFB41EC100B10BD00000000000000101B
:104AD00030EE200A704700009FED020A20EE000A27
:104AE00070470000000000101CB5054903C9CDE95E
:104AF000000108236A4600210248FDF78BF81CBD1F
:104B0000F85900080064004082B0CDE9000121F0AE
:104B1000004001909DED000B02B051EC100B70476E
:104B20000148006870470000F05900080B48017800
:104B30000B48007830B10B4800880B4A10800020E9
:104B4000084A10800648017031B10020054A1080E3
:104B5000024A1070012070470020FCE7020000208C
:104B600018000020060000200400002008B54FF4C3
:104B7000A060FDF70DFD0020034640F2473240F2F1
:104B8000E73100904FF08040FEF756F94FF4E130E6
:104B9000FEF722FC4FF4E130FEF798FCFDF714FC21
:104BA000FDF7B8FA4FF4007043100C4A4FF4FA7155
:104BB00000900B48FCF794FBFFF796FF094A11465B
:104BC0000120FEF7C3FE074A11460220FEF7BEFE93
:104BD000044A11460320FEF7B9FE08BD0004024056
:104BE00000640040A086010010B5FFF7BFFF06E09B
:104BF00001E0FDF7C1FFFFF799FF0028F9D1F7E7C2
:104C000000B52DED048B83B041EC190B00F044FC92
:104C100041EC180B18EE100A18EE901A8DED008B6F
:104C2000002818BF0120084320F00040C0F17F6039
:104C300000F1E040C00F14D019EE101A19EE900ADE
:104C40008DED009B002918BF0121084320F0004092
:104C5000C0F17F6000F1E040C00F04BF0120FBF70E
:104C60003CFF51EC180B03B0BDEC048B00BD81F090
:104C70000041704780F00040704721F000417047CC
:104C800020F000407047000021F00042A2F1605285
:104C9000B2F5801F01F0004328BFD2F17F6C0BD921
:104CA0005FEA001C43EAC20242EB507018BF704733
:104CB00028BF20F001007047B2F5801FBCBF184626
:104CC00070474FEA410C1CF5001F02D2084600F065
:104CD0000FBE70B500F04AFB00000089FFF7F6BF79
:104CE0004FF00040A0F580007047000010B591EA39
:104CF000030F48BF83F0004300F1A284841A71EBD4
:104D0000030C05D2121943EB0C03001B61EB0C01E1
:104D1000DFF824E14FEA1154A4EB135C1EEA430FC1
:104D200018BF9EEA445F73D023EA0E03DCF1200E25
:104D300021EA045143F4801332D322FA0CFE10EB23
:104D40000E0023FA0CFE41EB0E01CCF1200E03FA0B
:104D50000EFE10EB0E0051F10001B1F5801FCCF1F9
:104D6000200E32D201EB045112FA0EF2BDE81040CF
:104D700058BF7047401C38BF5FEA420218BF7047F7
:104D8000002814BF20F0010041F100014FEA410367
:104D900013F5001F38BF7047A1F1C04100F034BBCC
:104DA000012A43EB0302ACF1200CDCF11F0E32BFF1
:104DB0004FF0000E23FA0CF310EB030041EB04510B
:104DC000B4EB115FD0D0A1EB045101F5801149087B
:104DD0005FEA300001EB04510ED350F1000038BF00
:104DE00012FA0EFE08D1BDE81040C9E7401C38BFDA
:104DF0005FEA4202CAD1C3E7BDE810404FEA41036F
:104E000013F5001F38BF7047A1F1C04100F0FCBA94
:104E10009EEA445F08D011EA5E0FBDE8104004BF6F
:104E200001F0004100207047BDE8104070B500F06F
:104E30009DFA00BF64FBBE3E0000E0FF02494FF058
:104E4000000000F05ABD00BF0000F87F491058BFB5
:104E5000C1F140415B1058BFC3F140438B42EFF3B7
:104E6000008070472DE9C04130B4DFF8A0C23CEAB1
:104E7000111418BF3CEA131400F0EC8081EA03051A
:104E80001CEA111444EAD57418BF1CEA131500F08B
:104E9000C780A4EB05044FF0004545EAC12145EA6F
:104EA000C32341EA505143EA525304F17F749942BB
:104EB00004F500344FEAC0204FEAC22208BF9042F6
:104EC00000F09C804FEA13650FF24016765D4FEAC2
:104ED000134506FB05F7C7F1807706FB07F74FEA96
:104EE000D737A7FB03687642C8F58038A7FB06CE04
:104EF00038BFA8F1010807FB08E64FF0000EA6FB3B
:104F0000028CE6FB03CEDCF1000CCEF1004E38BF84
:104F1000AEF1010EA6FB0C584FF000074FF0000554
:104F2000E6FB0E87A1FB08C6A0FB07CE16EB0E061C
:104F300045F10005E1FB076515F1E04E7EBFA4F5E4
:104F400080345FEA46066D4116F1800745F10005A1
:104F50004FEA17274FEA066647EA0567A6F1DE46DD
:104F6000B6F1805F4FEA15251FD9384624F0010CB1
:104F700005EBC471BCF1FE6F01EB0C1102D8F0BC63
:104F8000BDE8008124425CBF01F5801E9EEAC47F1B
:104F900002D4F0BCBDE80081244238D4F0BCA1F1B9
:104FA000C041BDE8004100F02FBA4FEAD22242EAE8
:104FB00043524FEAD323A7FB02864FEAD02040EAB0
:104FC000415007FB03661EEA0E0F4FEAD12105FB95
:104FD000026658BFA6EB0056B6EB00564FEA520EDB
:104FE0004EEAC37E18EB0E0E56EB530EBDD518EBF2
:104FF00002085E417F1C55F10005B6E74FF48015AD
:105000004FF000074FF000064FF00008ADE7F0BC8E
:105010004FF0000001F1C04101F00041BDE8008106
:1050200011EA0C1F0CEA131500D00CE013EA0C1F58
:1050300000F025804FF00000F0BC81EA030101F090
:105040000041BDE80081F0BCBDE8004181EA0301F8
:1050500000F0DAB9F0BCBDE8004170B500F086F9A7
:10506000097EFC3E00F007B881EA03014FF0000022
:1050700001F00041704781EA030100F0C5B9F0BCBE
:10508000BDE800414FF0000021497047FFFDFBF9EA
:10509000F7F5F4F2F0EEEDEBE9E8E6E4E3E1E0DE6B
:1050A000DDDBDAD8D7D5D4D3D1D0CFCDCCCBCAC8DD
:1050B000C7C6C5C4C2C1C0BFBEBDBCBBBAB9B8B704
:1050C000B6B5B4B3B2B1B0AFAEADACABAAA9A8A8F7
:1050D000A7A6A5A4A3A3A2A1A09F9F9E9D9C9C9BC5
:1050E0009A99999897979695959493939291919070
:1050F0008F8F8E8E8D8C8C8B8B8A89898888878701
:105100008685858484838382828181800000FF0775
:105110000000F87F4FEA41034FEA5353A3F5806341
:10512000D3F11E03C8BFD3F1210C0CDD4FF00042B8
:1051300042EAC12242EA505232FA03FC8CEAE17C94
:10514000ACEBE1707047102BC4BF0020704703F533
:10515000787CBCF1FF3F04D06FF0004282EA21006E
:10516000704770B500F002F9499224800020704722
:10517000F2E710F0004248BF4042B0FA80F310FA64
:1051800003F10AD0C3F11D0303F580634FEA4150D8
:1051900002EB035202EBD12170474FF00000704741
:1051A00051EA030C17D41CF5801F58BFBCF5801FB3
:1051B00000F10680994218BF704708BF90427047BF
:1051C00007D711F5801F58BF13F5801F19D49942D6
:1051D0007047894270471CF5801F08D5BCF5801FB9
:1051E000F7D58B4218BF704708BF824270474FF413
:1051F000001C1CEB410F38BF1CEB430F01D28B424C
:10520000704770B500F0B2F8922449004FF0005199
:105210004FF08053FFF71ABEDFF848C170B51CEAA3
:10522000111E1EBF1CEA13159EEA0C0F95EA0C0F07
:1052300000F06F8081EA030423EA4C134EEAD47E27
:1052400021EA4C1141F4801143F48013AE44A1FBD8
:10525000024CA0FB0365AEF17F7E361955EB0C05C1
:10526000A1FB034C4CF10003A0FB021C16EB0C0647
:10527000654153F10003094218BF46F0010613F4DB
:10528000007F0BD14FEA03314FEA0530340341EA86
:10529000155140EA16506FF003020AE04FEAC321AD
:1052A0004FEAC520F40241EA555140EA56506FF0EA
:1052B000020202EB2E4201EB025585EACE710AD0C2
:1052C0005FEA440C18BF24F0004450F1000041F1A3
:1052D000000120EAD47040F2FE7C624500D270BD2D
:1052E000A84214BF4FF080444FF04044002E08BF46
:1052F0000024BEF1806FA8BFA1F1C041BDE870409D
:1053000080F282804FF0000001F1C04101F00041C5
:1053100070479EEA0C0F0CEA131518BF95EA0C0FA4
:1053200006D04FF0000081EA030E0EF0004170BD80
:1053300000F01CF88900013E00F007B800F009B841
:105340004FEA430C5FEA5C5C08D081EA030100F09D
:105350005BB84FEA410C5FEA5C5CF6D14FF00000AD
:10536000014970470000FF070000F87F0EF1020EB0
:105370002EF0030E5EF8046B364205D4012A43EB8F
:10538000030515F5001F12D8012841EB010C1CF58F
:10539000001F0CD80ED14FEAD17C15F5001F0CEB85
:1053A0004C0C0CF1020C08BF4CEBD37C04E04FF02A
:1053B000080C01E04FEAD37C0CEB4C0526FA05F60D
:1053C00006F00706B6F1040C06D20EEB860CBDE81B
:1053D00070404CF0010C6047DFE80CF0090B020252
:1053E0004FF000414FF00000A1F5002170BD1946BB
:1053F0001046012851EB010418BFD4F5001484BFF6
:10540000002001F0004170BD0808A0F500114FEA2E
:105410003101704753EA010C17D41CF5801F58BFA7
:10542000BCF5801F00F106808B4218BF704708BF93
:105430008242704707D713F5801F58BF11F5801FB0
:1054400019D48B4270479B4270471CF5801F08D5CA
:10545000BCF5801FF7D5994218BF704708BF90422E
:1054600070474FF4001C1CEB430F38BF1CEB410F7F
:1054700001D2994270470FB40CBC03BCFFF7C1BE08
:1054800091EA030F10B581F000413FF537AC83F08E
:10549000004300F0D5B800002DE9F04101F5801C73
:1054A000BCF5001FC0F2A9804FEA115C21EA0C5143
:1054B0000CF1FD0C41F480115FEA5C0C0CF5C07C32
:1054C00001D34000494130A4890241EA905187024A
:1054D0008E0E0A0CA45D04FB04F602FB06F6C6F170
:1054E0004046A4FB0662F60D46EA422606FB06F499
:1054F000A4FB01235242C3F1404338BF5B1EA6FB0D
:1055000002420024E6FB0324D20B42EA4446A6FBF7
:105510000623A1FB02E2A3FB07E4E3FB6142644232
:10552000C2F1404E38BFAEF1010EA6FB04234FF08E
:105530000002E6FB0E32A2FB03463400E2FB62648B
:10554000A1FB06E6A4FB07E8E4FB61687642C8F12C
:10555000405838BFA8F10108A2FB06E4A3FB08E508
:10556000E2FB6854A1FB05E6A7FB04E8E1FB6486C7
:1055700018F1200556F10006A809A8F11B08B10989
:1055800008F03F08B8F10A0F40EA86601CD901EB29
:105590000C51BDE8F08100BFFCF5EEE8E2DDD8D3A8
:1055A000CFCBC7C3C0BDB9B6B4B1AEACA9A7A5A394
:1055B000A19F9D9B9A9896959392908F8D8C8B89A5
:1055C0008887868584838281A0FB006800FB01F2C6
:1055D00008EB4208B8EB872807D5341858EB0104CC
:1055E000D5D5401C51F10001D1E7341A78EB010404
:1055F000CDD4401E71F10001C9E75FEA4C0C5FEAAF
:105600009C5C0DD105D34FF0000001F00041BDE8D6
:10561000F081BDE8F04170B5FFF7A8FE6DDBFFBE7D
:10562000BDE8F0414FF00000004970470000F87FEE
:1056300010B591EA030F48BF83F000433FF55EAB1E
:10564000841A71EB030C07D212198CF0004C43EB57
:105650000C03001B61EB0C01DFF8A4E14FEA1154CD
:10566000A4EB135C1EEA430F18BF9EEA445F00F0F0
:10567000B08023EA6E03524221EA0451C3EB6E0369
:1056800038BF5B1EDCF1200E25D322FA0CFE10EB96
:105690000E0043FA0CFE41EB0E01CCF1200E03FA92
:1056A0000EFE10EB0E0051F10001CCF1200E29D4BA
:1056B00012FA0EF201EB0451BDE8104058BF7047DA
:1056C000401C1CBFB2F1004F704700280CBF491CA2
:1056D00020F00100704712EB020E43EB030218BFEB
:1056E0004FF0010E4EEA4202ACF1200CDCF11E0E2E
:1056F00054D943FA0CFE10EB0E0051F1FF31CCF1FE
:105700001E0ED5D50EF1010E12FA0EFE404141EBF0
:10571000010101EB445C5FEA5C5C10D910EBDE70C8
:1057200001EB045138BFBEF1004FBDE8104018BF77
:10573000704700280CBF491C20F00100704730D290
:105740004FEAD42C11F5001124F400641BD0B1FAF7
:1057500081F20B3AA41AA41ED2F12003914030FA30
:1057600003F31943904001EBCC71002C01EB045181
:10577000BDE81040A8BF704701F1C0414FF00000E4
:1057800001F000417047B0FA80F310FA03F100D144
:1057900010BDE41A173C4805C90AE4E701EB0451BF
:1057A00010BD491001EB0451BDE810404FEA300034
:1057B00002E04FF0000170474A0008BF0042F8D0F5
:1057C000B2F5001F28BF704701F000414FF0000004
:1057D00070479EEA445F07D011EA5E0FBDE81040B3
:1057E00004BF002100207047BDE8104070B5FFF7EE
:1057F000BDFD00BF40DFF63E83F00041104670471C
:105800000000E0FF43004FEAD30C4FEA3C0C43405A
:105810001FBF40070CF1605113F0FE4F70471CF0A2
:10582000006F03D100200CF0004170470CF00043E2
:1058300043EA507010B540EACC0000F00EF800BF0B
:10584000000000924FEA0001FFF7DEBD4FF000417B
:105850004FF00000A1F5002170470EF1020E2EF06E
:10586000030E5EF8044B244204D44FEA4102B2F125
:105870007F4F11D84FEA4003B3F17F4F0CD80ED1C0
:105880004FEAD07CB2F17F4F0CEB4C0C0CF1020CC8
:1058900008BF4CEBD17C04E04FF0080C01E04FEA6C
:1058A000D17C0CEB4C0324FA03F404F00704B4F1AC
:1058B000040C06D20EEB840CBDE810404CF0010C39
:1058C0006047DFE80CF0070802024FF00040A0F547
:1058D000800010BD0846420018BFD2F1807288BF18
:1058E00000F0004010BD4FF04070E1EE100A70472C
:1058F000FF2141EAD050C00570470CF00F03092B7F
:1059000008BF082000F059800A2B0BD0082B18BFC5
:10591000704708BF1CF0400F0AD04FF000004FF056
:10592000000170471CF0400F18BF4FF00040704757
:105930001CF0100F08D020F0704300F07F4242EAC4
:10594000D3014FEA4370704700F0604021F07F427E
:1059500042EA000201F07F4040EA727070474FF067
:10596000FF0C4CF4E06C1CEA11531CBF9CEA030CC6
:105970009445C2BFDA4201EB02517047002B0DD0B3
:10598000BCF1000F0FD0002A01F00041A4BF41F08C
:10599000E04141F07F614FF00000704701F00041AD
:1059A0004FF00000704750EA01334FF09B0C18BFD6
:1059B0004CF0806C7FF442AA70471CF4801F11D019
:1059C0001CF4E02F03D06FEACC31490070474FF050
:1059D0004050EFF3008222F0704242EA000282F36C
:1059E000008870474FF00000704700006000002002
:1059F0006C00002078000020010000000000000082
:105A00004D4F0000010000004D4F0000000000005D
:105A1000554D000002000000534600000000000049
:105A20004D4F000001000000414300000000000055
:105A3000444300000000000056480200000000003F
:105A4000564C0200000000004A5600000000000012
:105A50004247004000000000554D000005000000D6
:105A60005346000000000000584D010000000000F7
:105A7000584D0200000000004D4F000001000000E2
:105A8000414300000000000041430000000000000E
:105A900041430000000000004443000000000000FB
:105AA00044430000000000004443000000000000E8
:105AB00053500000000000005350000000000000A0
:105AC0005350000000000000564803000000000092
:105AD000564C030000000000000000000000000021
